{
  "address": "0xE46ABe3f8b1Bc205dc24F431b025b73cd5FCA710",
  "abi": [
    {
      "anonymous": false,
      "inputs": [
        {
          "indexed": true,
          "internalType": "address",
          "name": "positionManager",
          "type": "address"
        },
        {
          "indexed": false,
          "internalType": "uint256",
          "name": "tokenId",
          "type": "uint256"
        },
        {
          "indexed": false,
          "internalType": "uint256",
          "name": "amount0CollectedFee",
          "type": "uint256"
        },
        {
          "indexed": false,
          "internalType": "uint256",
          "name": "amount1CollectedFee",
          "type": "uint256"
        },
        {
          "indexed": false,
          "internalType": "uint256",
          "name": "amount0Removed",
          "type": "uint256"
        },
        {
          "indexed": false,
          "internalType": "uint256",
          "name": "amount1Removed",
          "type": "uint256"
        }
      ],
      "name": "PositionClosed",
      "type": "event"
    },
    {
      "inputs": [
        {
          "internalType": "uint256",
          "name": "tokenId",
          "type": "uint256"
        },
        {
          "internalType": "bool",
          "name": "returnTokenToUser",
          "type": "bool"
        }
      ],
      "name": "closePosition",
      "outputs": [
        {
          "internalType": "uint256",
          "name": "amount0CollectedFee",
          "type": "uint256"
        },
        {
          "internalType": "uint256",
          "name": "amount1CollectedFee",
          "type": "uint256"
        },
        {
          "internalType": "uint256",
          "name": "amount0Removed",
          "type": "uint256"
        },
        {
          "internalType": "uint256",
          "name": "amount1Removed",
          "type": "uint256"
        }
      ],
      "stateMutability": "nonpayable",
      "type": "function"
    }
  ],
  "transactionHash": "0xc6f6d2e38700e57fcb560ba30e69e90dc2befafbff129956e1bb586613fb0d3d",
  "args": [],
  "numDeployments": 1,
  "solcInputHash": "dd6301e56a669096d4ac4bf415393c0f",
  "bytecode": "0x608060405234801561001057600080fd5b50610702806100206000396000f3fe608060405234801561001057600080fd5b506004361061002b5760003560e01c8063e4a60d4514610030575b600080fd5b61004361003e3660046104ca565b61005c565b604051610053949392919061068e565b60405180910390f35b600080600080600061006c61042d565b905060008160050160009054906101000a90046001600160a01b03166001600160a01b0316635bfccac96040518163ffffffff1660e01b815260040160206040518083038186803b1580156100c057600080fd5b505afa1580156100d4573d6000803e3d6000fd5b505050506040513d601f19601f820116820180604052508101906100f891906104a9565b9050600060405180608001604052808a8152602001896101185730610127565b60038501546001600160a01b03165b6001600160a01b0390811682526001600160801b0360208301819052604092830152905163fc6f786560e01b815291925083169063fc6f78659061016f9084906004016105ff565b6040805180830381600087803b15801561018857600080fd5b505af115801561019c573d6000803e3d6000fd5b505050506040513d601f19601f820116820180604052508101906101c091906104fd565b60405163133f757160e31b815291985096506000906001600160a01b038416906399fbab88906101f4908d90600401610685565b6101806040518083038186803b15801561020d57600080fd5b505afa158015610221573d6000803e3d6000fd5b505050506040513d601f19601f820116820180604052508101906102459190610520565b50505050975050505050505050806001600160801b0316600014610312576040805160a0810182528b81526001600160801b0383166020820152600081830181905260608201524260808201529051630624e65f60e11b81526001600160a01b03851690630c49ccbe906102bd908490600401610642565b6040805180830381600087803b1580156102d657600080fd5b505af11580156102ea573d6000803e3d6000fd5b505050506040513d601f19601f8201168201806040525081019061030e91906104fd565b5050505b600060405180608001604052808c81526020018b610330573061033f565b60038701546001600160a01b03165b6001600160a01b0390811682526001600160801b0360208301819052604092830152905163fc6f786560e01b815291925085169063fc6f7865906103879084906004016105ff565b6040805180830381600087803b1580156103a057600080fd5b505af11580156103b4573d6000803e3d6000fd5b505050506040513d601f19601f820116820180604052508101906103d891906104fd565b604051919850965030907f787a5961a32a9db8684de8929b9ecb022629d7e531bd12a613ec80a69b3f241090610417908e908d908d908d908d906106a9565b60405180910390a2505050505092959194509250565b7fd5aa5c52d76b5d2be1bece4b96c91e533fe2611adb0c19cf868dadf921fc13b890565b80516001600160a01b038116811461046857600080fd5b919050565b8051600281900b811461046857600080fd5b80516001600160801b038116811461046857600080fd5b805162ffffff8116811461046857600080fd5b6000602082840312156104ba578081fd5b6104c382610451565b9392505050565b600080604083850312156104dc578081fd5b82359150602083013580151581146104f2578182fd5b809150509250929050565b6000806040838503121561050f578182fd5b505080516020909101519092909150565b6000806000806000806000806000806000806101808d8f031215610542578788fd5b8c516bffffffffffffffffffffffff8116811461055d578889fd5b9b5061056b60208e01610451565b9a5061057960408e01610451565b995061058760608e01610451565b985061059560808e01610496565b97506105a360a08e0161046d565b96506105b160c08e0161046d565b95506105bf60e08e0161047f565b94506101008d015193506101208d015192506105de6101408e0161047f565b91506105ed6101608e0161047f565b90509295989b509295989b509295989b565b815181526020808301516001600160a01b0316908201526040808301516001600160801b0390811691830191909152606092830151169181019190915260800190565b600060a082019050825182526001600160801b03602084015116602083015260408301516040830152606083015160608301526080830151608083015292915050565b90815260200190565b93845260208401929092526040830152606082015260800190565b948552602085019390935260408401919091526060830152608082015260a0019056fea2646970667358221220bee23318df345d933818bf8ec824402351aa1f9976bba34ec613913a927d95ac64736f6c63430007060033",
  "devdoc": {
    "kind": "dev",
    "methods": {
      "closePosition(uint256,bool)": {
        "params": {
          "returnTokenToUser": "true if the token should be returned to the user",
          "tokenId": "id of the token to close"
        },
        "returns": {
          "amount0CollectedFee": "uint256 amount of token0 collected fee",
          "amount0Removed": "uint256 amount of token0 removed from liquidity",
          "amount1CollectedFee": "uint256 amount of token1 collected fee",
          "amount1Removed": "uint256 amount of token1 removed from liquidity"
        }
      }
    },
    "version": 1
  },
  "userdoc": {
    "events": {
      "PositionClosed(address,uint256,uint256,uint256,uint256,uint256)": {
        "notice": "emitted when a UniswapNFT position is closed"
      }
    },
    "kind": "user",
    "methods": {
      "closePosition(uint256,bool)": {
        "notice": "close a UniswapV3 position NFT"
      }
    },
    "version": 1
  },
  "storageLayout": {
    "storage": [],
    "types": null
  }
}