{
  "address": "0x3d2e15bd4C130eB65C11cbE6BA5b8E5Eb533e519",
  "abi": [
    {
      "anonymous": false,
      "inputs": [
        {
          "indexed": true,
          "internalType": "address",
          "name": "positionManager",
          "type": "address"
        },
        {
          "indexed": false,
          "internalType": "uint256",
          "name": "tokenId",
          "type": "uint256"
        },
        {
          "indexed": false,
          "internalType": "uint256",
          "name": "amount0Collected",
          "type": "uint256"
        },
        {
          "indexed": false,
          "internalType": "uint256",
          "name": "amount1Collected",
          "type": "uint256"
        }
      ],
      "name": "PositionClosed",
      "type": "event"
    },
    {
      "inputs": [
        {
          "components": [
            {
              "internalType": "uint256",
              "name": "tokenId",
              "type": "uint256"
            },
            {
              "internalType": "bool",
              "name": "returnTokenToUser",
              "type": "bool"
            }
          ],
          "internalType": "struct IClosePositionOneShot.ClosePositionOneShotInput",
          "name": "input",
          "type": "tuple"
        }
      ],
      "name": "closePositionOneShot",
      "outputs": [
        {
          "components": [
            {
              "internalType": "uint256",
              "name": "amount0Collected",
              "type": "uint256"
            },
            {
              "internalType": "uint256",
              "name": "amount1Collected",
              "type": "uint256"
            }
          ],
          "internalType": "struct IClosePositionOneShot.ClosePositionOneShotOutput",
          "name": "output",
          "type": "tuple"
        }
      ],
      "stateMutability": "nonpayable",
      "type": "function"
    }
  ],
  "transactionHash": "0xe06d9c27e3567daee83be70ca097d691b9e5a41d8ba7c959349afe8d6d41bbfc",
  "args": [],
  "numDeployments": 2,
  "solcInputHash": "e0f76533d5690c320d962bc474431dde",
  "bytecode": "0x608060405234801561001057600080fd5b50610663806100206000396000f3fe608060405234801561001057600080fd5b506004361061002b5760003560e01c80636cfaa5ae14610030575b600080fd5b61004361003e36600461041c565b610059565b6040516100509190610571565b60405180910390f35b610061610389565b600061006b610365565b905060008160050160009054906101000a90046001600160a01b03166001600160a01b0316635bfccac96040518163ffffffff1660e01b815260040160206040518083038186803b1580156100bf57600080fd5b505afa1580156100d3573d6000803e3d6000fd5b505050506040513d601f19601f820116820180604052508101906100f791906103fb565b845160405163133f757160e31b81529192506000916001600160a01b038416916399fbab889161012a919060040161060e565b6101806040518083038186803b15801561014357600080fd5b505afa158015610157573d6000803e3d6000fd5b505050506040513d601f19601f8201168201806040525081019061017b9190610492565b50505050975050505050505050806001600160801b0316600014610249576040805160a081018252865181526001600160801b0383166020820152600081830181905260608201524260808201529051630624e65f60e11b81526001600160a01b03841690630c49ccbe906101f49084906004016105cb565b6040805180830381600087803b15801561020d57600080fd5b505af1158015610221573d6000803e3d6000fd5b505050506040513d601f19601f82011682018060405250810190610245919061046f565b5050505b6000604051806080016040528087600001518152602001876020015161026f573061027e565b60038601546001600160a01b03165b6001600160a01b0390811682526001600160801b0360208301819052604092830152905163fc6f786560e01b815291925084169063fc6f7865906102c6908490600401610588565b6040805180830381600087803b1580156102df57600080fd5b505af11580156102f3573d6000803e3d6000fd5b505050506040513d601f19601f82011682018060405250810190610317919061046f565b60208701819052818752875160405130937fa83f389ef7a9085e50e5689eb7ad9d3e0f0e6bdb4c08ed7d5da097665b1a7c83936103549392610617565b60405180910390a250505050919050565b7fd5aa5c52d76b5d2be1bece4b96c91e533fe2611adb0c19cf868dadf921fc13b890565b604051806040016040528060008152602001600081525090565b80516001600160a01b03811681146103ba57600080fd5b919050565b8051600281900b81146103ba57600080fd5b80516001600160801b03811681146103ba57600080fd5b805162ffffff811681146103ba57600080fd5b60006020828403121561040c578081fd5b610415826103a3565b9392505050565b60006040828403121561042d578081fd5b6040516040810181811067ffffffffffffffff8211171561044a57fe5b6040528235815260208301358015158114610463578283fd5b60208201529392505050565b60008060408385031215610481578081fd5b505080516020909101519092909150565b6000806000806000806000806000806000806101808d8f0312156104b4578788fd5b8c516bffffffffffffffffffffffff811681146104cf578889fd5b9b506104dd60208e016103a3565b9a506104eb60408e016103a3565b99506104f960608e016103a3565b985061050760808e016103e8565b975061051560a08e016103bf565b965061052360c08e016103bf565b955061053160e08e016103d1565b94506101008d015193506101208d015192506105506101408e016103d1565b915061055f6101608e016103d1565b90509295989b509295989b509295989b565b815181526020918201519181019190915260400190565b815181526020808301516001600160a01b0316908201526040808301516001600160801b0390811691830191909152606092830151169181019190915260800190565b600060a082019050825182526001600160801b03602084015116602083015260408301516040830152606083015160608301526080830151608083015292915050565b90815260200190565b928352602083019190915260408201526060019056fea2646970667358221220156e168bcfc16046b8d27d4f7b75a6168ab1b66d4a6c40e34d06b80e1c0404de64736f6c63430007060033",
  "devdoc": {
    "kind": "dev",
    "methods": {
      "closePositionOneShot((uint256,bool))": {
        "params": {
          "input": "struct of closePositionOneShot parameters"
        },
        "returns": {
          "output": "struct of closePositionOneShot return values"
        }
      }
    },
    "version": 1
  },
  "userdoc": {
    "events": {
      "PositionClosed(address,uint256,uint256,uint256)": {
        "notice": "emitted when a UniswapNFT position is closed in one shot"
      }
    },
    "kind": "user",
    "methods": {
      "closePositionOneShot((uint256,bool))": {
        "notice": "close position in one shot"
      }
    },
    "version": 1
  },
  "storageLayout": {
    "storage": [],
    "types": null
  }
}