{
  "address": "0x86Ae132100eC35156A524911584069C34E68F9e2",
  "abi": [
    {
      "inputs": [
        {
          "internalType": "address",
          "name": "token",
          "type": "address"
        }
      ],
      "name": "decimals",
      "outputs": [
        {
          "internalType": "uint8",
          "name": "",
          "type": "uint8"
        }
      ],
      "stateMutability": "view",
      "type": "function"
    },
    {
      "inputs": [
        {
          "internalType": "address",
          "name": "token",
          "type": "address"
        }
      ],
      "name": "symbol",
      "outputs": [
        {
          "internalType": "string",
          "name": "",
          "type": "string"
        }
      ],
      "stateMutability": "view",
      "type": "function"
    }
  ],
  "transactionHash": "0x3f71f7a794425c686ea71325aa0251ed02e9c3fc6257d5772e7bc191fa343faa",
  "args": [],
  "numDeployments": 1,
  "solcInputHash": "dd6301e56a669096d4ac4bf415393c0f",
  "bytecode": "0x608060405234801561001057600080fd5b50610301806100206000396000f3fe608060405234801561001057600080fd5b50600436106100365760003560e01c8063a86e35761461003b578063d449a83214610064575b600080fd5b61004e610049366004610174565b610084565b60405161005b919061025a565b60405180910390f35b610077610072366004610174565b610101565b60405161005b919061028d565b6060816001600160a01b03166395d89b416040518163ffffffff1660e01b815260040160006040518083038186803b1580156100bf57600080fd5b505afa1580156100d3573d6000803e3d6000fd5b505050506040513d6000823e601f3d908101601f191682016040526100fb91908101906101a2565b92915050565b6000816001600160a01b031663313ce5676040518163ffffffff1660e01b815260040160206040518083038186803b15801561013c57600080fd5b505afa158015610150573d6000803e3d6000fd5b505050506040513d601f19601f820116820180604052508101906100fb9190610239565b600060208284031215610185578081fd5b81356001600160a01b038116811461019b578182fd5b9392505050565b6000602082840312156101b3578081fd5b815167ffffffffffffffff808211156101ca578283fd5b818401915084601f8301126101dd578283fd5b8151818111156101e957fe5b604051601f8201601f19168101602001838111828210171561020757fe5b60405281815283820160200187101561021e578485fd5b61022f82602083016020870161029b565b9695505050505050565b60006020828403121561024a578081fd5b815160ff8116811461019b578182fd5b600060208252825180602084015261027981604085016020870161029b565b601f01601f19169190910160400192915050565b60ff91909116815260200190565b60005b838110156102b657818101518382015260200161029e565b838111156102c5576000848401525b5050505056fea2646970667358221220860522202996a9bf6ba4aca67b23629d405fde79dea288c60ecade9803395a4964736f6c63430007060033",
  "devdoc": {
    "kind": "dev",
    "methods": {},
    "version": 1
  },
  "userdoc": {
    "kind": "user",
    "methods": {},
    "version": 1
  },
  "storageLayout": {
    "storage": [],
    "types": null
  }
}