{
  "address": "0x5652A51dA73873F1Bf5615C0fA5EaB77fc2e4510",
  "abi": [
    {
      "inputs": [
        {
          "internalType": "address",
          "name": "_registryAddressHolder",
          "type": "address"
        },
        {
          "internalType": "address",
          "name": "_uniswapAddressHolder",
          "type": "address"
        }
      ],
      "stateMutability": "nonpayable",
      "type": "constructor"
    },
    {
      "anonymous": false,
      "inputs": [
        {
          "indexed": false,
          "internalType": "address",
          "name": "account",
          "type": "address"
        }
      ],
      "name": "Paused",
      "type": "event"
    },
    {
      "anonymous": false,
      "inputs": [
        {
          "indexed": true,
          "internalType": "address",
          "name": "positionManager",
          "type": "address"
        },
        {
          "indexed": false,
          "internalType": "address",
          "name": "from",
          "type": "address"
        },
        {
          "indexed": false,
          "internalType": "uint256",
          "name": "positionId",
          "type": "uint256"
        },
        {
          "indexed": false,
          "internalType": "uint256",
          "name": "tokenId",
          "type": "uint256"
        }
      ],
      "name": "PositionWithdrawn",
      "type": "event"
    },
    {
      "anonymous": false,
      "inputs": [
        {
          "indexed": false,
          "internalType": "address",
          "name": "account",
          "type": "address"
        }
      ],
      "name": "Unpaused",
      "type": "event"
    },
    {
      "inputs": [
        {
          "internalType": "address",
          "name": "user",
          "type": "address"
        },
        {
          "internalType": "uint256",
          "name": "positionId",
          "type": "uint256"
        }
      ],
      "name": "closedPositionForced",
      "outputs": [],
      "stateMutability": "nonpayable",
      "type": "function"
    },
    {
      "inputs": [],
      "name": "pause",
      "outputs": [],
      "stateMutability": "nonpayable",
      "type": "function"
    },
    {
      "inputs": [],
      "name": "paused",
      "outputs": [
        {
          "internalType": "bool",
          "name": "",
          "type": "bool"
        }
      ],
      "stateMutability": "view",
      "type": "function"
    },
    {
      "inputs": [],
      "name": "registryAddressHolder",
      "outputs": [
        {
          "internalType": "contract IRegistryAddressHolder",
          "name": "",
          "type": "address"
        }
      ],
      "stateMutability": "view",
      "type": "function"
    },
    {
      "inputs": [],
      "name": "uniswapAddressHolder",
      "outputs": [
        {
          "internalType": "contract IUniswapAddressHolder",
          "name": "",
          "type": "address"
        }
      ],
      "stateMutability": "view",
      "type": "function"
    },
    {
      "inputs": [],
      "name": "unpause",
      "outputs": [],
      "stateMutability": "nonpayable",
      "type": "function"
    }
  ],
  "transactionHash": "0xb694b076ede7ecafceef6726b89b663eff7c1715089b95c1725c4a86fed3a65d",
  "args": [
    "0xe5b481AFFFbfe1A61d762f42d4c630a5AAD388f9",
    "0x162Ff164B376fB1Fb0Ed657467123b262F25a985"
  ],
  "numDeployments": 1,
  "solcInputHash": "dd6301e56a669096d4ac4bf415393c0f",
  "bytecode": "0x60c06040523480156200001157600080fd5b506040516200192a3803806200192a8339810160408190526200003491620000de565b6000805460ff19169055816001600160a01b038116620000715760405162461bcd60e51b8152600401620000689062000115565b60405180910390fd5b60601b6001600160601b0319166080526001600160a01b038116620000aa5760405162461bcd60e51b8152600401620000689062000135565b60601b6001600160601b03191660a0525062000155565b80516001600160a01b0381168114620000d957600080fd5b919050565b60008060408385031215620000f1578182fd5b620000fc83620000c1565b91506200010c60208401620000c1565b90509250929050565b60208082526006908201526504252524148360d41b604082015260600190565b60208082526006908201526504752554148360d41b604082015260600190565b60805160601c60a05160601c61179c6200018e6000398061026152806104d65280610c4752508061023d5280610817525061179c6000f3fe608060405234801561001057600080fd5b50600436106100625760003560e01c80633f4ba83a146100675780635c975abb146100715780638456cb591461008f578063974914d514610097578063c0f06ca4146100ac578063c56c99b8146100b4575b600080fd5b61006f6100c7565b005b610079610182565b6040516100869190611617565b60405180910390f35b61006f61018b565b61009f61023b565b60405161008691906115ba565b61009f61025f565b61006f6100c2366004611215565b610283565b6100cf610813565b6001600160a01b0316635aa6e6756040518163ffffffff1660e01b815260040160206040518083038186803b15801561010757600080fd5b505afa15801561011b573d6000803e3d6000fd5b505050506040513d601f19601f8201168201806040525081019061013f91906111f9565b6001600160a01b0316336001600160a01b0316146101785760405162461bcd60e51b815260040161016f90611660565b60405180910390fd5b6101806108ab565b565b60005460ff1690565b610193610813565b6001600160a01b0316635aa6e6756040518163ffffffff1660e01b815260040160206040518083038186803b1580156101cb57600080fd5b505afa1580156101df573d6000803e3d6000fd5b505050506040513d601f19601f8201168201806040525081019061020391906111f9565b6001600160a01b0316336001600160a01b0316146102335760405162461bcd60e51b815260040161016f90611660565b61018061094b565b7f000000000000000000000000000000000000000000000000000000000000000081565b7f000000000000000000000000000000000000000000000000000000000000000081565b61028b610813565b6001600160a01b0316635aa6e6756040518163ffffffff1660e01b815260040160206040518083038186803b1580156102c357600080fd5b505afa1580156102d7573d6000803e3d6000fd5b505050506040513d601f19601f820116820180604052508101906102fb91906111f9565b6001600160a01b0316336001600160a01b03161461032b5760405162461bcd60e51b815260040161016f90611660565b6000610335610813565b6001600160a01b0316632d2c5b586040518163ffffffff1660e01b815260040160206040518083038186803b15801561036d57600080fd5b505afa158015610381573d6000803e3d6000fd5b505050506040513d601f19601f820116820180604052508101906103a591906111f9565b6001600160a01b031663c81e0f91846040518263ffffffff1660e01b81526004016103d091906115ba565b60206040518083038186803b1580156103e857600080fd5b505afa1580156103fc573d6000803e3d6000fd5b505050506040513d601f19601f8201168201806040525081019061042091906111f9565b90506001600160a01b0381166104485760405162461bcd60e51b815260040161016f90611641565b60405163519f509960e01b81526000906001600160a01b0383169063519f509990610477908690600401611711565b6101a06040518083038186803b15801561049057600080fd5b505afa1580156104a4573d6000803e3d6000fd5b505050506040513d601f19601f820116820180604052508101906104c891906112e8565b9050600061056a82600001517f00000000000000000000000000000000000000000000000000000000000000006001600160a01b0316635bfccac96040518163ffffffff1660e01b815260040160206040518083038186803b15801561052d57600080fd5b505afa158015610541573d6000803e3d6000fd5b505050506040513d601f19601f8201168201806040525081019061056591906111f9565b6109ce565b9050600080600080866001600160a01b031663e4a60d45876000015160006040518363ffffffff1660e01b81526004016105a592919061171a565b608060405180830381600087803b1580156105bf57600080fd5b505af11580156105d3573d6000803e3d6000fd5b505050506040513d601f19601f820116820180604052508101906105f791906114a6565b9350935093509350610607611114565b8881526040805160a08101825287516001600160a01b0390811682526020808a0151909116908201526000918101829052610120890151606082019061065790610651888b610a94565b90610a94565b81526020016106788a61014001516106518988610a9490919063ffffffff16565b905260405163ac1836b560e01b81529091506000906001600160a01b038b169063ac1836b5906106ac9085906004016116cc565b6040805180830381600087803b1580156106c557600080fd5b505af11580156106d9573d6000803e3d6000fd5b505050506040513d601f19601f820116820180604052508101906106fd91906113ad565b805160608501526020808201805160808701528a51918b01518351915193945061072993909190610af5565b60c085015260a084015260e08901516107429088610a94565b60208401526101008901516107579087610a94565b60408085019190915251635e93961560e01b81526001600160a01b038b1690635e9396159061078a90869060040161167e565b600060405180830381600087803b1580156107a457600080fd5b505af11580156107b8573d6000803e3d6000fd5b50505050896001600160a01b03167ff40e0ffa27560ec15171cdae38e20b86decd3a5bf7ed5072c7be642fb04b687c338d8c600001516040516107fd939291906115ce565b60405180910390a2505050505050505050505050565b60007f00000000000000000000000000000000000000000000000000000000000000006001600160a01b0316637b1039996040518163ffffffff1660e01b815260040160206040518083038186803b15801561086e57600080fd5b505afa158015610882573d6000803e3d6000fd5b505050506040513d601f19601f820116820180604052508101906108a691906111f9565b905090565b6108b3610182565b6108fb576040805162461bcd60e51b815260206004820152601460248201527314185d5cd8589b194e881b9bdd081c185d5cd95960621b604482015290519081900360640190fd5b6000805460ff191690557f5db9ee0a495bf2e6ff9c91a7834c1ba4fdd244a5e8aa4e537bd38aeae4b073aa61092e610b9c565b604080516001600160a01b039092168252519081900360200190a1565b610953610182565b15610998576040805162461bcd60e51b815260206004820152601060248201526f14185d5cd8589b194e881c185d5cd95960821b604482015290519081900360640190fd5b6000805460ff191660011790557f62e78cea01bee320cd4e420270b5ea74000d11b0c9f74754ebdbfc544b05a25861092e610b9c565b6109d6611151565b60405163133f757160e31b81526001600160a01b038316906399fbab8890610a02908690600401611711565b6101806040518083038186803b158015610a1b57600080fd5b505afa158015610a2f573d6000803e3d6000fd5b505050506040513d601f19601f82011682018060405250810190610a5391906114db565b5050505050600290810b810b608089015290810b900b606087015262ffffff1660408601526001600160a01b03908116602086015216835250909392505050565b600082820183811015610aee576040805162461bcd60e51b815260206004820152601b60248201527f536166654d6174683a206164646974696f6e206f766572666c6f770000000000604482015290519081900360640190fd5b9392505050565b6000806000610b02610813565b6001600160a01b03166386dd37f36040518163ffffffff1660e01b815260040160006040518083038186803b158015610b3a57600080fd5b505afa158015610b4e573d6000803e3d6000fd5b505050506040513d6000823e601f3d908101601f19168201604052610b769190810190611240565b9050610b83878683610ba0565b9250610b90868583610ba0565b91505094509492505050565b3390565b600080610bab610813565b6001600160a01b03166308846aa26040518163ffffffff1660e01b815260040160206040518083038186803b158015610be357600080fd5b505afa158015610bf7573d6000803e3d6000fd5b505050506040513d601f19601f82011682018060405250810190610c1b91906111f9565b9050806001600160a01b0316856001600160a01b03161415610c405783915050610aee565b6000610cde7f00000000000000000000000000000000000000000000000000000000000000006001600160a01b03166380f5db8c6040518163ffffffff1660e01b815260040160206040518083038186803b158015610c9e57600080fd5b505afa158015610cb2573d6000803e3d6000fd5b505050506040513d601f19601f82011682018060405250810190610cd691906111f9565b878487610d7a565b90506000816001600160a01b0316633850c7bd6040518163ffffffff1660e01b815260040160e06040518083038186803b158015610d1b57600080fd5b505afa158015610d2f573d6000803e3d6000fd5b505050506040513d601f19601f82011682018060405250810190610d53919061140f565b5050505050509050610d6f81610d6888610f32565b8986610f7b565b979650505050505050565b60008060005b8351811015610f0257838181518110610d9557fe5b602002602001015162ffffff1660001415610daf57610efa565b6000876001600160a01b0316631698ee828888888681518110610dce57fe5b60200260200101516040518463ffffffff1660e01b8152600401610df4939291906115ef565b60206040518083038186803b158015610e0c57600080fd5b505afa158015610e20573d6000803e3d6000fd5b505050506040513d601f19601f82011682018060405250810190610e4491906111f9565b90506001600160a01b038116610e5a5750610efa565b6000816001600160a01b0316631a6865026040518163ffffffff1660e01b815260040160206040518083038186803b158015610e9557600080fd5b505afa158015610ea9573d6000803e3d6000fd5b505050506040513d601f19601f82011682018060405250810190610ecd91906113f5565b9050836001600160801b0316816001600160801b031611610eef578484610ef2565b81815b909550935050505b600101610d80565b506001600160a01b038216610f295760405162461bcd60e51b815260040161016f90611622565b50949350505050565b806001600160801b0381168114610f76576040805162461bcd60e51b815260206004820152600360248201526226a41960e91b604482015290519081900360640190fd5b919050565b60006001600160801b036001600160a01b03861611610fea576001600160a01b0380861680029083811690851610610fca57610fc5600160c01b866001600160801b031683611065565b610fe2565b610fe281866001600160801b0316600160c01b611065565b91505061105d565b60006110096001600160a01b0387168068010000000000000000611065565b9050826001600160a01b0316846001600160a01b0316106110415761103c600160801b866001600160801b031683611065565b611059565b61105981866001600160801b0316600160801b611065565b9150505b949350505050565b600080806000198587098686029250828110908390030390508061109b576000841161109057600080fd5b508290049050610aee565b8084116110a757600080fd5b6000848688096000868103871696879004966002600389028118808a02820302808a02820302808a02820302808a02820302808a02820302808a02909103029181900381900460010186841190950394909402919094039290920491909117919091029150509392505050565b6040518060e00160405280600081526020016000815260200160008152602001600081526020016000815260200160008152602001600081525090565b6040805160a08101825260008082526020820181905291810182905260608101829052608081019190915290565b8051610f768161174e565b80516fffffffffffffffffffffffffffffffff1981168114610f7657600080fd5b8051600281900b8114610f7657600080fd5b80516001600160801b0381168114610f7657600080fd5b805161ffff81168114610f7657600080fd5b805162ffffff81168114610f7657600080fd5b60006020828403121561120a578081fd5b8151610aee8161174e565b60008060408385031215611227578081fd5b82356112328161174e565b946020939093013593505050565b60006020808385031215611252578182fd5b825167ffffffffffffffff80821115611269578384fd5b818501915085601f83011261127c578384fd5b81518181111561128857fe5b838102915061129884830161172a565b8181528481019084860184860187018a10156112b2578788fd5b8795505b838610156112db576112c7816111e6565b8352600195909501949186019186016112b6565b5098975050505050505050565b60006101a08083850312156112fb578182fd5b6113048161172a565b9050825181526113166020840161117f565b60208201526113276040840161118a565b6040820152606083015160608201526080830151608082015260a083015160a082015260c083015160c082015260e083015160e08201526101008084015181830152506101208084015181830152506101408084015181830152506101606113908185016111ab565b908201526101806113a28482016111ab565b908201529392505050565b6000604082840312156113be578081fd5b6040516040810181811067ffffffffffffffff821117156113db57fe5b604052825181526020928301519281019290925250919050565b600060208284031215611406578081fd5b610aee826111bd565b600080600080600080600060e0888a031215611429578283fd5b87516114348161174e565b9650611442602089016111ab565b9550611450604089016111d4565b945061145e606089016111d4565b935061146c608089016111d4565b925060a088015160ff81168114611481578283fd5b60c08901519092508015158114611496578182fd5b8091505092959891949750929550565b600080600080608085870312156114bb578182fd5b505082516020840151604085015160609095015191969095509092509050565b6000806000806000806000806000806000806101808d8f0312156114fd578586fd5b8c516bffffffffffffffffffffffff81168114611518578687fd5b9b5061152660208e0161117f565b9a5061153460408e0161117f565b995061154260608e0161117f565b985061155060808e016111e6565b975061155e60a08e016111ab565b965061156c60c08e016111ab565b955061157a60e08e016111bd565b94506101008d015193506101208d015192506115996101408e016111bd565b91506115a86101608e016111bd565b90509295989b509295989b509295989b565b6001600160a01b0391909116815260200190565b6001600160a01b039390931683526020830191909152604082015260600190565b6001600160a01b03938416815291909216602082015262ffffff909116604082015260600190565b901515815260200190565b602080825260059082015264055484450360dc1b604082015260600190565b60208082526005908201526405752504d360dc1b604082015260600190565b60208082526004908201526342524f4760e01b604082015260600190565b600060e082019050825182526020830151602083015260408301516040830152606083015160608301526080830151608083015260a083015160a083015260c083015160c083015292915050565b81516001600160a01b03908116825260208084015182169083015260408084015190911690820152606080830151908201526080918201519181019190915260a00190565b90815260200190565b9182521515602082015260400190565b60405181810167ffffffffffffffff8111828210171561174657fe5b604052919050565b6001600160a01b038116811461176357600080fd5b5056fea26469706673582212201d0ef71eee3468046e51058e154ab3c16795c97c0a8954accd89d1b127c0cd5064736f6c63430007060033",
  "devdoc": {
    "kind": "dev",
    "methods": {
      "closedPositionForced(address,uint256)": {
        "params": {
          "positionId": "ID of closed position",
          "user": "address of the user"
        }
      },
      "paused()": {
        "details": "Returns true if the contract is paused, and false otherwise."
      }
    },
    "version": 1
  },
  "userdoc": {
    "events": {
      "PositionWithdrawn(address,address,uint256,uint256)": {
        "notice": "emitted when a position is created"
      }
    },
    "kind": "user",
    "methods": {
      "closedPositionForced(address,uint256)": {
        "notice": "closed position forcedly by governance"
      }
    },
    "notice": "WithdrawRecipes allows user to withdraw positions from PositionManager",
    "version": 1
  },
  "storageLayout": {
    "storage": [
      {
        "astId": 2001,
        "contract": "contracts/recipes/GovernanceRecipes.sol:GovernanceRecipes",
        "label": "_paused",
        "offset": 0,
        "slot": "0",
        "type": "t_bool"
      }
    ],
    "types": {
      "t_bool": {
        "encoding": "inplace",
        "label": "bool",
        "numberOfBytes": "1"
      }
    }
  }
}