{
  "address": "0x0625cE7Ae6B689898352B80C98482390f1f11f7d",
  "abi": [
    {
      "inputs": [
        {
          "internalType": "address",
          "name": "_registryAddressHolder",
          "type": "address"
        },
        {
          "internalType": "address",
          "name": "_uniswapAddressHolder",
          "type": "address"
        }
      ],
      "stateMutability": "nonpayable",
      "type": "constructor"
    },
    {
      "anonymous": false,
      "inputs": [
        {
          "indexed": false,
          "internalType": "address",
          "name": "account",
          "type": "address"
        }
      ],
      "name": "Paused",
      "type": "event"
    },
    {
      "anonymous": false,
      "inputs": [
        {
          "indexed": true,
          "internalType": "address",
          "name": "positionManager",
          "type": "address"
        },
        {
          "indexed": false,
          "internalType": "uint256",
          "name": "positionId",
          "type": "uint256"
        },
        {
          "indexed": false,
          "internalType": "uint256",
          "name": "closedTokenId",
          "type": "uint256"
        },
        {
          "indexed": false,
          "internalType": "uint256",
          "name": "mintedTokenId",
          "type": "uint256"
        },
        {
          "indexed": false,
          "internalType": "uint256",
          "name": "removed0",
          "type": "uint256"
        },
        {
          "indexed": false,
          "internalType": "uint256",
          "name": "removed1",
          "type": "uint256"
        },
        {
          "indexed": false,
          "internalType": "uint256",
          "name": "collectedFee0",
          "type": "uint256"
        },
        {
          "indexed": false,
          "internalType": "uint256",
          "name": "collectedFee1",
          "type": "uint256"
        },
        {
          "indexed": false,
          "internalType": "uint256",
          "name": "repaid",
          "type": "uint256"
        }
      ],
      "name": "PositionRebalanced",
      "type": "event"
    },
    {
      "anonymous": false,
      "inputs": [
        {
          "indexed": false,
          "internalType": "address",
          "name": "account",
          "type": "address"
        }
      ],
      "name": "Unpaused",
      "type": "event"
    },
    {
      "inputs": [
        {
          "internalType": "bytes[]",
          "name": "data",
          "type": "bytes[]"
        }
      ],
      "name": "multicall",
      "outputs": [
        {
          "internalType": "bytes[]",
          "name": "results",
          "type": "bytes[]"
        }
      ],
      "stateMutability": "payable",
      "type": "function"
    },
    {
      "inputs": [],
      "name": "pause",
      "outputs": [],
      "stateMutability": "nonpayable",
      "type": "function"
    },
    {
      "inputs": [],
      "name": "paused",
      "outputs": [
        {
          "internalType": "bool",
          "name": "",
          "type": "bool"
        }
      ],
      "stateMutability": "view",
      "type": "function"
    },
    {
      "inputs": [
        {
          "components": [
            {
              "internalType": "address",
              "name": "userAddress",
              "type": "address"
            },
            {
              "internalType": "address payable",
              "name": "feeReceiver",
              "type": "address"
            },
            {
              "internalType": "uint256",
              "name": "positionId",
              "type": "uint256"
            },
            {
              "internalType": "uint256",
              "name": "estimatedGasFee",
              "type": "uint256"
            }
          ],
          "internalType": "struct IIdleLiquidityModuleV2.RebalanceInput",
          "name": "input",
          "type": "tuple"
        }
      ],
      "name": "rebalance",
      "outputs": [],
      "stateMutability": "nonpayable",
      "type": "function"
    },
    {
      "inputs": [
        {
          "components": [
            {
              "internalType": "address",
              "name": "userAddress",
              "type": "address"
            },
            {
              "internalType": "address payable",
              "name": "feeReceiver",
              "type": "address"
            },
            {
              "internalType": "uint256",
              "name": "positionId",
              "type": "uint256"
            },
            {
              "internalType": "uint256",
              "name": "estimatedGasFee",
              "type": "uint256"
            },
            {
              "internalType": "int24",
              "name": "tickLowerDiff",
              "type": "int24"
            },
            {
              "internalType": "int24",
              "name": "tickUpperDiff",
              "type": "int24"
            }
          ],
          "internalType": "struct IIdleLiquidityModuleV2.RebalanceWithTickDiffsInput",
          "name": "input",
          "type": "tuple"
        }
      ],
      "name": "rebalanceWithTickDiffs",
      "outputs": [],
      "stateMutability": "nonpayable",
      "type": "function"
    },
    {
      "inputs": [],
      "name": "registryAddressHolder",
      "outputs": [
        {
          "internalType": "contract IRegistryAddressHolder",
          "name": "",
          "type": "address"
        }
      ],
      "stateMutability": "view",
      "type": "function"
    },
    {
      "inputs": [],
      "name": "uniswapAddressHolder",
      "outputs": [
        {
          "internalType": "contract IUniswapAddressHolder",
          "name": "",
          "type": "address"
        }
      ],
      "stateMutability": "view",
      "type": "function"
    },
    {
      "inputs": [],
      "name": "unpause",
      "outputs": [],
      "stateMutability": "nonpayable",
      "type": "function"
    }
  ],
  "transactionHash": "0x93c754a467801b0ca1dc1cefc5f75437e0a33d40eae908a01d03dadd4deec2f9",
  "args": [
    "0x1BdcF8Fea00691B61a1fA48c4785A23E9a6b4180",
    "0xC847FD0bFADCAb154FDFAD397BA236280C45239E"
  ],
  "numDeployments": 1,
  "solcInputHash": "52a355333dae9f0d85b08b48eeb6c741",
  "bytecode": "0x60a06040523480156200001157600080fd5b506040516200346c3803806200346c8339810160408190526200003491620000e7565b6000805460ff19169055816001600160a01b038116620000715760405162461bcd60e51b815260040162000068906200013d565b60405180910390fd5b60008054610100600160a81b0319166101006001600160a01b03938416021790558116620000b35760405162461bcd60e51b815260040162000068906200011e565b60601b6001600160601b031916608052506200015d565b80516001600160a01b0381168114620000e257600080fd5b919050565b60008060408385031215620000fa578182fd5b6200010583620000ca565b91506200011560208401620000ca565b90509250929050565b6020808252600590820152640494c4341360dc1b604082015260600190565b6020808252600690820152650424d524148360d41b604082015260600190565b60805160601c6132c9620001a3600039806104385280610f445280610fde528061116952806111c952806112bd528061134e5280611635528061169552506132c96000f3fe60806040526004361061007b5760003560e01c8063ac9650d81161004e578063ac9650d8146100f9578063c0f06ca414610119578063dc9d7e271461012e578063fd3f33651461014e5761007b565b80633f4ba83a146100805780635c975abb146100975780638456cb59146100c2578063974914d5146100d7575b600080fd5b34801561008c57600080fd5b5061009561016e565b005b3480156100a357600080fd5b506100ac610229565b6040516100b99190612f0b565b60405180910390f35b3480156100ce57600080fd5b50610095610232565b3480156100e357600080fd5b506100ec6102e2565b6040516100b99190612e6f565b61010c610107366004612928565b6102f6565b6040516100b99190612eab565b34801561012557600080fd5b506100ec610436565b34801561013a57600080fd5b50610095610149366004612b97565b61045a565b34801561015a57600080fd5b50610095610169366004612b80565b6109a1565b610176610d8d565b6001600160a01b0316635aa6e6756040518163ffffffff1660e01b815260040160206040518083038186803b1580156101ae57600080fd5b505afa1580156101c2573d6000803e3d6000fd5b505050506040513d601f19601f820116820180604052508101906101e6919061290c565b6001600160a01b0316336001600160a01b03161461021f5760405162461bcd60e51b815260040161021690612f55565b60405180910390fd5b610227610e19565b565b60005460ff1690565b61023a610d8d565b6001600160a01b0316635aa6e6756040518163ffffffff1660e01b815260040160206040518083038186803b15801561027257600080fd5b505afa158015610286573d6000803e3d6000fd5b505050506040513d601f19601f820116820180604052508101906102aa919061290c565b6001600160a01b0316336001600160a01b0316146102da5760405162461bcd60e51b815260040161021690612f55565b610227610eb9565b60005461010090046001600160a01b031681565b60608167ffffffffffffffff8111801561030f57600080fd5b5060405190808252806020026020018201604052801561034357816020015b606081526020019060019003908161032e5790505b50905060005b8281101561042f576000803086868581811061036157fe5b905060200281019061037391906131cc565b604051610381929190612e5f565b600060405180830381855af49150503d80600081146103bc576040519150601f19603f3d011682016040523d82523d6000602084013e6103c1565b606091505b50915091508161040d576044815110156103da57600080fd5b600481019050808060200190518101906103f491906129e9565b60405162461bcd60e51b81526004016102169190612f24565b8084848151811061041a57fe5b60209081029190910101525050600101610349565b5092915050565b7f000000000000000000000000000000000000000000000000000000000000000081565b610462610229565b156104a7576040805162461bcd60e51b815260206004820152601060248201526f14185d5cd8589b194e881c185d5cd95960821b604482015290519081900360640190fd5b6104af610d8d565b6001600160a01b031663edbe9437336040518263ffffffff1660e01b81526004016104da9190612e6f565b60206040518083038186803b1580156104f257600080fd5b505afa158015610506573d6000803e3d6000fd5b505050506040513d601f19601f8201168201806040525081019061052a9190612997565b6105465760405162461bcd60e51b81526004016102169061300c565b6000610550610d8d565b6001600160a01b0316632d2c5b586040518163ffffffff1660e01b815260040160206040518083038186803b15801561058857600080fd5b505afa15801561059c573d6000803e3d6000fd5b505050506040513d601f19601f820116820180604052508101906105c0919061290c565b6001600160a01b031663c81e0f916105db60208501856128f0565b6040518263ffffffff1660e01b81526004016105f79190612e6f565b60206040518083038186803b15801561060f57600080fd5b505afa158015610623573d6000803e3d6000fd5b505050506040513d601f19601f82011682018060405250810190610647919061290c565b90506001600160a01b03811661066f5760405162461bcd60e51b815260040161021690612f91565b6000816001600160a01b031663519f509984604001356040518263ffffffff1660e01b81526004016106a19190613151565b6101a06040518083038186803b1580156106ba57600080fd5b505afa1580156106ce573d6000803e3d6000fd5b505050506040513d601f19601f820116820180604052508101906106f29190612abb565b905061071e61070760a08501608086016129b1565b61071760c0860160a087016129b1565b8351610f3c565b805161072990611161565b600061077d6040518060800160405280856001600160a01b0316815260200186602001602081019061075b91906128f0565b6001600160a01b031681528451602082015260608701356040909101526112ae565b905060006107ab8361012001516107a5846000015185604001516115c090919063ffffffff16565b906115c0565b905060006107d38461014001516107a5856020015186606001516115c090919063ffffffff16565b905060008211806107e45750600081115b6108005760405162461bcd60e51b815260040161021690612fcf565b600061086a6040518060c00160405280886001600160a01b031681526020018760000151815260200185815260200184815260200189608001602081019061084891906129b1565b60020b815260200161086060c08b0160a08c016129b1565b60020b9052611621565b80519091506001600160a01b0387169063abf0f8a19060408a01359061089660a08c0160808d016129b1565b6108a660c08d0160a08e016129b1565b895160e08c01516108b6916115c0565b60208b01516101008d01516108ca916115c0565b886020015189604001516040518963ffffffff1660e01b81526004016108f798979695949392919061315a565b600060405180830381600087803b15801561091157600080fd5b505af1158015610925573d6000803e3d6000fd5b50505050856001600160a01b03167f31bd25c3946a250cf8faf9b023791d5cc83ef32367012f8c643a66565d95a6ff886040013587600001518460000151886040015189606001518a600001518b602001518f60600135604051610990989796959493929190613196565b60405180910390a250505050505050565b6109a9610229565b156109ee576040805162461bcd60e51b815260206004820152601060248201526f14185d5cd8589b194e881c185d5cd95960821b604482015290519081900360640190fd5b6109f6610d8d565b6001600160a01b031663edbe9437336040518263ffffffff1660e01b8152600401610a219190612e6f565b60206040518083038186803b158015610a3957600080fd5b505afa158015610a4d573d6000803e3d6000fd5b505050506040513d601f19601f82011682018060405250810190610a719190612997565b610a8d5760405162461bcd60e51b81526004016102169061300c565b6000610a97610d8d565b6001600160a01b0316632d2c5b586040518163ffffffff1660e01b815260040160206040518083038186803b158015610acf57600080fd5b505afa158015610ae3573d6000803e3d6000fd5b505050506040513d601f19601f82011682018060405250810190610b07919061290c565b6001600160a01b031663c81e0f91610b2260208501856128f0565b6040518263ffffffff1660e01b8152600401610b3e9190612e6f565b60206040518083038186803b158015610b5657600080fd5b505afa158015610b6a573d6000803e3d6000fd5b505050506040513d601f19601f82011682018060405250810190610b8e919061290c565b90506001600160a01b038116610bb65760405162461bcd60e51b815260040161021690612f91565b6000816001600160a01b031663519f509984604001356040518263ffffffff1660e01b8152600401610be89190613151565b6101a06040518083038186803b158015610c0157600080fd5b505afa158015610c15573d6000803e3d6000fd5b505050506040513d601f19601f82011682018060405250810190610c399190612abb565b9050610c488160000151611161565b6000610c7a6040518060800160405280856001600160a01b0316815260200186602001602081019061075b91906128f0565b90506000610ca28361012001516107a5846000015185604001516115c090919063ffffffff16565b90506000610cca8461014001516107a5856020015186606001516115c090919063ffffffff16565b90506000821180610cdb5750600081115b610cf75760405162461bcd60e51b815260040161021690612fcf565b6000610d4b6040518060c00160405280886001600160a01b031681526020018760000151815260200185815260200184815260200187610160015160020b815260200187610180015160020b815250611621565b9050856001600160a01b031663abf0f8a1886040013583600001518861016001518961018001516108b68a600001518c60e001516115c090919063ffffffff16565b60008060019054906101000a90046001600160a01b03166001600160a01b0316637b1039996040518163ffffffff1660e01b815260040160206040518083038186803b158015610ddc57600080fd5b505afa158015610df0573d6000803e3d6000fd5b505050506040513d601f19601f82011682018060405250810190610e14919061290c565b905090565b610e21610229565b610e69576040805162461bcd60e51b815260206004820152601460248201527314185d5cd8589b194e881b9bdd081c185d5cd95960621b604482015290519081900360640190fd5b6000805460ff191690557f5db9ee0a495bf2e6ff9c91a7834c1ba4fdd244a5e8aa4e537bd38aeae4b073aa610e9c6119a1565b604080516001600160a01b039092168252519081900360200190a1565b610ec1610229565b15610f06576040805162461bcd60e51b815260206004820152601060248201526f14185d5cd8589b194e881c185d5cd95960821b604482015290519081900360640190fd5b6000805460ff191660011790557f62e78cea01bee320cd4e420270b5ea74000d11b0c9f74754ebdbfc544b05a258610e9c6119a1565b6000610fd8827f00000000000000000000000000000000000000000000000000000000000000006001600160a01b0316635bfccac96040518163ffffffff1660e01b815260040160206040518083038186803b158015610f9b57600080fd5b505afa158015610faf573d6000803e3d6000fd5b505050506040513d601f19601f82011682018060405250810190610fd3919061290c565b6119a5565b905060007f00000000000000000000000000000000000000000000000000000000000000006001600160a01b03166380f5db8c6040518163ffffffff1660e01b815260040160206040518083038186803b15801561103557600080fd5b505afa158015611049573d6000803e3d6000fd5b505050506040513d601f19601f8201168201806040525081019061106d919061290c565b6001600160a01b03166322afcccb83604001516040518263ffffffff1660e01b815260040161109c9190613141565b60206040518083038186803b1580156110b457600080fd5b505afa1580156110c8573d6000803e3d6000fd5b505050506040513d601f19601f820116820180604052508101906110ec91906129cd565b905060008560020b13158015611106575060008460020b12155b801561112257508060020b8560020b8161111c57fe5b0760020b155b801561113e57508060020b8460020b8161113857fe5b0760020b155b61115a5760405162461bcd60e51b815260040161021690612f37565b5050505050565b60006111c0827f00000000000000000000000000000000000000000000000000000000000000006001600160a01b0316635bfccac96040518163ffffffff1660e01b815260040160206040518083038186803b158015610f9b57600080fd5b905060006112697f00000000000000000000000000000000000000000000000000000000000000006001600160a01b03166380f5db8c6040518163ffffffff1660e01b815260040160206040518083038186803b15801561122057600080fd5b505afa158015611234573d6000803e3d6000fd5b505050506040513d601f19601f82011682018060405250810190611258919061290c565b835160208501516040860151611a6b565b9050816060015160020b8160020b128061128d5750816080015160020b8160020b12155b6112a95760405162461bcd60e51b815260040161021690612fed565b505050565b6112b6612755565b60006113e77f00000000000000000000000000000000000000000000000000000000000000006001600160a01b03166380f5db8c6040518163ffffffff1660e01b815260040160206040518083038186803b15801561131457600080fd5b505afa158015611328573d6000803e3d6000fd5b505050506040513d601f19601f8201168201806040525081019061134c919061290c565b7f00000000000000000000000000000000000000000000000000000000000000006001600160a01b0316635bfccac96040518163ffffffff1660e01b815260040160206040518083038186803b1580156113a557600080fd5b505afa1580156113b9573d6000803e3d6000fd5b505050506040513d601f19601f820116820180604052508101906113dd919061290c565b8560400151611b98565b8351604080518082018252818701518152600060208201819052915163367d52d760e11b815293945090926001600160a01b0390921691636cfaa5ae916114309160040161302c565b6040805180830381600087803b15801561144957600080fd5b505af115801561145d573d6000803e3d6000fd5b505050506040513d601f19601f820116820180604052508101906114819190612a73565b905081604001516001600160801b03168160000151101580156114b5575081606001516001600160801b0316816020015110155b6114d15760405162461bcd60e51b815260040161021690612fb0565b6060840151156115635783600001516001600160a01b0316632d736e0560405180604001604052808760600151815260200187602001516001600160a01b03168152506040518263ffffffff1660e01b815260040161153091906130bc565b600060405180830381600087803b15801561154a57600080fd5b505af115801561155e573d6000803e3d6000fd5b505050505b6040820180516001600160801b0390811685526060840151811660208601529051825161159292909116611d3c565b6040840152606082015160208201516115b3916001600160801b0316611d3c565b6060840152509092915050565b60008282018381101561161a576040805162461bcd60e51b815260206004820152601b60248201527f536166654d6174683a206164646974696f6e206f766572666c6f770000000000604482015290519081900360640190fd5b9392505050565b61162961277d565b600061168c83602001517f00000000000000000000000000000000000000000000000000000000000000006001600160a01b0316635bfccac96040518163ffffffff1660e01b815260040160206040518083038186803b158015610f9b57600080fd5b905060006117357f00000000000000000000000000000000000000000000000000000000000000006001600160a01b03166380f5db8c6040518163ffffffff1660e01b815260040160206040518083038186803b1580156116ec57600080fd5b505afa158015611700573d6000803e3d6000fd5b505050506040513d601f19601f82011682018060405250810190611724919061290c565b835160208501516040860151611d99565b905060008060008087600001516001600160a01b031663a1ef2dbb6040518060e0016040528089600001516001600160a01b0316815260200189602001516001600160a01b03168152602001896040015162ffffff1681526020018b6040015181526020018b6060015181526020016117be8c608001518a60020b611dba90919063ffffffff16565b60020b81526020016117e08c60a001518a60020b611dba90919063ffffffff16565b60020b8152506040518263ffffffff1660e01b815260040161180291906130dc565b6040805180830381600087803b15801561181b57600080fd5b505af115801561182f573d6000803e3d6000fd5b505050506040513d601f19601f820116820180604052508101906118539190612cf7565b9150915087600001516001600160a01b0316631c29efb860405180610100016040528089600001516001600160a01b0316815260200189602001516001600160a01b03168152602001896040015162ffffff1681526020016118c58c608001518a60020b611dba90919063ffffffff16565b60020b81526020016118e78c60a001518a60020b611dba90919063ffffffff16565b60020b8152602001858152602001848152602001600015158152506040518263ffffffff1660e01b815260040161191e9190613045565b606060405180830381600087803b15801561193857600080fd5b505af115801561194c573d6000803e3d6000fd5b505050506040513d601f19601f820116820180604052508101906119709190612d1a565b918952945092506119818285611d3c565b60208801526119908184611d3c565b604088015250949695505050505050565b3390565b6119ad61279e565b60405163133f757160e31b81526001600160a01b038316906399fbab88906119d9908690600401613151565b6101806040518083038186803b1580156119f257600080fd5b505afa158015611a06573d6000803e3d6000fd5b505050506040513d601f19601f82011682018060405250810190611a2a9190612d47565b5050505050600290810b810b608089015290810b900b606087015262ffffff1660408601526001600160a01b03908116602086015216835250909392505050565b600080856001600160a01b0316631698ee828686866040518463ffffffff1660e01b8152600401611a9e93929190612e83565b60206040518083038186803b158015611ab657600080fd5b505afa158015611aca573d6000803e3d6000fd5b505050506040513d601f19601f82011682018060405250810190611aee919061290c565b90506001600160a01b038116611b165760405162461bcd60e51b815260040161021690612f73565b806001600160a01b0316633850c7bd6040518163ffffffff1660e01b815260040160e06040518083038186803b158015611b4f57600080fd5b505afa158015611b63573d6000803e3d6000fd5b505050506040513d601f19601f82011682018060405250810190611b879190612c4e565b50939b9a5050505050505050505050565b611ba06127cc565b6000806000856001600160a01b03166399fbab88866040518263ffffffff1660e01b8152600401611bd19190613151565b6101806040518083038186803b158015611bea57600080fd5b505afa158015611bfe573d6000803e3d6000fd5b505050506040513d601f19601f82011682018060405250810190611c229190612d47565b909192939495969798999a5090919293949596979899509091929394959650909192939495509091929394508a6000018b6020018c6040018d606001846001600160801b03166001600160801b0316815250846001600160801b03166001600160801b0316815250849950859a50869b50876001600160a01b03166001600160a01b0316815250876001600160a01b03166001600160a01b031681525050505050505050600080611cd4898989611e2e565b91509150611cf2848303866001600160801b0316600160801b611eeb565b6040870180516001600160801b03920182169052611d1a90848303908716600160801b611eeb565b606087018051919091016001600160801b031690525093979650505050505050565b600082821115611d93576040805162461bcd60e51b815260206004820152601e60248201527f536166654d6174683a207375627472616374696f6e206f766572666c6f770000604482015290519081900360640190fd5b50900390565b6000611db185611dab87878787611a6b565b84611f9a565b95945050505050565b6000828201600283900b8213801590611dd957508360020b8160020b12155b80611df7575060008360020b128015611df757508360020b8160020b125b61161a576040805162461bcd60e51b8152602060048201526003602482015262534d3560e81b604482015290519081900360640190fd5b6000806000611e3e86868661211e565b9050600080826020015160020b836000015160020b12611e6957505060a081015160c0820151611e84565b8260a0015183606001510391508260c0015183608001510390505b600080846040015160020b856000015160020b1215611eaf57505060e0830151610100840151611ecb565b8460e00151856060015103915084610100015185608001510390505b606085015160809095015193909403039891039190910395509350505050565b6000808060001985870986860292508281109083900303905080611f215760008411611f1657600080fd5b50829004905061161a565b808411611f2d57600080fd5b6000848688096000868103871696879004966002600389028118808a02820302808a02820302808a02820302808a02820302808a02820302808a02909103029181900381900460010186841190950394909402919094039290920491909117919091029150509392505050565b6040516322afcccb60e01b815282906000906001600160a01b038616906322afcccb90611fcb908690600401613141565b60206040518083038186803b158015611fe357600080fd5b505afa158015611ff7573d6000803e3d6000fd5b505050506040513d601f19601f8201168201806040525081019061201b91906129cd565b905060018160020b13156121165760008460020b13156120a0576000612045600283810b90612489565b90506000612057600287900b84612537565b90508160020b8160020b126120885761208183612078600289900b846125a7565b60020b90611dba565b9350612099565b612096600287900b826125a7565b93505b5050612116565b60008460020b12156121165760006120bc600283810b90612489565b600090810391506120d1600287900b84612537565b90508160020b8160020b13612102576120fb836120f2600289900b846125a7565b60020b906125a7565b9350612113565b612110600287900b826125a7565b93505b50505b509392505050565b6121266127f3565b6000806000856001600160a01b03166399fbab88866040518263ffffffff1660e01b81526004016121579190613151565b6101806040518083038186803b15801561217057600080fd5b505afa158015612184573d6000803e3d6000fd5b505050506040513d601f19601f820116820180604052508101906121a89190612d47565b5050505050600290810b810b60408c015290810b900b60208a015291965094509250600091506121e49050886121df86868661261b565b612671565b9050806001600160a01b031663f30583996040518163ffffffff1660e01b815260040160206040518083038186803b15801561221f57600080fd5b505afa158015612233573d6000803e3d6000fd5b505050506040513d601f19601f820116820180604052508101906122579190612cdf565b856060018181525050806001600160a01b031663461413196040518163ffffffff1660e01b815260040160206040518083038186803b15801561229957600080fd5b505afa1580156122ad573d6000803e3d6000fd5b505050506040513d601f19601f820116820180604052508101906122d19190612cdf565b856080018181525050806001600160a01b0316633850c7bd6040518163ffffffff1660e01b815260040160e06040518083038186803b15801561231357600080fd5b505afa158015612327573d6000803e3d6000fd5b505050506040513d601f19601f8201168201806040525081019061234b9190612c4e565b5050505050600290810b900b865250602085015160405163f30dba9360e01b81526001600160a01b0383169163f30dba939161238a9190600401612f16565b6101006040518083038186803b1580156123a357600080fd5b505afa1580156123b7573d6000803e3d6000fd5b505050506040513d601f19601f820116820180604052508101906123db9190612ba8565b5050505060c089015260a08801525050604080860151905163f30dba9360e01b81526001600160a01b0383169163f30dba939161241b9190600401612f16565b6101006040518083038186803b15801561243457600080fd5b505afa158015612448573d6000803e3d6000fd5b505050506040513d601f19601f8201168201806040525081019061246c9190612ba8565b5050505061010089015260e0880152509498975050505050505050565b60008160020b600014156124ca576040805162461bcd60e51b815260206004820152600360248201526229a69960e91b604482015290519081900360640190fd5b8160020b6000191480156124e55750600283900b627fffff19145b1561251d576040805162461bcd60e51b8152602060048201526003602482015262534d3360e81b604482015290519081900360640190fd5b60008260020b8460020b8161252e57fe5b05949350505050565b6000808260020b13612590576040805162461bcd60e51b815260206004820152601860248201527f536166654d6174683a206d6f64756c6f206279207a65726f0000000000000000604482015290519081900360640190fd5b8160020b8360020b8161259f57fe5b079392505050565b6000818303600283900b82138015906125c657508360020b8160020b13155b806125e4575060008360020b1280156125e457508360020b8160020b135b61161a576040805162461bcd60e51b815260206004820152600360248201526214d34d60ea1b604482015290519081900360640190fd5b612623612848565b826001600160a01b0316846001600160a01b03161115612641579192915b50604080516060810182526001600160a01b03948516815292909316602083015262ffffff169181019190915290565b600081602001516001600160a01b031682600001516001600160a01b03161061269957600080fd5b50805160208083015160409384015184516001600160a01b0394851681850152939091168385015262ffffff166060808401919091528351808403820181526080840185528051908301206001600160f81b031960a085015294901b6bffffffffffffffffffffffff191660a183015260b58201939093527fe34f199b19b2b4f47f68442619d555527d244f78a3297ea89325f843f87b8b5460d5808301919091528251808303909101815260f5909101909152805191012090565b6040518060800160405280600081526020016000815260200160008152602001600081525090565b60405180606001604052806000815260200160008152602001600081525090565b6040805160a08101825260008082526020820181905291810182905260608101829052608081019190915290565b60408051608081018252600080825260208201819052918101829052606081019190915290565b604051806101200160405280600060020b8152602001600060020b8152602001600060020b81526020016000815260200160008152602001600081526020016000815260200160008152602001600081525090565b604080516060810182526000808252602082018190529181019190915290565b80516128738161326c565b919050565b8051801515811461287357600080fd5b80516fffffffffffffffffffffffffffffffff198116811461287357600080fd5b805161287381613284565b80516001600160801b038116811461287357600080fd5b805161ffff8116811461287357600080fd5b805162ffffff8116811461287357600080fd5b600060208284031215612901578081fd5b813561161a8161326c565b60006020828403121561291d578081fd5b815161161a8161326c565b6000806020838503121561293a578081fd5b823567ffffffffffffffff80821115612951578283fd5b818501915085601f830112612964578283fd5b813581811115612972578384fd5b8660208083028501011115612985578384fd5b60209290920196919550909350505050565b6000602082840312156129a8578081fd5b61161a82612878565b6000602082840312156129c2578081fd5b813561161a81613284565b6000602082840312156129de578081fd5b815161161a81613284565b6000602082840312156129fa578081fd5b815167ffffffffffffffff80821115612a11578283fd5b818401915084601f830112612a24578283fd5b815181811115612a3057fe5b612a43601f8201601f1916602001613218565b9150808252856020828501011115612a59578384fd5b612a6a81602084016020860161323c565b50949350505050565b600060408284031215612a84578081fd5b6040516040810181811067ffffffffffffffff82111715612aa157fe5b604052825181526020928301519281019290925250919050565b60006101a0808385031215612ace578182fd5b612ad781613218565b905082518152612ae960208401612868565b6020820152612afa60408401612888565b6040820152606083015160608201526080830151608082015260a083015160a082015260c083015160c082015260e083015160e0820152610100808401518183015250610120808401518183015250610140808401518183015250610160612b638185016128a9565b90820152610180612b758482016128a9565b908201529392505050565b600060808284031215612b91578081fd5b50919050565b600060c08284031215612b91578081fd5b600080600080600080600080610100898b031215612bc4578384fd5b612bcd896128b4565b9750602089015180600f0b8114612be2578485fd5b80975050604089015195506060890151945060808901518060060b8114612c07578485fd5b60a08a0151909450612c188161326c565b60c08a015190935063ffffffff81168114612c31578283fd5b9150612c3f60e08a01612878565b90509295985092959890939650565b600080600080600080600060e0888a031215612c68578081fd5b8751612c738161326c565b6020890151909750612c8481613284565b9550612c92604089016128cb565b9450612ca0606089016128cb565b9350612cae608089016128cb565b925060a088015160ff81168114612cc3578182fd5b9150612cd160c08901612878565b905092959891949750929550565b600060208284031215612cf0578081fd5b5051919050565b60008060408385031215612d09578182fd5b505080516020909101519092909150565b600080600060608486031215612d2e578081fd5b8351925060208401519150604084015190509250925092565b6000806000806000806000806000806000806101808d8f031215612d69578586fd5b8c516bffffffffffffffffffffffff81168114612d84578687fd5b9b50612d9260208e01612868565b9a50612da060408e01612868565b9950612dae60608e01612868565b9850612dbc60808e016128dd565b9750612dca60a08e016128a9565b9650612dd860c08e016128a9565b9550612de660e08e016128b4565b94506101008d015193506101208d01519250612e056101408e016128b4565b9150612e146101608e016128b4565b90509295989b509295989b509295989b565b15159052565b60008151808452612e4481602086016020860161323c565b601f01601f19169290920160200192915050565b60020b9052565b6000828483379101908152919050565b6001600160a01b0391909116815260200190565b6001600160a01b03938416815291909216602082015262ffffff909116604082015260600190565b6000602080830181845280855180835260408601915060408482028701019250838701855b82811015612efe57603f19888603018452612eec858351612e2c565b94509285019290850190600101612ed0565b5092979650505050505050565b901515815260200190565b60029190910b815260200190565b60006020825261161a6020830184612e2c565b6020808252600490820152631253151160e21b604082015260600190565b602080825260049082015263424d4f4760e01b604082015260600190565b6020808252600490820152630554850360e41b604082015260600190565b6020808252600590820152640494c504d360dc1b604082015260600190565b6020808252600590820152640494c3243560dc1b604082015260600190565b60208082526004908201526324a620a960e11b604082015260600190565b60208082526005908201526424a627a7a960d91b604082015260600190565b602080825260069082015265424d4f574c4b60d01b604082015260600190565b8151815260209182015115159181019190915260400190565b81516001600160a01b0390811682526020808401519091169082015260408083015162ffffff169082015260608083015160020b9082015260808083015161010083019161309590840182612e58565b5060a083015160a083015260c083015160c083015260e083015161042f60e0840182612e26565b815181526020918201516001600160a01b03169181019190915260400190565b600060e08201905060018060a01b038084511683528060208501511660208401525062ffffff6040840151166040830152606083015160608301526080830151608083015260a083015160020b60a083015260c083015160020b60c083015292915050565b62ffffff91909116815260200190565b90815260200190565b9788526020880196909652600294850b60408801529290930b6060860152608085015260a084019190915260c083015260e08201526101000190565b978852602088019690965260408701949094526060860192909252608085015260a084015260c083015260e08201526101000190565b6000808335601e198436030181126131e2578283fd5b83018035915067ffffffffffffffff8211156131fc578283fd5b60200191503681900382131561321157600080fd5b9250929050565b60405181810167ffffffffffffffff8111828210171561323457fe5b604052919050565b60005b8381101561325757818101518382015260200161323f565b83811115613266576000848401525b50505050565b6001600160a01b038116811461328157600080fd5b50565b8060020b811461328157600080fdfea2646970667358221220f95fe678659646a84eae290b3732d21c3fa53dca5819a7b4320a2b24d2df2fe364736f6c63430007060033",
  "devdoc": {
    "kind": "dev",
    "methods": {
      "constructor": {
        "params": {
          "_registryAddressHolder": "address of the registry address holder",
          "_uniswapAddressHolder": "address of the uniswap address holder"
        }
      },
      "multicall(bytes[])": {
        "details": "The `msg.value` should not be trusted for any method callable from multicall.",
        "params": {
          "data": "The encoded function data for each of the calls to make to this contract"
        },
        "returns": {
          "results": "The results from each of the calls passed in via data"
        }
      },
      "paused()": {
        "details": "Returns true if the contract is paused, and false otherwise."
      },
      "rebalance((address,address,uint256,uint256))": {
        "params": {
          "input": "RebalanceInput struct"
        }
      },
      "rebalanceWithTickDiffs((address,address,uint256,uint256,int24,int24))": {
        "params": {
          "input": "RebalanceWithTickDiffsInput struct"
        }
      }
    },
    "title": "Idle Liquidity Module to manage liquidity for a user position",
    "version": 1
  },
  "userdoc": {
    "events": {
      "PositionRebalanced(address,uint256,uint256,uint256,uint256,uint256,uint256,uint256,uint256)": {
        "notice": "emitted when a position is rebalanced"
      }
    },
    "kind": "user",
    "methods": {
      "constructor": {
        "notice": "assing the uniswap address holder to the contract"
      },
      "multicall(bytes[])": {
        "notice": "Call multiple functions in the current contract and return the data from all of them if they all succeed"
      },
      "rebalance((address,address,uint256,uint256))": {
        "notice": "check if the position is out of range and rebalance it by swapping the tokens as necessary"
      },
      "rebalanceWithTickDiffs((address,address,uint256,uint256,int24,int24))": {
        "notice": "check if the position is out of range and rebalance it by swapping the tokens as necessary and customize lower & upper tick diff"
      },
      "uniswapAddressHolder()": {
        "notice": "uniswap address holder"
      }
    },
    "version": 1
  },
  "storageLayout": {
    "storage": [
      {
        "astId": 2001,
        "contract": "contracts/modules/IdleLiquidityModuleV2.sol:IdleLiquidityModuleV2",
        "label": "_paused",
        "offset": 0,
        "slot": "0",
        "type": "t_bool"
      },
      {
        "astId": 17858,
        "contract": "contracts/modules/IdleLiquidityModuleV2.sol:IdleLiquidityModuleV2",
        "label": "registryAddressHolder",
        "offset": 1,
        "slot": "0",
        "type": "t_contract(IRegistryAddressHolder)14471"
      }
    ],
    "types": {
      "t_bool": {
        "encoding": "inplace",
        "label": "bool",
        "numberOfBytes": "1"
      },
      "t_contract(IRegistryAddressHolder)14471": {
        "encoding": "inplace",
        "label": "contract IRegistryAddressHolder",
        "numberOfBytes": "20"
      }
    }
  }
}