{
  "address": "0x8584Ecc1B2136C52b445077Db4A4794774421D92",
  "abi": [
    {
      "inputs": [
        {
          "internalType": "address",
          "name": "_registryAddressHolder",
          "type": "address"
        }
      ],
      "stateMutability": "nonpayable",
      "type": "constructor"
    },
    {
      "anonymous": false,
      "inputs": [
        {
          "indexed": true,
          "internalType": "address",
          "name": "positionManager",
          "type": "address"
        },
        {
          "indexed": false,
          "internalType": "address",
          "name": "from",
          "type": "address"
        },
        {
          "indexed": false,
          "internalType": "address",
          "name": "receiver",
          "type": "address"
        },
        {
          "indexed": false,
          "internalType": "uint256",
          "name": "amount",
          "type": "uint256"
        }
      ],
      "name": "GasExpenseRefunded",
      "type": "event"
    },
    {
      "anonymous": false,
      "inputs": [
        {
          "indexed": false,
          "internalType": "address",
          "name": "account",
          "type": "address"
        }
      ],
      "name": "Paused",
      "type": "event"
    },
    {
      "anonymous": false,
      "inputs": [
        {
          "indexed": false,
          "internalType": "address",
          "name": "account",
          "type": "address"
        }
      ],
      "name": "Unpaused",
      "type": "event"
    },
    {
      "inputs": [],
      "name": "pause",
      "outputs": [],
      "stateMutability": "nonpayable",
      "type": "function"
    },
    {
      "inputs": [],
      "name": "paused",
      "outputs": [
        {
          "internalType": "bool",
          "name": "",
          "type": "bool"
        }
      ],
      "stateMutability": "view",
      "type": "function"
    },
    {
      "inputs": [
        {
          "internalType": "uint256",
          "name": "amount",
          "type": "uint256"
        }
      ],
      "name": "refundGasExpense",
      "outputs": [],
      "stateMutability": "nonpayable",
      "type": "function"
    },
    {
      "inputs": [],
      "name": "registryAddressHolder",
      "outputs": [
        {
          "internalType": "contract IRegistryAddressHolder",
          "name": "",
          "type": "address"
        }
      ],
      "stateMutability": "view",
      "type": "function"
    },
    {
      "inputs": [],
      "name": "unpause",
      "outputs": [],
      "stateMutability": "nonpayable",
      "type": "function"
    }
  ],
  "transactionHash": "0x985d77f36b2fa82ecfdf71e115c78396a561dac46e9425a13aea81f823ddc256",
  "args": [
    "0xe5b481AFFFbfe1A61d762f42d4c630a5AAD388f9"
  ],
  "numDeployments": 1,
  "solcInputHash": "e0f76533d5690c320d962bc474431dde",
  "bytecode": "0x60a060405234801561001057600080fd5b506040516108ae3803806108ae83398101604081905261002f9161007f565b6000805460ff19169055806001600160a01b0381166100695760405162461bcd60e51b8152600401610060906100ad565b60405180910390fd5b60601b6001600160601b031916608052506100cd565b600060208284031215610090578081fd5b81516001600160a01b03811681146100a6578182fd5b9392505050565b60208082526006908201526504252524148360d41b604082015260600190565b60805160601c6107bf6100ef6000398061022a52806104ea52506107bf6000f3fe608060405234801561001057600080fd5b50600436106100575760003560e01c80633f4ba83a1461005c5780635c975abb146100665780638456cb5914610084578063974914d51461008c578063f5c59698146100a1575b600080fd5b6100646100b4565b005b61006e61016f565b60405161007b919061071f565b60405180910390f35b610064610178565b610094610228565b60405161007b91906106e7565b6100646100af3660046106cf565b61024c565b6100bc6104e6565b6001600160a01b0316635aa6e6756040518163ffffffff1660e01b815260040160206040518083038186803b1580156100f457600080fd5b505afa158015610108573d6000803e3d6000fd5b505050506040513d601f19601f8201168201806040525081019061012c91906106a1565b6001600160a01b0316336001600160a01b0316146101655760405162461bcd60e51b815260040161015c9061074b565b60405180910390fd5b61016d61057e565b565b60005460ff1690565b6101806104e6565b6001600160a01b0316635aa6e6756040518163ffffffff1660e01b815260040160206040518083038186803b1580156101b857600080fd5b505afa1580156101cc573d6000803e3d6000fd5b505050506040513d601f19601f820116820180604052508101906101f091906106a1565b6001600160a01b0316336001600160a01b0316146102205760405162461bcd60e51b815260040161015c9061074b565b61016d61061e565b7f000000000000000000000000000000000000000000000000000000000000000081565b61025461016f565b15610299576040805162461bcd60e51b815260206004820152601060248201526f14185d5cd8589b194e881c185d5cd95960821b604482015290519081900360640190fd5b60006102a36104e6565b6001600160a01b0316632d2c5b586040518163ffffffff1660e01b815260040160206040518083038186803b1580156102db57600080fd5b505afa1580156102ef573d6000803e3d6000fd5b505050506040513d601f19601f8201168201806040525081019061031391906106a1565b6001600160a01b031663c81e0f91336040518263ffffffff1660e01b815260040161033e91906106e7565b60206040518083038186803b15801561035657600080fd5b505afa15801561036a573d6000803e3d6000fd5b505050506040513d601f19601f8201168201806040525081019061038e91906106a1565b90506001600160a01b0381166103b65760405162461bcd60e51b815260040161015c9061072a565b6000816001600160a01b031663893d20e86040518163ffffffff1660e01b815260040160206040518083038186803b1580156103f157600080fd5b505afa158015610405573d6000803e3d6000fd5b505050506040513d601f19601f8201168201806040525081019061042991906106a1565b6040805180820182528581526001600160a01b038084166020830152915163361c721b60e11b815292935090841691636c38e4369161046a91600401610769565b600060405180830381600087803b15801561048457600080fd5b505af1158015610498573d6000803e3d6000fd5b50505050816001600160a01b03167f34ed363b51c74c0e5e8f9cbe9958158f3e5eeceb40ad9fbe9f900e15c380d7ef3383866040516104d9939291906106fb565b60405180910390a2505050565b60007f00000000000000000000000000000000000000000000000000000000000000006001600160a01b0316637b1039996040518163ffffffff1660e01b815260040160206040518083038186803b15801561054157600080fd5b505afa158015610555573d6000803e3d6000fd5b505050506040513d601f19601f8201168201806040525081019061057991906106a1565b905090565b61058661016f565b6105ce576040805162461bcd60e51b815260206004820152601460248201527314185d5cd8589b194e881b9bdd081c185d5cd95960621b604482015290519081900360640190fd5b6000805460ff191690557f5db9ee0a495bf2e6ff9c91a7834c1ba4fdd244a5e8aa4e537bd38aeae4b073aa61060161069d565b604080516001600160a01b039092168252519081900360200190a1565b61062661016f565b1561066b576040805162461bcd60e51b815260206004820152601060248201526f14185d5cd8589b194e881c185d5cd95960821b604482015290519081900360640190fd5b6000805460ff191660011790557f62e78cea01bee320cd4e420270b5ea74000d11b0c9f74754ebdbfc544b05a2586106015b3390565b6000602082840312156106b2578081fd5b81516001600160a01b03811681146106c8578182fd5b9392505050565b6000602082840312156106e0578081fd5b5035919050565b6001600160a01b0391909116815260200190565b6001600160a01b039384168152919092166020820152604081019190915260600190565b901515815260200190565b602080825260079082015266052474552504d360cc1b604082015260600190565b60208082526004908201526342524f4760e01b604082015260600190565b815181526020918201516001600160a01b0316918101919091526040019056fea26469706673582212206dd4735a6434782435503c2a9e4e8c3f2512e464414064d8f48d6dd34c1d193964736f6c63430007060033",
  "devdoc": {
    "kind": "dev",
    "methods": {
      "paused()": {
        "details": "Returns true if the contract is paused, and false otherwise."
      },
      "refundGasExpense(uint256)": {
        "params": {
          "amount": "amount of gas expense to refund"
        }
      }
    },
    "version": 1
  },
  "userdoc": {
    "events": {
      "GasExpenseRefunded(address,address,address,uint256)": {
        "notice": "emitted when gas expense is refunded"
      }
    },
    "kind": "user",
    "methods": {
      "refundGasExpense(uint256)": {
        "notice": "refund gas expense from PositionManager"
      }
    },
    "notice": "RefundGasExpenseRecipes allows user to refund gas expense from PositionManager",
    "version": 1
  },
  "storageLayout": {
    "storage": [
      {
        "astId": 2001,
        "contract": "contracts/recipes/RefundGasExpenseRecipes.sol:RefundGasExpenseRecipes",
        "label": "_paused",
        "offset": 0,
        "slot": "0",
        "type": "t_bool"
      }
    ],
    "types": {
      "t_bool": {
        "encoding": "inplace",
        "label": "bool",
        "numberOfBytes": "1"
      }
    }
  }
}