{
  "address": "0x8984A6a7d64B8D5558FFc5A93cF536f631C77d4F",
  "abi": [
    {
      "inputs": [
        {
          "internalType": "address",
          "name": "_registryAddressHolder",
          "type": "address"
        },
        {
          "internalType": "address",
          "name": "_uniswapAddressHolder",
          "type": "address"
        }
      ],
      "stateMutability": "nonpayable",
      "type": "constructor"
    },
    {
      "anonymous": false,
      "inputs": [
        {
          "indexed": true,
          "internalType": "address",
          "name": "creator",
          "type": "address"
        }
      ],
      "name": "CreatorWhitelistAdded",
      "type": "event"
    },
    {
      "anonymous": false,
      "inputs": [
        {
          "indexed": true,
          "internalType": "address",
          "name": "strategyProviderWallet",
          "type": "address"
        },
        {
          "indexed": false,
          "internalType": "address",
          "name": "creator",
          "type": "address"
        },
        {
          "indexed": false,
          "internalType": "address",
          "name": "provider",
          "type": "address"
        }
      ],
      "name": "StrategyProviderWalletCreated",
      "type": "event"
    },
    {
      "inputs": [
        {
          "internalType": "address",
          "name": "_creator",
          "type": "address"
        }
      ],
      "name": "addCreatorWhitelist",
      "outputs": [],
      "stateMutability": "nonpayable",
      "type": "function"
    },
    {
      "inputs": [
        {
          "internalType": "address",
          "name": "provider",
          "type": "address"
        }
      ],
      "name": "create",
      "outputs": [
        {
          "internalType": "address",
          "name": "walletAddress",
          "type": "address"
        }
      ],
      "stateMutability": "nonpayable",
      "type": "function"
    },
    {
      "inputs": [
        {
          "internalType": "uint256",
          "name": "",
          "type": "uint256"
        }
      ],
      "name": "creatorWhitelist",
      "outputs": [
        {
          "internalType": "address",
          "name": "",
          "type": "address"
        }
      ],
      "stateMutability": "view",
      "type": "function"
    },
    {
      "inputs": [
        {
          "internalType": "uint256",
          "name": "cursor",
          "type": "uint256"
        },
        {
          "internalType": "uint256",
          "name": "howMany",
          "type": "uint256"
        }
      ],
      "name": "getStrategyProviderWallets",
      "outputs": [
        {
          "internalType": "address[]",
          "name": "wallets",
          "type": "address[]"
        },
        {
          "internalType": "uint256",
          "name": "newCursor",
          "type": "uint256"
        }
      ],
      "stateMutability": "view",
      "type": "function"
    },
    {
      "inputs": [],
      "name": "getStrategyProviderWalletsLength",
      "outputs": [
        {
          "internalType": "uint256",
          "name": "",
          "type": "uint256"
        }
      ],
      "stateMutability": "view",
      "type": "function"
    },
    {
      "inputs": [
        {
          "internalType": "address",
          "name": "",
          "type": "address"
        }
      ],
      "name": "isIncreatorWhitelist",
      "outputs": [
        {
          "internalType": "bool",
          "name": "",
          "type": "bool"
        }
      ],
      "stateMutability": "view",
      "type": "function"
    },
    {
      "inputs": [
        {
          "internalType": "address",
          "name": "",
          "type": "address"
        }
      ],
      "name": "providerToWallet",
      "outputs": [
        {
          "internalType": "address",
          "name": "",
          "type": "address"
        }
      ],
      "stateMutability": "view",
      "type": "function"
    },
    {
      "inputs": [],
      "name": "registryAddressHolder",
      "outputs": [
        {
          "internalType": "address",
          "name": "",
          "type": "address"
        }
      ],
      "stateMutability": "view",
      "type": "function"
    },
    {
      "inputs": [
        {
          "internalType": "uint256",
          "name": "",
          "type": "uint256"
        }
      ],
      "name": "strategyProviderWallets",
      "outputs": [
        {
          "internalType": "address",
          "name": "",
          "type": "address"
        }
      ],
      "stateMutability": "view",
      "type": "function"
    },
    {
      "inputs": [],
      "name": "uniswapAddressHolder",
      "outputs": [
        {
          "internalType": "address",
          "name": "",
          "type": "address"
        }
      ],
      "stateMutability": "view",
      "type": "function"
    }
  ],
  "transactionHash": "0x89acbd72cf794f54444fb8b63fb96846e15c6cd7ba691fbc186a6c1b60078f8f",
  "args": [
    "0xe5b481AFFFbfe1A61d762f42d4c630a5AAD388f9",
    "0x162Ff164B376fB1Fb0Ed657467123b262F25a985"
  ],
  "numDeployments": 1,
  "solcInputHash": "dd6301e56a669096d4ac4bf415393c0f",
  "bytecode": "0x60c060405234801561001057600080fd5b50604051612f51380380612f5183398101604081905261002f916100be565b6001600160a01b03821661005e5760405162461bcd60e51b815260040161005590610112565b60405180910390fd5b6001600160a01b0381166100845760405162461bcd60e51b8152600401610055906100f0565b6001600160601b0319606092831b8116608052911b1660a052610134565b80516001600160a01b03811681146100b957600080fd5b919050565b600080604083850312156100d0578182fd5b6100d9836100a2565b91506100e7602084016100a2565b90509250929050565b602080825260089082015267053505746554148360c41b604082015260600190565b602080825260089082015267053505746524148360c41b604082015260600190565b60805160601c60a05160601c612de561016c6000398061048652806105955250806103d7528061046552806105d65250612de56000f3fe608060405234801561001057600080fd5b506004361061009e5760003560e01c80639ed93318116100665780639ed933181461011d578063b9bf52fa14610130578063c0f06ca414610143578063d5449e8a1461014b578063ee9639511461016b5761009e565b8063855ea501146100a357806391b4388a146100cc57806391d7a4c0146100e15780639362c87214610102578063974914d514610115575b600080fd5b6100b66100b136600461076c565b610180565b6040516100c391906107a5565b60405180910390f35b6100df6100da36600461072d565b6101aa565b005b6100f46100ef366004610784565b610346565b6040516100c39291906107f6565b6100b661011036600461072d565b6103ba565b6100b66103d5565b6100b661012b36600461072d565b6103f9565b6100b661013e36600461076c565b610583565b6100b6610593565b61015e61015936600461072d565b6105b7565b6040516100c39190610847565b6101736105cc565b6040516100c391906108d6565b6002818154811061019057600080fd5b6000918252602090912001546001600160a01b0316905081565b6101b26105d2565b6001600160a01b0316635aa6e6756040518163ffffffff1660e01b815260040160206040518083038186803b1580156101ea57600080fd5b505afa1580156101fe573d6000803e3d6000fd5b505050506040513d601f19601f820116820180604052508101906102229190610750565b6001600160a01b0316336001600160a01b03161461025b5760405162461bcd60e51b8152600401610252906108b6565b60405180910390fd5b6001600160a01b0381166102815760405162461bcd60e51b815260040161025290610896565b6001600160a01b03811660009081526001602052604090205460ff16156102ba5760405162461bcd60e51b815260040161025290610852565b6001600160a01b0381166000818152600160208190526040808320805460ff19168317905560038054928301815583527fc2575a0e9e593c00f959f8c92f12db2869c3395a3b0502d05e2516446f71f85b90910180546001600160a01b03191684179055517f05f473d1b34c8f32a961cd25acb4b4a8d821494ceb17adb8135a4c688b246b819190a250565b606060006103af60028054806020026020016040519081016040528092919081815260200182805480156103a357602002820191906000526020600020905b81546001600160a01b03168152600190910190602001808311610385575b5050505050858561066a565b915091509250929050565b6000602081905290815260409020546001600160a01b031681565b7f000000000000000000000000000000000000000000000000000000000000000081565b3360009081526001602052604081205460ff166104285760405162461bcd60e51b815260040161025290610875565b6001600160a01b0382811660009081526020819052604090205416156104605760405162461bcd60e51b815260040161025290610896565b6000827f00000000000000000000000000000000000000000000000000000000000000007f00000000000000000000000000000000000000000000000000000000000000006040516104b190610720565b6104bd939291906107d3565b604051809103906000f0801580156104d9573d6000803e3d6000fd5b5060028054600181019091557f405787fa12a823e0f2b7631cc41b3ba8828b3321ca811111fa75cd3aa3bb5ace0180546001600160a01b038084166001600160a01b031992831681179093558616600090815260208190526040908190208054909216831790915551919250907fd890f9578a4be2aa1ee3b366b0dded83b2511d054d690843b5d8185d0dfdda489061057590339087906107b9565b60405180910390a292915050565b6003818154811061019057600080fd5b7f000000000000000000000000000000000000000000000000000000000000000081565b60016020526000908152604090205460ff1681565b60025490565b60007f00000000000000000000000000000000000000000000000000000000000000006001600160a01b0316637b1039996040518163ffffffff1660e01b815260040160206040518083038186803b15801561062d57600080fd5b505afa158015610641573d6000803e3d6000fd5b505050506040513d601f19601f820116820180604052508101906106659190610750565b905090565b82516060906000908481038411156106825784810393505b8367ffffffffffffffff8111801561069957600080fd5b506040519080825280602002602001820160405280156106c3578160200160208202803683370190505b50925060005b848110156107135786818701815181106106df57fe5b60200260200101518482815181106106f357fe5b6001600160a01b03909216602092830291909101909101526001016106c9565b5091959390920193505050565b6124b8806108f883390190565b60006020828403121561073e578081fd5b8135610749816108df565b9392505050565b600060208284031215610761578081fd5b8151610749816108df565b60006020828403121561077d578081fd5b5035919050565b60008060408385031215610796578081fd5b50508035926020909101359150565b6001600160a01b0391909116815260200190565b6001600160a01b0392831681529116602082015260400190565b6001600160a01b0393841681529183166020830152909116604082015260600190565b604080825283519082018190526000906020906060840190828701845b828110156108385781516001600160a01b031684529284019290840190600101610813565b50505092019290925292915050565b901515815260200190565b60208082526009908201526814d415d1939250d5d360ba1b604082015260600190565b60208082526007908201526614d415d3d0d5d360ca1b604082015260600190565b60208082526006908201526505350574641360d41b604082015260600190565b602080825260069082015265535057464f4760d01b604082015260600190565b90815260200190565b6001600160a01b03811681146108f457600080fd5b5056fe60e06040523480156200001157600080fd5b50604051620024b8380380620024b8833981016040819052620000349162000079565b6001600160601b0319606093841b811660805291831b821660a05290911b1660c052620000c2565b80516001600160a01b03811681146200007457600080fd5b919050565b6000806000606084860312156200008e578283fd5b62000099846200005c565b9250620000a9602085016200005c565b9150620000b9604085016200005c565b90509250925092565b60805160601c60a05160601c60c05160601c61239362000125600039806109db5280610d7752806112b9525080610d125280611653525080610240528061048452806109335280610cee5280610da45280610eed528061154452506123936000f3fe608060405234801561001057600080fd5b50600436106100ea5760003560e01c80638da5cb5b1161008c578063c0f06ca411610066578063c0f06ca4146101f4578063d657c9e7146101fc578063e99b73fd1461020f578063fc20ed2b14610222576100ea565b80638da5cb5b146101b4578063974914d5146101c9578063aa948932146101d1576100ea565b80634afecb48116100c85780634afecb481461014d578063577bd3d31461016057806359be5364146101815780638ba7e9dc146101a1576100ea565b806314ada064146100ef57806325eda717146101045780632dc1eaf01461012d575b600080fd5b6101026100fd366004611ed2565b610235565b005b610117610112366004611de9565b61042d565b604051610124919061213a565b60405180910390f35b61014061013b366004611f9e565b610442565b6040516101249190612145565b61010261015b366004611e03565b610479565b61017361016e366004611fce565b610821565b6040516101249291906120e9565b61019461018f366004611de9565b610895565b6040516101249190612270565b6101026101af366004611e39565b610928565b6101bc610cec565b6040516101249190611ffd565b6101bc610d10565b6101e46101df366004611de9565b610d34565b604051610124949392919061208a565b6101bc610d75565b61010261020a366004611cbb565b610d99565b61011761021d366004611cbb565b610ecd565b610102610230366004611cf3565b610ee2565b336001600160a01b037f000000000000000000000000000000000000000000000000000000000000000016146102865760405162461bcd60e51b815260040161027d90612213565b60405180910390fd5b6001600160801b031982166000908152600160209081526040808320548151630dfe168160e01b815291516001600160a01b0390911693928492630dfe16819260048083019392829003018186803b1580156102e157600080fd5b505afa1580156102f5573d6000803e3d6000fd5b505050506040513d601f19601f820116820180604052508101906103199190611cd7565b90506000826001600160a01b031663d21220a76040518163ffffffff1660e01b815260040160206040518083038186803b15801561035657600080fd5b505afa15801561036a573d6000803e3d6000fd5b505050506040513d601f19601f8201168201806040525081019061038e9190611cd7565b905061039b828286610f35565b6001600160801b0319851660009081526001602052604090208054600160b01b80820460ff16928792909160ff60b01b19909116908360028111156103dc57fe5b0217905550856001600160801b0319167f6d3f55486d40d3efbeb2e8fabac42ee58d7c86cff42dc4a0c14b52b518072262828760405161041d92919061215a565b60405180910390a2505050505050565b60026020526000908152604090205460ff1681565b6000818154811061045257600080fd5b9060005260206000209060029182820401919006601002915054906101000a900460801b81565b336001600160a01b037f000000000000000000000000000000000000000000000000000000000000000016146104c15760405162461bcd60e51b815260040161027d90612213565b6001600160801b031982166000908152600160209081526040808320815160808101835281546001600160a01b0381168252600160a01b810461ffff1694820194909452929091830190600160b01b900460ff16600281111561052057fe5b600281111561052b57fe5b81529054600160b81b900463ffffffff16602090910152905060008160400151600281111561055657fe5b14156106cf576106ca81600001516001600160a01b0316630dfe16816040518163ffffffff1660e01b815260040160206040518083038186803b15801561059c57600080fd5b505afa1580156105b0573d6000803e3d6000fd5b505050506040513d601f19601f820116820180604052508101906105d49190611cd7565b82600001516001600160a01b0316630dfe16816040518163ffffffff1660e01b815260040160206040518083038186803b15801561061157600080fd5b505afa158015610625573d6000803e3d6000fd5b505050506040513d601f19601f820116820180604052508101906106499190611cd7565b6001600160a01b03166370a08231306040518263ffffffff1660e01b81526004016106749190611ffd565b60206040518083038186803b15801561068c57600080fd5b505afa1580156106a0573d6000803e3d6000fd5b505050506040513d601f19601f820116820180604052508101906106c49190611fb6565b84611132565b61081c565b6001816040015160028111156106e157fe5b141561079c576106ca81600001516001600160a01b031663d21220a76040518163ffffffff1660e01b815260040160206040518083038186803b15801561072757600080fd5b505afa15801561073b573d6000803e3d6000fd5b505050506040513d601f19601f8201168201806040525081019061075f9190611cd7565b82600001516001600160a01b031663d21220a76040518163ffffffff1660e01b815260040160206040518083038186803b15801561061157600080fd5b6107dc81600001516001600160a01b0316630dfe16816040518163ffffffff1660e01b815260040160206040518083038186803b15801561059c57600080fd5b61081c81600001516001600160a01b031663d21220a76040518163ffffffff1660e01b815260040160206040518083038186803b15801561072757600080fd5b505050565b6060600061088a600480548060200260200160405190810160405280929190818152602001828054801561087e57602002820191906000526020600020905b81546001600160a01b03168152600190910190602001808311610860575b505050505085856111f2565b915091509250929050565b61089d611c61565b6001600160801b03198216600090815260016020908152604091829020825160808101845281546001600160a01b0381168252600160a01b810461ffff169382019390935292909190830190600160b01b900460ff1660028111156108fe57fe5b600281111561090957fe5b81529054600160b81b900463ffffffff1660209091015290505b919050565b336001600160a01b037f000000000000000000000000000000000000000000000000000000000000000016146109705760405162461bcd60e51b815260040161027d90612213565b6001600160801b03198716600090815260026020526040902054879060ff16156109ac5760405162461bcd60e51b815260040161027d90612251565b856001600160a01b0316876001600160a01b0316106109cc5785876109cf565b86865b809750819850505060007f00000000000000000000000000000000000000000000000000000000000000006001600160a01b03166380f5db8c6040518163ffffffff1660e01b815260040160206040518083038186803b158015610a3257600080fd5b505afa158015610a46573d6000803e3d6000fd5b505050506040513d601f19601f82011682018060405250810190610a6a9190611cd7565b6001600160a01b0316631698ee828989896040518463ffffffff1660e01b8152600401610a9993929190612011565b60206040518083038186803b158015610ab157600080fd5b505afa158015610ac5573d6000803e3d6000fd5b505050506040513d601f19601f82011682018060405250810190610ae99190611cd7565b90506001600160a01b038116610b115760405162461bcd60e51b815260040161027d90612195565b610b1a816112a8565b610b23856114c1565b610b2c836115d7565b610b37888886610f35565b60008054600180820183557f290decd9548b62a8d60345a988386fc84ba6bc95484008f6362f93160ef3e56360028084049190910180546001600160801b039484166010026101000a948502191660808f811c959095021790556001600160801b03198d1684526020818152604094859020805460ff1916909317909255835192830184526001600160a01b038516835261ffff89169183019190915290918201908690811115610be457fe5b815263ffffffff85166020918201526001600160801b03198b16600090815260018252604090819020835181549385015161ffff16600160a01b0261ffff60a01b196001600160a01b039092166001600160a01b03199095169490941716929092178083559083015190829060ff60b01b1916600160b01b836002811115610c6857fe5b021790555060609190910151815463ffffffff909116600160b81b0263ffffffff60b81b199091161790556040516001600160801b03198a16907f65fb98d51cea444dc65c28ec85ca3a911d8ca679ef153df825d063c810ad131390610cd9908b908b908b908b908b908b90612039565b60405180910390a2505050505050505050565b7f000000000000000000000000000000000000000000000000000000000000000081565b7f000000000000000000000000000000000000000000000000000000000000000081565b6001602052600090815260409020546001600160a01b03811690600160a01b810461ffff1690600160b01b810460ff1690600160b81b900463ffffffff1684565b7f000000000000000000000000000000000000000000000000000000000000000081565b336001600160a01b037f00000000000000000000000000000000000000000000000000000000000000001614610de15760405162461bcd60e51b815260040161027d90612213565b60005b600454811015610ec957600060048281548110610dfd57fe5b6000918252602090912001546040516370a0823160e01b81526001600160a01b03909116906370a0823190610e36903090600401611ffd565b60206040518083038186803b158015610e4e57600080fd5b505afa158015610e62573d6000803e3d6000fd5b505050506040513d601f19601f82011682018060405250810190610e869190611fb6565b905080610e935750610ec1565b610ebf60048381548110610ea357fe5b6000918252602090912001546001600160a01b03168285611132565b505b600101610de4565b5050565b60036020526000908152604090205460ff1681565b336001600160a01b037f00000000000000000000000000000000000000000000000000000000000000001614610f2a5760405162461bcd60e51b815260040161027d90612213565b61081c838383611132565b6000816002811115610f4357fe5b1415610fbf576001600160a01b03831660009081526003602052604090205460ff166106ca576004805460018082019092556000805160206123148339815191520180546001600160a01b0319166001600160a01b0386169081179091556000908152600360205260409020805460ff1916909117905561081c565b6001816002811115610fcd57fe5b1415611049576001600160a01b03821660009081526003602052604090205460ff166106ca576004805460018082019092556000805160206123148339815191520180546001600160a01b0319166001600160a01b0385169081179091556000908152600360205260409020805460ff1916909117905561081c565b6001600160a01b03831660009081526003602052604090205460ff166110bb576004805460018082019092556000805160206123148339815191520180546001600160a01b0319166001600160a01b0386169081179091556000908152600360205260409020805460ff191690911790555b6001600160a01b03821660009081526003602052604090205460ff1661081c576004805460018181019092556000805160206123148339815191520180546001600160a01b0385166001600160a01b031990911681179091556000908152600360205260409020805460ff19169091179055505050565b6001600160a01b0383166111585760405162461bcd60e51b815260040161027d906121f4565b6001600160a01b03811661117e5760405162461bcd60e51b815260040161027d906121f4565b6000821161119e5760405162461bcd60e51b815260040161027d906121b5565b6111b26001600160a01b03841682846115fd565b7fe0c0498df5a94311411e1ffeadefb28b6a7c7ca4f7fe6a14bcbd42ae763995518383836040516111e5939291906120c6565b60405180910390a1505050565b825160609060009084810384111561120a5784810393505b8367ffffffffffffffff8111801561122157600080fd5b5060405190808252806020026020018201604052801561124b578160200160208202803683370190505b50925060005b8481101561129b57868187018151811061126757fe5b602002602001015184828151811061127b57fe5b6001600160a01b0390921660209283029190910190910152600101611251565b5091959390920193505050565b60006112b261164f565b90506114a57f00000000000000000000000000000000000000000000000000000000000000006001600160a01b03166380f5db8c6040518163ffffffff1660e01b815260040160206040518083038186803b15801561131057600080fd5b505afa158015611324573d6000803e3d6000fd5b505050506040513d601f19601f820116820180604052508101906113489190611cd7565b83836001600160a01b03166350879c1c6040518163ffffffff1660e01b815260040160206040518083038186803b15801561138257600080fd5b505afa158015611396573d6000803e3d6000fd5b505050506040513d601f19601f820116820180604052508101906113ba9190611cd7565b846001600160a01b03166308846aa26040518163ffffffff1660e01b815260040160206040518083038186803b1580156113f357600080fd5b505afa158015611407573d6000803e3d6000fd5b505050506040513d601f19601f8201168201806040525081019061142b9190611cd7565b856001600160a01b03166386dd37f36040518163ffffffff1660e01b815260040160006040518083038186803b15801561146457600080fd5b505afa158015611478573d6000803e3d6000fd5b505050506040513d6000823e601f3d908101601f191682016040526114a09190810190611d34565b6116e7565b610ec95760405162461bcd60e51b815260040161027d90612175565b6114c961164f565b6001600160a01b0316632b92b97f6040518163ffffffff1660e01b815260040160206040518083038186803b15801561150157600080fd5b505afa158015611515573d6000803e3d6000fd5b505050506040513d601f19601f820116820180604052508101906115399190611cd7565b6001600160a01b03167f00000000000000000000000000000000000000000000000000000000000000006001600160a01b0316146115ae576102ee8161ffff161015801561158d57506119648161ffff1611155b6115a95760405162461bcd60e51b815260040161027d906121d4565b6115d4565b6127108161ffff1611156115d45760405162461bcd60e51b815260040161027d906121d4565b50565b60008163ffffffff16116115d45760405162461bcd60e51b815260040161027d90612232565b604080516001600160a01b038416602482015260448082018490528251808303909101815260649091019091526020810180516001600160e01b031663a9059cbb60e01b17905261081c908490611840565b60007f00000000000000000000000000000000000000000000000000000000000000006001600160a01b0316637b1039996040518163ffffffff1660e01b815260040160206040518083038186803b1580156116aa57600080fd5b505afa1580156116be573d6000803e3d6000fd5b505050506040513d601f19601f820116820180604052508101906116e29190611cd7565b905090565b600080856001600160a01b0316633850c7bd6040518163ffffffff1660e01b815260040160e06040518083038186803b15801561172357600080fd5b505afa158015611737573d6000803e3d6000fd5b505050506040513d601f19601f8201168201806040525081019061175b9190611f04565b965050505050505080611772576000915050611837565b6117ef87876001600160a01b0316630dfe16816040518163ffffffff1660e01b815260040160206040518083038186803b1580156117af57600080fd5b505afa1580156117c3573d6000803e3d6000fd5b505050506040513d601f19601f820116820180604052508101906117e79190611cd7565b8787876118f1565b8015611833575061183387876001600160a01b031663d21220a76040518163ffffffff1660e01b815260040160206040518083038186803b1580156117af57600080fd5b9150505b95945050505050565b6000611895826040518060400160405280602081526020017f5361666545524332303a206c6f772d6c6576656c2063616c6c206661696c6564815250856001600160a01b03166119479092919063ffffffff16565b80519091501561081c578080602001905160208110156118b457600080fd5b505161081c5760405162461bcd60e51b815260040180806020018281038252602a815260200180612334602a913960400191505060405180910390fd5b6000836001600160a01b0316856001600160a01b031614806119245750826001600160a01b0316856001600160a01b0316145b1561193157506001611837565b61193d86868585611960565b9695505050505050565b60606119568484600085611a5c565b90505b9392505050565b6000805b8251811015611a4e5782818151811061197957fe5b602002602001015162ffffff166000141561199357611a46565b6000866001600160a01b0316631698ee8287878786815181106119b257fe5b60200260200101516040518463ffffffff1660e01b81526004016119d893929190612011565b60206040518083038186803b1580156119f057600080fd5b505afa158015611a04573d6000803e3d6000fd5b505050506040513d601f19601f82011682018060405250810190611a289190611cd7565b90506001600160a01b03811615611a4457600192505050611a54565b505b600101611964565b50600090505b949350505050565b606082471015611a9d5760405162461bcd60e51b81526004018080602001828103825260268152602001806122ee6026913960400191505060405180910390fd5b611aa685611bb7565b611af7576040805162461bcd60e51b815260206004820152601d60248201527f416464726573733a2063616c6c20746f206e6f6e2d636f6e7472616374000000604482015290519081900360640190fd5b600080866001600160a01b031685876040518082805190602001908083835b60208310611b355780518252601f199092019160209182019101611b16565b6001836020036101000a03801982511681845116808217855250505050505090500191505060006040518083038185875af1925050503d8060008114611b97576040519150601f19603f3d011682016040523d82523d6000602084013e611b9c565b606091505b5091509150611bac828286611bbd565b979650505050505050565b3b151590565b60608315611bcc575081611959565b825115611bdc5782518084602001fd5b8160405162461bcd60e51b81526004018080602001828103825283818151815260200191508051906020019080838360005b83811015611c26578181015183820152602001611c0e565b50505050905090810190601f168015611c535780820380516001836020036101000a031916815260200191505b509250505060405180910390fd5b6040805160808101825260008082526020820181905290918201908152600060209091015290565b80356001600160801b03198116811461092357600080fd5b80356003811061092357600080fd5b8051610923816122dc565b600060208284031215611ccc578081fd5b8135611959816122b7565b600060208284031215611ce8578081fd5b8151611959816122b7565b600080600060608486031215611d07578182fd5b8335611d12816122b7565b9250602084013591506040840135611d29816122b7565b809150509250925092565b60006020808385031215611d46578182fd5b825167ffffffffffffffff80821115611d5d578384fd5b818501915085601f830112611d70578384fd5b815181811115611d7c57fe5b83810260405185828201018181108582111715611d9557fe5b604052828152858101935084860182860187018a1015611db3578788fd5b8795505b83861015611ddc57611dc881611cb0565b855260019590950194938601938601611db7565b5098975050505050505050565b600060208284031215611dfa578081fd5b61195982611c89565b60008060408385031215611e15578182fd5b611e1e83611c89565b91506020830135611e2e816122b7565b809150509250929050565b600080600080600080600060e0888a031215611e53578283fd5b611e5c88611c89565b96506020880135611e6c816122b7565b95506040880135611e7c816122b7565b94506060880135611e8c816122dc565b93506080880135611e9c816122cc565b9250611eaa60a08901611ca1565b915060c088013563ffffffff81168114611ec2578182fd5b8091505092959891949750929550565b60008060408385031215611ee4578182fd5b611eed83611c89565b9150611efb60208401611ca1565b90509250929050565b600080600080600080600060e0888a031215611f1e578081fd5b8751611f29816122b7565b8097505060208801518060020b8114611f40578182fd5b6040890151909650611f51816122cc565b6060890151909550611f62816122cc565b6080890151909450611f73816122cc565b60a089015190935060ff81168114611f89578182fd5b60c08901519092508015158114611ec2578182fd5b600060208284031215611faf578081fd5b5035919050565b600060208284031215611fc7578081fd5b5051919050565b60008060408385031215611fe0578182fd5b50508035926020909101359150565b60038110611ff957fe5b9052565b6001600160a01b0391909116815260200190565b6001600160a01b03938416815291909216602082015262ffffff909116604082015260600190565b6001600160a01b0387811682528616602082015262ffffff8516604082015261ffff8416606082015260c081016120736080830185611fef565b63ffffffff831660a0830152979650505050505050565b6001600160a01b038516815261ffff84166020820152608081016120b16040830185611fef565b63ffffffff8316606083015295945050505050565b6001600160a01b0393841681526020810192909252909116604082015260600190565b604080825283519082018190526000906020906060840190828701845b8281101561212b5781516001600160a01b031684529284019290840190600101612106565b50505092019290925292915050565b901515815260200190565b6001600160801b031991909116815260200190565b604081016121688285611fef565b6119596020830184611fef565b60208082526006908201526529a82ba1a82b60d11b604082015260600190565b60208082526006908201526505350574150360d41b604082015260600190565b6020808252600590820152645350574e4160d81b604082015260600190565b60208082526006908201526529a82ba8232960d11b604082015260600190565b60208082526005908201526429a82ba72960d91b604082015260600190565b6020808252600590820152645350574f4f60d81b604082015260600190565b6020808252600590820152645350574c4160d81b604082015260600190565b602080825260059082015264535057534560d81b604082015260600190565b81516001600160a01b0316815260208083015161ffff169082015260408083015160808301916122a290840182611fef565b5060609283015163ffffffff16919092015290565b6001600160a01b03811681146115d457600080fd5b61ffff811681146115d457600080fd5b62ffffff811681146115d457600080fdfe416464726573733a20696e73756666696369656e742062616c616e636520666f722063616c6c8a35acfbc15ff81a39ae7d344fd709f28e8600b4aa8c65c6b64bfe7fe36bd19b5361666545524332303a204552433230206f7065726174696f6e20646964206e6f742073756363656564a2646970667358221220beabecb0fdf0cd7ab09a575c0f5297955e346d6f77fca7d1456757cecb50230c64736f6c63430007060033a2646970667358221220962a13903247b11f73b3eac847053fa369a4c89f9044318b2afc6ffd395ad5ea64736f6c63430007060033",
  "devdoc": {
    "events": {
      "CreatorWhitelistAdded(address)": {
        "params": {
          "creator": "address of creator"
        }
      },
      "StrategyProviderWalletCreated(address,address,address)": {
        "params": {
          "provider": "address of provider",
          "strategyProviderWallet": "address of StrategyProviderWallet"
        }
      }
    },
    "kind": "dev",
    "methods": {
      "addCreatorWhitelist(address)": {
        "params": {
          "_creator": "address of creator"
        }
      },
      "create(address)": {
        "params": {
          "provider": "address of provider"
        }
      },
      "getStrategyProviderWallets(uint256,uint256)": {
        "params": {
          "cursor": "is the aforementioned cursor. It simply indicates the starting index for enumeration. The first call should pass 0, and subsequent calls should pass the returned newCursor.",
          "howMany": "indicates how many items should be returned. If there arent enough remaining items in the array, the function will return fewer items."
        },
        "returns": {
          "newCursor": "uint256 return the new cursor",
          "wallets": "address[] return array of StrategyProviderWallet addresses"
        }
      },
      "getStrategyProviderWalletsLength()": {
        "returns": {
          "_0": "uint256 length of the strategy provider wallet array"
        }
      }
    },
    "version": 1
  },
  "userdoc": {
    "events": {
      "CreatorWhitelistAdded(address)": {
        "notice": "emitted when a creator is added to whitelist"
      },
      "StrategyProviderWalletCreated(address,address,address)": {
        "notice": "emitted when a new strategy provider wallet is created"
      }
    },
    "kind": "user",
    "methods": {
      "addCreatorWhitelist(address)": {
        "notice": "add creator to whitelist"
      },
      "create(address)": {
        "notice": "create the strategy provider wallet"
      },
      "getStrategyProviderWallets(uint256,uint256)": {
        "notice": "get the array of strategy provider wallet addresses"
      },
      "getStrategyProviderWalletsLength()": {
        "notice": "get the length of the strategy provider wallet array"
      }
    },
    "version": 1
  },
  "storageLayout": {
    "storage": [
      {
        "astId": 9310,
        "contract": "contracts/StrategyProviderWalletFactory.sol:StrategyProviderWalletFactory",
        "label": "providerToWallet",
        "offset": 0,
        "slot": "0",
        "type": "t_mapping(t_address,t_address)"
      },
      {
        "astId": 9314,
        "contract": "contracts/StrategyProviderWalletFactory.sol:StrategyProviderWalletFactory",
        "label": "isIncreatorWhitelist",
        "offset": 0,
        "slot": "1",
        "type": "t_mapping(t_address,t_bool)"
      },
      {
        "astId": 9317,
        "contract": "contracts/StrategyProviderWalletFactory.sol:StrategyProviderWalletFactory",
        "label": "strategyProviderWallets",
        "offset": 0,
        "slot": "2",
        "type": "t_array(t_address)dyn_storage"
      },
      {
        "astId": 9320,
        "contract": "contracts/StrategyProviderWalletFactory.sol:StrategyProviderWalletFactory",
        "label": "creatorWhitelist",
        "offset": 0,
        "slot": "3",
        "type": "t_array(t_address)dyn_storage"
      }
    ],
    "types": {
      "t_address": {
        "encoding": "inplace",
        "label": "address",
        "numberOfBytes": "20"
      },
      "t_array(t_address)dyn_storage": {
        "base": "t_address",
        "encoding": "dynamic_array",
        "label": "address[]",
        "numberOfBytes": "32"
      },
      "t_bool": {
        "encoding": "inplace",
        "label": "bool",
        "numberOfBytes": "1"
      },
      "t_mapping(t_address,t_address)": {
        "encoding": "mapping",
        "key": "t_address",
        "label": "mapping(address => address)",
        "numberOfBytes": "32",
        "value": "t_address"
      },
      "t_mapping(t_address,t_bool)": {
        "encoding": "mapping",
        "key": "t_address",
        "label": "mapping(address => bool)",
        "numberOfBytes": "32",
        "value": "t_bool"
      }
    }
  }
}