{
  "address": "0x7Deeef88b4AA5AA7A8524D41B2636D33850c6C9b",
  "abi": [
    {
      "anonymous": false,
      "inputs": [
        {
          "indexed": true,
          "internalType": "address",
          "name": "positionManager",
          "type": "address"
        },
        {
          "indexed": false,
          "internalType": "address",
          "name": "receiver",
          "type": "address"
        },
        {
          "indexed": false,
          "internalType": "uint256",
          "name": "amount",
          "type": "uint256"
        }
      ],
      "name": "NativeTokenWithdrawn",
      "type": "event"
    },
    {
      "inputs": [
        {
          "components": [
            {
              "internalType": "uint256",
              "name": "amount",
              "type": "uint256"
            },
            {
              "internalType": "address payable",
              "name": "receiver",
              "type": "address"
            }
          ],
          "internalType": "struct IWithdrawNativeToken.WithdrawNativeTokenInput",
          "name": "input",
          "type": "tuple"
        }
      ],
      "name": "withdrawNativeToken",
      "outputs": [],
      "stateMutability": "payable",
      "type": "function"
    }
  ],
  "transactionHash": "0xcf48fa2d74e90e5485c98f788ad2f96eeb454dda49941f69efde1f26503b6bc5",
  "args": [],
  "numDeployments": 1,
  "solcInputHash": "e0f76533d5690c320d962bc474431dde",
  "bytecode": "0x608060405234801561001057600080fd5b5061021e806100206000396000f3fe60806040526004361061001e5760003560e01c80636c38e43614610023575b600080fd5b610036610031366004610175565b610038565b005b80354710156100625760405162461bcd60e51b8152600401610059906101a8565b60405180910390fd5b8035156100fa57600061007b6040830160208401610147565b6001600160a01b031682600001356040516100959061018c565b60006040518083038185875af1925050503d80600081146100d2576040519150601f19603f3d011682016040523d82523d6000602084013e6100d7565b606091505b50509050806100f85760405162461bcd60e51b8152600401610059906101c8565b505b307fc31c07d3d0aa96dfe35beac3846c2a6f1e00aa573fc7ebb1748fdb20bb4a657c61012c6040840160208501610147565b60405161013c919085359061018f565b60405180910390a250565b600060208284031215610158578081fd5b81356001600160a01b038116811461016e578182fd5b9392505050565b600060408284031215610186578081fd5b50919050565b90565b6001600160a01b03929092168252602082015260400190565b6020808252600690820152652ba72a26a4a160d11b604082015260600190565b602080825260069082015265574e544d534560d01b60408201526060019056fea26469706673582212204479fe768a69b152fa646f0055ffce0b696227a4cac729f8f660de0fffcec7cf64736f6c63430007060033",
  "devdoc": {
    "kind": "dev",
    "methods": {
      "withdrawNativeToken((uint256,address))": {
        "params": {
          "input": "struct of withdrawNativeToken parameters"
        }
      }
    },
    "version": 1
  },
  "userdoc": {
    "events": {
      "NativeTokenWithdrawn(address,address,uint256)": {
        "notice": "emitted when native token withdrawn"
      }
    },
    "kind": "user",
    "methods": {
      "withdrawNativeToken((uint256,address))": {
        "notice": "withdraw native token to receiver"
      }
    },
    "notice": "action to withdraw native token",
    "version": 1
  },
  "storageLayout": {
    "storage": [],
    "types": null
  }
}