{
  "address": "0x76136A56963740b4992C5E9dA5bB58ECffC92ce3",
  "abi": [
    {
      "inputs": [
        {
          "internalType": "address",
          "name": "_registryAddressHolder",
          "type": "address"
        },
        {
          "internalType": "address",
          "name": "_uniswapAddressHolder",
          "type": "address"
        }
      ],
      "stateMutability": "nonpayable",
      "type": "constructor"
    },
    {
      "inputs": [
        {
          "internalType": "address",
          "name": "userAddress",
          "type": "address"
        },
        {
          "internalType": "uint256",
          "name": "positionId",
          "type": "uint256"
        }
      ],
      "name": "estimateWithdrawPosition",
      "outputs": [
        {
          "components": [
            {
              "internalType": "uint256",
              "name": "amount0Returned",
              "type": "uint256"
            },
            {
              "internalType": "uint256",
              "name": "amount1Returned",
              "type": "uint256"
            },
            {
              "internalType": "uint256",
              "name": "amount0ReturnedUsdValue",
              "type": "uint256"
            },
            {
              "internalType": "uint256",
              "name": "amount1ReturnedUsdValue",
              "type": "uint256"
            },
            {
              "internalType": "uint256",
              "name": "amount0ReturnedToken1Value",
              "type": "uint256"
            },
            {
              "internalType": "uint256",
              "name": "amount1ReturnedToken0Value",
              "type": "uint256"
            },
            {
              "internalType": "uint256",
              "name": "amount0PerformanceFee",
              "type": "uint256"
            },
            {
              "internalType": "uint256",
              "name": "amount1PerformanceFee",
              "type": "uint256"
            },
            {
              "internalType": "uint256",
              "name": "amount0PerformanceFeeUsdValue",
              "type": "uint256"
            },
            {
              "internalType": "uint256",
              "name": "amount1PerformanceFeeUsdValue",
              "type": "uint256"
            }
          ],
          "internalType": "struct PositionHelper.EstimateWithdrawPositionOutput",
          "name": "output",
          "type": "tuple"
        }
      ],
      "stateMutability": "view",
      "type": "function"
    },
    {
      "inputs": [
        {
          "internalType": "address",
          "name": "userAddress",
          "type": "address"
        },
        {
          "internalType": "uint256",
          "name": "positionId",
          "type": "uint256"
        }
      ],
      "name": "getAmounts",
      "outputs": [
        {
          "components": [
            {
              "internalType": "address",
              "name": "token0",
              "type": "address"
            },
            {
              "internalType": "address",
              "name": "token1",
              "type": "address"
            },
            {
              "internalType": "uint256",
              "name": "amount0",
              "type": "uint256"
            },
            {
              "internalType": "uint256",
              "name": "amount1",
              "type": "uint256"
            },
            {
              "internalType": "uint256",
              "name": "amount0UsdValue",
              "type": "uint256"
            },
            {
              "internalType": "uint256",
              "name": "amount1UsdValue",
              "type": "uint256"
            }
          ],
          "internalType": "struct PositionHelper.GetAmountsOutput",
          "name": "output",
          "type": "tuple"
        }
      ],
      "stateMutability": "view",
      "type": "function"
    },
    {
      "inputs": [
        {
          "internalType": "address",
          "name": "userAddress",
          "type": "address"
        },
        {
          "internalType": "uint256",
          "name": "positionId",
          "type": "uint256"
        }
      ],
      "name": "getPositionInfo",
      "outputs": [
        {
          "components": [
            {
              "internalType": "uint256",
              "name": "tokenId",
              "type": "uint256"
            },
            {
              "internalType": "address",
              "name": "strategyProvider",
              "type": "address"
            },
            {
              "internalType": "bytes16",
              "name": "strategyId",
              "type": "bytes16"
            },
            {
              "internalType": "uint256",
              "name": "amount0Deposited",
              "type": "uint256"
            },
            {
              "internalType": "uint256",
              "name": "amount1Deposited",
              "type": "uint256"
            },
            {
              "internalType": "uint256",
              "name": "amount0DepositedUsdValue",
              "type": "uint256"
            },
            {
              "internalType": "uint256",
              "name": "amount1DepositedUsdValue",
              "type": "uint256"
            },
            {
              "internalType": "uint256",
              "name": "amount0CollectedFee",
              "type": "uint256"
            },
            {
              "internalType": "uint256",
              "name": "amount1CollectedFee",
              "type": "uint256"
            },
            {
              "internalType": "uint256",
              "name": "amount0Leftover",
              "type": "uint256"
            },
            {
              "internalType": "uint256",
              "name": "amount1Leftover",
              "type": "uint256"
            },
            {
              "internalType": "int24",
              "name": "tickLowerDiff",
              "type": "int24"
            },
            {
              "internalType": "int24",
              "name": "tickUpperDiff",
              "type": "int24"
            }
          ],
          "internalType": "struct IPositionManager.PositionInfo",
          "name": "pInfo",
          "type": "tuple"
        }
      ],
      "stateMutability": "view",
      "type": "function"
    },
    {
      "inputs": [
        {
          "internalType": "address",
          "name": "userAddress",
          "type": "address"
        },
        {
          "internalType": "uint256",
          "name": "positionId",
          "type": "uint256"
        }
      ],
      "name": "getPositionSettlement",
      "outputs": [
        {
          "components": [
            {
              "internalType": "uint256",
              "name": "amount0Returned",
              "type": "uint256"
            },
            {
              "internalType": "uint256",
              "name": "amount1Returned",
              "type": "uint256"
            },
            {
              "internalType": "uint256",
              "name": "amount0ReturnedUsdValue",
              "type": "uint256"
            },
            {
              "internalType": "uint256",
              "name": "amount1ReturnedUsdValue",
              "type": "uint256"
            }
          ],
          "internalType": "struct IPositionManager.PositionSettlement",
          "name": "settlement",
          "type": "tuple"
        }
      ],
      "stateMutability": "view",
      "type": "function"
    },
    {
      "inputs": [
        {
          "internalType": "address",
          "name": "userAddress",
          "type": "address"
        },
        {
          "internalType": "uint256",
          "name": "positionId",
          "type": "uint256"
        }
      ],
      "name": "getPositionTokenInfo",
      "outputs": [
        {
          "components": [
            {
              "internalType": "uint256",
              "name": "tokenId",
              "type": "uint256"
            },
            {
              "internalType": "address",
              "name": "token0",
              "type": "address"
            },
            {
              "internalType": "address",
              "name": "token1",
              "type": "address"
            },
            {
              "internalType": "uint24",
              "name": "fee",
              "type": "uint24"
            },
            {
              "internalType": "int24",
              "name": "tickLower",
              "type": "int24"
            },
            {
              "internalType": "int24",
              "name": "tickUpper",
              "type": "int24"
            },
            {
              "internalType": "address",
              "name": "strategyProvider",
              "type": "address"
            },
            {
              "internalType": "bytes16",
              "name": "strategyId",
              "type": "bytes16"
            },
            {
              "internalType": "uint256",
              "name": "amount0Deposited",
              "type": "uint256"
            },
            {
              "internalType": "uint256",
              "name": "amount1Deposited",
              "type": "uint256"
            },
            {
              "internalType": "uint256",
              "name": "amount0DepositedUsdValue",
              "type": "uint256"
            },
            {
              "internalType": "uint256",
              "name": "amount1DepositedUsdValue",
              "type": "uint256"
            },
            {
              "internalType": "int24",
              "name": "tickLowerDiff",
              "type": "int24"
            },
            {
              "internalType": "int24",
              "name": "tickUpperDiff",
              "type": "int24"
            }
          ],
          "internalType": "struct PositionHelper.PositionTokenInfo",
          "name": "ptInfo",
          "type": "tuple"
        }
      ],
      "stateMutability": "view",
      "type": "function"
    },
    {
      "inputs": [
        {
          "internalType": "address",
          "name": "userAddress",
          "type": "address"
        },
        {
          "internalType": "uint256",
          "name": "positionId",
          "type": "uint256"
        }
      ],
      "name": "getTickInfo",
      "outputs": [
        {
          "internalType": "int24",
          "name": "currentTick",
          "type": "int24"
        },
        {
          "internalType": "int24",
          "name": "tickLower",
          "type": "int24"
        },
        {
          "internalType": "int24",
          "name": "tickUpper",
          "type": "int24"
        }
      ],
      "stateMutability": "view",
      "type": "function"
    },
    {
      "inputs": [
        {
          "internalType": "address",
          "name": "userAddress",
          "type": "address"
        },
        {
          "internalType": "uint256",
          "name": "positionId",
          "type": "uint256"
        }
      ],
      "name": "getUncollectedFees",
      "outputs": [
        {
          "components": [
            {
              "internalType": "address",
              "name": "token0",
              "type": "address"
            },
            {
              "internalType": "address",
              "name": "token1",
              "type": "address"
            },
            {
              "internalType": "uint128",
              "name": "amount0",
              "type": "uint128"
            },
            {
              "internalType": "uint128",
              "name": "amount1",
              "type": "uint128"
            },
            {
              "internalType": "uint256",
              "name": "amount0UsdValue",
              "type": "uint256"
            },
            {
              "internalType": "uint256",
              "name": "amount1UsdValue",
              "type": "uint256"
            }
          ],
          "internalType": "struct PositionHelper.GetUncollectedFeesOutput",
          "name": "output",
          "type": "tuple"
        }
      ],
      "stateMutability": "view",
      "type": "function"
    },
    {
      "inputs": [
        {
          "internalType": "address",
          "name": "tokenIn",
          "type": "address"
        },
        {
          "internalType": "address",
          "name": "tokenOut",
          "type": "address"
        },
        {
          "internalType": "uint256",
          "name": "amountIn",
          "type": "uint256"
        }
      ],
      "name": "quote",
      "outputs": [
        {
          "internalType": "uint256",
          "name": "amountOut",
          "type": "uint256"
        }
      ],
      "stateMutability": "view",
      "type": "function"
    },
    {
      "inputs": [
        {
          "internalType": "address",
          "name": "token",
          "type": "address"
        },
        {
          "internalType": "uint256",
          "name": "amount",
          "type": "uint256"
        }
      ],
      "name": "quoteUsdValue",
      "outputs": [
        {
          "internalType": "uint256",
          "name": "usdValue",
          "type": "uint256"
        }
      ],
      "stateMutability": "view",
      "type": "function"
    },
    {
      "inputs": [],
      "name": "registryAddressHolder",
      "outputs": [
        {
          "internalType": "contract IRegistryAddressHolder",
          "name": "",
          "type": "address"
        }
      ],
      "stateMutability": "view",
      "type": "function"
    },
    {
      "inputs": [],
      "name": "uniswapAddressHolder",
      "outputs": [
        {
          "internalType": "contract IUniswapAddressHolder",
          "name": "",
          "type": "address"
        }
      ],
      "stateMutability": "view",
      "type": "function"
    }
  ],
  "transactionHash": "0xb37872ab7b4a362cf96323b81b72f9ab49635a414e1a902dcc626383f531baec",
  "args": [
    "0xe5b481AFFFbfe1A61d762f42d4c630a5AAD388f9",
    "0x162Ff164B376fB1Fb0Ed657467123b262F25a985"
  ],
  "numDeployments": 1,
  "solcInputHash": "dd6301e56a669096d4ac4bf415393c0f",
  "bytecode": "0x60c06040523480156200001157600080fd5b50604051620041c7380380620041c78339810160408190526200003491620000cc565b6001600160a01b038216620000665760405162461bcd60e51b81526004016200005d9062000103565b60405180910390fd5b6001600160a01b0381166200008f5760405162461bcd60e51b81526004016200005d9062000123565b6001600160601b0319606091821b811660a05291901b1660805262000143565b80516001600160a01b0381168114620000c757600080fd5b919050565b60008060408385031215620000df578182fd5b620000ea83620000af565b9150620000fa60208401620000af565b90509250929050565b60208082526006908201526505048524148360d41b604082015260600190565b60208082526006908201526505048554148360d41b604082015260600190565b60805160601c60a05160601c614023620001a46000398061054f52806106dc528061073c528061088e528061128c5280611396528061142452806115325280611ccf528061248052806125d8525080611218528061187752506140236000f3fe608060405234801561001057600080fd5b50600436106100a95760003560e01c8063974914d511610071578063974914d514610159578063b64663841461016e578063c0f06ca41461018e578063edce3dde14610196578063f3dc459f146101a9578063fc436739146101c9576100a9565b80631327d7fb146100ae5780633590f9f6146100d757806349420f81146100f757806352963c8b14610119578063671c26c714610139575b600080fd5b6100c16100bc3660046136e7565b6101e9565b6040516100ce9190613de4565b60405180910390f35b6100ea6100e53660046136e7565b61039c565b6040516100ce9190613ec5565b61010a6101053660046136e7565b6106be565b6040516100ce93929190613c32565b61012c6101273660046136e7565b610871565b6040516100ce9190613d85565b61014c6101473660046136e7565b610aef565b6040516100ce9190613cc7565b610161611216565b6040516100ce9190613bd3565b61018161017c3660046136a7565b61123a565b6040516100ce9190613fa8565b61016161128a565b6101816101a43660046136e7565b6112ae565b6101bc6101b73660046136e7565b611374565b6040516100ce9190613d38565b6101dc6101d73660046136e7565b6116d2565b6040516100ce9190613e9a565b6101f1613355565b60006101fb611873565b6001600160a01b0316632d2c5b586040518163ffffffff1660e01b815260040160206040518083038186803b15801561023357600080fd5b505afa158015610247573d6000803e3d6000fd5b505050506040513d601f19601f8201168201806040525081019061026b919061368b565b6001600160a01b031663c81e0f91856040518263ffffffff1660e01b81526004016102969190613bd3565b60206040518083038186803b1580156102ae57600080fd5b505afa1580156102c2573d6000803e3d6000fd5b505050506040513d601f19601f820116820180604052508101906102e6919061368b565b90506001600160a01b0381166103175760405162461bcd60e51b815260040161030e90613ca9565b60405180910390fd5b60405163519f509960e01b81526001600160a01b0382169063519f509990610343908690600401613fa8565b6101a06040518083038186803b15801561035c57600080fd5b505afa158015610370573d6000803e3d6000fd5b505050506040513d601f19601f8201168201806040525081019061039491906137ba565b949350505050565b6103a46133d6565b60006103ae611873565b6001600160a01b0316632d2c5b586040518163ffffffff1660e01b815260040160206040518083038186803b1580156103e657600080fd5b505afa1580156103fa573d6000803e3d6000fd5b505050506040513d601f19601f8201168201806040525081019061041e919061368b565b6001600160a01b031663c81e0f91856040518263ffffffff1660e01b81526004016104499190613bd3565b60206040518083038186803b15801561046157600080fd5b505afa158015610475573d6000803e3d6000fd5b505050506040513d601f19601f82011682018060405250810190610499919061368b565b90506001600160a01b0381166104c15760405162461bcd60e51b815260040161030e90613ca9565b60405163519f509960e01b81526000906001600160a01b0383169063519f5099906104f0908790600401613fa8565b6101a06040518083038186803b15801561050957600080fd5b505afa15801561051d573d6000803e3d6000fd5b505050506040513d601f19601f8201168201806040525081019061054191906137ba565b905060006105e382600001517f00000000000000000000000000000000000000000000000000000000000000006001600160a01b0316635bfccac96040518163ffffffff1660e01b815260040160206040518083038186803b1580156105a657600080fd5b505afa1580156105ba573d6000803e3d6000fd5b505050506040513d601f19601f820116820180604052508101906105de919061368b565b61190b565b9050604051806101c001604052808360000151815260200182600001516001600160a01b0316815260200182602001516001600160a01b03168152602001826040015162ffffff168152602001826060015160020b8152602001826080015160020b815260200183602001516001600160a01b0316815260200183604001516001600160801b031916815260200183606001518152602001836080015181526020018360a0015181526020018360c00151815260200183610160015160020b815260200183610180015160020b815250935050505092915050565b6000806000806106ce86866101e9565b9050600061073382600001517f00000000000000000000000000000000000000000000000000000000000000006001600160a01b0316635bfccac96040518163ffffffff1660e01b815260040160206040518083038186803b1580156105a657600080fd5b905060006107dc7f00000000000000000000000000000000000000000000000000000000000000006001600160a01b03166380f5db8c6040518163ffffffff1660e01b815260040160206040518083038186803b15801561079357600080fd5b505afa1580156107a7573d6000803e3d6000fd5b505050506040513d601f19601f820116820180604052508101906107cb919061368b565b8351602085015160408601516119d1565b9050806001600160a01b0316633850c7bd6040518163ffffffff1660e01b815260040160e06040518083038186803b15801561081757600080fd5b505afa15801561082b573d6000803e3d6000fd5b505050506040513d601f19601f8201168201806040525081019061084f9190613a10565b5050506060860151608090960151929c959b5091995093975050505050505050565b61087961344a565b600061088584846101e9565b905060008060007f00000000000000000000000000000000000000000000000000000000000000006001600160a01b0316635bfccac96040518163ffffffff1660e01b815260040160206040518083038186803b1580156108e557600080fd5b505afa1580156108f9573d6000803e3d6000fd5b505050506040513d601f19601f8201168201806040525081019061091d919061368b565b845160405163133f757160e31b81526001600160a01b0392909216916399fbab889161094b91600401613fa8565b6101806040518083038186803b15801561096457600080fd5b505afa158015610978573d6000803e3d6000fd5b505050506040513d601f19601f8201168201806040525081019061099c9190613ac9565b909192939495969798999a5090919293949596979899509091929394959650909192939495509091929394508b6000018c6020018d6040018e606001846001600160801b03166001600160801b0316815250846001600160801b03166001600160801b0316815250849950859a50869b50876001600160a01b03166001600160a01b0316815250876001600160a01b03166001600160a01b031681525050505050505050600080610a508660000151611a85565b91509150610a6e848303866001600160801b0316600160801b611b3e565b6040880180516001600160801b03920182169052610a9690848303908716600160801b611b3e565b6060880180516001600160801b0392018216905287516040890151610abb92166112ae565b608088015260208701516060880151610add91906001600160801b03166112ae565b60a08801525094979650505050505050565b610af761347f565b610aff613355565b6000806000806000610b118989611374565b90506000610b1f8a8a610871565b8051602082015190975095509050610b378a8a6101e9565b9650610b5d81604001516001600160801b03168360400151611bed90919063ffffffff16565b9350610b8381606001516001600160801b03168360600151611bed90919063ffffffff16565b9250505060006001600160a01b031685602001516001600160a01b03161415610bf35781865260208601819052610bba84836112ae565b6040870152610bc983826112ae565b6060870152610bd984848461123a565b6080870152610be983858361123a565b60a087015261120b565b6000610bfd611873565b6001600160a01b031663f80ffbd56040518163ffffffff1660e01b815260040160206040518083038186803b158015610c3557600080fd5b505afa158015610c49573d6000803e3d6000fd5b505050506040513d601f19601f82011682018060405250810190610c6d919061368b565b6001600160a01b0316639362c87287602001516040518263ffffffff1660e01b8152600401610c9c9190613bd3565b60206040518083038186803b158015610cb457600080fd5b505afa158015610cc8573d6000803e3d6000fd5b505050506040513d601f19601f82011682018060405250810190610cec919061368b565b90506000816001600160a01b03166359be536488604001516040518263ffffffff1660e01b8152600401610d209190613c0f565b60806040518083038186803b158015610d3857600080fd5b505afa158015610d4c573d6000803e3d6000fd5b505050506040513d601f19601f82011682018060405250810190610d7091906138de565b90506000610d7c611873565b6001600160a01b03166308846aa26040518163ffffffff1660e01b815260040160206040518083038186803b158015610db457600080fd5b505afa158015610dc8573d6000803e3d6000fd5b505050506040513d601f19601f82011682018060405250810190610dec919061368b565b6001600160a01b0316876001600160a01b031614610e8857610e8587610e10611873565b6001600160a01b03166308846aa26040518163ffffffff1660e01b815260040160206040518083038186803b158015610e4857600080fd5b505afa158015610e5c573d6000803e3d6000fd5b505050506040513d601f19601f82011682018060405250810190610e80919061368b565b611c47565b90505b6000610e92611873565b6001600160a01b03166308846aa26040518163ffffffff1660e01b815260040160206040518083038186803b158015610eca57600080fd5b505afa158015610ede573d6000803e3d6000fd5b505050506040513d601f19601f82011682018060405250810190610f02919061368b565b6001600160a01b0316876001600160a01b031614610f2957610f2687610e10611873565b90505b600080610f34611873565b6001600160a01b03166308846aa26040518163ffffffff1660e01b815260040160206040518083038186803b158015610f6c57600080fd5b505afa158015610f80573d6000803e3d6000fd5b505050506040513d601f19601f82011682018060405250810190610fa4919061368b565b6001600160a01b03168a6001600160a01b03161415610fc557879150611053565b61105084610fd28a611de9565b8c610fdb611873565b6001600160a01b03166308846aa26040518163ffffffff1660e01b815260040160206040518083038186803b15801561101357600080fd5b505afa158015611027573d6000803e3d6000fd5b505050506040513d601f19601f8201168201806040525081019061104b919061368b565b611e32565b91505b61105b611873565b6001600160a01b03166308846aa26040518163ffffffff1660e01b815260040160206040518083038186803b15801561109357600080fd5b505afa1580156110a7573d6000803e3d6000fd5b505050506040513d601f19601f820116820180604052508101906110cb919061368b565b6001600160a01b0316896001600160a01b031614156110eb575085611104565b611101836110f889611de9565b8b610fdb611873565b90505b60c08b015160a08c015161111791611bed565b6111218383611bed565b11156111bb576111b46040518061014001604052808c6001600160a01b031681526020018b6001600160a01b031681526020018a81526020018981526020018481526020018381526020016111878e60c001518f60a00151611bed90919063ffffffff16565b815260208881015161ffff16908201526001600160a01b0380881660408301528616606090910152611f1a565b9b50611204565b878c5260208c018790526111cf8a896112ae565b60408d01526111de89886112ae565b60608d01526111ee8a8a8a61123a565b60808d01526111fe898b8961123a565b60a08d01525b5050505050505b505050505092915050565b7f000000000000000000000000000000000000000000000000000000000000000081565b6000826001600160a01b0316846001600160a01b0316141561125d575080611283565b60006112698585611c47565b905061127f8161127885611de9565b8787611e32565b9150505b9392505050565b7f000000000000000000000000000000000000000000000000000000000000000081565b60006112b8611873565b6001600160a01b03166308846aa26040518163ffffffff1660e01b815260040160206040518083038186803b1580156112f057600080fd5b505afa158015611304573d6000803e3d6000fd5b505050506040513d601f19601f82011682018060405250810190611328919061368b565b6001600160a01b0316836001600160a01b0316141561134857508061136e565b600061135684610e10611873565b90506103948161136585611de9565b86610fdb611873565b92915050565b61137c6134d2565b600061138884846101e9565b905060006113ed82600001517f00000000000000000000000000000000000000000000000000000000000000006001600160a01b0316635bfccac96040518163ffffffff1660e01b815260040160206040518083038186803b1580156105a657600080fd5b80516001600160a01b0390811685526020808301518216818701526040805163203d76e360e21b815290519394506000936114af937f000000000000000000000000000000000000000000000000000000000000000016926380f5db8c9260048082019391829003018186803b15801561146657600080fd5b505afa15801561147a573d6000803e3d6000fd5b505050506040513d601f19601f8201168201806040525081019061149e919061368b565b8551602087015160408601516119d1565b9050600080826001600160a01b0316633850c7bd6040518163ffffffff1660e01b815260040160e06040518083038186803b1580156114ed57600080fd5b505afa158015611501573d6000803e3d6000fd5b505050506040513d601f19601f820116820180604052508101906115259190613a10565b50505050509150915060007f00000000000000000000000000000000000000000000000000000000000000006001600160a01b0316635bfccac96040518163ffffffff1660e01b815260040160206040518083038186803b15801561158957600080fd5b505afa15801561159d573d6000803e3d6000fd5b505050506040513d601f19601f820116820180604052508101906115c1919061368b565b865160405163133f757160e31b81526001600160a01b0392909216916399fbab88916115ef91600401613fa8565b6101806040518083038186803b15801561160857600080fd5b505afa15801561161c573d6000803e3d6000fd5b505050506040513d601f19601f820116820180604052508101906116409190613ac9565b5050505097505050505050505061165789896101e9565b955061166e818387606001518860800151876123d9565b60608901526040880181905261012087015161168a9190611bed565b604088015261014086015160608801516116a391611bed565b6060880152865160408801516116b991906112ae565b608088015260208701516060880151610add91906112ae565b6116da61351a565b60006116e4611873565b6001600160a01b0316632d2c5b586040518163ffffffff1660e01b815260040160206040518083038186803b15801561171c57600080fd5b505afa158015611730573d6000803e3d6000fd5b505050506040513d601f19601f82011682018060405250810190611754919061368b565b6001600160a01b031663c81e0f91856040518263ffffffff1660e01b815260040161177f9190613bd3565b60206040518083038186803b15801561179757600080fd5b505afa1580156117ab573d6000803e3d6000fd5b505050506040513d601f19601f820116820180604052508101906117cf919061368b565b90506001600160a01b0381166117f75760405162461bcd60e51b815260040161030e90613ca9565b6040516317a562b960e11b81526001600160a01b03821690632f4ac57290611823908690600401613fa8565b60806040518083038186803b15801561183b57600080fd5b505afa15801561184f573d6000803e3d6000fd5b505050506040513d601f19601f82011682018060405250810190610394919061387f565b60007f00000000000000000000000000000000000000000000000000000000000000006001600160a01b0316637b1039996040518163ffffffff1660e01b815260040160206040518083038186803b1580156118ce57600080fd5b505afa1580156118e2573d6000803e3d6000fd5b505050506040513d601f19601f82011682018060405250810190611906919061368b565b905090565b611913613542565b60405163133f757160e31b81526001600160a01b038316906399fbab889061193f908690600401613fa8565b6101806040518083038186803b15801561195857600080fd5b505afa15801561196c573d6000803e3d6000fd5b505050506040513d601f19601f820116820180604052508101906119909190613ac9565b5050505050600290810b810b608089015290810b900b606087015262ffffff1660408601526001600160a01b03908116602086015216835250909392505050565b600080856001600160a01b0316631698ee828686866040518463ffffffff1660e01b8152600401611a0493929190613be7565b60206040518083038186803b158015611a1c57600080fd5b505afa158015611a30573d6000803e3d6000fd5b505050506040513d601f19601f82011682018060405250810190611a54919061368b565b90506001600160a01b038116611a7c5760405162461bcd60e51b815260040161030e90613c8b565b95945050505050565b6000806000611a9384612471565b9050600080826020015160020b836000015160020b12611abe57505060a081015160c0820151611ad9565b8260a0015183606001510391508260c0015183608001510390505b600080846040015160020b856000015160020b1215611b0457505060e0830151610100840151611b20565b8460e00151856060015103915084610100015185608001510390505b60608501516080909501519390940303969103919091039350915050565b6000808060001985870986860292508281109083900303905080611b745760008411611b6957600080fd5b508290049050611283565b808411611b8057600080fd5b6000848688096000868103871696879004966002600389028118808a02820302808a02820302808a02820302808a02820302808a02820302808a02909103029181900381900460010186841190950394909402919094039290920491909117919091029150509392505050565b600082820183811015611283576040805162461bcd60e51b815260206004820152601b60248201527f536166654d6174683a206164646974696f6e206f766572666c6f770000000000604482015290519081900360640190fd5b600080611c52611873565b6001600160a01b03166386dd37f36040518163ffffffff1660e01b815260040160006040518083038186803b158015611c8a57600080fd5b505afa158015611c9e573d6000803e3d6000fd5b505050506040513d6000823e601f3d908101601f19168201604052611cc69190810190613712565b90506000611d667f00000000000000000000000000000000000000000000000000000000000000006001600160a01b03166380f5db8c6040518163ffffffff1660e01b815260040160206040518083038186803b158015611d2657600080fd5b505afa158015611d3a573d6000803e3d6000fd5b505050506040513d601f19601f82011682018060405250810190611d5e919061368b565b868685612907565b9050806001600160a01b0316633850c7bd6040518163ffffffff1660e01b815260040160e06040518083038186803b158015611da157600080fd5b505afa158015611db5573d6000803e3d6000fd5b505050506040513d601f19601f82011682018060405250810190611dd99190613a10565b50949a9950505050505050505050565b806001600160801b0381168114611e2d576040805162461bcd60e51b815260206004820152600360248201526226a41960e91b604482015290519081900360640190fd5b919050565b60006001600160801b036001600160a01b03861611611ea1576001600160a01b0380861680029083811690851610611e8157611e7c600160c01b866001600160801b031683611b3e565b611e99565b611e9981866001600160801b0316600160c01b611b3e565b915050610394565b6000611ec06001600160a01b0387168068010000000000000000611b3e565b9050826001600160a01b0316846001600160a01b031610611ef857611ef3600160801b866001600160801b031683611b3e565b611f10565b611f1081866001600160801b0316600160801b611b3e565b9695505050505050565b611f2261347f565b6000611f5a611f508460c00151611f4a8660a001518760800151611bed90919063ffffffff16565b90612abf565b8460e00151612b1c565b9050600080611f67611873565b6001600160a01b03166308846aa26040518163ffffffff1660e01b815260040160206040518083038186803b158015611f9f57600080fd5b505afa158015611fb3573d6000803e3d6000fd5b505050506040513d601f19601f82011682018060405250810190611fd7919061368b565b6001600160a01b031685600001516001600160a01b03161415612006578451611fff90612b31565b9150612094565b612091856101000151866000015161201c611873565b6001600160a01b03166308846aa26040518163ffffffff1660e01b815260040160206040518083038186803b15801561205457600080fd5b505afa158015612068573d6000803e3d6000fd5b505050506040513d601f19601f8201168201806040525081019061208c919061368b565b612bb0565b91505b61209c611873565b6001600160a01b03166308846aa26040518163ffffffff1660e01b815260040160206040518083038186803b1580156120d457600080fd5b505afa1580156120e8573d6000803e3d6000fd5b505050506040513d601f19601f8201168201806040525081019061210c919061368b565b6001600160a01b031685602001516001600160a01b0316141561213d576121368560200151612b31565b9050612156565b612153856101200151866020015161201c611873565b90505b6000806121788760000151886020015189604001518a6060015188888b612c5e565b60c0880182905260e088018190526040890151919350915061219a9083612abf565b865260608701516121ab9082612abf565b60208701526121b8611873565b6001600160a01b03166308846aa26040518163ffffffff1660e01b815260040160206040518083038186803b1580156121f057600080fd5b505afa158015612204573d6000803e3d6000fd5b505050506040513d601f19601f82011682018060405250810190612228919061368b565b6001600160a01b031687600001516001600160a01b0316141561225c5760c0860151610100870152855160408701526122a2565b61227c8761010001516122728860c00151611de9565b8951610fdb611873565b8661010001818152505061229c8761010001516122728860000151611de9565b60408701525b6122aa611873565b6001600160a01b03166308846aa26040518163ffffffff1660e01b815260040160206040518083038186803b1580156122e257600080fd5b505afa1580156122f6573d6000803e3d6000fd5b505050506040513d601f19601f8201168201806040525081019061231a919061368b565b6001600160a01b031687602001516001600160a01b031614156123515760e08601516101208701526020860151606087015261239a565b6123748761012001516123678860e00151611de9565b8960200151610fdb611873565b866101200181815250506123948761012001516123678860200151611de9565b60608701525b8651602088015187516123ae92919061123a565b60808701526020808801518851918801516123c9929061123a565b60a0870152509395945050505050565b6000808460020b8660020b121561240e576124076123f686612d80565b6123ff86612d80565b8960016130b2565b9150612467565b8360020b8660020b121561244757612429836123ff86612d80565b915061244061243786612d80565b84896001613166565b9050612467565b61246461245386612d80565b61245c86612d80565b896001613166565b90505b9550959350505050565b612479613570565b60008060007f00000000000000000000000000000000000000000000000000000000000000006001600160a01b0316635bfccac96040518163ffffffff1660e01b815260040160206040518083038186803b1580156124d757600080fd5b505afa1580156124eb573d6000803e3d6000fd5b505050506040513d601f19601f8201168201806040525081019061250f919061368b565b6001600160a01b03166399fbab88866040518263ffffffff1660e01b815260040161253a9190613fa8565b6101806040518083038186803b15801561255357600080fd5b505afa158015612567573d6000803e3d6000fd5b505050506040513d601f19601f8201168201806040525081019061258b9190613ac9565b5050505050600290810b810b6040808d019190915291810b900b6020808c0191909152815163203d76e360e21b815291519499509297509095506000945061266493506001600160a01b037f000000000000000000000000000000000000000000000000000000000000000016926380f5db8c92600480840193919291829003018186803b15801561261c57600080fd5b505afa158015612630573d6000803e3d6000fd5b505050506040513d601f19601f82011682018060405250810190612654919061368b565b61265f8686866131d6565b61322c565b9050806001600160a01b031663f30583996040518163ffffffff1660e01b815260040160206040518083038186803b15801561269f57600080fd5b505afa1580156126b3573d6000803e3d6000fd5b505050506040513d601f19601f820116820180604052508101906126d79190613a97565b856060018181525050806001600160a01b031663461413196040518163ffffffff1660e01b815260040160206040518083038186803b15801561271957600080fd5b505afa15801561272d573d6000803e3d6000fd5b505050506040513d601f19601f820116820180604052508101906127519190613a97565b856080018181525050806001600160a01b0316633850c7bd6040518163ffffffff1660e01b815260040160e06040518083038186803b15801561279357600080fd5b505afa1580156127a7573d6000803e3d6000fd5b505050506040513d601f19601f820116820180604052508101906127cb9190613a10565b5050505050600290810b900b865250602085015160405163f30dba9360e01b81526001600160a01b0383169163f30dba939161280a9190600401613c24565b6101006040518083038186803b15801561282357600080fd5b505afa158015612837573d6000803e3d6000fd5b505050506040513d601f19601f8201168201806040525081019061285b9190613975565b5050505060c089015260a08801525050604080860151905163f30dba9360e01b81526001600160a01b0383169163f30dba939161289b9190600401613c24565b6101006040518083038186803b1580156128b457600080fd5b505afa1580156128c8573d6000803e3d6000fd5b505050506040513d601f19601f820116820180604052508101906128ec9190613975565b5050505061010089015260e088015250949695505050505050565b60008060005b8351811015612a8f5783818151811061292257fe5b602002602001015162ffffff166000141561293c57612a87565b6000876001600160a01b0316631698ee82888888868151811061295b57fe5b60200260200101516040518463ffffffff1660e01b815260040161298193929190613be7565b60206040518083038186803b15801561299957600080fd5b505afa1580156129ad573d6000803e3d6000fd5b505050506040513d601f19601f820116820180604052508101906129d1919061368b565b90506001600160a01b0381166129e75750612a87565b6000816001600160a01b0316631a6865026040518163ffffffff1660e01b815260040160206040518083038186803b158015612a2257600080fd5b505afa158015612a36573d6000803e3d6000fd5b505050506040513d601f19601f82011682018060405250810190612a5a919061395b565b9050836001600160801b0316816001600160801b031611612a7c578484612a7f565b81815b909550935050505b60010161290d565b506001600160a01b038216612ab65760405162461bcd60e51b815260040161030e90613c4f565b50949350505050565b600082821115612b16576040805162461bcd60e51b815260206004820152601e60248201527f536166654d6174683a207375627472616374696f6e206f766572666c6f770000604482015290519081900360640190fd5b50900390565b60006127106103948462ffffff851683611b3e565b6000816001600160a01b031663313ce5676040518163ffffffff1660e01b815260040160206040518083038186803b158015612b6c57600080fd5b505afa158015612b80573d6000803e3d6000fd5b505050506040513d601f19601f82011682018060405250810190612ba49190613aaf565b60ff16600a0a92915050565b6000816001600160a01b0316836001600160a01b03161415612bdc57612bd583612b31565b9050611283565b61039484846001600160a01b031663313ce5676040518163ffffffff1660e01b815260040160206040518083038186803b158015612c1957600080fd5b505afa158015612c2d573d6000803e3d6000fd5b505050506040513d601f19601f82011682018060405250810190612c519190613aaf565b60ff16600a0a8585611e32565b6000806000612d2b612ce788878c6001600160a01b031663313ce5676040518163ffffffff1660e01b815260040160206040518083038186803b158015612ca457600080fd5b505afa158015612cb8573d6000803e3d6000fd5b505050506040513d601f19601f82011682018060405250810190612cdc9190613aaf565b60ff16600a0a611b3e565b612d258a898e6001600160a01b031663313ce5676040518163ffffffff1660e01b815260040160206040518083038186803b158015612ca457600080fd5b90611bed565b9050838110158015612d3d5750600081115b612d595760405162461bcd60e51b815260040161030e90613c6e565b612d64888583611b3e565b9250612d71878583611b3e565b91505097509795505050505050565b60008060008360020b12612d97578260020b612d9f565b8260020b6000035b9050620d89e8811115612ddd576040805162461bcd60e51b81526020600482015260016024820152601560fa1b604482015290519081900360640190fd5b600060018216612df157600160801b612e03565b6ffffcb933bd6fad37aa2d162d1a5940015b70ffffffffffffffffffffffffffffffffff1690506002821615612e37576ffff97272373d413259a46990580e213a0260801c5b6004821615612e56576ffff2e50f5f656932ef12357cf3c7fdcc0260801c5b6008821615612e75576fffe5caca7e10e4e61c3624eaa0941cd00260801c5b6010821615612e94576fffcb9843d60f6159c9db58835c9266440260801c5b6020821615612eb3576fff973b41fa98c081472e6896dfb254c00260801c5b6040821615612ed2576fff2ea16466c96a3843ec78b326b528610260801c5b6080821615612ef1576ffe5dee046a99a2a811c461f1969c30530260801c5b610100821615612f11576ffcbe86c7900a88aedcffc83b479aa3a40260801c5b610200821615612f31576ff987a7253ac413176f2b074cf7815e540260801c5b610400821615612f51576ff3392b0822b70005940c7a398e4b70f30260801c5b610800821615612f71576fe7159475a2c29b7443b29c7fa6e889d90260801c5b611000821615612f91576fd097f3bdfd2022b8845ad8f792aa58250260801c5b612000821615612fb1576fa9f746462d870fdf8a65dc1f90e061e50260801c5b614000821615612fd1576f70d869a156d2a1b890bb3df62baf32f70260801c5b618000821615612ff1576f31be135f97d08fd981231505542fcfa60260801c5b62010000821615613012576f09aa508b5b7a84e1c677de54f3e99bc90260801c5b62020000821615613032576e5d6af8dedb81196699c329225ee6040260801c5b62040000821615613051576d2216e584f5fa1ea926041bedfe980260801c5b6208000082161561306e576b048a170391f7dc42444e8fa20260801c5b60008460020b131561308957806000198161308557fe5b0490505b64010000000081061561309d5760016130a0565b60005b60ff16602082901c0192505050919050565b6000836001600160a01b0316856001600160a01b031611156130d2579293925b6fffffffffffffffffffffffffffffffff60601b606084901b166001600160a01b03868603811690871661310557600080fd5b8361313557866001600160a01b03166131288383896001600160a01b0316611b3e565b8161312f57fe5b0461315b565b61315b61314c8383896001600160a01b0316613310565b886001600160a01b031661334a565b979650505050505050565b6000836001600160a01b0316856001600160a01b03161115613186579293925b816131b3576131ae836001600160801b03168686036001600160a01b0316600160601b611b3e565b611a7c565b611a7c836001600160801b03168686036001600160a01b0316600160601b613310565b6131de6135c5565b826001600160a01b0316846001600160a01b031611156131fc579192915b50604080516060810182526001600160a01b03948516815292909316602083015262ffffff169181019190915290565b600081602001516001600160a01b031682600001516001600160a01b03161061325457600080fd5b50805160208083015160409384015184516001600160a01b0394851681850152939091168385015262ffffff166060808401919091528351808403820181526080840185528051908301206001600160f81b031960a085015294901b6bffffffffffffffffffffffff191660a183015260b58201939093527fe34f199b19b2b4f47f68442619d555527d244f78a3297ea89325f843f87b8b5460d5808301919091528251808303909101815260f5909101909152805191012090565b600061331d848484611b3e565b90506000828061332957fe5b848609111561128357600019811061334057600080fd5b6001019392505050565b808204910615150190565b604051806101a001604052806000815260200160006001600160a01b0316815260200160006001600160801b03191681526020016000815260200160008152602001600081526020016000815260200160008152602001600081526020016000815260200160008152602001600060020b8152602001600060020b81525090565b604080516101c081018252600080825260208201819052918101829052606081018290526080810182905260a0810182905260c0810182905260e08101829052610100810182905261012081018290526101408101829052610160810182905261018081018290526101a081019190915290565b6040805160c081018252600080825260208201819052918101829052606081018290526080810182905260a081019190915290565b604051806101400160405280600081526020016000815260200160008152602001600081526020016000815260200160008152602001600081526020016000815260200160008152602001600081525090565b6040518060c0016040528060006001600160a01b0316815260200160006001600160a01b03168152602001600081526020016000815260200160008152602001600081525090565b6040518060800160405280600081526020016000815260200160008152602001600081525090565b6040805160a08101825260008082526020820181905291810182905260608101829052608081019190915290565b604051806101200160405280600060020b8152602001600060020b8152602001600060020b81526020016000815260200160008152602001600081526020016000815260200160008152602001600081525090565b604080516060810182526000808252602082018190529181019190915290565b8051611e2d81613fd5565b80518015158114611e2d57600080fd5b80516001600160801b031981168114611e2d57600080fd5b8051600281900b8114611e2d57600080fd5b80516001600160801b0381168114611e2d57600080fd5b805161ffff81168114611e2d57600080fd5b805162ffffff81168114611e2d57600080fd5b805163ffffffff81168114611e2d57600080fd5b805160ff81168114611e2d57600080fd5b60006020828403121561369c578081fd5b815161128381613fd5565b6000806000606084860312156136bb578182fd5b83356136c681613fd5565b925060208401356136d681613fd5565b929592945050506040919091013590565b600080604083850312156136f9578182fd5b823561370481613fd5565b946020939093013593505050565b60006020808385031215613724578182fd5b825167ffffffffffffffff8082111561373b578384fd5b818501915085601f83011261374e578384fd5b81518181111561375a57fe5b838102915061376a848301613fb1565b8181528481019084860184860187018a1015613784578788fd5b8795505b838610156137ad5761379981613653565b835260019590950194918601918601613788565b5098975050505050505050565b60006101a08083850312156137cd578182fd5b6137d681613fb1565b9050825181526137e8602084016135e5565b60208201526137f960408401613600565b6040820152606083015160608201526080830151608082015260a083015160a082015260c083015160c082015260e083015160e0820152610100808401518183015250610120808401518183015250610140808401518183015250610160613862818501613618565b90820152610180613874848201613618565b908201529392505050565b600060808284031215613890578081fd5b6040516080810181811067ffffffffffffffff821117156138ad57fe5b8060405250825181526020830151602082015260408301516040820152606083015160608201528091505092915050565b6000608082840312156138ef578081fd5b6040516080810181811067ffffffffffffffff8211171561390c57fe5b604052825161391a81613fd5565b815261392860208401613641565b602082015260408301516003811061393e578283fd5b604082015261394f60608401613666565b60608201529392505050565b60006020828403121561396c578081fd5b6112838261362a565b600080600080600080600080610100898b031215613991578586fd5b61399a8961362a565b9750602089015180600f0b81146139af578687fd5b80975050604089015195506060890151945060808901518060060b81146139d4578485fd5b60a08a01519094506139e581613fd5565b92506139f360c08a01613666565b9150613a0160e08a016135f0565b90509295985092959890939650565b600080600080600080600060e0888a031215613a2a578081fd5b8751613a3581613fd5565b9650613a4360208901613618565b9550613a5160408901613641565b9450613a5f60608901613641565b9350613a6d60808901613641565b9250613a7b60a0890161367a565b9150613a8960c089016135f0565b905092959891949750929550565b600060208284031215613aa8578081fd5b5051919050565b600060208284031215613ac0578081fd5b6112838261367a565b6000806000806000806000806000806000806101808d8f031215613aeb578586fd5b8c516bffffffffffffffffffffffff81168114613b06578687fd5b9b50613b1460208e016135e5565b9a50613b2260408e016135e5565b9950613b3060608e016135e5565b9850613b3e60808e01613653565b9750613b4c60a08e01613618565b9650613b5a60c08e01613618565b9550613b6860e08e0161362a565b94506101008d015193506101208d01519250613b876101408e0161362a565b9150613b966101608e0161362a565b90509295989b509295989b509295989b565b6001600160a01b03169052565b6001600160801b0319169052565b60020b9052565b62ffffff169052565b6001600160a01b0391909116815260200190565b6001600160a01b03938416815291909216602082015262ffffff909116604082015260600190565b6001600160801b031991909116815260200190565b60029190910b815260200190565b600293840b815291830b602083015290910b604082015260600190565b602080825260059082015264055484450360dc1b604082015260600190565b60208082526003908201526244544160e81b604082015260600190565b6020808252600490820152630554850360e41b604082015260600190565b6020808252600490820152630504841360e41b604082015260600190565b600061014082019050825182526020830151602083015260408301516040830152606083015160608301526080830151608083015260a083015160a083015260c083015160c083015260e083015160e083015261010080840151818401525061012080840151818401525092915050565b81516001600160a01b0390811682526020808401519091169082015260408083015190820152606080830151908201526080808301519082015260a0918201519181019190915260c00190565b600060c08201905060018060a01b038084511683528060208501511660208401525060408301516001600160801b03808216604085015280606086015116606085015250506080830151608083015260a083015160a083015292915050565b815181526020808301516101a0830191613e0090840182613ba8565b506040830151613e136040840182613bb5565b50606083015160608301526080830151608083015260a083015160a083015260c083015160c083015260e083015160e083015261010080840151818401525061012080840151818401525061014080840151818401525061016080840151613e7d82850182613bc3565b505061018080840151613e9282850182613bc3565b505092915050565b8151815260208083015190820152604080830151908201526060918201519181019190915260800190565b815181526020808301516101c0830191613ee190840182613ba8565b506040830151613ef46040840182613ba8565b506060830151613f076060840182613bca565b506080830151613f1a6080840182613bc3565b5060a0830151613f2d60a0840182613bc3565b5060c0830151613f4060c0840182613ba8565b5060e0830151613f5360e0840182613bb5565b50610100838101519083015261012080840151908301526101408084015190830152610160808401519083015261018080840151613f9382850182613bc3565b50506101a080840151613e9282850182613bc3565b90815260200190565b60405181810167ffffffffffffffff81118282101715613fcd57fe5b604052919050565b6001600160a01b0381168114613fea57600080fd5b5056fea2646970667358221220f3080db3427a81a97471e12c95f0eebfdee2d4a5c400027942a15108134f456c64736f6c63430007060033",
  "devdoc": {
    "kind": "dev",
    "methods": {
      "getAmounts(address,uint256)": {
        "params": {
          "positionId": "ID of the position",
          "userAddress": "address of the user"
        },
        "returns": {
          "output": "the output struct of getAmounts"
        }
      },
      "getPositionInfo(address,uint256)": {
        "params": {
          "positionId": "ID of the position",
          "userAddress": "address of the user"
        },
        "returns": {
          "pInfo": "the position info"
        }
      },
      "getPositionSettlement(address,uint256)": {
        "params": {
          "positionId": "ID of the position",
          "userAddress": "address of the user"
        },
        "returns": {
          "settlement": "the position settlement"
        }
      },
      "getPositionTokenInfo(address,uint256)": {
        "params": {
          "positionId": "ID of the position",
          "userAddress": "address of the user"
        },
        "returns": {
          "ptInfo": "the position token info"
        }
      },
      "getTickInfo(address,uint256)": {
        "params": {
          "positionId": "ID of the position",
          "userAddress": "address of the user"
        },
        "returns": {
          "currentTick": "the current tick of the target pool",
          "tickLower": "the lower bound of the position",
          "tickUpper": "the upper bound of the position"
        }
      },
      "getUncollectedFees(address,uint256)": {
        "params": {
          "positionId": "ID of the position",
          "userAddress": "address of the user"
        },
        "returns": {
          "output": "the output struct of getUncollectedFees"
        }
      }
    },
    "version": 1
  },
  "userdoc": {
    "kind": "user",
    "methods": {
      "getAmounts(address,uint256)": {
        "notice": "Get the amounts of a position"
      },
      "getPositionInfo(address,uint256)": {
        "notice": "Get the position info of a position"
      },
      "getPositionSettlement(address,uint256)": {
        "notice": "Get the position settlement of a position"
      },
      "getPositionTokenInfo(address,uint256)": {
        "notice": "Get the position token info of a position"
      },
      "getTickInfo(address,uint256)": {
        "notice": "Get the tick info of a position"
      },
      "getUncollectedFees(address,uint256)": {
        "notice": "Get the uncollected fees of a position"
      }
    },
    "version": 1
  },
  "storageLayout": {
    "storage": [],
    "types": null
  }
}