{
  "address": "0xe5b481AFFFbfe1A61d762f42d4c630a5AAD388f9",
  "abi": [
    {
      "inputs": [
        {
          "internalType": "address",
          "name": "_registry",
          "type": "address"
        }
      ],
      "stateMutability": "nonpayable",
      "type": "constructor"
    },
    {
      "anonymous": false,
      "inputs": [
        {
          "indexed": false,
          "internalType": "address",
          "name": "oldAddress",
          "type": "address"
        },
        {
          "indexed": false,
          "internalType": "address",
          "name": "newAddress",
          "type": "address"
        }
      ],
      "name": "RegistryAddressChanged",
      "type": "event"
    },
    {
      "inputs": [],
      "name": "registry",
      "outputs": [
        {
          "internalType": "address",
          "name": "",
          "type": "address"
        }
      ],
      "stateMutability": "view",
      "type": "function"
    },
    {
      "inputs": [
        {
          "internalType": "address",
          "name": "newAddress",
          "type": "address"
        }
      ],
      "name": "setRegistryAddress",
      "outputs": [],
      "stateMutability": "nonpayable",
      "type": "function"
    }
  ],
  "transactionHash": "0xa88fa3710a97476e71c543e8ee3ae22da364461bb7011fd570925cd7bebbdd8f",
  "args": [
    "0x621e848F39fb29843cf8b42c86Ff2558bCd6C327"
  ],
  "numDeployments": 1,
  "solcInputHash": "dd6301e56a669096d4ac4bf415393c0f",
  "bytecode": "0x608060405234801561001057600080fd5b5060405161070838038061070883398101604081905261002f91610243565b61004a816341a5c86d60e11b61009460201b6101c61760201c565b61006f5760405162461bcd60e51b81526004016100669061026a565b60405180910390fd5b600080546001600160a01b0319166001600160a01b039290921691909117905561028d565b600061009f836100b7565b80156100b057506100b083836100eb565b9392505050565b60006100ca826301ffc9a760e01b6100eb565b80156100e557506100e3826001600160e01b03196100eb565b155b92915050565b600080806100f98585610110565b915091508180156101075750805b95945050505050565b604080516001600160e01b0319831660248083019190915282518083039091018152604490910182526020810180516001600160e01b03166301ffc9a760e01b17815291518151600093849392849283926001600160a01b038a169261753092879282918083835b602083106101975780518252601f199092019160209182019101610178565b6001836020036101000a0380198251168184511680821785525050505050509050019150506000604051808303818686fa925050503d80600081146101f8576040519150601f19603f3d011682016040523d82523d6000602084013e6101fd565b606091505b509150915060208151101561021b576000809450945050505061023c565b8181806020019051602081101561023157600080fd5b505190955093505050505b9250929050565b600060208284031215610254578081fd5b81516001600160a01b03811681146100b0578182fd5b60208082526009908201526852414845524331363560b81b604082015260600190565b61046c8061029c6000396000f3fe608060405234801561001057600080fd5b50600436106100365760003560e01c80637b1039991461003b578063ab7b499314610059575b600080fd5b61004361006e565b60405161005091906103ae565b60405180910390f35b61006c610067366004610376565b61007d565b005b6000546001600160a01b031681565b60008054906101000a90046001600160a01b03166001600160a01b0316635aa6e6756040518163ffffffff1660e01b815260040160206040518083038186803b1580156100c957600080fd5b505afa1580156100dd573d6000803e3d6000fd5b505050506040513d601f19601f820116820180604052508101906101019190610392565b6001600160a01b0316336001600160a01b03161461013a5760405162461bcd60e51b8152600401610131906103dc565b60405180910390fd5b61014b816341a5c86d60e11b6101c6565b6101675760405162461bcd60e51b8152600401610131906103fb565b600080546001600160a01b038381166001600160a01b03198316179092556040519116907f8b2d5ac8df7d319c39cc72ef09cf22fca5e9cdc1852a538e44ae7fd1ad1c99b2906101ba90839085906103c2565b60405180910390a15050565b60006101d1836101e9565b80156101e257506101e2838361021d565b9392505050565b60006101fc826301ffc9a760e01b61021d565b80156102175750610215826001600160e01b031961021d565b155b92915050565b600080600061022c8585610243565b9150915081801561023a5750805b95945050505050565b604080516001600160e01b0319831660248083019190915282518083039091018152604490910182526020810180516001600160e01b03166301ffc9a760e01b17815291518151600093849392849283926001600160a01b038a169261753092879282918083835b602083106102ca5780518252601f1990920191602091820191016102ab565b6001836020036101000a0380198251168184511680821785525050505050509050019150506000604051808303818686fa925050503d806000811461032b576040519150601f19603f3d011682016040523d82523d6000602084013e610330565b606091505b509150915060208151101561034e576000809450945050505061036f565b8181806020019051602081101561036457600080fd5b505190955093505050505b9250929050565b600060208284031215610387578081fd5b81356101e28161041e565b6000602082840312156103a3578081fd5b81516101e28161041e565b6001600160a01b0391909116815260200190565b6001600160a01b0392831681529116602082015260400190565b6020808252600590820152645241484f4760d81b604082015260600190565b60208082526009908201526852414845524331363560b81b604082015260600190565b6001600160a01b038116811461043357600080fd5b5056fea2646970667358221220eb905acb7105889591912cb61b7adf0bef6151729e14038dfdfc963e972f85ac64736f6c63430007060033",
  "devdoc": {
    "events": {
      "RegistryAddressChanged(address,address)": {
        "params": {
          "newAddress": "new address of registry",
          "oldAddress": "old address of registry"
        }
      }
    },
    "kind": "dev",
    "methods": {
      "setRegistryAddress(address)": {
        "params": {
          "newAddress": "new address of registry"
        }
      }
    },
    "stateVariables": {
      "registry": {
        "return": "address The address of the registry"
      }
    },
    "version": 1
  },
  "userdoc": {
    "events": {
      "RegistryAddressChanged(address,address)": {
        "notice": "emitted when the address of registry is changed"
      }
    },
    "kind": "user",
    "methods": {
      "registry()": {
        "notice": "default getter for regitsry address"
      },
      "setRegistryAddress(address)": {
        "notice": "Set the address of registry"
      }
    },
    "version": 1
  },
  "storageLayout": {
    "storage": [
      {
        "astId": 23669,
        "contract": "contracts/utils/RegistryAddressHolder.sol:RegistryAddressHolder",
        "label": "registry",
        "offset": 0,
        "slot": "0",
        "type": "t_address"
      }
    ],
    "types": {
      "t_address": {
        "encoding": "inplace",
        "label": "address",
        "numberOfBytes": "20"
      }
    }
  }
}