{
  "address": "0x940605CF9DFE6D9924C2e994FF314F6B459b20d1",
  "abi": [
    {
      "anonymous": false,
      "inputs": [
        {
          "indexed": true,
          "internalType": "address",
          "name": "positionManager",
          "type": "address"
        },
        {
          "indexed": false,
          "internalType": "uint256",
          "name": "rebalanceFee",
          "type": "uint256"
        },
        {
          "indexed": false,
          "internalType": "address",
          "name": "receiver",
          "type": "address"
        }
      ],
      "name": "RebalanceFeeRepaid",
      "type": "event"
    },
    {
      "inputs": [
        {
          "components": [
            {
              "internalType": "uint256",
              "name": "rebalanceFee",
              "type": "uint256"
            },
            {
              "internalType": "address payable",
              "name": "receiver",
              "type": "address"
            }
          ],
          "internalType": "struct IRepayRebalanceFeeFromManager.RepayRebalanceFeeFromManagerInput",
          "name": "inputs",
          "type": "tuple"
        }
      ],
      "name": "repayRebalanceFeeFromManager",
      "outputs": [],
      "stateMutability": "payable",
      "type": "function"
    }
  ],
  "transactionHash": "0xab1f811eda9d433b5e42acb4942ab36f148075286d122dd5977c0dcdd85f4be4",
  "args": [],
  "numDeployments": 1,
  "solcInputHash": "52a355333dae9f0d85b08b48eeb6c741",
  "bytecode": "0x608060405234801561001057600080fd5b5061021e806100206000396000f3fe60806040526004361061001e5760003560e01c80632d736e0514610023575b600080fd5b610036610031366004610175565b610038565b005b80354710156100625760405162461bcd60e51b8152600401610059906101b0565b60405180910390fd5b8035156100fa57600061007b6040830160208401610147565b6001600160a01b031682600001356040516100959061018c565b60006040518083038185875af1925050503d80600081146100d2576040519150601f19603f3d011682016040523d82523d6000602084013e6100d7565b606091505b50509050806100f85760405162461bcd60e51b81526004016100599061018f565b505b307f93cee88875c76dbae26f2d9941ca2aee3c03f38982087ba51bbd04952439401a823561012e6040850160208601610147565b60405161013c9291906101d1565b60405180910390a250565b600060208284031215610158578081fd5b81356001600160a01b038116811461016e578182fd5b9392505050565b600060408284031215610186578081fd5b50919050565b90565b602080825260079082015266525246464d534560c81b604082015260600190565b6020808252600790820152662929232326a4a160c91b604082015260600190565b9182526001600160a01b031660208201526040019056fea2646970667358221220f58ee2456444cc07da9a159b11f2a2537ec74b5c785b28d6ecb445511adedbe164736f6c63430007060033",
  "devdoc": {
    "kind": "dev",
    "methods": {
      "repayRebalanceFeeFromManager((uint256,address))": {
        "params": {
          "inputs": "struct of repayRebalanceFeeFromManager parameters"
        }
      }
    },
    "version": 1
  },
  "userdoc": {
    "events": {
      "RebalanceFeeRepaid(address,uint256,address)": {
        "notice": "emitted when rebalance fee repaid"
      }
    },
    "kind": "user",
    "methods": {
      "repayRebalanceFeeFromManager((uint256,address))": {
        "notice": "repay rebalance fee to receiver"
      }
    },
    "notice": "action to repay rebalance fee",
    "version": 1
  },
  "storageLayout": {
    "storage": [],
    "types": null
  }
}