{
  "address": "0x9c0fBE88001ae2daCd7Dc28b920C16F99fE880b9",
  "abi": [
    {
      "inputs": [
        {
          "internalType": "address",
          "name": "_admin",
          "type": "address"
        },
        {
          "internalType": "uint256",
          "name": "_delay",
          "type": "uint256"
        }
      ],
      "stateMutability": "nonpayable",
      "type": "constructor"
    },
    {
      "anonymous": false,
      "inputs": [
        {
          "indexed": true,
          "internalType": "bytes32",
          "name": "txHash",
          "type": "bytes32"
        },
        {
          "indexed": true,
          "internalType": "address",
          "name": "target",
          "type": "address"
        },
        {
          "indexed": false,
          "internalType": "uint256",
          "name": "value",
          "type": "uint256"
        },
        {
          "indexed": false,
          "internalType": "string",
          "name": "signature",
          "type": "string"
        },
        {
          "indexed": false,
          "internalType": "bytes",
          "name": "data",
          "type": "bytes"
        },
        {
          "indexed": false,
          "internalType": "uint256",
          "name": "eta",
          "type": "uint256"
        }
      ],
      "name": "CancelTransaction",
      "type": "event"
    },
    {
      "anonymous": false,
      "inputs": [
        {
          "indexed": true,
          "internalType": "bytes32",
          "name": "txHash",
          "type": "bytes32"
        },
        {
          "indexed": true,
          "internalType": "address",
          "name": "target",
          "type": "address"
        },
        {
          "indexed": false,
          "internalType": "uint256",
          "name": "value",
          "type": "uint256"
        },
        {
          "indexed": false,
          "internalType": "string",
          "name": "signature",
          "type": "string"
        },
        {
          "indexed": false,
          "internalType": "bytes",
          "name": "data",
          "type": "bytes"
        },
        {
          "indexed": false,
          "internalType": "uint256",
          "name": "eta",
          "type": "uint256"
        }
      ],
      "name": "ExecuteTransaction",
      "type": "event"
    },
    {
      "anonymous": false,
      "inputs": [
        {
          "indexed": true,
          "internalType": "address",
          "name": "newAdmin",
          "type": "address"
        }
      ],
      "name": "NewAdmin",
      "type": "event"
    },
    {
      "anonymous": false,
      "inputs": [
        {
          "indexed": true,
          "internalType": "uint256",
          "name": "newDelay",
          "type": "uint256"
        }
      ],
      "name": "NewDelay",
      "type": "event"
    },
    {
      "anonymous": false,
      "inputs": [
        {
          "indexed": true,
          "internalType": "address",
          "name": "newPendingAdmin",
          "type": "address"
        }
      ],
      "name": "NewPendingAdmin",
      "type": "event"
    },
    {
      "anonymous": false,
      "inputs": [
        {
          "indexed": true,
          "internalType": "bytes32",
          "name": "txHash",
          "type": "bytes32"
        },
        {
          "indexed": true,
          "internalType": "address",
          "name": "target",
          "type": "address"
        },
        {
          "indexed": false,
          "internalType": "uint256",
          "name": "value",
          "type": "uint256"
        },
        {
          "indexed": false,
          "internalType": "string",
          "name": "signature",
          "type": "string"
        },
        {
          "indexed": false,
          "internalType": "bytes",
          "name": "data",
          "type": "bytes"
        },
        {
          "indexed": false,
          "internalType": "uint256",
          "name": "eta",
          "type": "uint256"
        }
      ],
      "name": "QueueTransaction",
      "type": "event"
    },
    {
      "inputs": [],
      "name": "GRACE_PERIOD",
      "outputs": [
        {
          "internalType": "uint256",
          "name": "",
          "type": "uint256"
        }
      ],
      "stateMutability": "view",
      "type": "function"
    },
    {
      "inputs": [],
      "name": "MAXIMUM_DELAY",
      "outputs": [
        {
          "internalType": "uint256",
          "name": "",
          "type": "uint256"
        }
      ],
      "stateMutability": "view",
      "type": "function"
    },
    {
      "inputs": [],
      "name": "MINIMUM_DELAY",
      "outputs": [
        {
          "internalType": "uint256",
          "name": "",
          "type": "uint256"
        }
      ],
      "stateMutability": "view",
      "type": "function"
    },
    {
      "inputs": [],
      "name": "acceptAdminRole",
      "outputs": [],
      "stateMutability": "nonpayable",
      "type": "function"
    },
    {
      "inputs": [],
      "name": "admin",
      "outputs": [
        {
          "internalType": "address",
          "name": "",
          "type": "address"
        }
      ],
      "stateMutability": "view",
      "type": "function"
    },
    {
      "inputs": [
        {
          "internalType": "address",
          "name": "target",
          "type": "address"
        },
        {
          "internalType": "uint256",
          "name": "value",
          "type": "uint256"
        },
        {
          "internalType": "string",
          "name": "signature",
          "type": "string"
        },
        {
          "internalType": "bytes",
          "name": "data",
          "type": "bytes"
        },
        {
          "internalType": "uint256",
          "name": "eta",
          "type": "uint256"
        }
      ],
      "name": "cancelTransaction",
      "outputs": [],
      "stateMutability": "nonpayable",
      "type": "function"
    },
    {
      "inputs": [],
      "name": "confirmNewAdmin",
      "outputs": [],
      "stateMutability": "nonpayable",
      "type": "function"
    },
    {
      "inputs": [],
      "name": "delay",
      "outputs": [
        {
          "internalType": "uint256",
          "name": "",
          "type": "uint256"
        }
      ],
      "stateMutability": "view",
      "type": "function"
    },
    {
      "inputs": [
        {
          "internalType": "address",
          "name": "target",
          "type": "address"
        },
        {
          "internalType": "uint256",
          "name": "value",
          "type": "uint256"
        },
        {
          "internalType": "string",
          "name": "signature",
          "type": "string"
        },
        {
          "internalType": "bytes",
          "name": "data",
          "type": "bytes"
        },
        {
          "internalType": "uint256",
          "name": "eta",
          "type": "uint256"
        }
      ],
      "name": "executeTransaction",
      "outputs": [
        {
          "internalType": "bytes",
          "name": "",
          "type": "bytes"
        }
      ],
      "stateMutability": "payable",
      "type": "function"
    },
    {
      "inputs": [],
      "name": "pendingAdmin",
      "outputs": [
        {
          "internalType": "address",
          "name": "",
          "type": "address"
        }
      ],
      "stateMutability": "view",
      "type": "function"
    },
    {
      "inputs": [
        {
          "internalType": "address",
          "name": "",
          "type": "address"
        }
      ],
      "name": "pendingAdminAccepted",
      "outputs": [
        {
          "internalType": "bool",
          "name": "",
          "type": "bool"
        }
      ],
      "stateMutability": "view",
      "type": "function"
    },
    {
      "inputs": [
        {
          "internalType": "address",
          "name": "target",
          "type": "address"
        },
        {
          "internalType": "uint256",
          "name": "value",
          "type": "uint256"
        },
        {
          "internalType": "string",
          "name": "signature",
          "type": "string"
        },
        {
          "internalType": "bytes",
          "name": "data",
          "type": "bytes"
        },
        {
          "internalType": "uint256",
          "name": "eta",
          "type": "uint256"
        }
      ],
      "name": "queueTransaction",
      "outputs": [
        {
          "internalType": "bytes32",
          "name": "",
          "type": "bytes32"
        }
      ],
      "stateMutability": "nonpayable",
      "type": "function"
    },
    {
      "inputs": [
        {
          "internalType": "bytes32",
          "name": "",
          "type": "bytes32"
        }
      ],
      "name": "queuedTransactions",
      "outputs": [
        {
          "internalType": "bool",
          "name": "",
          "type": "bool"
        }
      ],
      "stateMutability": "view",
      "type": "function"
    },
    {
      "inputs": [
        {
          "internalType": "uint256",
          "name": "_delay",
          "type": "uint256"
        }
      ],
      "name": "setDelay",
      "outputs": [],
      "stateMutability": "nonpayable",
      "type": "function"
    },
    {
      "inputs": [
        {
          "internalType": "address",
          "name": "_pendingAdmin",
          "type": "address"
        }
      ],
      "name": "setNewPendingAdmin",
      "outputs": [],
      "stateMutability": "nonpayable",
      "type": "function"
    }
  ],
  "transactionHash": "0xc5b0711918a22876f15fc6b1f7fc67b59ec85f830914b8633f7246eef73e6e79",
  "args": [
    "0x565d490806A6D8eF532f4d29eC00EF6aAC71A17A",
    21600
  ],
  "numDeployments": 1,
  "solcInputHash": "dd6301e56a669096d4ac4bf415393c0f",
  "bytecode": "0x608060405234801561001057600080fd5b506040516117683803806117688339818101604052604081101561003357600080fd5b5080516020909101518061546081101561007d576040805162461bcd60e51b81526020600482015260066024820152652a2b2226a4a760d11b604482015290519081900360640190fd5b62278d008111156100be576040805162461bcd60e51b81526020600482015260066024820152650a8ac889a82b60d31b604482015290519081900360640190fd5b6001600160a01b038316610102576040805162461bcd60e51b815260206004808301919091526024820152630545644360e41b604482015290519081900360640190fd5b50600180546001600160a01b039093166001600160a01b031990931692909217909155600055611631806101376000396000f3fe6080604052600436106100e85760003560e01c80638c3d73011161008a578063e177246e11610059578063e177246e14610664578063ef20accb1461068e578063f2b06537146106a3578063f851a440146106cd576100e8565b80638c3d7301146105de578063b1b43ae5146105f3578063c1a287e214610608578063db4758e11461061d576100e8565b806357743f52116100c657806357743f5214610432578063591fcdfe146104675780636a42b8f8146105b45780637d645fab146105c9576100e8565b80630825f38f146100ed57806326782247146102a25780633a66f901146102d3575b600080fd5b61022d600480360360a081101561010357600080fd5b6001600160a01b0382351691602081013591810190606081016040820135600160201b81111561013257600080fd5b82018360208201111561014457600080fd5b803590602001918460018302840111600160201b8311171561016557600080fd5b91908080601f0160208091040260200160405190810160405280939291908181526020018383808284376000920191909152509295949360208101935035915050600160201b8111156101b757600080fd5b8201836020820111156101c957600080fd5b803590602001918460018302840111600160201b831117156101ea57600080fd5b91908080601f01602080910402602001604051908101604052809392919081815260200183838082843760009201919091525092955050913592506106e2915050565b6040805160208082528351818301528351919283929083019185019080838360005b8381101561026757818101518382015260200161024f565b50505050905090810190601f1680156102945780820380516001836020036101000a031916815260200191505b509250505060405180910390f35b3480156102ae57600080fd5b506102b7610bd8565b604080516001600160a01b039092168252519081900360200190f35b3480156102df57600080fd5b50610420600480360360a08110156102f657600080fd5b6001600160a01b0382351691602081013591810190606081016040820135600160201b81111561032557600080fd5b82018360208201111561033757600080fd5b803590602001918460018302840111600160201b8311171561035857600080fd5b91908080601f0160208091040260200160405190810160405280939291908181526020018383808284376000920191909152509295949360208101935035915050600160201b8111156103aa57600080fd5b8201836020820111156103bc57600080fd5b803590602001918460018302840111600160201b831117156103dd57600080fd5b91908080601f0160208091040260200160405190810160405280939291908181526020018383808284376000920191909152509295505091359250610be7915050565b60408051918252519081900360200190f35b34801561043e57600080fd5b506104656004803603602081101561045557600080fd5b50356001600160a01b0316610ee6565b005b34801561047357600080fd5b50610465600480360360a081101561048a57600080fd5b6001600160a01b0382351691602081013591810190606081016040820135600160201b8111156104b957600080fd5b8201836020820111156104cb57600080fd5b803590602001918460018302840111600160201b831117156104ec57600080fd5b91908080601f0160208091040260200160405190810160405280939291908181526020018383808284376000920191909152509295949360208101935035915050600160201b81111561053e57600080fd5b82018360208201111561055057600080fd5b803590602001918460018302840111600160201b8311171561057157600080fd5b91908080601f0160208091040260200160405190810160405280939291908181526020018383808284376000920191909152509295505091359250611018915050565b3480156105c057600080fd5b506104206112c1565b3480156105d557600080fd5b506104206112c7565b3480156105ea57600080fd5b506104656112ce565b3480156105ff57600080fd5b50610420611332565b34801561061457600080fd5b50610420611338565b34801561062957600080fd5b506106506004803603602081101561064057600080fd5b50356001600160a01b031661133f565b604080519115158252519081900360200190f35b34801561067057600080fd5b506104656004803603602081101561068757600080fd5b5035611354565b34801561069a57600080fd5b5061046561144c565b3480156106af57600080fd5b50610650600480360360208110156106c657600080fd5b5035611572565b3480156106d957600080fd5b506102b7611587565b6001546060906001600160a01b0316331461072a576040805162461bcd60e51b8152602060048201526003602482015262544f4160e81b604482015290519081900360640190fd5b6000868686868660405160200180866001600160a01b031681526020018581526020018060200180602001848152602001838103835286818151815260200191508051906020019080838360005b83811015610790578181015183820152602001610778565b50505050905090810190601f1680156107bd5780820380516001836020036101000a031916815260200191505b50838103825285518152855160209182019187019080838360005b838110156107f05781810151838201526020016107d8565b50505050905090810190601f16801561081d5780820380516001836020036101000a031916815260200191505b5060408051601f1981840301815291815281516020928301206000818152600490935291205490995060ff16975061088c9650505050505050576040805162461bcd60e51b81526020600482015260056024820152645445544e5160d81b604482015290519081900360640190fd5b82610895611596565b10156108d2576040805162461bcd60e51b81526020600482015260076024820152661511551394d51360ca1b604482015290519081900360640190fd5b6108df836212750061159a565b6108e7611596565b1115610923576040805162461bcd60e51b815260206004820152600660248201526505445544d47560d41b604482015290519081900360640190fd5b6000818152600460205260409020805460ff1916905584516060906109495750836109cc565b85805190602001208560405160200180836001600160e01b031916815260040182805190602001908083835b602083106109945780518252601f199092019160209182019101610975565b6001836020036101000a0380198251168184511680821785525050505050509050019250505060405160208183030381529060405290505b600080896001600160a01b031689846040518082805190602001908083835b60208310610a0a5780518252601f1990920191602091820191016109eb565b6001836020036101000a03801982511681845116808217855250505050505090500191505060006040518083038185875af1925050503d8060008114610a6c576040519150601f19603f3d011682016040523d82523d6000602084013e610a71565b606091505b509150915081610ab0576040805162461bcd60e51b81526020600482015260056024820152642a22aa292b60d91b604482015290519081900360640190fd5b896001600160a01b0316847fa560e3198060a2f10670c1ec5b403077ea6ae93ca8de1c32b451dc1a943cd6e78b8b8b8b604051808581526020018060200180602001848152602001838103835286818151815260200191508051906020019080838360005b83811015610b2d578181015183820152602001610b15565b50505050905090810190601f168015610b5a5780820380516001836020036101000a031916815260200191505b50838103825285518152855160209182019187019080838360005b83811015610b8d578181015183820152602001610b75565b50505050905090810190601f168015610bba5780820380516001836020036101000a031916815260200191505b50965050505050505060405180910390a39998505050505050505050565b6002546001600160a01b031681565b6001546000906001600160a01b03163314610c2f576040805162461bcd60e51b8152602060048201526003602482015262544f4160e81b604482015290519081900360640190fd5b610c43600054610c3d611596565b9061159a565b821015610c80576040805162461bcd60e51b81526020600482015260066024820152651514551394d160d21b604482015290519081900360640190fd5b6000868686868660405160200180866001600160a01b031681526020018581526020018060200180602001848152602001838103835286818151815260200191508051906020019080838360005b83811015610ce6578181015183820152602001610cce565b50505050905090810190601f168015610d135780820380516001836020036101000a031916815260200191505b50838103825285518152855160209182019187019080838360005b83811015610d46578181015183820152602001610d2e565b50505050905090810190601f168015610d735780820380516001836020036101000a031916815260200191505b5097505050505050505060405160208183030381529060405280519060200120905060016004600083815260200190815260200160002060006101000a81548160ff021916908315150217905550866001600160a01b0316817f76e2796dc3a81d57b0e8504b647febcbeeb5f4af818e164f11eef8131a6a763f88888888604051808581526020018060200180602001848152602001838103835286818151815260200191508051906020019080838360005b83811015610e3e578181015183820152602001610e26565b50505050905090810190601f168015610e6b5780820380516001836020036101000a031916815260200191505b50838103825285518152855160209182019187019080838360005b83811015610e9e578181015183820152602001610e86565b50505050905090810190601f168015610ecb5780820380516001836020036101000a031916815260200191505b50965050505050505060405180910390a39695505050505050565b6001546001600160a01b03163314610f2b576040805162461bcd60e51b8152602060048201526003602482015262544f4160e81b604482015290519081900360640190fd5b6002546001600160a01b031615610f72576040805162461bcd60e51b81526020600482015260066024820152650545350414e360d41b604482015290519081900360640190fd5b6001600160a01b038116610fb5576040805162461bcd60e51b8152602060048201526005602482015264054535041360dc1b604482015290519081900360640190fd5b600280546001600160a01b0319166001600160a01b038381169182178355600091825260036020526040808320805460ff19169055925492519216917f69d78e38a01985fbb1462961809b4b2d65531bc93b2b94037f3334b82ca4a7569190a250565b6001546001600160a01b0316331461105d576040805162461bcd60e51b8152602060048201526003602482015262544f4160e81b604482015290519081900360640190fd5b6000858585858560405160200180866001600160a01b031681526020018581526020018060200180602001848152602001838103835286818151815260200191508051906020019080838360005b838110156110c35781810151838201526020016110ab565b50505050905090810190601f1680156110f05780820380516001836020036101000a031916815260200191505b50838103825285518152855160209182019187019080838360005b8381101561112357818101518382015260200161110b565b50505050905090810190601f1680156111505780820380516001836020036101000a031916815260200191505b5097505050505050505060405160208183030381529060405280519060200120905060006004600083815260200190815260200160002060006101000a81548160ff021916908315150217905550856001600160a01b0316817f2fffc091a501fd91bfbff27141450d3acb40fb8e6d8382b243ec7a812a3aaf8787878787604051808581526020018060200180602001848152602001838103835286818151815260200191508051906020019080838360005b8381101561121b578181015183820152602001611203565b50505050905090810190601f1680156112485780820380516001836020036101000a031916815260200191505b50838103825285518152855160209182019187019080838360005b8381101561127b578181015183820152602001611263565b50505050905090810190601f1680156112a85780820380516001836020036101000a031916815260200191505b50965050505050505060405180910390a3505050505050565b60005481565b62278d0081565b6002546001600160a01b03163314611316576040805162461bcd60e51b81526020600482015260066024820152655441414e504160d01b604482015290519081900360640190fd5b336000908152600360205260409020805460ff19166001179055565b61546081565b6212750081565b60036020526000908152604090205460ff1681565b6001546001600160a01b03163314611399576040805162461bcd60e51b8152602060048201526003602482015262544f4160e81b604482015290519081900360640190fd5b806154608110156113da576040805162461bcd60e51b81526020600482015260066024820152652a2b2226a4a760d11b604482015290519081900360640190fd5b62278d0081111561141b576040805162461bcd60e51b81526020600482015260066024820152650a8ac889a82b60d31b604482015290519081900360640190fd5b600082815560405183917f948b1f6a42ee138b7e34058ba85a37f716d55ff25ff05a763f15bed6a04c8d2c91a25050565b6001546001600160a01b03163314611491576040805162461bcd60e51b8152602060048201526003602482015262544f4160e81b604482015290519081900360640190fd5b6002546001600160a01b031660009081526003602052604090205460ff166114e8576040805162461bcd60e51b81526020600482015260056024820152645443414e4160d81b604482015290519081900360640190fd5b60028054600180546001600160a01b038084166001600160a01b031992831617928390559216909255600080805260036020527f3617319a054d772f909f7c479a2cebe5066e836a939412e32403c99029b92eff805460ff1916905560405192909116917f71614071b88dee5e0b2ae578a9dd7b2ebbe9ae832ba419dc0242cd065a290b6c9190a2565b60046020526000908152604090205460ff1681565b6001546001600160a01b031681565b4290565b6000828201838110156115f4576040805162461bcd60e51b815260206004820152601b60248201527f536166654d6174683a206164646974696f6e206f766572666c6f770000000000604482015290519081900360640190fd5b939250505056fea26469706673582212201e28c981f717d771ae546962de7843b7c81105ce0a1e1f1e25f9fdd8bcc5dbdf64736f6c63430007060033",
  "devdoc": {
    "kind": "dev",
    "methods": {
      "cancelTransaction(address,uint256,string,bytes,uint256)": {
        "params": {
          "data": "the data of the transaction to be enqueued",
          "eta": "the minimum timestamp at which the transaction can be executed",
          "signature": "the signature of the transaction to be enqueued",
          "target": "the target contract address",
          "value": "the value to be sent"
        }
      },
      "executeTransaction(address,uint256,string,bytes,uint256)": {
        "params": {
          "data": "the data of the transaction to be enqueued",
          "eta": "the minimum timestamp at which the transaction can be executed",
          "signature": "the signature of the transaction to be enqueued",
          "target": "the target contract address",
          "value": "the value to be sent"
        },
        "returns": {
          "_0": "the bytes returned by the call method"
        }
      },
      "queueTransaction(address,uint256,string,bytes,uint256)": {
        "params": {
          "data": "the data of the transaction to be enqueued",
          "eta": "the minimum timestamp at which the transaction can be executed",
          "signature": "the signature of the transaction to be enqueued",
          "target": "the target contract address",
          "value": "the value to be sent"
        },
        "returns": {
          "_0": "the hash of the transaction in bytes"
        }
      },
      "setDelay(uint256)": {
        "params": {
          "_delay": "the new delay"
        }
      },
      "setNewPendingAdmin(address)": {
        "params": {
          "_pendingAdmin": "the pending admin"
        }
      }
    },
    "title": "Locks the registry for a minimum period of time",
    "version": 1
  },
  "userdoc": {
    "kind": "user",
    "methods": {
      "acceptAdminRole()": {
        "notice": "Pending admin accepts its role of new admin"
      },
      "cancelTransaction(address,uint256,string,bytes,uint256)": {
        "notice": "cancels a transaction that has been queued"
      },
      "confirmNewAdmin()": {
        "notice": "Confirms the pending admin as new admin after he accepted the role"
      },
      "executeTransaction(address,uint256,string,bytes,uint256)": {
        "notice": "executes a transaction that has been queued"
      },
      "queueTransaction(address,uint256,string,bytes,uint256)": {
        "notice": "queues a transaction to be executed after the delay passed"
      },
      "setDelay(uint256)": {
        "notice": "Sets the minimum time delay"
      },
      "setNewPendingAdmin(address)": {
        "notice": "Sets a new address as pending admin"
      }
    },
    "version": 1
  },
  "storageLayout": {
    "storage": [
      {
        "astId": 9628,
        "contract": "contracts/Timelock.sol:Timelock",
        "label": "delay",
        "offset": 0,
        "slot": "0",
        "type": "t_uint256"
      },
      {
        "astId": 9630,
        "contract": "contracts/Timelock.sol:Timelock",
        "label": "admin",
        "offset": 0,
        "slot": "1",
        "type": "t_address"
      },
      {
        "astId": 9632,
        "contract": "contracts/Timelock.sol:Timelock",
        "label": "pendingAdmin",
        "offset": 0,
        "slot": "2",
        "type": "t_address"
      },
      {
        "astId": 9636,
        "contract": "contracts/Timelock.sol:Timelock",
        "label": "pendingAdminAccepted",
        "offset": 0,
        "slot": "3",
        "type": "t_mapping(t_address,t_bool)"
      },
      {
        "astId": 9640,
        "contract": "contracts/Timelock.sol:Timelock",
        "label": "queuedTransactions",
        "offset": 0,
        "slot": "4",
        "type": "t_mapping(t_bytes32,t_bool)"
      }
    ],
    "types": {
      "t_address": {
        "encoding": "inplace",
        "label": "address",
        "numberOfBytes": "20"
      },
      "t_bool": {
        "encoding": "inplace",
        "label": "bool",
        "numberOfBytes": "1"
      },
      "t_bytes32": {
        "encoding": "inplace",
        "label": "bytes32",
        "numberOfBytes": "32"
      },
      "t_mapping(t_address,t_bool)": {
        "encoding": "mapping",
        "key": "t_address",
        "label": "mapping(address => bool)",
        "numberOfBytes": "32",
        "value": "t_bool"
      },
      "t_mapping(t_bytes32,t_bool)": {
        "encoding": "mapping",
        "key": "t_bytes32",
        "label": "mapping(bytes32 => bool)",
        "numberOfBytes": "32",
        "value": "t_bool"
      },
      "t_uint256": {
        "encoding": "inplace",
        "label": "uint256",
        "numberOfBytes": "32"
      }
    }
  }
}