{
  "address": "0x162Ff164B376fB1Fb0Ed657467123b262F25a985",
  "abi": [
    {
      "inputs": [
        {
          "internalType": "address",
          "name": "_registryAddressHolder",
          "type": "address"
        },
        {
          "internalType": "address",
          "name": "_nonfungiblePositionManagerAddress",
          "type": "address"
        },
        {
          "internalType": "address",
          "name": "_uniswapV3FactoryAddress",
          "type": "address"
        },
        {
          "internalType": "address",
          "name": "_swapRouterAddress",
          "type": "address"
        }
      ],
      "stateMutability": "nonpayable",
      "type": "constructor"
    },
    {
      "anonymous": false,
      "inputs": [
        {
          "indexed": false,
          "internalType": "address",
          "name": "oldAddress",
          "type": "address"
        },
        {
          "indexed": false,
          "internalType": "address",
          "name": "newAddress",
          "type": "address"
        }
      ],
      "name": "FactoryAddressSet",
      "type": "event"
    },
    {
      "anonymous": false,
      "inputs": [
        {
          "indexed": false,
          "internalType": "address",
          "name": "oldAddress",
          "type": "address"
        },
        {
          "indexed": false,
          "internalType": "address",
          "name": "newAddress",
          "type": "address"
        }
      ],
      "name": "NonFungibleAddressSet",
      "type": "event"
    },
    {
      "anonymous": false,
      "inputs": [
        {
          "indexed": false,
          "internalType": "address",
          "name": "oldAddress",
          "type": "address"
        },
        {
          "indexed": false,
          "internalType": "address",
          "name": "newAddress",
          "type": "address"
        }
      ],
      "name": "SwapRouterAddressSet",
      "type": "event"
    },
    {
      "inputs": [],
      "name": "nonfungiblePositionManagerAddress",
      "outputs": [
        {
          "internalType": "address",
          "name": "",
          "type": "address"
        }
      ],
      "stateMutability": "view",
      "type": "function"
    },
    {
      "inputs": [],
      "name": "registryAddressHolder",
      "outputs": [
        {
          "internalType": "contract IRegistryAddressHolder",
          "name": "",
          "type": "address"
        }
      ],
      "stateMutability": "view",
      "type": "function"
    },
    {
      "inputs": [
        {
          "internalType": "address",
          "name": "newAddress",
          "type": "address"
        }
      ],
      "name": "setFactoryAddress",
      "outputs": [],
      "stateMutability": "nonpayable",
      "type": "function"
    },
    {
      "inputs": [
        {
          "internalType": "address",
          "name": "newAddress",
          "type": "address"
        }
      ],
      "name": "setNonFungibleAddress",
      "outputs": [],
      "stateMutability": "nonpayable",
      "type": "function"
    },
    {
      "inputs": [
        {
          "internalType": "address",
          "name": "newAddress",
          "type": "address"
        }
      ],
      "name": "setSwapRouterAddress",
      "outputs": [],
      "stateMutability": "nonpayable",
      "type": "function"
    },
    {
      "inputs": [],
      "name": "swapRouterAddress",
      "outputs": [
        {
          "internalType": "address",
          "name": "",
          "type": "address"
        }
      ],
      "stateMutability": "view",
      "type": "function"
    },
    {
      "inputs": [],
      "name": "uniswapV3FactoryAddress",
      "outputs": [
        {
          "internalType": "address",
          "name": "",
          "type": "address"
        }
      ],
      "stateMutability": "view",
      "type": "function"
    }
  ],
  "transactionHash": "0xdd199055d66453111ec980e1016c4736b038f951dc03474ef24535aea7b7ec08",
  "args": [
    "0xe5b481AFFFbfe1A61d762f42d4c630a5AAD388f9",
    "0xC36442b4a4522E871399CD717aBDD847Ab11FE88",
    "0x1F98431c8aD98523631AE4a59f267346ea31F984",
    "0xE592427A0AEce92De3Edee1F18E0157C05861564"
  ],
  "numDeployments": 1,
  "solcInputHash": "dd6301e56a669096d4ac4bf415393c0f",
  "bytecode": "0x60a060405234801561001057600080fd5b506040516109d53803806109d583398101604081905261002f91610141565b6001600160a01b03841661005e5760405162461bcd60e51b8152600401610055906101f6565b60405180910390fd5b6001600160a01b0383166100845760405162461bcd60e51b815260040161005590610194565b6001600160a01b0382166100aa5760405162461bcd60e51b8152600401610055906101b5565b6001600160a01b0381166100d05760405162461bcd60e51b8152600401610055906101d5565b60609390931b6001600160601b031916608052600080546001600160a01b03199081166001600160a01b0394851617909155600180548216928416929092179091556002805490911691909216179055610217565b80516001600160a01b038116811461013c57600080fd5b919050565b60008060008060808587031215610156578384fd5b61015f85610125565b935061016d60208601610125565b925061017b60408601610125565b915061018960608601610125565b905092959194509250565b60208082526007908201526605541484e5041360cc1b604082015260600190565b60208082526006908201526505541484641360d41b604082015260600190565b6020808252600790820152660554148535241360cc1b604082015260600190565b6020808252600790820152660554148524148360cc1b604082015260600190565b60805160601c6107936102426000398060f552806102c3528061047c528061063552506107936000f3fe608060405234801561001057600080fd5b506004361061007d5760003560e01c806380f5db8c1161005b57806380f5db8c146100c857806383c17c55146100d057806390fcdb36146100e3578063974914d5146100eb5761007d565b80635249961b146100825780635bfccac91461009757806370608600146100b5575b600080fd5b610095610090366004610657565b6100f3565b005b61009f6102b2565b6040516100ac9190610696565b60405180910390f35b6100956100c3366004610657565b6102c1565b61009f61046b565b6100956100de366004610657565b61047a565b61009f610624565b61009f610633565b7f00000000000000000000000000000000000000000000000000000000000000006001600160a01b0316637b1039996040518163ffffffff1660e01b815260040160206040518083038186803b15801561014c57600080fd5b505afa158015610160573d6000803e3d6000fd5b505050506040513d601f19601f82011682018060405250810190610184919061067a565b6001600160a01b0316635aa6e6756040518163ffffffff1660e01b815260040160206040518083038186803b1580156101bc57600080fd5b505afa1580156101d0573d6000803e3d6000fd5b505050506040513d601f19601f820116820180604052508101906101f4919061067a565b6001600160a01b0316336001600160a01b03161461022d5760405162461bcd60e51b815260040161022490610726565b60405180910390fd5b6001600160a01b0381166102535760405162461bcd60e51b815260040161022490610705565b600280546001600160a01b038381166001600160a01b03198316179092556040519116907ffd491d6ce14e136a40aca5aa4793796c5051c98a15232f7a7a0d7b8d4bf321e3906102a690839085906106aa565b60405180910390a15050565b6000546001600160a01b031681565b7f00000000000000000000000000000000000000000000000000000000000000006001600160a01b0316637b1039996040518163ffffffff1660e01b815260040160206040518083038186803b15801561031a57600080fd5b505afa15801561032e573d6000803e3d6000fd5b505050506040513d601f19601f82011682018060405250810190610352919061067a565b6001600160a01b0316635aa6e6756040518163ffffffff1660e01b815260040160206040518083038186803b15801561038a57600080fd5b505afa15801561039e573d6000803e3d6000fd5b505050506040513d601f19601f820116820180604052508101906103c2919061067a565b6001600160a01b0316336001600160a01b0316146103f25760405162461bcd60e51b815260040161022490610726565b6001600160a01b0381166104185760405162461bcd60e51b8152600401610224906106c4565b600080546001600160a01b038381166001600160a01b03198316179092556040519116907fc8e6637fb05f14eb2b05c10727d90b5e471b7fe789269f75b86fc9c08dc0fa6f906102a690839085906106aa565b6001546001600160a01b031681565b7f00000000000000000000000000000000000000000000000000000000000000006001600160a01b0316637b1039996040518163ffffffff1660e01b815260040160206040518083038186803b1580156104d357600080fd5b505afa1580156104e7573d6000803e3d6000fd5b505050506040513d601f19601f8201168201806040525081019061050b919061067a565b6001600160a01b0316635aa6e6756040518163ffffffff1660e01b815260040160206040518083038186803b15801561054357600080fd5b505afa158015610557573d6000803e3d6000fd5b505050506040513d601f19601f8201168201806040525081019061057b919061067a565b6001600160a01b0316336001600160a01b0316146105ab5760405162461bcd60e51b815260040161022490610726565b6001600160a01b0381166105d15760405162461bcd60e51b8152600401610224906106e5565b600180546001600160a01b038381166001600160a01b03198316179092556040519116907f6a9bd4e17a6d985ad89591b1b2f538e9c3b602734dd4f0a94fcafc288e0127bd906102a690839085906106aa565b6002546001600160a01b031681565b7f000000000000000000000000000000000000000000000000000000000000000081565b600060208284031215610668578081fd5b813561067381610745565b9392505050565b60006020828403121561068b578081fd5b815161067381610745565b6001600160a01b0391909116815260200190565b6001600160a01b0392831681529116602082015260400190565b60208082526007908201526605541484e5041360cc1b604082015260600190565b60208082526006908201526505541484641360d41b604082015260600190565b6020808252600790820152660554148535241360cc1b604082015260600190565b6020808252600590820152645541484f4760d81b604082015260600190565b6001600160a01b038116811461075a57600080fd5b5056fea2646970667358221220a83c06633b87c1d4cd28cc86b002b75cc54ac35a1c5775ca9d8289aea7d40e0864736f6c63430007060033",
  "devdoc": {
    "events": {
      "FactoryAddressSet(address,address)": {
        "params": {
          "newAddress": "The address of the Uniswap V3 factory",
          "oldAddress": "The address of the Uniswap V3 factory"
        }
      },
      "NonFungibleAddressSet(address,address)": {
        "params": {
          "newAddress": "The address of the non fungible position manager",
          "oldAddress": "The address of the non fungible position manager"
        }
      },
      "SwapRouterAddressSet(address,address)": {
        "params": {
          "newAddress": "The address of the swap router",
          "oldAddress": "The address of the swap router"
        }
      }
    },
    "kind": "dev",
    "methods": {
      "setFactoryAddress(address)": {
        "params": {
          "newAddress": "The address of the Uniswap V3 factory"
        }
      },
      "setNonFungibleAddress(address)": {
        "params": {
          "newAddress": "The address of the non fungible position manager"
        }
      },
      "setSwapRouterAddress(address)": {
        "params": {
          "newAddress": "The address of the swap router"
        }
      }
    },
    "stateVariables": {
      "nonfungiblePositionManagerAddress": {
        "return": "address The address of the non fungible position manager"
      },
      "swapRouterAddress": {
        "return": "address The address of the swap router"
      },
      "uniswapV3FactoryAddress": {
        "return": "address The address of the Uniswap V3 factory"
      }
    },
    "version": 1
  },
  "userdoc": {
    "events": {
      "FactoryAddressSet(address,address)": {
        "notice": "emitted when the address of the Uniswap V3 factory is set"
      },
      "NonFungibleAddressSet(address,address)": {
        "notice": "emitted when the address of the non fungible position manager is set"
      },
      "SwapRouterAddressSet(address,address)": {
        "notice": "emitted when the address of the swap router is set"
      }
    },
    "kind": "user",
    "methods": {
      "nonfungiblePositionManagerAddress()": {
        "notice": "default getter for nonfungiblePositionManagerAddress"
      },
      "setFactoryAddress(address)": {
        "notice": "Set the address of the Uniswap V3 factory"
      },
      "setNonFungibleAddress(address)": {
        "notice": "Set the address of the non fungible position manager"
      },
      "setSwapRouterAddress(address)": {
        "notice": "Set the address of the swap router"
      },
      "swapRouterAddress()": {
        "notice": "default getter for swapRouterAddress"
      },
      "uniswapV3FactoryAddress()": {
        "notice": "default getter for uniswapV3FactoryAddress"
      }
    },
    "version": 1
  },
  "storageLayout": {
    "storage": [
      {
        "astId": 23762,
        "contract": "contracts/utils/UniswapAddressHolder.sol:UniswapAddressHolder",
        "label": "nonfungiblePositionManagerAddress",
        "offset": 0,
        "slot": "0",
        "type": "t_address"
      },
      {
        "astId": 23765,
        "contract": "contracts/utils/UniswapAddressHolder.sol:UniswapAddressHolder",
        "label": "uniswapV3FactoryAddress",
        "offset": 0,
        "slot": "1",
        "type": "t_address"
      },
      {
        "astId": 23768,
        "contract": "contracts/utils/UniswapAddressHolder.sol:UniswapAddressHolder",
        "label": "swapRouterAddress",
        "offset": 0,
        "slot": "2",
        "type": "t_address"
      }
    ],
    "types": {
      "t_address": {
        "encoding": "inplace",
        "label": "address",
        "numberOfBytes": "20"
      }
    }
  }
}