{
  "address": "0xafbf32804f82B7458c2Da6E2EcdAD73De6a9b1dB",
  "abi": [
    {
      "anonymous": false,
      "inputs": [
        {
          "indexed": true,
          "internalType": "address",
          "name": "positionManager",
          "type": "address"
        },
        {
          "indexed": false,
          "internalType": "address",
          "name": "performanceFeeRecipient",
          "type": "address"
        },
        {
          "indexed": false,
          "internalType": "uint256",
          "name": "performanceFeeAmount0",
          "type": "uint256"
        },
        {
          "indexed": false,
          "internalType": "uint256",
          "name": "performanceFeeAmount1",
          "type": "uint256"
        },
        {
          "indexed": false,
          "internalType": "uint256",
          "name": "serviceFeeAmount0",
          "type": "uint256"
        },
        {
          "indexed": false,
          "internalType": "uint256",
          "name": "serviceFeeAmount1",
          "type": "uint256"
        },
        {
          "indexed": false,
          "internalType": "uint256",
          "name": "returnedAmount0",
          "type": "uint256"
        },
        {
          "indexed": false,
          "internalType": "uint256",
          "name": "returnedAmount1",
          "type": "uint256"
        }
      ],
      "name": "ProfitShared",
      "type": "event"
    },
    {
      "inputs": [
        {
          "components": [
            {
              "internalType": "address",
              "name": "token0",
              "type": "address"
            },
            {
              "internalType": "address",
              "name": "token1",
              "type": "address"
            },
            {
              "internalType": "address",
              "name": "returnedToken",
              "type": "address"
            },
            {
              "internalType": "uint256",
              "name": "amount0",
              "type": "uint256"
            },
            {
              "internalType": "uint256",
              "name": "amount1",
              "type": "uint256"
            },
            {
              "internalType": "uint256",
              "name": "originalDepositUsdValue",
              "type": "uint256"
            },
            {
              "internalType": "address",
              "name": "performanceFeeRecipient",
              "type": "address"
            },
            {
              "internalType": "address",
              "name": "performanceFeeReceivedToken",
              "type": "address"
            },
            {
              "internalType": "uint24",
              "name": "performanceFeeRatio",
              "type": "uint24"
            },
            {
              "internalType": "uint32",
              "name": "serviceFeeRatio",
              "type": "uint32"
            }
          ],
          "internalType": "struct IShareProfit.ShareProfitInput",
          "name": "inputs",
          "type": "tuple"
        }
      ],
      "name": "shareProfit",
      "outputs": [
        {
          "components": [
            {
              "internalType": "uint256",
              "name": "amount0Returned",
              "type": "uint256"
            },
            {
              "internalType": "uint256",
              "name": "amount1Returned",
              "type": "uint256"
            }
          ],
          "internalType": "struct IShareProfit.ShareProfitOutput",
          "name": "outputs",
          "type": "tuple"
        }
      ],
      "stateMutability": "nonpayable",
      "type": "function"
    }
  ],
  "transactionHash": "0xf2b9314b09bfc32091de4b2e11c97c428430d861de5acd794dde9065cc33717f",
  "args": [],
  "numDeployments": 1,
  "solcInputHash": "08f28bc02234e5e762609eefb667e33a",
  "bytecode": "0x608060405234801561001057600080fd5b50612c0f806100206000396000f3fe608060405234801561001057600080fd5b506004361061002b5760003560e01c8063ca789c6914610030575b600080fd5b61004361003e3660046127db565b610059565b6040516100509190612ad4565b60405180910390f35b61006161252e565b600061006b610aa0565b905060008160050160009054906101000a90046001600160a01b03166001600160a01b03166386dd37f36040518163ffffffff1660e01b815260040160006040518083038186803b1580156100bf57600080fd5b505afa1580156100d3573d6000803e3d6000fd5b505050506040513d6000823e601f3d908101601f191682016040526100fb9190810190612728565b90506000806000808560050160009054906101000a90046001600160a01b03166001600160a01b03166308846aa26040518163ffffffff1660e01b815260040160206040518083038186803b15801561015357600080fd5b505afa158015610167573d6000803e3d6000fd5b505050506040513d601f19601f8201168201806040525081019061018b9190612644565b6001600160a01b03166101a160208a018a612628565b6001600160a01b0316146104a65760006102d78760030160009054906101000a90046001600160a01b03166001600160a01b03166380f5db8c6040518163ffffffff1660e01b815260040160206040518083038186803b15801561020457600080fd5b505afa158015610218573d6000803e3d6000fd5b505050506040513d601f19601f8201168201806040525081019061023c9190612644565b61024960208c018c612628565b8960050160009054906101000a90046001600160a01b03166001600160a01b03166308846aa26040518163ffffffff1660e01b815260040160206040518083038186803b15801561029957600080fd5b505afa1580156102ad573d6000803e3d6000fd5b505050506040513d601f19601f820116820180604052508101906102d19190612644565b89610ac4565b90506000816001600160a01b0316633850c7bd6040518163ffffffff1660e01b815260040160e06040518083038186803b15801561031457600080fd5b505afa158015610328573d6000803e3d6000fd5b505050506040513d601f19601f8201168201806040525081019061034c919061281a565b50505050505090506103fd8a600001602081019061036a9190612628565b8960050160009054906101000a90046001600160a01b03166001600160a01b03166308846aa26040518163ffffffff1660e01b815260040160206040518083038186803b1580156103ba57600080fd5b505afa1580156103ce573d6000803e3d6000fd5b505050506040513d601f19601f820116820180604052508101906103f29190612644565b8c6060013584610c99565b935061049d8161041060208d018d612628565b8a60050160009054906101000a90046001600160a01b03166001600160a01b03166308846aa26040518163ffffffff1660e01b815260040160206040518083038186803b15801561046057600080fd5b505afa158015610474573d6000803e3d6000fd5b505050506040513d601f19601f820116820180604052508101906104989190612644565b610e3a565b925050506104c5565b606088013591506104c26104bd60208a018a612628565b610f89565b90505b6000808760050160009054906101000a90046001600160a01b03166001600160a01b03166308846aa26040518163ffffffff1660e01b815260040160206040518083038186803b15801561051857600080fd5b505afa15801561052c573d6000803e3d6000fd5b505050506040513d601f19601f820116820180604052508101906105509190612644565b6001600160a01b031661056960408c0160208d01612628565b6001600160a01b03161461083a5760006106a28960030160009054906101000a90046001600160a01b03166001600160a01b03166380f5db8c6040518163ffffffff1660e01b815260040160206040518083038186803b1580156105cc57600080fd5b505afa1580156105e0573d6000803e3d6000fd5b505050506040513d601f19601f820116820180604052508101906106049190612644565b61061460408e0160208f01612628565b8b60050160009054906101000a90046001600160a01b03166001600160a01b03166308846aa26040518163ffffffff1660e01b815260040160206040518083038186803b15801561066457600080fd5b505afa158015610678573d6000803e3d6000fd5b505050506040513d601f19601f8201168201806040525081019061069c9190612644565b8b610ac4565b90506000816001600160a01b0316633850c7bd6040518163ffffffff1660e01b815260040160e06040518083038186803b1580156106df57600080fd5b505afa1580156106f3573d6000803e3d6000fd5b505050506040513d601f19601f82011682018060405250810190610717919061281a565b50505050505090506107c88c60200160208101906107359190612628565b8b60050160009054906101000a90046001600160a01b03166001600160a01b03166308846aa26040518163ffffffff1660e01b815260040160206040518083038186803b15801561078557600080fd5b505afa158015610799573d6000803e3d6000fd5b505050506040513d601f19601f820116820180604052508101906107bd9190612644565b8e6080013584610c99565b9350610831818d60200160208101906107e19190612628565b8c60050160009054906101000a90046001600160a01b03166001600160a01b03166308846aa26040518163ffffffff1660e01b815260040160206040518083038186803b15801561046057600080fd5b92505050610857565b60808a013591506108546104bd60408c0160208d01612628565b90505b60a08a0135610866858461100a565b11156108db5760006108a061088960a08d0135610883888761100a565b9061106d565b61089b6101208e016101008f016128a9565b6110ca565b90506108d46108b260208d018d612628565b6108c260408e0160208f01612628565b8d606001358e608001358887876110df565b9097509550505b506000925082915061091e90506108f560208a018a612628565b61090560408b0160208c01612628565b6109166101008c0160e08d01612628565b87878a611201565b909250905061097561093360208a018a612628565b61094360408b0160208c01612628565b61095360608c0160408d01612628565b61096160608d01358961106d565b61096f60808e01358961106d565b8a611201565b6020808a0191909152908852604080516101008101909152600091610a2d919081906109a3908d018d612628565b6001600160a01b031681526020018b60200160208101906109c49190612628565b6001600160a01b031681526020016109e260e08d0160c08e01612628565b6001600160a01b031681526020808201879052604082018690528b5160608301528b0151608082015260a001610a206101408d016101208e016128f9565b63ffffffff169052611344565b9050307fb6347e0af1ec14b2468ea584591e94ae9f08b064907e390506ef82d18b2ac46e610a6160e08c0160c08d01612628565b835160208501516040808701516060880151608089015160a08a01519351610a8c979695949061298d565b60405180910390a250505050505050919050565b7fd5aa5c52d76b5d2be1bece4b96c91e533fe2611adb0c19cf868dadf921fc13b890565b6000806000610ad386866116a3565b9197509550905060005b8451811015610c5f57848181518110610af257fe5b602002602001015162ffffff1660001415610b0c57610c57565b6000886001600160a01b0316631698ee828989898681518110610b2b57fe5b60200260200101516040518463ffffffff1660e01b8152600401610b5193929190612965565b60206040518083038186803b158015610b6957600080fd5b505afa158015610b7d573d6000803e3d6000fd5b505050506040513d601f19601f82011682018060405250810190610ba19190612644565b90506001600160a01b038116610bb75750610c57565b6000816001600160a01b0316631a6865026040518163ffffffff1660e01b815260040160206040518083038186803b158015610bf257600080fd5b505afa158015610c06573d6000803e3d6000fd5b505050506040513d601f19601f82011682018060405250810190610c2a91906127f3565b9050846001600160801b0316816001600160801b031611610c4c578585610c4f565b81815b909650945050505b600101610add565b506001600160a01b038316610c8f5760405162461bcd60e51b8152600401610c8690612a12565b60405180910390fd5b5050949350505050565b600082610ca857506000610e32565b836001600160a01b0316856001600160a01b03161415610cc9575081610e32565b6001600160a01b038085169086161160008082610ce7578787610cea565b86885b915091506000826001600160a01b031663313ce5676040518163ffffffff1660e01b815260040160206040518083038186803b158015610d2957600080fd5b505afa158015610d3d573d6000803e3d6000fd5b505050506040513d601f19601f82011682018060405250810190610d619190612931565b90506000826001600160a01b031663313ce5676040518163ffffffff1660e01b815260040160206040518083038186803b158015610d9e57600080fd5b505afa158015610db2573d6000803e3d6000fd5b505050506040513d601f19601f82011682018060405250810190610dd69190612931565b9050600080610def896001600160a01b031685856116e1565b91509150600087610e005782610e02565b815b9050600088610e115785610e13565b845b9050610e268c838360ff16600a0a611723565b99505050505050505050505b949350505050565b600080600080846001600160a01b0316866001600160a01b03161115610e6857508391508490506001610e72565b5084915083905060005b600080610f69896001600160a01b0316866001600160a01b031663313ce5676040518163ffffffff1660e01b815260040160206040518083038186803b158015610ebb57600080fd5b505afa158015610ecf573d6000803e3d6000fd5b505050506040513d601f19601f82011682018060405250810190610ef39190612931565b866001600160a01b031663313ce5676040518163ffffffff1660e01b815260040160206040518083038186803b158015610f2c57600080fd5b505afa158015610f40573d6000803e3d6000fd5b505050506040513d601f19601f82011682018060405250810190610f649190612931565b6116e1565b9150915082610f785781610f7a565b805b955050505050505b9392505050565b6000816001600160a01b031663313ce5676040518163ffffffff1660e01b815260040160206040518083038186803b158015610fc457600080fd5b505afa158015610fd8573d6000803e3d6000fd5b505050506040513d601f19601f82011682018060405250810190610ffc9190612931565b60ff16600a0a90505b919050565b600082820183811015611064576040805162461bcd60e51b815260206004820152601b60248201527f536166654d6174683a206164646974696f6e206f766572666c6f770000000000604482015290519081900360640190fd5b90505b92915050565b6000828211156110c4576040805162461bcd60e51b815260206004820152601e60248201527f536166654d6174683a207375627472616374696f6e206f766572666c6f770000604482015290519081900360640190fd5b50900390565b6000612710610e328462ffffff851683611723565b60008060006111ac61116888878c6001600160a01b031663313ce5676040518163ffffffff1660e01b815260040160206040518083038186803b15801561112557600080fd5b505afa158015611139573d6000803e3d6000fd5b505050506040513d601f19601f8201168201806040525081019061115d9190612931565b60ff16600a0a611723565b6111a68a898e6001600160a01b031663313ce5676040518163ffffffff1660e01b815260040160206040518083038186803b15801561112557600080fd5b9061100a565b90508381101580156111be5750600081115b6111da5760405162461bcd60e51b8152600401610c8690612a31565b6111e5888583611723565b92506111f2878583611723565b91505097509795505050505050565b600080600061120e610aa0565b905060006112a58260030160009054906101000a90046001600160a01b03166001600160a01b03166380f5db8c6040518163ffffffff1660e01b815260040160206040518083038186803b15801561126557600080fd5b505afa158015611279573d6000803e3d6000fd5b505050506040513d601f19601f8201168201806040525081019061129d9190612644565b8b8b88610ac4565b9050896001600160a01b0316886001600160a01b031614156112ec57856112ce578693506112e7565b6112e46112dd828b8b8a6117d2565b889061100a565b93505b611337565b886001600160a01b0316886001600160a01b031614156113305786611313578592506112e7565b611329611322828c8b8b6117d2565b879061100a565b9250611337565b8693508592505b5050965096945050505050565b61134c612548565b6000611356610aa0565b90506000806000856060015111156114e257606085015160058401546040805163563e77ef60e01b815290516113f893926001600160a01b03169163563e77ef916004808301926020929190829003018186803b1580156113b657600080fd5b505afa1580156113ca573d6000803e3d6000fd5b505050506040513d601f19601f820116820180604052508101906113ee9190612915565b8760e00151611b6d565b9150811561149a57604080850183905260058401548151630170b60160e61b8152915161149a926001600160a01b0390921691635c2d8040916004808301926020929190829003018186803b15801561145057600080fd5b505afa158015611464573d6000803e3d6000fd5b505050506040513d601f19601f820116820180604052508101906114889190612644565b86516001600160a01b03169084611b8c565b81856060015111156114e25760608501516114b5908361106d565b8452604085015160608601516114e291906114d0908561106d565b87516001600160a01b03169190611b8c565b60808501511561162c57608085015160058401546040805163563e77ef60e01b8152905161153a93926001600160a01b03169163563e77ef916004808301926020929190829003018186803b1580156113b657600080fd5b905080156115de5760608401819052600583015460408051630170b60160e61b815290516115de926001600160a01b031691635c2d8040916004808301926020929190829003018186803b15801561159157600080fd5b505afa1580156115a5573d6000803e3d6000fd5b505050506040513d601f19601f820116820180604052508101906115c99190612644565b60208701516001600160a01b03169083611b8c565b808560800151111561162c5760808501516115f9908261106d565b60208501526040850151608086015161162c9190611617908461106d565b60208801516001600160a01b03169190611b8c565b60a0850151156116625760a0850180516080860152600484015490518651611662926001600160a01b0391821692911690611b8c565b60c08501511561169b5760c08501805160a086015260048401549051602087015161169b926001600160a01b0391821692911690611b8c565b505050919050565b6000806000836001600160a01b0316856001600160a01b031611156116d0575082915083905060016116da565b5083915082905060005b9250925092565b600080611705600160c01b6116ff6002880a60ff8816600a0a611be3565b90611c3c565b915061171960ff85850116600a0a83611c3c565b9050935093915050565b6000808060001985870986860292508281109083900303905080611759576000841161174e57600080fd5b508290049050610f82565b80841161176557600080fd5b6000848688096000868103871696879004966002600389028118808a02820302808a02820302808a02820302808a02820302808a02820302808a02909103029181900381900460010186841190950394909402919094039290920491909117919091029150509392505050565b6000806117dd610aa0565b90506118f8868260050160009054906101000a90046001600160a01b03166001600160a01b031663e7c7cb916040518163ffffffff1660e01b815260040160206040518083038186803b15801561183357600080fd5b505afa158015611847573d6000803e3d6000fd5b505050506040513d601f19601f8201168201806040525081019061186b91906127c1565b8360050160009054906101000a90046001600160a01b03166001600160a01b03166326d895456040518163ffffffff1660e01b815260040160206040518083038186803b1580156118bb57600080fd5b505afa1580156118cf573d6000803e3d6000fd5b505050506040513d601f19601f820116820180604052508101906118f39190612915565b611ca3565b61198a858260030160009054906101000a90046001600160a01b03166001600160a01b03166390fcdb366040518163ffffffff1660e01b815260040160206040518083038186803b15801561194c57600080fd5b505afa158015611960573d6000803e3d6000fd5b505050506040513d601f19601f820116820180604052508101906119849190612644565b85611d9c565b8060030160009054906101000a90046001600160a01b03166001600160a01b03166390fcdb366040518163ffffffff1660e01b815260040160206040518083038186803b1580156119da57600080fd5b505afa1580156119ee573d6000803e3d6000fd5b505050506040513d601f19601f82011682018060405250810190611a129190612644565b6001600160a01b031663414bf389604051806101000160405280886001600160a01b03168152602001876001600160a01b03168152602001896001600160a01b031663ddca3f436040518163ffffffff1660e01b815260040160206040518083038186803b158015611a8357600080fd5b505afa158015611a97573d6000803e3d6000fd5b505050506040513d601f19601f82011682018060405250810190611abb91906128c5565b62ffffff168152602001306001600160a01b031681526020014281526020018681526020016000815260200160006001600160a01b03168152506040518263ffffffff1660e01b8152600401611b119190612a6b565b602060405180830381600087803b158015611b2b57600080fd5b505af1158015611b3f573d6000803e3d6000fd5b505050506040513d601f19601f82011682018060405250810190611b6391906128e1565b9695505050505050565b60008315610f8257610e32848363ffffffff168563ffffffff16611723565b604080516001600160a01b038416602482015260448082018490528251808303909101815260649091019091526020810180516001600160e01b031663a9059cbb60e01b179052611bde908490611e48565b505050565b600082611bf257506000611067565b82820282848281611bff57fe5b04146110645760405162461bcd60e51b8152600401808060200182810382526021815260200180612b8f6021913960400191505060405180910390fd5b6000808211611c92576040805162461bcd60e51b815260206004820152601a60248201527f536166654d6174683a206469766973696f6e206279207a65726f000000000000604482015290519081900360640190fd5b818381611c9b57fe5b049392505050565b63ffffffff8116611cb357611bde565b6000836001600160a01b0316633850c7bd6040518163ffffffff1660e01b815260040160e06040518083038186803b158015611cee57600080fd5b505afa158015611d02573d6000803e3d6000fd5b505050506040513d601f19601f82011682018060405250810190611d26919061281a565b50505050509150506000611d3a8584611ef9565b905060008160020b8360020b13611d5e57611d59600283900b84612052565b611d6c565b611d6c600284900b83612052565b90508460020b8160020b1315611d945760405162461bcd60e51b8152600401610c8690612a4e565b505050505050565b604051636eb1769f60e11b81526000906001600160a01b0385169063dd62ed3e90611dcd903090879060040161294b565b60206040518083038186803b158015611de557600080fd5b505afa158015611df9573d6000803e3d6000fd5b505050506040513d601f19601f82011682018060405250810190611e1d91906128e1565b9050818110611e2c5750611bde565b611e426001600160a01b038516848385036120c6565b50505050565b6000611e9d826040518060400160405280602081526020017f5361666545524332303a206c6f772d6c6576656c2063616c6c206661696c6564815250856001600160a01b03166121b19092919063ffffffff16565b805190915015611bde57808060200190516020811015611ebc57600080fd5b5051611bde5760405162461bcd60e51b815260040180806020018281038252602a815260200180612bb0602a913960400191505060405180910390fd5b604080516002808252606082018352600092839291906020830190803683370190505090508281600081518110611f2c57fe5b602002602001019063ffffffff16908163ffffffff1681525050600081600181518110611f5557fe5b63ffffffff9092166020928302919091019091015260405163883bdbfd60e01b81526000906001600160a01b0386169063883bdbfd90611f999085906004016129c8565b60006040518083038186803b158015611fb157600080fd5b505afa158015611fc5573d6000803e3d6000fd5b505050506040513d6000823e601f3d908101601f19168201604052611fed9190810190612660565b5090506120496120448563ffffffff1661203b8460008151811061200d57fe5b60200260200101518560018151811061202257fe5b602002602001015160060b6121c090919063ffffffff16565b60060b90612234565b6122e6565b95945050505050565b6000818303600283900b821380159061207157508360020b8160020b13155b8061208f575060008360020b12801561208f57508360020b8160020b135b611064576040805162461bcd60e51b815260206004820152600360248201526214d34d60ea1b604482015290519081900360640190fd5b600061215c82856001600160a01b031663dd62ed3e30876040518363ffffffff1660e01b815260040180836001600160a01b03168152602001826001600160a01b031681526020019250505060206040518083038186803b15801561212a57600080fd5b505afa15801561213e573d6000803e3d6000fd5b505050506040513d602081101561215457600080fd5b50519061100a565b604080516001600160a01b038616602482015260448082018490528251808303909101815260649091019091526020810180516001600160e01b031663095ea7b360e01b179052909150611e42908590611e48565b6060610e328484600085612329565b6000818303600683900b82138015906121df57508360060b8160060b13155b806121fd575060008360060b1280156121fd57508360060b8160060b135b611064576040805162461bcd60e51b81526020600482015260036024820152620a69a760eb1b604482015290519081900360640190fd5b60008160060b60001415612275576040805162461bcd60e51b815260206004820152600360248201526229a69b60e91b604482015290519081900360640190fd5b8160060b6000191480156122945750600683900b667fffffffffffff19145b156122cc576040805162461bcd60e51b8152602060048201526003602482015262534d3760e81b604482015290519081900360640190fd5b60008260060b8460060b816122dd57fe5b05949350505050565b80600281900b600682900b14611005576040805162461bcd60e51b81526020600482015260036024820152624d483560e81b604482015290519081900360640190fd5b60608247101561236a5760405162461bcd60e51b8152600401808060200182810382526026815260200180612b696026913960400191505060405180910390fd5b61237385612484565b6123c4576040805162461bcd60e51b815260206004820152601d60248201527f416464726573733a2063616c6c20746f206e6f6e2d636f6e7472616374000000604482015290519081900360640190fd5b600080866001600160a01b031685876040518082805190602001908083835b602083106124025780518252601f1990920191602091820191016123e3565b6001836020036101000a03801982511681845116808217855250505050505090500191505060006040518083038185875af1925050503d8060008114612464576040519150601f19603f3d011682016040523d82523d6000602084013e612469565b606091505b509150915061247982828661248a565b979650505050505050565b3b151590565b60608315612499575081610f82565b8251156124a95782518084602001fd5b8160405162461bcd60e51b81526004018080602001828103825283818151815260200191508051906020019080838360005b838110156124f35781810151838201526020016124db565b50505050905090810190601f1680156125205780820380516001836020036101000a031916815260200191505b509250505060405180910390fd5b604051806040016040528060008152602001600081525090565b6040518060c001604052806000815260200160008152602001600081526020016000815260200160008152602001600081525090565b600082601f83011261258e578081fd5b815160206125a361259e83612b0f565b612aeb565b82815281810190858301838502870184018810156125bf578586fd5b855b858110156125e65781516125d481612b2d565b845292840192908401906001016125c1565b5090979650505050505050565b8051600281900b811461100557600080fd5b805161ffff8116811461100557600080fd5b805160ff8116811461100557600080fd5b600060208284031215612639578081fd5b813561106481612b2d565b600060208284031215612655578081fd5b815161106481612b2d565b60008060408385031215612672578081fd5b825167ffffffffffffffff80821115612689578283fd5b818501915085601f83011261269c578283fd5b815160206126ac61259e83612b0f565b82815281810190858301838502870184018b10156126c8578788fd5b8796505b848710156126f85780518060060b81146126e4578889fd5b8352600196909601959183019183016126cc565b5091880151919650909350505080821115612711578283fd5b5061271e8582860161257e565b9150509250929050565b6000602080838503121561273a578182fd5b825167ffffffffffffffff811115612750578283fd5b8301601f81018513612760578283fd5b805161276e61259e82612b0f565b818152838101908385018584028501860189101561278a578687fd5b8694505b838510156127b55780516127a181612b45565b83526001949094019391850191850161278e565b50979650505050505050565b6000602082840312156127d2578081fd5b610f82826125f3565b600061014082840312156127ed578081fd5b50919050565b600060208284031215612804578081fd5b81516001600160801b0381168114611064578182fd5b600080600080600080600060e0888a031215612834578283fd5b875161283f81612b2d565b965061284d602089016125f3565b955061285b60408901612605565b945061286960608901612605565b935061287760808901612605565b925061288560a08901612617565b915060c08801518015158114612899578182fd5b8091505092959891949750929550565b6000602082840312156128ba578081fd5b813561106481612b45565b6000602082840312156128d6578081fd5b815161106481612b45565b6000602082840312156128f2578081fd5b5051919050565b60006020828403121561290a578081fd5b813561106481612b56565b600060208284031215612926578081fd5b815161106481612b56565b600060208284031215612942578081fd5b610f8282612617565b6001600160a01b0392831681529116602082015260400190565b6001600160a01b03938416815291909216602082015262ffffff909116604082015260600190565b6001600160a01b03979097168752602087019590955260408601939093526060850191909152608084015260a083015260c082015260e00190565b6020808252825182820181905260009190848201906040850190845b81811015612a0657835163ffffffff16835292840192918401916001016129e4565b50909695505050505050565b602080825260059082015264055484450360dc1b604082015260600190565b60208082526003908201526244544160e81b604082015260600190565b60208082526003908201526214d21160ea1b604082015260600190565b81516001600160a01b03908116825260208084015182169083015260408084015162ffffff16908301526060808401518216908301526080808401519083015260a0838101519083015260c0808401519083015260e09283015116918101919091526101000190565b815181526020918201519181019190915260400190565b60405181810167ffffffffffffffff81118282101715612b0757fe5b604052919050565b600067ffffffffffffffff821115612b2357fe5b5060209081020190565b6001600160a01b0381168114612b4257600080fd5b50565b62ffffff81168114612b4257600080fd5b63ffffffff81168114612b4257600080fdfe416464726573733a20696e73756666696369656e742062616c616e636520666f722063616c6c536166654d6174683a206d756c7469706c69636174696f6e206f766572666c6f775361666545524332303a204552433230206f7065726174696f6e20646964206e6f742073756363656564a2646970667358221220d4c5e56bd2a483855ef8584ffc127e5467e6749f457d1e7f79226ea3fd7c82a064736f6c63430007060033",
  "devdoc": {
    "kind": "dev",
    "methods": {
      "shareProfit((address,address,address,uint256,uint256,uint256,address,address,uint24,uint32))": {
        "params": {
          "inputs": "struct of shareProfit parameters"
        }
      }
    },
    "version": 1
  },
  "userdoc": {
    "events": {
      "ProfitShared(address,address,uint256,uint256,uint256,uint256,uint256,uint256)": {
        "notice": "emitted when profit is shared"
      }
    },
    "kind": "user",
    "methods": {
      "shareProfit((address,address,address,uint256,uint256,uint256,address,address,uint24,uint32))": {
        "notice": "share profit"
      }
    },
    "notice": "action to share profit",
    "version": 1
  },
  "storageLayout": {
    "storage": [],
    "types": null
  }
}