{
  "address": "0xC078D28604E25Ccf5475965A1493A543763C5478",
  "abi": [
    {
      "inputs": [
        {
          "internalType": "address",
          "name": "_registry",
          "type": "address"
        },
        {
          "internalType": "address",
          "name": "_uniswapAddressHolder",
          "type": "address"
        }
      ],
      "stateMutability": "nonpayable",
      "type": "constructor"
    },
    {
      "anonymous": false,
      "inputs": [
        {
          "indexed": true,
          "internalType": "address",
          "name": "positionManager",
          "type": "address"
        },
        {
          "indexed": false,
          "internalType": "address",
          "name": "from",
          "type": "address"
        },
        {
          "indexed": false,
          "internalType": "uint256",
          "name": "positionId",
          "type": "uint256"
        },
        {
          "indexed": false,
          "internalType": "uint256",
          "name": "tokenId",
          "type": "uint256"
        }
      ],
      "name": "PositionWithdrawan",
      "type": "event"
    },
    {
      "inputs": [],
      "name": "registry",
      "outputs": [
        {
          "internalType": "contract IRegistry",
          "name": "",
          "type": "address"
        }
      ],
      "stateMutability": "view",
      "type": "function"
    },
    {
      "inputs": [
        {
          "internalType": "uint256",
          "name": "positionId",
          "type": "uint256"
        },
        {
          "internalType": "bool",
          "name": "isReturnedToken0",
          "type": "bool"
        }
      ],
      "name": "singleTokenWithdraw",
      "outputs": [],
      "stateMutability": "nonpayable",
      "type": "function"
    },
    {
      "inputs": [],
      "name": "uniswapAddressHolder",
      "outputs": [
        {
          "internalType": "contract IUniswapAddressHolder",
          "name": "",
          "type": "address"
        }
      ],
      "stateMutability": "view",
      "type": "function"
    },
    {
      "inputs": [
        {
          "internalType": "uint256",
          "name": "positionId",
          "type": "uint256"
        }
      ],
      "name": "withdraw",
      "outputs": [],
      "stateMutability": "nonpayable",
      "type": "function"
    }
  ],
  "transactionHash": "0x26dfb6e49bd0a1aa73b3c1bc98ca95fd6637e2c57c440769e267113dff9a4148",
  "args": [
    "0xC3906e42A399953B4189D42FeB9569C575A5b678",
    "0x3386921F5eD46b6531B884130a9d54267D9DF461"
  ],
  "numDeployments": 1,
  "solcInputHash": "08f28bc02234e5e762609eefb667e33a",
  "bytecode": "0x60c06040523480156200001157600080fd5b50604051620028f4380380620028f48339810160408190526200003491620000cc565b6001600160a01b038116620000665760405162461bcd60e51b81526004016200005d9062000103565b60405180910390fd5b6001600160a01b0382166200008f5760405162461bcd60e51b81526004016200005d9062000103565b6001600160601b0319606091821b811660805291901b1660a05262000122565b80516001600160a01b0381168114620000c757600080fd5b919050565b60008060408385031215620000df578182fd5b620000ea83620000af565b9150620000fa60208401620000af565b90509250929050565b602080825260059082015264057524341360dc1b604082015260600190565b60805160601c60a05160601c6127686200018c6000398060a25280610250528061068152806108ce5280610b0c5280610b315280610cd652806110e7528061133f52806116d352806117915250806104115280610e97528061157e528061184c52506127686000f3fe608060405234801561001057600080fd5b506004361061004c5760003560e01c80632e1a7d4d146100515780637b10399914610066578063aa2302f114610084578063c0f06ca414610097575b600080fd5b61006461005f3660046122de565b61009f565b005b61006e610b0a565b60405161007b919061248d565b60405180910390f35b6100646100923660046122f6565b610b2e565b61006e61157c565b807f00000000000000000000000000000000000000000000000000000000000000006001600160a01b0316632d2c5b586040518163ffffffff1660e01b815260040160206040518083038186803b1580156100f957600080fd5b505afa15801561010d573d6000803e3d6000fd5b505050506040513d601f19601f820116820180604052508101906101319190611ff5565b6001600160a01b031663c81e0f91336040518263ffffffff1660e01b815260040161015c919061248d565b60206040518083038186803b15801561017457600080fd5b505afa158015610188573d6000803e3d6000fd5b505050506040513d601f19601f820116820180604052508101906101ac9190611ff5565b6001600160a01b03166373730d4c826040518263ffffffff1660e01b81526004016101d7919061269d565b60206040518083038186803b1580156101ef57600080fd5b505afa158015610203573d6000803e3d6000fd5b505050506040513d601f19601f8201168201806040525081019061022791906120b9565b61024c5760405162461bcd60e51b81526004016102439061251e565b60405180910390fd5b60007f00000000000000000000000000000000000000000000000000000000000000006001600160a01b0316632d2c5b586040518163ffffffff1660e01b815260040160206040518083038186803b1580156102a757600080fd5b505afa1580156102bb573d6000803e3d6000fd5b505050506040513d601f19601f820116820180604052508101906102df9190611ff5565b6001600160a01b031663c81e0f91336040518263ffffffff1660e01b815260040161030a919061248d565b60206040518083038186803b15801561032257600080fd5b505afa158015610336573d6000803e3d6000fd5b505050506040513d601f19601f8201168201806040525081019061035a9190611ff5565b90506001600160a01b0381166103825760405162461bcd60e51b81526004016102439061253d565b60405163519f509960e01b81526000906001600160a01b0383169063519f5099906103b190879060040161269d565b6101c06040518083038186803b1580156103ca57600080fd5b505afa1580156103de573d6000803e3d6000fd5b505050506040513d601f19601f8201168201806040525081019061040291906120d5565b90506000806104a583600001517f00000000000000000000000000000000000000000000000000000000000000006001600160a01b0316635bfccac96040518163ffffffff1660e01b815260040160206040518083038186803b15801561046857600080fd5b505afa15801561047c573d6000803e3d6000fd5b505050506040513d601f19601f820116820180604052508101906104a09190611ff5565b6115a0565b50505091509150600080600080876001600160a01b031663e4a60d45886000015160006040518363ffffffff1660e01b81526004016104e59291906126a6565b608060405180830381600087803b1580156104ff57600080fd5b505af1158015610513573d6000803e3d6000fd5b505050506040513d601f19601f820116820180604052508101906105379190612325565b9350935093509350610547611ed5565b8a815260208801516001600160a01b031661067d576040805160a0810182526001600160a01b03808a16825288166020820152600091810182905260c08a015160608201906105a09061059a888b611669565b90611669565b81526020016105c08b60e0015161059a898861166990919063ffffffff16565b905260405163ac1836b560e01b81529091506000906001600160a01b038c169063ac1836b5906105f49085906004016125aa565b6040805180830381600087803b15801561060d57600080fd5b505af1158015610621573d6000803e3d6000fd5b505050506040513d601f19601f8201168201806040525081019061064591906121a4565b8051606085015260208101805160808601528151905191925061066b918b918b916116cc565b60c085015260a084015250610a2c9050565b60007f00000000000000000000000000000000000000000000000000000000000000006001600160a01b031663f80ffbd56040518163ffffffff1660e01b815260040160206040518083038186803b1580156106d857600080fd5b505afa1580156106ec573d6000803e3d6000fd5b505050506040513d601f19601f820116820180604052508101906107109190611ff5565b6001600160a01b0316639362c8728a602001516040518263ffffffff1660e01b815260040161073f919061248d565b60206040518083038186803b15801561075757600080fd5b505afa15801561076b573d6000803e3d6000fd5b505050506040513d601f19601f8201168201806040525081019061078f9190611ff5565b90506000816001600160a01b03166359be53648b604001516040518263ffffffff1660e01b81526004016107c391906124ea565b60806040518083038186803b1580156107db57600080fd5b505afa1580156107ef573d6000803e3d6000fd5b505050506040513d601f19601f8201168201806040525081019061081391906121bf565b905060006040518061014001604052808b6001600160a01b031681526020018a6001600160a01b0316815260200160006001600160a01b0316815260200161086c8d60c0015161059a8c8b61166990919063ffffffff16565b815260200161088c8d60e0015161059a8b8a61166990919063ffffffff16565b81526020018c606001518152602001846001600160a01b0316815260200183604001516001600160a01b03168152602001836020015162ffffff1681526020017f00000000000000000000000000000000000000000000000000000000000000006001600160a01b0316637371f0a485606001516040518263ffffffff1660e01b815260040161091c91906126b6565b60206040518083038186803b15801561093457600080fd5b505afa158015610948573d6000803e3d6000fd5b505050506040513d601f19601f8201168201806040525081019061096c919061235a565b63ffffffff16905260405163ca789c6960e01b81529091506000906001600160a01b038e169063ca789c69906109a69085906004016125ef565b6040805180830381600087803b1580156109bf57600080fd5b505af11580156109d3573d6000803e3d6000fd5b505050506040513d601f19601f820116820180604052508101906109f791906121a4565b80516060870152602081018051608088015281519051919250610a1d918d918d916116cc565b60c087015260a0860152505050505b6080880151610a3b9086611669565b602082015260a0880151610a4f9085611669565b60408083019190915251635e93961560e01b81526001600160a01b038a1690635e93961590610a8290849060040161255c565b600060405180830381600087803b158015610a9c57600080fd5b505af1158015610ab0573d6000803e3d6000fd5b50505050886001600160a01b03167f5bad89d002e3f3f812fd72c1998dbe0491f0cabb525a14244ac03fb227fb5524338d8b60000151604051610af5939291906124a1565b60405180910390a25050505050505050505050565b7f000000000000000000000000000000000000000000000000000000000000000081565b817f00000000000000000000000000000000000000000000000000000000000000006001600160a01b0316632d2c5b586040518163ffffffff1660e01b815260040160206040518083038186803b158015610b8857600080fd5b505afa158015610b9c573d6000803e3d6000fd5b505050506040513d601f19601f82011682018060405250810190610bc09190611ff5565b6001600160a01b031663c81e0f91336040518263ffffffff1660e01b8152600401610beb919061248d565b60206040518083038186803b158015610c0357600080fd5b505afa158015610c17573d6000803e3d6000fd5b505050506040513d601f19601f82011682018060405250810190610c3b9190611ff5565b6001600160a01b03166373730d4c826040518263ffffffff1660e01b8152600401610c66919061269d565b60206040518083038186803b158015610c7e57600080fd5b505afa158015610c92573d6000803e3d6000fd5b505050506040513d601f19601f82011682018060405250810190610cb691906120b9565b610cd25760405162461bcd60e51b81526004016102439061251e565b60007f00000000000000000000000000000000000000000000000000000000000000006001600160a01b0316632d2c5b586040518163ffffffff1660e01b815260040160206040518083038186803b158015610d2d57600080fd5b505afa158015610d41573d6000803e3d6000fd5b505050506040513d601f19601f82011682018060405250810190610d659190611ff5565b6001600160a01b031663c81e0f91336040518263ffffffff1660e01b8152600401610d90919061248d565b60206040518083038186803b158015610da857600080fd5b505afa158015610dbc573d6000803e3d6000fd5b505050506040513d601f19601f82011682018060405250810190610de09190611ff5565b90506001600160a01b038116610e085760405162461bcd60e51b81526004016102439061253d565b60405163519f509960e01b81526000906001600160a01b0383169063519f509990610e3790889060040161269d565b6101c06040518083038186803b158015610e5057600080fd5b505afa158015610e64573d6000803e3d6000fd5b505050506040513d601f19601f82011682018060405250810190610e8891906120d5565b9050600080610eee83600001517f00000000000000000000000000000000000000000000000000000000000000006001600160a01b0316635bfccac96040518163ffffffff1660e01b815260040160206040518083038186803b15801561046857600080fd5b50505091509150600080600080876001600160a01b031663e4a60d45886000015160006040518363ffffffff1660e01b8152600401610f2e9291906126a6565b608060405180830381600087803b158015610f4857600080fd5b505af1158015610f5c573d6000803e3d6000fd5b505050506040513d601f19601f82011682018060405250810190610f809190612325565b9350935093509350610f90611ed5565b8b815260208801516001600160a01b03166110e35760006040518060a00160405280896001600160a01b03168152602001886001600160a01b031681526020018d610fdb5788610fdd565b895b6001600160a01b031681526020016110068b60c0015161059a8a8961166990919063ffffffff16565b81526020016110268b60e0015161059a898861166990919063ffffffff16565b905260405163ac1836b560e01b81529091506000906001600160a01b038c169063ac1836b59061105a9085906004016125aa565b6040805180830381600087803b15801561107357600080fd5b505af1158015611087573d6000803e3d6000fd5b505050506040513d601f19601f820116820180604052508101906110ab91906121a4565b805160608501526020810180516080860152815190519192506110d1918b918b916116cc565b60c085015260a08401525061149d9050565b60007f00000000000000000000000000000000000000000000000000000000000000006001600160a01b031663f80ffbd56040518163ffffffff1660e01b815260040160206040518083038186803b15801561113e57600080fd5b505afa158015611152573d6000803e3d6000fd5b505050506040513d601f19601f820116820180604052508101906111769190611ff5565b6001600160a01b0316639362c8728a602001516040518263ffffffff1660e01b81526004016111a5919061248d565b60206040518083038186803b1580156111bd57600080fd5b505afa1580156111d1573d6000803e3d6000fd5b505050506040513d601f19601f820116820180604052508101906111f59190611ff5565b90506000816001600160a01b03166359be53648b604001516040518263ffffffff1660e01b815260040161122991906124ea565b60806040518083038186803b15801561124157600080fd5b505afa158015611255573d6000803e3d6000fd5b505050506040513d601f19601f8201168201806040525081019061127991906121bf565b905060006040518061014001604052808b6001600160a01b031681526020018a6001600160a01b031681526020018f6112b2578a6112b4565b8b5b6001600160a01b031681526020016112dd8d60c0015161059a8c8b61166990919063ffffffff16565b81526020016112fd8d60e0015161059a8b8a61166990919063ffffffff16565b81526020018c606001518152602001846001600160a01b0316815260200183604001516001600160a01b03168152602001836020015162ffffff1681526020017f00000000000000000000000000000000000000000000000000000000000000006001600160a01b0316637371f0a485606001516040518263ffffffff1660e01b815260040161138d91906126b6565b60206040518083038186803b1580156113a557600080fd5b505afa1580156113b9573d6000803e3d6000fd5b505050506040513d601f19601f820116820180604052508101906113dd919061235a565b63ffffffff16905260405163ca789c6960e01b81529091506000906001600160a01b038e169063ca789c69906114179085906004016125ef565b6040805180830381600087803b15801561143057600080fd5b505af1158015611444573d6000803e3d6000fd5b505050506040513d601f19601f8201168201806040525081019061146891906121a4565b8051606087015260208101805160808801528151905191925061148e918d918d916116cc565b60c087015260a0860152505050505b60808801516114ac9086611669565b602082015260a08801516114c09085611669565b60408083019190915251635e93961560e01b81526001600160a01b038a1690635e939615906114f390849060040161255c565b600060405180830381600087803b15801561150d57600080fd5b505af1158015611521573d6000803e3d6000fd5b50505050886001600160a01b03167f5bad89d002e3f3f812fd72c1998dbe0491f0cabb525a14244ac03fb227fb5524338e8b60000151604051611566939291906124a1565b60405180910390a2505050505050505050505050565b7f000000000000000000000000000000000000000000000000000000000000000081565b6000806000806000856001600160a01b03166399fbab88886040518263ffffffff1660e01b81526004016115d4919061269d565b6101806040518083038186803b1580156115ed57600080fd5b505afa158015611601573d6000803e3d6000fd5b505050506040513d601f19601f82011682018060405250810190611625919061238e565b909192939495969798999a50909192939495969798995090919293509091925090915090505080955081965082975083985084995050505050509295509295909350565b6000828201838110156116c3576040805162461bcd60e51b815260206004820152601b60248201527f536166654d6174683a206164646974696f6e206f766572666c6f770000000000604482015290519081900360640190fd5b90505b92915050565b60008060007f00000000000000000000000000000000000000000000000000000000000000006001600160a01b03166386dd37f36040518163ffffffff1660e01b815260040160006040518083038186803b15801561172a57600080fd5b505afa15801561173e573d6000803e3d6000fd5b505050506040513d6000823e601f3d908101601f191682016040526117669190810190612011565b905061177387868361178c565b925061178086858361178c565b91505094509492505050565b6000807f00000000000000000000000000000000000000000000000000000000000000006001600160a01b03166308846aa26040518163ffffffff1660e01b815260040160206040518083038186803b1580156117e857600080fd5b505afa1580156117fc573d6000803e3d6000fd5b505050506040513d601f19601f820116820180604052508101906118209190611ff5565b9050806001600160a01b0316856001600160a01b031614156118455783915050611972565b60006118e37f00000000000000000000000000000000000000000000000000000000000000006001600160a01b03166380f5db8c6040518163ffffffff1660e01b815260040160206040518083038186803b1580156118a357600080fd5b505afa1580156118b7573d6000803e3d6000fd5b505050506040513d601f19601f820116820180604052508101906118db9190611ff5565b878487611979565b90506000816001600160a01b0316633850c7bd6040518163ffffffff1660e01b815260040160e06040518083038186803b15801561192057600080fd5b505afa158015611934573d6000803e3d6000fd5b505050506040513d601f19601f820116820180604052508101906119589190612253565b505050505050905061196c87848884611b45565b93505050505b9392505050565b60008060006119888686611ce6565b9197509550905060005b8451811015611b14578481815181106119a757fe5b602002602001015162ffffff16600014156119c157611b0c565b6000886001600160a01b0316631698ee8289898986815181106119e057fe5b60200260200101516040518463ffffffff1660e01b8152600401611a06939291906124c2565b60206040518083038186803b158015611a1e57600080fd5b505afa158015611a32573d6000803e3d6000fd5b505050506040513d601f19601f82011682018060405250810190611a569190611ff5565b90506001600160a01b038116611a6c5750611b0c565b6000816001600160a01b0316631a6865026040518163ffffffff1660e01b815260040160206040518083038186803b158015611aa757600080fd5b505afa158015611abb573d6000803e3d6000fd5b505050506040513d601f19601f82011682018060405250810190611adf9190612239565b9050846001600160801b0316816001600160801b031611611b01578585611b04565b81815b909650945050505b600101611992565b506001600160a01b038316611b3b5760405162461bcd60e51b8152600401610243906124ff565b5050949350505050565b600082611b5457506000611cde565b836001600160a01b0316856001600160a01b03161415611b75575081611cde565b6001600160a01b038085169086161160008082611b93578787611b96565b86885b915091506000826001600160a01b031663313ce5676040518163ffffffff1660e01b815260040160206040518083038186803b158015611bd557600080fd5b505afa158015611be9573d6000803e3d6000fd5b505050506040513d601f19601f82011682018060405250810190611c0d9190612374565b90506000826001600160a01b031663313ce5676040518163ffffffff1660e01b815260040160206040518083038186803b158015611c4a57600080fd5b505afa158015611c5e573d6000803e3d6000fd5b505050506040513d601f19601f82011682018060405250810190611c829190612374565b9050600080611c9b896001600160a01b03168585611d24565b91509150600087611cac5782611cae565b815b9050600088611cbd5785611cbf565b845b9050611cd28c838360ff16600a0a611d66565b99505050505050505050505b949350505050565b6000806000836001600160a01b0316856001600160a01b03161115611d1357508291508390506001611d1d565b5083915082905060005b9250925092565b600080611d48600160c01b611d426002880a60ff8816600a0a611e15565b90611e6e565b9150611d5c60ff85850116600a0a83611e6e565b9050935093915050565b6000808060001985870986860292508281109083900303905080611d9c5760008411611d9157600080fd5b508290049050611972565b808411611da857600080fd5b6000848688096000868103871696879004966002600389028118808a02820302808a02820302808a02820302808a02820302808a02820302808a02909103029181900381900460010186841190950394909402919094039290920491909117919091029150509392505050565b600082611e24575060006116c6565b82820282848281611e3157fe5b04146116c35760405162461bcd60e51b81526004018080602001828103825260218152602001806127126021913960400191505060405180910390fd5b6000808211611ec4576040805162461bcd60e51b815260206004820152601a60248201527f536166654d6174683a206469766973696f6e206279207a65726f000000000000604482015290519081900360640190fd5b818381611ecd57fe5b049392505050565b6040518060e00160405280600081526020016000815260200160008152602001600081526020016000815260200160008152602001600081525090565b8051611f1d816126eb565b919050565b80516001600160801b031981168114611f1d57600080fd5b8051600281900b8114611f1d57600080fd5b600060408284031215611f5d578081fd5b6040516040810181811067ffffffffffffffff82111715611f7a57fe5b604052825181526020928301519281019290925250919050565b80516001600160801b0381168114611f1d57600080fd5b805161ffff81168114611f1d57600080fd5b805162ffffff81168114611f1d57600080fd5b805163ffffffff81168114611f1d57600080fd5b805160ff81168114611f1d57600080fd5b600060208284031215612006578081fd5b81516116c3816126eb565b60006020808385031215612023578182fd5b825167ffffffffffffffff8082111561203a578384fd5b818501915085601f83011261204d578384fd5b81518181111561205957fe5b83810291506120698483016126c7565b8181528481019084860184860187018a1015612083578788fd5b8795505b838610156120ac5761209881611fbd565b835260019590950194918601918601612087565b5098975050505050505050565b6000602082840312156120ca578081fd5b81516116c381612703565b60006101c08083850312156120e8578182fd5b6120f1816126c7565b90508251815261210360208401611f12565b602082015261211460408401611f22565b6040820152606083015160608201526080830151608082015260a083015160a082015260c083015160c082015260e083015160e0820152610100612159818501611f3a565b9082015261012061216b848201611f3a565b908201526101408381015190820152610160808401519082015261018080840151908201526101a0928301519281019290925250919050565b6000604082840312156121b5578081fd5b6119728383611f4c565b6000608082840312156121d0578081fd5b6040516080810181811067ffffffffffffffff821117156121ed57fe5b60405282516121fb816126eb565b815261220960208401611fbd565b6020820152604083015161221c816126eb565b604082015261222d60608401611fd0565b60608201529392505050565b60006020828403121561224a578081fd5b61197282611f94565b600080600080600080600060e0888a03121561226d578283fd5b8751612278816126eb565b965061228660208901611f3a565b955061229460408901611fab565b94506122a260608901611fab565b93506122b060808901611fab565b92506122be60a08901611fe4565b915060c08801516122ce81612703565b8091505092959891949750929550565b6000602082840312156122ef578081fd5b5035919050565b60008060408385031215612308578182fd5b82359150602083013561231a81612703565b809150509250929050565b6000806000806080858703121561233a578182fd5b505082516020840151604085015160609095015191969095509092509050565b60006020828403121561236b578081fd5b61197282611fd0565b600060208284031215612385578081fd5b61197282611fe4565b6000806000806000806000806000806000806101808d8f0312156123b0578586fd5b8c516bffffffffffffffffffffffff811681146123cb578687fd5b9b506123d960208e01611f12565b9a506123e760408e01611f12565b99506123f560608e01611f12565b985061240360808e01611fbd565b975061241160a08e01611f3a565b965061241f60c08e01611f3a565b955061242d60e08e01611f94565b94506101008d015193506101208d0151925061244c6101408e01611f94565b915061245b6101608e01611f94565b90509295989b509295989b509295989b565b6001600160a01b03169052565b62ffffff169052565b63ffffffff169052565b6001600160a01b0391909116815260200190565b6001600160a01b039390931683526020830191909152604082015260600190565b6001600160a01b03938416815291909216602082015262ffffff909116604082015260600190565b6001600160801b031991909116815260200190565b602080825260059082015264055484450360dc1b604082015260600190565b6020808252600590820152642ba92824a960d91b604082015260600190565b60208082526005908201526405752504d360dc1b604082015260600190565b600060e082019050825182526020830151602083015260408301516040830152606083015160608301526080830151608083015260a083015160a083015260c083015160c083015292915050565b81516001600160a01b03908116825260208084015182169083015260408084015190911690820152606080830151908201526080918201519181019190915260a00190565b60006101408201905061260382845161246d565b6020830151612615602084018261246d565b506040830151612628604084018261246d565b50606083015160608301526080830151608083015260a083015160a083015260c083015161265960c084018261246d565b5060e083015161266c60e084018261246d565b50610100808401516126808285018261247a565b50506101208084015161269582850182612483565b505092915050565b90815260200190565b9182521515602082015260400190565b63ffffffff91909116815260200190565b60405181810167ffffffffffffffff811182821017156126e357fe5b604052919050565b6001600160a01b038116811461270057600080fd5b50565b801515811461270057600080fdfe536166654d6174683a206d756c7469706c69636174696f6e206f766572666c6f77a2646970667358221220306621c37be1ae48b13f8478ec241b5fbce7eb280f6e66abd1574cc188da6f6064736f6c63430007060033",
  "devdoc": {
    "events": {
      "PositionWithdrawan(address,address,uint256,uint256)": {
        "params": {
          "from": "address of the user",
          "positionId": "ID of the position",
          "positionManager": "the address of the position manager which recieved the position",
          "tokenId": "ID of the minted NFT"
        }
      }
    },
    "kind": "dev",
    "methods": {
      "singleTokenWithdraw(uint256,bool)": {
        "params": {
          "positionId": "ID of closed position"
        }
      },
      "withdraw(uint256)": {
        "params": {
          "positionId": "ID of closed position"
        }
      }
    },
    "version": 1
  },
  "userdoc": {
    "events": {
      "PositionWithdrawan(address,address,uint256,uint256)": {
        "notice": "emitted when a position is created"
      }
    },
    "kind": "user",
    "methods": {
      "singleTokenWithdraw(uint256,bool)": {
        "notice": "closed position to the position manager with single token"
      },
      "withdraw(uint256)": {
        "notice": "closed position to the position manager with single token"
      }
    },
    "notice": "WithdrawRecipes allows user to withdraw positions from PositionManager",
    "version": 1
  },
  "storageLayout": {
    "storage": [],
    "types": null
  }
}