{
  "address": "0x848f48d5Ec66B36F01FCC5967e5662d77eFcb144",
  "abi": [
    {
      "inputs": [
        {
          "internalType": "address",
          "name": "_registry",
          "type": "address"
        },
        {
          "internalType": "address",
          "name": "_uniswapAddressHolder",
          "type": "address"
        }
      ],
      "stateMutability": "nonpayable",
      "type": "constructor"
    },
    {
      "anonymous": false,
      "inputs": [
        {
          "indexed": false,
          "internalType": "address",
          "name": "account",
          "type": "address"
        }
      ],
      "name": "Paused",
      "type": "event"
    },
    {
      "anonymous": false,
      "inputs": [
        {
          "indexed": true,
          "internalType": "address",
          "name": "positionManager",
          "type": "address"
        },
        {
          "indexed": false,
          "internalType": "address",
          "name": "from",
          "type": "address"
        },
        {
          "indexed": false,
          "internalType": "uint256",
          "name": "positionId",
          "type": "uint256"
        },
        {
          "indexed": false,
          "internalType": "bytes16",
          "name": "strategyId",
          "type": "bytes16"
        }
      ],
      "name": "PositionDeposited",
      "type": "event"
    },
    {
      "anonymous": false,
      "inputs": [
        {
          "indexed": true,
          "internalType": "address",
          "name": "positionManager",
          "type": "address"
        },
        {
          "indexed": false,
          "internalType": "address",
          "name": "from",
          "type": "address"
        },
        {
          "indexed": false,
          "internalType": "uint256",
          "name": "positionId",
          "type": "uint256"
        },
        {
          "indexed": false,
          "internalType": "bytes16",
          "name": "strategyId",
          "type": "bytes16"
        },
        {
          "indexed": false,
          "internalType": "address",
          "name": "strategyProvider",
          "type": "address"
        }
      ],
      "name": "PositionDepositedListedStrategy",
      "type": "event"
    },
    {
      "anonymous": false,
      "inputs": [
        {
          "indexed": true,
          "internalType": "address",
          "name": "positionManager",
          "type": "address"
        },
        {
          "indexed": false,
          "internalType": "address",
          "name": "from",
          "type": "address"
        },
        {
          "indexed": false,
          "internalType": "uint256",
          "name": "positionId",
          "type": "uint256"
        }
      ],
      "name": "PositionIncreasedLiquidity",
      "type": "event"
    },
    {
      "anonymous": false,
      "inputs": [
        {
          "indexed": false,
          "internalType": "address",
          "name": "account",
          "type": "address"
        }
      ],
      "name": "Unpaused",
      "type": "event"
    },
    {
      "inputs": [
        {
          "components": [
            {
              "internalType": "address",
              "name": "token0",
              "type": "address"
            },
            {
              "internalType": "address",
              "name": "token1",
              "type": "address"
            },
            {
              "internalType": "uint24",
              "name": "fee",
              "type": "uint24"
            },
            {
              "internalType": "int24",
              "name": "tickLowerDiff",
              "type": "int24"
            },
            {
              "internalType": "int24",
              "name": "tickUpperDiff",
              "type": "int24"
            },
            {
              "internalType": "uint256",
              "name": "amount0Desired",
              "type": "uint256"
            },
            {
              "internalType": "uint256",
              "name": "amount1Desired",
              "type": "uint256"
            },
            {
              "internalType": "bytes16",
              "name": "strategyId",
              "type": "bytes16"
            }
          ],
          "internalType": "struct IDepositRecipes.DepositInput",
          "name": "input",
          "type": "tuple"
        }
      ],
      "name": "deposit",
      "outputs": [
        {
          "internalType": "uint256",
          "name": "tokenId",
          "type": "uint256"
        }
      ],
      "stateMutability": "nonpayable",
      "type": "function"
    },
    {
      "inputs": [
        {
          "components": [
            {
              "internalType": "address",
              "name": "token0",
              "type": "address"
            },
            {
              "internalType": "address",
              "name": "token1",
              "type": "address"
            },
            {
              "internalType": "uint24",
              "name": "fee",
              "type": "uint24"
            },
            {
              "internalType": "int24",
              "name": "tickLowerDiff",
              "type": "int24"
            },
            {
              "internalType": "int24",
              "name": "tickUpperDiff",
              "type": "int24"
            },
            {
              "internalType": "uint256",
              "name": "amount0Desired",
              "type": "uint256"
            },
            {
              "internalType": "uint256",
              "name": "amount1Desired",
              "type": "uint256"
            },
            {
              "internalType": "bytes16",
              "name": "strategyId",
              "type": "bytes16"
            },
            {
              "internalType": "address",
              "name": "strategyProvider",
              "type": "address"
            }
          ],
          "internalType": "struct IDepositRecipes.DepositListedStrategyInput",
          "name": "input",
          "type": "tuple"
        }
      ],
      "name": "depositListedStrategy",
      "outputs": [
        {
          "internalType": "uint256",
          "name": "tokenId",
          "type": "uint256"
        }
      ],
      "stateMutability": "nonpayable",
      "type": "function"
    },
    {
      "inputs": [
        {
          "internalType": "uint256",
          "name": "positionId",
          "type": "uint256"
        },
        {
          "internalType": "uint256",
          "name": "amount0Desired",
          "type": "uint256"
        },
        {
          "internalType": "uint256",
          "name": "amount1Desired",
          "type": "uint256"
        }
      ],
      "name": "increaseLiquidity",
      "outputs": [],
      "stateMutability": "nonpayable",
      "type": "function"
    },
    {
      "inputs": [],
      "name": "pause",
      "outputs": [],
      "stateMutability": "nonpayable",
      "type": "function"
    },
    {
      "inputs": [],
      "name": "paused",
      "outputs": [
        {
          "internalType": "bool",
          "name": "",
          "type": "bool"
        }
      ],
      "stateMutability": "view",
      "type": "function"
    },
    {
      "inputs": [],
      "name": "registry",
      "outputs": [
        {
          "internalType": "contract IRegistry",
          "name": "",
          "type": "address"
        }
      ],
      "stateMutability": "view",
      "type": "function"
    },
    {
      "inputs": [
        {
          "components": [
            {
              "internalType": "address",
              "name": "token0",
              "type": "address"
            },
            {
              "internalType": "address",
              "name": "token1",
              "type": "address"
            },
            {
              "internalType": "bool",
              "name": "isToken0In",
              "type": "bool"
            },
            {
              "internalType": "uint256",
              "name": "amountIn",
              "type": "uint256"
            },
            {
              "internalType": "int24",
              "name": "tickLowerDiff",
              "type": "int24"
            },
            {
              "internalType": "int24",
              "name": "tickUpperDiff",
              "type": "int24"
            },
            {
              "internalType": "uint24",
              "name": "fee",
              "type": "uint24"
            },
            {
              "internalType": "bytes16",
              "name": "strategyId",
              "type": "bytes16"
            }
          ],
          "internalType": "struct IDepositRecipes.SingleTokenDepositInput",
          "name": "input",
          "type": "tuple"
        }
      ],
      "name": "singleTokenDeposit",
      "outputs": [
        {
          "internalType": "uint256",
          "name": "tokenId",
          "type": "uint256"
        }
      ],
      "stateMutability": "nonpayable",
      "type": "function"
    },
    {
      "inputs": [
        {
          "components": [
            {
              "internalType": "address",
              "name": "token0",
              "type": "address"
            },
            {
              "internalType": "address",
              "name": "token1",
              "type": "address"
            },
            {
              "internalType": "bool",
              "name": "isToken0In",
              "type": "bool"
            },
            {
              "internalType": "uint256",
              "name": "amountIn",
              "type": "uint256"
            },
            {
              "internalType": "int24",
              "name": "tickLowerDiff",
              "type": "int24"
            },
            {
              "internalType": "int24",
              "name": "tickUpperDiff",
              "type": "int24"
            },
            {
              "internalType": "uint24",
              "name": "fee",
              "type": "uint24"
            },
            {
              "internalType": "address",
              "name": "strategyProvider",
              "type": "address"
            },
            {
              "internalType": "bytes16",
              "name": "strategyId",
              "type": "bytes16"
            }
          ],
          "internalType": "struct IDepositRecipes.SingleTokenDepositListedStrategyInput",
          "name": "input",
          "type": "tuple"
        }
      ],
      "name": "singleTokenDepositListedStrategy",
      "outputs": [
        {
          "internalType": "uint256",
          "name": "tokenId",
          "type": "uint256"
        }
      ],
      "stateMutability": "nonpayable",
      "type": "function"
    },
    {
      "inputs": [
        {
          "internalType": "uint256",
          "name": "positionId",
          "type": "uint256"
        },
        {
          "internalType": "bool",
          "name": "isToken0In",
          "type": "bool"
        },
        {
          "internalType": "uint256",
          "name": "amount",
          "type": "uint256"
        }
      ],
      "name": "singleTokenIncreaseLiquidity",
      "outputs": [],
      "stateMutability": "nonpayable",
      "type": "function"
    },
    {
      "inputs": [],
      "name": "uniswapAddressHolder",
      "outputs": [
        {
          "internalType": "contract IUniswapAddressHolder",
          "name": "",
          "type": "address"
        }
      ],
      "stateMutability": "view",
      "type": "function"
    },
    {
      "inputs": [],
      "name": "unpause",
      "outputs": [],
      "stateMutability": "nonpayable",
      "type": "function"
    }
  ],
  "transactionHash": "0x9e09a87bc5838119f3d009ee238b100ba198e731a3512fb1a8f243bf3816e1dd",
  "args": [
    "0x2833242BAC2E2a196d240ADe39ff6D2b912D9edb",
    "0x99c4bEa3DbC7C2670B0D781946071cAC215aC86D"
  ],
  "numDeployments": 2,
  "solcInputHash": "d6decf1baad82ada54f9f25242ad304c",
  "bytecode": "0x60c06040523480156200001157600080fd5b5060405162005a1038038062005a108339810160408190526200003491620000de565b6000805460ff19169055816001600160a01b038116620000715760405162461bcd60e51b8152600401620000689062000115565b60405180910390fd5b60601b6001600160601b0319166080526001600160a01b038116620000aa5760405162461bcd60e51b8152600401620000689062000133565b60601b6001600160601b03191660a0525062000152565b80516001600160a01b0381168114620000d957600080fd5b919050565b60008060408385031215620000f1578182fd5b620000fc83620000c1565b91506200010c60208401620000c1565b90509250929050565b6020808252600490820152630425252360e41b604082015260600190565b602080825260059082015264044524341360dc1b604082015260600190565b60805160601c60a05160601c6157f962000217600039806103b7528061096d5280610a14528061116752806117ff5280611bbf5280611edb5280611f39528061249652806124fc5280612b2f5280612d68528061330152806135a05250806101f152806106e752806108035280610dbd5280610f1b528061102e52806114e0528061158e52806116c65280611af65280611c7d5280611d7152806122d0528061288952806129f95280613246528061343852806134cd528061363352506157f96000f3fe608060405234801561001057600080fd5b50600436106100a95760003560e01c80637b103999116100715780637b1039991461011c5780637c391591146101315780638456cb5914610144578063c0f06ca41461014c578063c5d526ae14610154578063e115bc5c14610167576100a9565b80632cc546e8146100ae57806332adf507146100c35780633f4ba83a146100ec5780635c975abb146100f45780637840c11c14610109575b600080fd5b6100c16100bc3660046150c4565b61017a565b005b6100d66100d1366004614be3565b61064b565b6040516100e391906156d2565b60405180910390f35b6100c1610dbb565b6100fc610e86565b6040516100e39190615320565b6100d6610117366004614d5d565b610e8f565b6101246114de565b6040516100e3919061526b565b6100d661013f366004614e07565b611502565b6100c1611af4565b610124611bbd565b6100d6610162366004614b33565b611be1565b6100c161017536600461511e565b612256565b610182610e86565b156101c7576040805162461bcd60e51b815260206004820152601060248201526f14185d5cd8589b194e881c185d5cd95960821b604482015290519081900360640190fd5b806101ed5760405162461bcd60e51b81526004016101e4906153da565b60405180910390fd5b60007f00000000000000000000000000000000000000000000000000000000000000006001600160a01b0316632d2c5b586040518163ffffffff1660e01b815260040160206040518083038186803b15801561024857600080fd5b505afa15801561025c573d6000803e3d6000fd5b505050506040513d601f19601f820116820180604052508101906102809190614a32565b6001600160a01b031663c81e0f91336040518263ffffffff1660e01b81526004016102ab919061526b565b60206040518083038186803b1580156102c357600080fd5b505afa1580156102d7573d6000803e3d6000fd5b505050506040513d601f19601f820116820180604052508101906102fb9190614a32565b90506001600160a01b0381166103235760405162461bcd60e51b81526004016101e490615451565b60405163519f509960e01b81526000906001600160a01b0383169063519f5099906103529088906004016156d2565b6101c06040518083038186803b15801561036b57600080fd5b505afa15801561037f573d6000803e3d6000fd5b505050506040513d601f19601f820116820180604052508101906103a39190614c8e565b9050600080600080600061044b86600001517f00000000000000000000000000000000000000000000000000000000000000006001600160a01b0316635bfccac96040518163ffffffff1660e01b815260040160206040518083038186803b15801561040e57600080fd5b505afa158015610422573d6000803e3d6000fd5b505050506040513d601f19601f820116820180604052508101906104469190614a32565b61275b565b9450945094509450945061047933888a8c6104665787610468565b885b6001600160a01b0316929190612824565b6040805161010081018252875181526001600160a01b038781166020830152868116828401528b15156060830152608082018b9052600285810b60a084015284900b60c083015262ffffff861660e0830152915163201eb6ad60e11b81526000928a169163403d6d5a916104f091906004016155e4565b608060405180830381600087803b15801561050a57600080fd5b505af115801561051e573d6000803e3d6000fd5b505050506040513d601f19601f820116820180604052508101906105429190614eae565b9050600061055a878784600001518560200151612884565b9050886001600160a01b031663b82344d38d610583848c6060015161294790919063ffffffff16565b604086015160c08d015161059691612947565b606087015160e08e01516105a991612947565b6040518563ffffffff1660e01b81526004016105c894939291906156db565b600060405180830381600087803b1580156105e257600080fd5b505af11580156105f6573d6000803e3d6000fd5b50505050886001600160a01b03167f718ac6ee807949a313e522670a2f14584c69a893c6f5e336ba4b2d671202eb55338e60405161063592919061527f565b60405180910390a2505050505050505050505050565b6000610655610e86565b1561069a576040805162461bcd60e51b815260206004820152601060248201526f14185d5cd8589b194e881c185d5cd95960821b604482015290519081900360640190fd5b60a08201511515806106af575060c082015115155b6106cb5760405162461bcd60e51b81526004016101e4906153da565b6040808301519051639c7f78c960e01b81526001600160a01b037f00000000000000000000000000000000000000000000000000000000000000001691639c7f78c99161071b91906004016156c2565b60206040518083038186803b15801561073357600080fd5b505afa158015610747573d6000803e3d6000fd5b505050506040513d601f19601f8201168201806040525081019061076b9190614afb565b6107875760405162461bcd60e51b81526004016101e4906153bc565b600061079b836000015184602001516129a8565b6001600160a01b03918216602087018190529290911680865261010086015160e087015160408801519395506107d6949193909291906129e6565b6107e883600001518460200151612d1c565b6107ff836060015184608001518560400151612d64565b60007f00000000000000000000000000000000000000000000000000000000000000006001600160a01b0316632d2c5b586040518163ffffffff1660e01b815260040160206040518083038186803b15801561085a57600080fd5b505afa15801561086e573d6000803e3d6000fd5b505050506040513d601f19601f820116820180604052508101906108929190614a32565b6001600160a01b031663c81e0f91336040518263ffffffff1660e01b81526004016108bd919061526b565b60206040518083038186803b1580156108d557600080fd5b505afa1580156108e9573d6000803e3d6000fd5b505050506040513d601f19601f8201168201806040525081019061090d9190614a32565b90506001600160a01b0381166109355760405162461bcd60e51b81526004016101e490615451565b81610949578360a001518460c00151610954565b8360c001518460a001515b8560a0018660c001828152508281525050506000610a0d7f00000000000000000000000000000000000000000000000000000000000000006001600160a01b03166380f5db8c6040518163ffffffff1660e01b815260040160206040518083038186803b1580156109c457600080fd5b505afa1580156109d8573d6000803e3d6000fd5b505050506040513d601f19601f820116820180604052508101906109fc9190614a32565b865160208801516040890151612ee0565b9050610aec7f00000000000000000000000000000000000000000000000000000000000000006001600160a01b03166380f5db8c6040518163ffffffff1660e01b815260040160206040518083038186803b158015610a6b57600080fd5b505afa158015610a7f573d6000803e3d6000fd5b505050506040513d601f19601f82011682018060405250810190610aa39190614a32565b86516020880151604089015160608a0151610ac390600288900b90612f03565b610add8b608001518860020b612f0390919063ffffffff16565b8b60a001518c60c00151612f77565b60c088015260a087018190528651610b1292506001600160a01b03169033908590612824565b610b3a33838760c0015188602001516001600160a01b0316612824909392919063ffffffff16565b6000806000846001600160a01b0316631c29efb86040518061010001604052808b600001516001600160a01b031681526020018b602001516001600160a01b031681526020018b6040015162ffffff168152602001610ba98c606001518960020b612f0390919063ffffffff16565b60020b8152602001610bcb8c608001518960020b612f0390919063ffffffff16565b60020b81526020018b60a0015181526020018b60c001518152602001600115158152506040518263ffffffff1660e01b8152600401610c0a9190615566565b606060405180830381600087803b158015610c2457600080fd5b505af1158015610c38573d6000803e3d6000fd5b505050506040513d601f19601f82011682018060405250810190610c5c9190615149565b8a5160208c0151939a509194509250610c76918484612884565b925050506000836001600160a01b031663e0adc11e6040518061010001604052808981526020018a61010001516001600160a01b031681526020018a60e001516001600160801b03191681526020018581526020018a6060015160020b81526020018a6080015160020b81526020016000815260200160008152506040518263ffffffff1660e01b8152600401610d0d91906154af565b602060405180830381600087803b158015610d2757600080fd5b505af1158015610d3b573d6000803e3d6000fd5b505050506040513d601f19601f82011682018060405250810190610d5f91906150ac565b9050836001600160a01b03167f6fdebb8413e92c047d7f5889efa40d43c1d21681c147049e385ada9b8cf5907c33838a60e001518b6101000151604051610da994939291906152c3565b60405180910390a25050505050919050565b7f00000000000000000000000000000000000000000000000000000000000000006001600160a01b0316635aa6e6756040518163ffffffff1660e01b815260040160206040518083038186803b158015610e1457600080fd5b505afa158015610e28573d6000803e3d6000fd5b505050506040513d601f19601f82011682018060405250810190610e4c9190614a32565b6001600160a01b0316336001600160a01b031614610e7c5760405162461bcd60e51b81526004016101e490615491565b610e84613068565b565b60005460ff1690565b6000610e99610e86565b15610ede576040805162461bcd60e51b815260206004820152601060248201526f14185d5cd8589b194e881c185d5cd95960821b604482015290519081900360640190fd5b6060820151610eff5760405162461bcd60e51b81526004016101e4906153da565b60c0820151604051639c7f78c960e01b81526001600160a01b037f00000000000000000000000000000000000000000000000000000000000000001691639c7f78c991610f4f91906004016156c2565b60206040518083038186803b158015610f6757600080fd5b505afa158015610f7b573d6000803e3d6000fd5b505050506040513d601f19601f82011682018060405250810190610f9f9190614afb565b610fbb5760405162461bcd60e51b81526004016101e4906153bc565b6000610fcf836000015184602001516129a8565b6001600160a01b03918216602087015291168452905080610ff4578260400151610ffb565b8260400151155b15156040840152825160208401516110139190612d1c565b61102a83608001518460a001518560c00151612d64565b60007f00000000000000000000000000000000000000000000000000000000000000006001600160a01b0316632d2c5b586040518163ffffffff1660e01b815260040160206040518083038186803b15801561108557600080fd5b505afa158015611099573d6000803e3d6000fd5b505050506040513d601f19601f820116820180604052508101906110bd9190614a32565b6001600160a01b031663c81e0f91336040518263ffffffff1660e01b81526004016110e8919061526b565b60206040518083038186803b15801561110057600080fd5b505afa158015611114573d6000803e3d6000fd5b505050506040513d601f19601f820116820180604052508101906111389190614a32565b90506001600160a01b0381166111605760405162461bcd60e51b81526004016101e490615451565b60006112077f00000000000000000000000000000000000000000000000000000000000000006001600160a01b03166380f5db8c6040518163ffffffff1660e01b815260040160206040518083038186803b1580156111be57600080fd5b505afa1580156111d2573d6000803e3d6000fd5b505050506040513d601f19601f820116820180604052508101906111f69190614a32565b8651602088015160c0890151612ee0565b9050611239338387606001518860400151611226578860200151610468565b88516001600160a01b0316929190612824565b6000826001600160a01b03166323dddda66040518060e0016040528089600001516001600160a01b0316815260200189602001516001600160a01b03168152602001896040015115158152602001896060015181526020016112ab8a608001518760020b612f0390919063ffffffff16565b60020b81526020016112cd8a60a001518760020b612f0390919063ffffffff16565b60020b81526020018960c0015162ffffff168152506040518263ffffffff1660e01b81526004016112fe919061565b565b60a060405180830381600087803b15801561131857600080fd5b505af115801561132c573d6000803e3d6000fd5b505050506040513d601f19601f820116820180604052508101906113509190614f93565b905080600001519450600061139b876000015188602001516113838560600151866020015161294790919063ffffffff16565b6080860151604087015161139691612947565b612884565b90506000846001600160a01b031663e0adc11e6040518061010001604052808660000151815260200160006001600160a01b031681526020018b60e001516001600160801b03191681526020018581526020018b6080015160020b81526020018b60a0015160020b81526020018660600151815260200186608001518152506040518263ffffffff1660e01b815260040161143691906154af565b602060405180830381600087803b15801561145057600080fd5b505af1158015611464573d6000803e3d6000fd5b505050506040513d601f19601f8201168201806040525081019061148891906150ac565b9050846001600160a01b03167feffde31c9ccd0ee9b9fdffb4281d2438874b03f259af08490bbd09276bcae84533838b60e001516040516114cb93929190615298565b60405180910390a2505050505050919050565b7f000000000000000000000000000000000000000000000000000000000000000081565b600061150c610e86565b15611551576040805162461bcd60e51b815260206004820152601060248201526f14185d5cd8589b194e881c185d5cd95960821b604482015290519081900360640190fd5b60608201516115725760405162461bcd60e51b81526004016101e4906153da565b60c0820151604051639c7f78c960e01b81526001600160a01b037f00000000000000000000000000000000000000000000000000000000000000001691639c7f78c9916115c291906004016156c2565b60206040518083038186803b1580156115da57600080fd5b505afa1580156115ee573d6000803e3d6000fd5b505050506040513d601f19601f820116820180604052508101906116129190614afb565b61162e5760405162461bcd60e51b81526004016101e4906153bc565b6000611642836000015184602001516129a8565b6001600160a01b0391821660208701529116845290508061166757826040015161166e565b8260400151155b1515604084015260e08301516101008401518451602086015160c087015161169994939291906129e6565b6116ab83600001518460200151612d1c565b6116c283608001518460a001518560c00151612d64565b60007f00000000000000000000000000000000000000000000000000000000000000006001600160a01b0316632d2c5b586040518163ffffffff1660e01b815260040160206040518083038186803b15801561171d57600080fd5b505afa158015611731573d6000803e3d6000fd5b505050506040513d601f19601f820116820180604052508101906117559190614a32565b6001600160a01b031663c81e0f91336040518263ffffffff1660e01b8152600401611780919061526b565b60206040518083038186803b15801561179857600080fd5b505afa1580156117ac573d6000803e3d6000fd5b505050506040513d601f19601f820116820180604052508101906117d09190614a32565b90506001600160a01b0381166117f85760405162461bcd60e51b81526004016101e490615451565b60006118567f00000000000000000000000000000000000000000000000000000000000000006001600160a01b03166380f5db8c6040518163ffffffff1660e01b815260040160206040518083038186803b1580156111be57600080fd5b9050611875338387606001518860400151611226578860200151610468565b600061187f614977565b836001600160a01b03166323dddda66040518060e001604052808a600001516001600160a01b031681526020018a602001516001600160a01b031681526020018a60400151151581526020018a6060015181526020016118ef8b608001518860020b612f0390919063ffffffff16565b60020b81526020016119118b60a001518860020b612f0390919063ffffffff16565b60020b81526020018a60c0015162ffffff168152506040518263ffffffff1660e01b8152600401611942919061565b565b60a060405180830381600087803b15801561195c57600080fd5b505af1158015611970573d6000803e3d6000fd5b505050506040513d601f19601f820116820180604052508101906119949190614f93565b9050806000015195506119b98760000151886020015183602001518460400151612884565b91506000846001600160a01b031663e0adc11e604051806101000160405280856000015181526020018b60e001516001600160a01b031681526020018b61010001516001600160801b03191681526020018681526020018b6080015160020b81526020018b60a0015160020b81526020018560600151815260200185608001518152506040518263ffffffff1660e01b8152600401611a5891906154af565b602060405180830381600087803b158015611a7257600080fd5b505af1158015611a86573d6000803e3d6000fd5b505050506040513d601f19601f82011682018060405250810190611aaa91906150ac565b9050846001600160a01b03167f6fdebb8413e92c047d7f5889efa40d43c1d21681c147049e385ada9b8cf5907c33838b61010001518c60e001516040516114cb94939291906152c3565b7f00000000000000000000000000000000000000000000000000000000000000006001600160a01b0316635aa6e6756040518163ffffffff1660e01b815260040160206040518083038186803b158015611b4d57600080fd5b505afa158015611b61573d6000803e3d6000fd5b505050506040513d601f19601f82011682018060405250810190611b859190614a32565b6001600160a01b0316336001600160a01b031614611bb55760405162461bcd60e51b81526004016101e490615491565b610e84613108565b7f000000000000000000000000000000000000000000000000000000000000000081565b6000611beb610e86565b15611c30576040805162461bcd60e51b815260206004820152601060248201526f14185d5cd8589b194e881c185d5cd95960821b604482015290519081900360640190fd5b60a0820151151580611c45575060c082015115155b611c615760405162461bcd60e51b81526004016101e4906153da565b6040808301519051639c7f78c960e01b81526001600160a01b037f00000000000000000000000000000000000000000000000000000000000000001691639c7f78c991611cb191906004016156c2565b60206040518083038186803b158015611cc957600080fd5b505afa158015611cdd573d6000803e3d6000fd5b505050506040513d601f19601f82011682018060405250810190611d019190614afb565b611d1d5760405162461bcd60e51b81526004016101e4906153bc565b6000611d31836000015184602001516129a8565b6001600160a01b039182166020870181905292909116808652909250611d5691612d1c565b611d6d836060015184608001518560400151612d64565b60007f00000000000000000000000000000000000000000000000000000000000000006001600160a01b0316632d2c5b586040518163ffffffff1660e01b815260040160206040518083038186803b158015611dc857600080fd5b505afa158015611ddc573d6000803e3d6000fd5b505050506040513d601f19601f82011682018060405250810190611e009190614a32565b6001600160a01b031663c81e0f91336040518263ffffffff1660e01b8152600401611e2b919061526b565b60206040518083038186803b158015611e4357600080fd5b505afa158015611e57573d6000803e3d6000fd5b505050506040513d601f19601f82011682018060405250810190611e7b9190614a32565b90506001600160a01b038116611ea35760405162461bcd60e51b81526004016101e490615451565b81611eb7578360a001518460c00151611ec2565b8360c001518460a001515b8560a0018660c001828152508281525050506000611f327f00000000000000000000000000000000000000000000000000000000000000006001600160a01b03166380f5db8c6040518163ffffffff1660e01b815260040160206040518083038186803b1580156109c457600080fd5b9050611f907f00000000000000000000000000000000000000000000000000000000000000006001600160a01b03166380f5db8c6040518163ffffffff1660e01b815260040160206040518083038186803b158015610a6b57600080fd5b60c088015260a087018190528651611fb692506001600160a01b03169033908590612824565b611fde33838760c0015188602001516001600160a01b0316612824909392919063ffffffff16565b600080836001600160a01b0316631c29efb86040518061010001604052808a600001516001600160a01b031681526020018a602001516001600160a01b031681526020018a6040015162ffffff16815260200161204b8b606001518860020b612f0390919063ffffffff16565b60020b815260200161206d8b608001518860020b612f0390919063ffffffff16565b60020b81526020018a60a0015181526020018a60c001518152602001600115158152506040518263ffffffff1660e01b81526004016120ac9190615566565b606060405180830381600087803b1580156120c657600080fd5b505af11580156120da573d6000803e3d6000fd5b505050506040513d601f19601f820116820180604052508101906120fe9190615149565b895160208b0151939950919450925060009161211c91908585612884565b90506000856001600160a01b031663e0adc11e6040518061010001604052808b815260200160006001600160a01b031681526020018c60e001516001600160801b03191681526020018581526020018c6060015160020b81526020018c6080015160020b81526020016000815260200160008152506040518263ffffffff1660e01b81526004016121ad91906154af565b602060405180830381600087803b1580156121c757600080fd5b505af11580156121db573d6000803e3d6000fd5b505050506040513d601f19601f820116820180604052508101906121ff91906150ac565b9050856001600160a01b03167feffde31c9ccd0ee9b9fdffb4281d2438874b03f259af08490bbd09276bcae84533838c60e0015160405161224293929190615298565b60405180910390a250505050505050919050565b61225e610e86565b156122a3576040805162461bcd60e51b815260206004820152601060248201526f14185d5cd8589b194e881c185d5cd95960821b604482015290519081900360640190fd5b811515806122b057508015155b6122cc5760405162461bcd60e51b81526004016101e4906153da565b60007f00000000000000000000000000000000000000000000000000000000000000006001600160a01b0316632d2c5b586040518163ffffffff1660e01b815260040160206040518083038186803b15801561232757600080fd5b505afa15801561233b573d6000803e3d6000fd5b505050506040513d601f19601f8201168201806040525081019061235f9190614a32565b6001600160a01b031663c81e0f91336040518263ffffffff1660e01b815260040161238a919061526b565b60206040518083038186803b1580156123a257600080fd5b505afa1580156123b6573d6000803e3d6000fd5b505050506040513d601f19601f820116820180604052508101906123da9190614a32565b90506001600160a01b0381166124025760405162461bcd60e51b81526004016101e490615451565b60405163519f509960e01b81526000906001600160a01b0383169063519f5099906124319088906004016156d2565b6101c06040518083038186803b15801561244a57600080fd5b505afa15801561245e573d6000803e3d6000fd5b505050506040513d601f19601f820116820180604052508101906124829190614c8e565b905060008060008060006124ed86600001517f00000000000000000000000000000000000000000000000000000000000000006001600160a01b0316635bfccac96040518163ffffffff1660e01b815260040160206040518083038186803b15801561040e57600080fd5b945094509450945094506125977f00000000000000000000000000000000000000000000000000000000000000006001600160a01b03166380f5db8c6040518163ffffffff1660e01b815260040160206040518083038186803b15801561255357600080fd5b505afa158015612567573d6000803e3d6000fd5b505050506040513d601f19601f8201168201806040525081019061258b9190614a32565b86868686868f8f612f77565b909a5098506125b390506001600160a01b03861633898c612824565b6125c86001600160a01b03851633898b612824565b6040805160a081018252875181526001600160a01b03878116602083015286811682840152606082018c9052608082018b9052915163171568c560e31b81526000928392908b169163b8ab46289161262291600401615520565b6040805180830381600087803b15801561263b57600080fd5b505af115801561264f573d6000803e3d6000fd5b505050506040513d601f19601f8201168201806040525081019061267391906150fb565b91509150600061268588888585612884565b9050896001600160a01b031663b82344d38e6126ae848d6060015161294790919063ffffffff16565b8c60c001518d60e001516040518563ffffffff1660e01b81526004016126d794939291906156db565b600060405180830381600087803b1580156126f157600080fd5b505af1158015612705573d6000803e3d6000fd5b50505050896001600160a01b03167f718ac6ee807949a313e522670a2f14584c69a893c6f5e336ba4b2d671202eb55338f60405161274492919061527f565b60405180910390a250505050505050505050505050565b6000806000806000856001600160a01b03166399fbab88886040518263ffffffff1660e01b815260040161278f91906156d2565b6101806040518083038186803b1580156127a857600080fd5b505afa1580156127bc573d6000803e3d6000fd5b505050506040513d601f19601f820116820180604052508101906127e09190615176565b909192939495969798999a50909192939495969798995090919293509091925090915090505080955081965082975083985084995050505050509295509295909350565b604080516001600160a01b0380861660248301528416604482015260648082018490528251808303909101815260849091019091526020810180516001600160e01b03166323b872dd60e01b17905261287e90859061318b565b50505050565b6000807f00000000000000000000000000000000000000000000000000000000000000006001600160a01b03166386dd37f36040518163ffffffff1660e01b815260040160006040518083038186803b1580156128e057600080fd5b505afa1580156128f4573d6000803e3d6000fd5b505050506040513d6000823e601f3d908101601f1916820160405261291c9190810190614a4e565b905061293d61292c868584613241565b612937888785613241565b90612947565b9695505050505050565b6000828201838110156129a1576040805162461bcd60e51b815260206004820152601b60248201527f536166654d6174683a206164646974696f6e206f766572666c6f770000000000604482015290519081900360640190fd5b9392505050565b6000806000836001600160a01b0316856001600160a01b031611156129d5575082915083905060016129df565b5083915082905060005b9250925092565b6001600160a01b03851615612d155760007f00000000000000000000000000000000000000000000000000000000000000006001600160a01b031663f80ffbd56040518163ffffffff1660e01b815260040160206040518083038186803b158015612a5057600080fd5b505afa158015612a64573d6000803e3d6000fd5b505050506040513d601f19601f82011682018060405250810190612a889190614a32565b6001600160a01b0316639362c872876040518263ffffffff1660e01b8152600401612ab3919061526b565b60206040518083038186803b158015612acb57600080fd5b505afa158015612adf573d6000803e3d6000fd5b505050506040513d601f19601f82011682018060405250810190612b039190614a32565b90506001600160a01b038116612b2b5760405162461bcd60e51b81526004016101e490615360565b60007f00000000000000000000000000000000000000000000000000000000000000006001600160a01b03166380f5db8c6040518163ffffffff1660e01b815260040160206040518083038186803b158015612b8657600080fd5b505afa158015612b9a573d6000803e3d6000fd5b505050506040513d601f19601f82011682018060405250810190612bbe9190614a32565b6001600160a01b0316631698ee828686866040518463ffffffff1660e01b8152600401612bed939291906152f8565b60206040518083038186803b158015612c0557600080fd5b505afa158015612c19573d6000803e3d6000fd5b505050506040513d601f19601f82011682018060405250810190612c3d9190614a32565b90506001600160a01b038116612c655760405162461bcd60e51b81526004016101e490615433565b806001600160a01b0316826001600160a01b03166359be5364886040518263ffffffff1660e01b8152600401612c9b919061532b565b60806040518083038186803b158015612cb357600080fd5b505afa158015612cc7573d6000803e3d6000fd5b505050506040513d601f19601f82011682018060405250810190612ceb9190614f0d565b516001600160a01b031614612d125760405162461bcd60e51b81526004016101e490615470565b50505b5050505050565b806001600160a01b0316826001600160a01b03161415612d4e5760405162461bcd60e51b81526004016101e4906153f8565b612d5782613434565b612d6081613434565b5050565b60007f00000000000000000000000000000000000000000000000000000000000000006001600160a01b03166380f5db8c6040518163ffffffff1660e01b815260040160206040518083038186803b158015612dbf57600080fd5b505afa158015612dd3573d6000803e3d6000fd5b505050506040513d601f19601f82011682018060405250810190612df79190614a32565b6001600160a01b03166322afcccb836040518263ffffffff1660e01b8152600401612e2291906156c2565b60206040518083038186803b158015612e3a57600080fd5b505afa158015612e4e573d6000803e3d6000fd5b505050506040513d601f19601f82011682018060405250810190612e729190614b17565b905060008460020b13158015612e8c575060008360020b12155b8015612ea857508060020b8460020b81612ea257fe5b0760020b155b8015612ec457508060020b8360020b81612ebe57fe5b0760020b155b61287e5760405162461bcd60e51b81526004016101e490615415565b6000612ef885612ef2878787876136ea565b84613817565b90505b949350505050565b6000828201600283900b8213801590612f2257508360020b8160020b12155b80612f40575060008360020b128015612f4057508360020b8160020b125b6129a1576040805162461bcd60e51b8152602060048201526003602482015262534d3560e81b604482015290519081900360640190fd5b600080600080612f878b8b6129a8565b919c509a5090508015612f98579394935b6000612fa68d8d8d8d613998565b90506000819050600080826001600160a01b0316633850c7bd6040518163ffffffff1660e01b815260040160e06040518083038186803b158015612fe957600080fd5b505afa158015612ffd573d6000803e3d6000fd5b505050506040513d601f19601f820116820180604052508101906130219190615016565b5050505050915091506130378a8a8e8e86613a43565b975061304688828e8e86613b48565b90975095508415613055579495945b5050505050985098509895505050505050565b613070610e86565b6130b8576040805162461bcd60e51b815260206004820152601460248201527314185d5cd8589b194e881b9bdd081c185d5cd95960621b604482015290519081900360640190fd5b6000805460ff191690557f5db9ee0a495bf2e6ff9c91a7834c1ba4fdd244a5e8aa4e537bd38aeae4b073aa6130eb613be0565b604080516001600160a01b039092168252519081900360200190a1565b613110610e86565b15613155576040805162461bcd60e51b815260206004820152601060248201526f14185d5cd8589b194e881c185d5cd95960821b604482015290519081900360640190fd5b6000805460ff191660011790557f62e78cea01bee320cd4e420270b5ea74000d11b0c9f74754ebdbfc544b05a2586130eb613be0565b60006131e0826040518060400160405280602081526020017f5361666545524332303a206c6f772d6c6576656c2063616c6c206661696c6564815250856001600160a01b0316613be49092919063ffffffff16565b80519091501561323c578080602001905160208110156131ff57600080fd5b505161323c5760405162461bcd60e51b815260040180806020018281038252602a81526020018061579a602a913960400191505060405180910390fd5b505050565b6000807f00000000000000000000000000000000000000000000000000000000000000006001600160a01b03166308846aa26040518163ffffffff1660e01b815260040160206040518083038186803b15801561329d57600080fd5b505afa1580156132b1573d6000803e3d6000fd5b505050506040513d601f19601f820116820180604052508101906132d59190614a32565b9050806001600160a01b0316856001600160a01b031614156132fa57839150506129a1565b60006133987f00000000000000000000000000000000000000000000000000000000000000006001600160a01b03166380f5db8c6040518163ffffffff1660e01b815260040160206040518083038186803b15801561335857600080fd5b505afa15801561336c573d6000803e3d6000fd5b505050506040513d601f19601f820116820180604052508101906133909190614a32565b878487613bf3565b90506000816001600160a01b0316633850c7bd6040518163ffffffff1660e01b815260040160e06040518083038186803b1580156133d557600080fd5b505afa1580156133e9573d6000803e3d6000fd5b505050506040513d601f19601f8201168201806040525081019061340d9190615016565b50505050505090506134298161342288613dbb565b8986613e04565b979650505050505050565b60007f00000000000000000000000000000000000000000000000000000000000000006001600160a01b03166350879c1c6040518163ffffffff1660e01b815260040160206040518083038186803b15801561348f57600080fd5b505afa1580156134a3573d6000803e3d6000fd5b505050506040513d601f19601f820116820180604052508101906134c79190614a32565b905060007f00000000000000000000000000000000000000000000000000000000000000006001600160a01b03166308846aa26040518163ffffffff1660e01b815260040160206040518083038186803b15801561352457600080fd5b505afa158015613538573d6000803e3d6000fd5b505050506040513d601f19601f8201168201806040525081019061355c9190614a32565b9050816001600160a01b0316836001600160a01b0316148061358f5750806001600160a01b0316836001600160a01b0316145b1561359b5750506136e7565b6136cb7f00000000000000000000000000000000000000000000000000000000000000006001600160a01b03166380f5db8c6040518163ffffffff1660e01b815260040160206040518083038186803b1580156135f757600080fd5b505afa15801561360b573d6000803e3d6000fd5b505050506040513d601f19601f8201168201806040525081019061362f9190614a32565b84837f00000000000000000000000000000000000000000000000000000000000000006001600160a01b03166386dd37f36040518163ffffffff1660e01b815260040160006040518083038186803b15801561368a57600080fd5b505afa15801561369e573d6000803e3d6000fd5b505050506040513d6000823e601f3d908101601f191682016040526136c69190810190614a4e565b613ee2565b61323c5760405162461bcd60e51b81526004016101e490615340565b50565b600080856001600160a01b0316631698ee828686866040518463ffffffff1660e01b815260040161371d939291906152f8565b60206040518083038186803b15801561373557600080fd5b505afa158015613749573d6000803e3d6000fd5b505050506040513d601f19601f8201168201806040525081019061376d9190614a32565b90506001600160a01b0381166137955760405162461bcd60e51b81526004016101e49061539e565b806001600160a01b0316633850c7bd6040518163ffffffff1660e01b815260040160e06040518083038186803b1580156137ce57600080fd5b505afa1580156137e2573d6000803e3d6000fd5b505050506040513d601f19601f820116820180604052508101906138069190615016565b50939b9a5050505050505050505050565b6040516322afcccb60e01b815282906000906001600160a01b038616906322afcccb906138489086906004016156c2565b60206040518083038186803b15801561386057600080fd5b505afa158015613874573d6000803e3d6000fd5b505050506040513d601f19601f820116820180604052508101906138989190614b17565b905060018160020b13156139905760008460020b131561391d5760006138c2600283810b90613fed565b905060006138d4600287900b8461409b565b90508160020b8160020b12613905576138fe836138f5600289900b8461410b565b60020b90612f03565b9350613916565b613913600287900b8261410b565b93505b5050613990565b60008460020b1215613990576000613939600283810b90613fed565b6000908103915061394e600287900b8461409b565b90508160020b8160020b1361397f576139788361396f600289900b8461410b565b60020b9061410b565b935061398d565b613429600287900b8261410b565b50505b509392505050565b600080856001600160a01b0316631698ee828686866040518463ffffffff1660e01b81526004016139cb939291906152f8565b60206040518083038186803b1580156139e357600080fd5b505afa1580156139f7573d6000803e3d6000fd5b505050506040513d601f19601f82011682018060405250810190613a1b9190614a32565b90506001600160a01b038116612ef85760405162461bcd60e51b81526004016101e49061539e565b600080613a4f8561417f565b90506000613a5c8561417f565b905087876001600160a01b038084169085161115613a78579192915b836001600160a01b0316866001600160a01b031611613aa357613a9c8484846144b1565b9450613b3b565b826001600160a01b0316866001600160a01b03161015613b2d5781613ad457613acd84878361451d565b9450613b28565b80613ae457613acd8684846144b1565b6000613af18785856144b1565b90506000613b0086898561451d565b9050806001600160801b0316826001600160801b031610613b215780613b23565b815b965050505b613b3b565b613b3884848361451d565b94505b5050505095945050505050565b6000808460020b8660020b1215613b7d57613b76613b658661417f565b613b6e8661417f565b89600161455a565b9150613bd6565b8360020b8660020b1215613bb657613b9883613b6e8661417f565b9150613baf613ba68661417f565b84896001614603565b9050613bd6565b613bd3613bc28661417f565b613bcb8661417f565b896001614603565b90505b9550959350505050565b3390565b6060612efb8484600085614673565b600080613c0085856129a8565b50909550935060005b8351811015613d8b57838181518110613c1e57fe5b602002602001015162ffffff1660001415613c3857613d83565b6000876001600160a01b0316631698ee828888888681518110613c5757fe5b60200260200101516040518463ffffffff1660e01b8152600401613c7d939291906152f8565b60206040518083038186803b158015613c9557600080fd5b505afa158015613ca9573d6000803e3d6000fd5b505050506040513d601f19601f82011682018060405250810190613ccd9190614a32565b90506001600160a01b038116613ce35750613d83565b6000816001600160a01b0316631a6865026040518163ffffffff1660e01b815260040160206040518083038186803b158015613d1e57600080fd5b505afa158015613d32573d6000803e3d6000fd5b505050506040513d601f19601f82011682018060405250810190613d569190614ffc565b9050836001600160801b0316816001600160801b031611613d78578484613d7b565b81815b909550935050505b600101613c09565b506001600160a01b038216613db25760405162461bcd60e51b81526004016101e49061537f565b50949350505050565b806001600160801b0381168114613dff576040805162461bcd60e51b815260206004820152600360248201526226a41960e91b604482015290519081900360640190fd5b919050565b60006001600160801b036001600160a01b03861611613e73576001600160a01b0380861680029083811690851610613e5357613e4e600160c01b866001600160801b0316836147c3565b613e6b565b613e6b81866001600160801b0316600160c01b6147c3565b915050612efb565b6000613e926001600160a01b03871680680100000000000000006147c3565b9050826001600160a01b0316846001600160a01b031610613eca57613ec5600160801b866001600160801b0316836147c3565b61293d565b61293d81866001600160801b0316600160801b6147c3565b6000613eee84846129a8565b50909450925060005b8251811015613fe157828181518110613f0c57fe5b602002602001015162ffffff1660001415613f2657613fd9565b6000866001600160a01b0316631698ee828787878681518110613f4557fe5b60200260200101516040518463ffffffff1660e01b8152600401613f6b939291906152f8565b60206040518083038186803b158015613f8357600080fd5b505afa158015613f97573d6000803e3d6000fd5b505050506040513d601f19601f82011682018060405250810190613fbb9190614a32565b90506001600160a01b03811615613fd757600192505050612efb565b505b600101613ef7565b50600095945050505050565b60008160020b6000141561402e576040805162461bcd60e51b815260206004820152600360248201526229a69960e91b604482015290519081900360640190fd5b8160020b6000191480156140495750600283900b627fffff19145b15614081576040805162461bcd60e51b8152602060048201526003602482015262534d3360e81b604482015290519081900360640190fd5b60008260020b8460020b8161409257fe5b05949350505050565b6000808260020b136140f4576040805162461bcd60e51b815260206004820152601860248201527f536166654d6174683a206d6f64756c6f206279207a65726f0000000000000000604482015290519081900360640190fd5b8160020b8360020b8161410357fe5b079392505050565b6000818303600283900b821380159061412a57508360020b8160020b13155b80614148575060008360020b12801561414857508360020b8160020b135b6129a1576040805162461bcd60e51b815260206004820152600360248201526214d34d60ea1b604482015290519081900360640190fd5b60008060008360020b12614196578260020b61419e565b8260020b6000035b9050620d89e88111156141dc576040805162461bcd60e51b81526020600482015260016024820152601560fa1b604482015290519081900360640190fd5b6000600182166141f057600160801b614202565b6ffffcb933bd6fad37aa2d162d1a5940015b70ffffffffffffffffffffffffffffffffff1690506002821615614236576ffff97272373d413259a46990580e213a0260801c5b6004821615614255576ffff2e50f5f656932ef12357cf3c7fdcc0260801c5b6008821615614274576fffe5caca7e10e4e61c3624eaa0941cd00260801c5b6010821615614293576fffcb9843d60f6159c9db58835c9266440260801c5b60208216156142b2576fff973b41fa98c081472e6896dfb254c00260801c5b60408216156142d1576fff2ea16466c96a3843ec78b326b528610260801c5b60808216156142f0576ffe5dee046a99a2a811c461f1969c30530260801c5b610100821615614310576ffcbe86c7900a88aedcffc83b479aa3a40260801c5b610200821615614330576ff987a7253ac413176f2b074cf7815e540260801c5b610400821615614350576ff3392b0822b70005940c7a398e4b70f30260801c5b610800821615614370576fe7159475a2c29b7443b29c7fa6e889d90260801c5b611000821615614390576fd097f3bdfd2022b8845ad8f792aa58250260801c5b6120008216156143b0576fa9f746462d870fdf8a65dc1f90e061e50260801c5b6140008216156143d0576f70d869a156d2a1b890bb3df62baf32f70260801c5b6180008216156143f0576f31be135f97d08fd981231505542fcfa60260801c5b62010000821615614411576f09aa508b5b7a84e1c677de54f3e99bc90260801c5b62020000821615614431576e5d6af8dedb81196699c329225ee6040260801c5b62040000821615614450576d2216e584f5fa1ea926041bedfe980260801c5b6208000082161561446d576b048a170391f7dc42444e8fa20260801c5b60008460020b131561448857806000198161448457fe5b0490505b64010000000081061561449c57600161449f565b60005b60ff16602082901c0192505050919050565b6000826001600160a01b0316846001600160a01b031611156144d1579192915b60006144f4856001600160a01b0316856001600160a01b0316600160601b6147c3565b905061451461450f84838888036001600160a01b03166147c3565b614872565b95945050505050565b6000826001600160a01b0316846001600160a01b0316111561453d579192915b612efb61450f83600160601b8787036001600160a01b03166147c3565b6000836001600160a01b0316856001600160a01b0316111561457a579293925b6fffffffffffffffffffffffffffffffff60601b606084901b166001600160a01b0386860381169087166145ad57600080fd5b836145dd57866001600160a01b03166145d08383896001600160a01b03166147c3565b816145d757fe5b04613429565b6134296145f48383896001600160a01b0316614888565b886001600160a01b03166148c2565b6000836001600160a01b0316856001600160a01b03161115614623579293925b816146505761464b836001600160801b03168686036001600160a01b0316600160601b6147c3565b612ef8565b612ef8836001600160801b03168686036001600160a01b0316600160601b614888565b6060824710156146b45760405162461bcd60e51b81526004018080602001828103825260268152602001806157746026913960400191505060405180910390fd5b6146bd856148cd565b61470e576040805162461bcd60e51b815260206004820152601d60248201527f416464726573733a2063616c6c20746f206e6f6e2d636f6e7472616374000000604482015290519081900360640190fd5b600080866001600160a01b031685876040518082805190602001908083835b6020831061474c5780518252601f19909201916020918201910161472d565b6001836020036101000a03801982511681845116808217855250505050505090500191505060006040518083038185875af1925050503d80600081146147ae576040519150601f19603f3d011682016040523d82523d6000602084013e6147b3565b606091505b50915091506134298282866148d3565b60008080600019858709868602925082811090839003039050806147f957600084116147ee57600080fd5b5082900490506129a1565b80841161480557600080fd5b6000848688096000868103871696879004966002600389028118808a02820302808a02820302808a02820302808a02820302808a02820302808a02909103029181900381900460010186841190950394909402919094039290920491909117919091029150509392505050565b806001600160801b0381168114613dff57600080fd5b60006148958484846147c3565b9050600082806148a157fe5b84860911156129a15760001981106148b857600080fd5b6001019392505050565b808204910615150190565b3b151590565b606083156148e25750816129a1565b8251156148f25782518084602001fd5b8160405162461bcd60e51b81526004018080602001828103825283818151815260200191508051906020019080838360005b8381101561493c578181015183820152602001614924565b50505050905090810190601f1680156149695780820380516001836020036101000a031916815260200191505b509250505060405180910390fd5b6040518060a0016040528060008152602001600081526020016000815260200160008152602001600081525090565b8035613dff8161571a565b8051613dff8161571a565b8035613dff8161572f565b8035613dff8161573d565b8051613dff8161573d565b8035613dff81615753565b8051613dff81615753565b80516001600160801b0381168114613dff57600080fd5b805161ffff81168114613dff57600080fd5b8035613dff81615762565b8051613dff81615762565b600060208284031215614a43578081fd5b81516129a18161571a565b60006020808385031215614a60578182fd5b825167ffffffffffffffff80821115614a77578384fd5b818501915085601f830112614a8a578384fd5b815181811115614a9657fe5b8381029150614aa68483016156f6565b8181528481019084860184860187018a1015614ac0578788fd5b8795505b83861015614aee5780519450614ad985615762565b84835260019590950194918601918601614ac4565b5098975050505050505050565b600060208284031215614b0c578081fd5b81516129a18161572f565b600060208284031215614b28578081fd5b81516129a181615753565b6000610100808385031215614b46578182fd5b6040519081019067ffffffffffffffff82118183101715614b6357fe5b81604052614b70846149a6565b8152614b7e602085016149a6565b6020820152614b8f60408501614a1c565b6040820152614ba0606085016149dd565b6060820152614bb1608085016149dd565b608082015260a084013560a082015260c084013560c0820152614bd660e085016149c7565b60e0820152949350505050565b6000610120808385031215614bf6578182fd5b614bff816156f6565b9050614c0a836149a6565b8152614c18602084016149a6565b6020820152614c2960408401614a1c565b6040820152614c3a606084016149dd565b6060820152614c4b608084016149dd565b608082015260a083013560a082015260c083013560c0820152614c7060e084016149c7565b60e0820152610100614c838185016149a6565b908201529392505050565b60006101c0808385031215614ca1578182fd5b614caa816156f6565b905082518152614cbc602084016149b1565b6020820152614ccd604084016149d2565b6040820152606083015160608201526080830151608082015260a083015160a082015260c083015160c082015260e083015160e0820152610100614d128185016149e8565b90820152610120614d248482016149e8565b908201526101408381015190820152610160808401519082015261018080840151908201526101a0928301519281019290925250919050565b6000610100808385031215614d70578182fd5b6040519081019067ffffffffffffffff82118183101715614d8d57fe5b81604052614d9a846149a6565b8152614da8602085016149a6565b6020820152614db9604085016149bc565b604082015260608401356060820152614dd4608085016149dd565b6080820152614de560a085016149dd565b60a0820152614df660c08501614a1c565b60c0820152614bd660e085016149c7565b6000610120808385031215614e1a578182fd5b614e23816156f6565b9050614e2e836149a6565b8152614e3c602084016149a6565b6020820152614e4d604084016149bc565b604082015260608301356060820152614e68608084016149dd565b6080820152614e7960a084016149dd565b60a0820152614e8a60c08401614a1c565b60c0820152614e9b60e084016149a6565b60e0820152610100614c838185016149c7565b600060808284031215614ebf578081fd5b6040516080810181811067ffffffffffffffff82111715614edc57fe5b8060405250825181526020830151602082015260408301516040820152606083015160608201528091505092915050565b600060808284031215614f1e578081fd5b6040516080810181811067ffffffffffffffff82111715614f3b57fe5b6040528251614f498161571a565b81526020830151614f5981615762565b60208201526040830151614f6c8161571a565b6040820152606083015163ffffffff81168114614f87578283fd5b60608201529392505050565b600060a08284031215614fa4578081fd5b60405160a0810181811067ffffffffffffffff82111715614fc157fe5b806040525082518152602083015160208201526040830151604082015260608301516060820152608083015160808201528091505092915050565b60006020828403121561500d578081fd5b6129a1826149f3565b600080600080600080600060e0888a031215615030578283fd5b875161503b8161571a565b602089015190975061504c81615753565b955061505a60408901614a0a565b945061506860608901614a0a565b935061507660808901614a0a565b925060a088015160ff8116811461508b578283fd5b60c089015190925061509c8161572f565b8091505092959891949750929550565b6000602082840312156150bd578081fd5b5051919050565b6000806000606084860312156150d8578081fd5b8335925060208401356150ea8161572f565b929592945050506040919091013590565b6000806040838503121561510d578182fd5b505080516020909101519092909150565b600080600060608486031215615132578081fd5b505081359360208301359350604090920135919050565b60008060006060848603121561515d578081fd5b8351925060208401519150604084015190509250925092565b6000806000806000806000806000806000806101808d8f031215615198578586fd5b8c516bffffffffffffffffffffffff811681146151b3578687fd5b9b506151c160208e016149b1565b9a506151cf60408e016149b1565b99506151dd60608e016149b1565b98506151eb60808e01614a27565b97506151f960a08e016149e8565b965061520760c08e016149e8565b955061521560e08e016149f3565b94506101008d015193506101208d015192506152346101408e016149f3565b91506152436101608e016149f3565b90509295989b509295989b509295989b565b15159052565b60020b9052565b62ffffff169052565b6001600160a01b0391909116815260200190565b6001600160a01b03929092168252602082015260400190565b6001600160a01b0393909316835260208301919091526001600160801b031916604082015260600190565b6001600160a01b03948516815260208101939093526001600160801b0319919091166040830152909116606082015260800190565b6001600160a01b03938416815291909216602082015262ffffff909116604082015260600190565b901515815260200190565b6001600160801b031991909116815260200190565b60208082526006908201526544524353545760d01b604082015260600190565b602080825260059082015264445253505760d81b604082015260600190565b602080825260059082015264055484450360dc1b604082015260600190565b6020808252600490820152630554850360e41b604082015260600190565b6020808252600490820152631114919560e21b604082015260600190565b6020808252600490820152630445241360e41b604082015260600190565b60208082526003908201526211149560ea1b604082015260600190565b6020808252600490820152631114951160e21b604082015260600190565b6020808252600490820152630445250360e41b604082015260600190565b60208082526005908201526404452504d360dc1b604082015260600190565b6020808252600790820152664452535057534560c81b604082015260600190565b60208082526004908201526342524f4760e01b604082015260600190565b6000610100820190508251825260018060a01b0360208401511660208301526001600160801b0319604084015116604083015260608301516060830152608083015160020b608083015260a083015160020b60a083015260c083015160c083015260e083015160e083015292915050565b815181526020808301516001600160a01b039081169183019190915260408084015190911690820152606080830151908201526080918201519181019190915260a00190565b81516001600160a01b0390811682526020808401519091169082015260408083015162ffffff169082015260608083015160020b908201526080808301516101008301916155b69084018261525b565b5060a083015160a083015260c083015160c083015260e08301516155dd60e0840182615255565b5092915050565b60006101008201905082518252602083015160018060a01b03808216602085015280604086015116604085015250506060830151151560608301526080830151608083015260a083015160020b60a083015260c083015161564860c084018261525b565b5060e08301516155dd60e0840182615262565b600060e08201905060018060a01b038084511683528060208501511660208401525060408301511515604083015260608301516060830152608083015160020b608083015260a083015160020b60a083015262ffffff60c08401511660c083015292915050565b62ffffff91909116815260200190565b90815260200190565b93845260208401929092526040830152606082015260800190565b60405181810167ffffffffffffffff8111828210171561571257fe5b604052919050565b6001600160a01b03811681146136e757600080fd5b80151581146136e757600080fd5b6001600160801b0319811681146136e757600080fd5b8060020b81146136e757600080fd5b62ffffff811681146136e757600080fdfe416464726573733a20696e73756666696369656e742062616c616e636520666f722063616c6c5361666545524332303a204552433230206f7065726174696f6e20646964206e6f742073756363656564a26469706673582212203d435099453fb8cac42fa125410bdd1c51083593a84fc9dfdac67b53a2a7aa5464736f6c63430007060033",
  "devdoc": {
    "kind": "dev",
    "methods": {
      "deposit((address,address,uint24,int24,int24,uint256,uint256,bytes16))": {
        "params": {
          "input": "struct of DepositInput parameters"
        },
        "returns": {
          "tokenId": "the ID of the minted NFT"
        }
      },
      "depositListedStrategy((address,address,uint24,int24,int24,uint256,uint256,bytes16,address))": {
        "params": {
          "input": "struct of DepositListedStrategyInput parameters"
        },
        "returns": {
          "tokenId": "the ID of the minted NFT"
        }
      },
      "increaseLiquidity(uint256,uint256,uint256)": {
        "params": {
          "amount0Desired": "amount of token0 to be added to the position",
          "amount1Desired": "amount of token1 to be added to the position",
          "positionId": "id of the position"
        }
      },
      "paused()": {
        "details": "Returns true if the contract is paused, and false otherwise."
      },
      "singleTokenDeposit((address,address,bool,uint256,int24,int24,uint24,bytes16))": {
        "params": {
          "input": "struct of SingleTokenDepositInput parameters"
        },
        "returns": {
          "tokenId": "the ID of the minted NFT"
        }
      },
      "singleTokenDepositListedStrategy((address,address,bool,uint256,int24,int24,uint24,address,bytes16))": {
        "params": {
          "input": "struct of SingleTokenDepositListedStrategyInput parameters"
        },
        "returns": {
          "tokenId": "the ID of the minted NFT"
        }
      },
      "singleTokenIncreaseLiquidity(uint256,bool,uint256)": {
        "params": {
          "amount": "amount of input token",
          "isToken0In": "true if the input token is token0, false if the input token is token1",
          "positionId": "id of the position"
        }
      }
    },
    "version": 1
  },
  "userdoc": {
    "events": {
      "PositionDeposited(address,address,uint256,bytes16)": {
        "notice": "emitted when a position is created"
      },
      "PositionDepositedListedStrategy(address,address,uint256,bytes16,address)": {
        "notice": "emitted when a position is created"
      },
      "PositionIncreasedLiquidity(address,address,uint256)": {
        "notice": "emitted when a position is increased liquidity"
      }
    },
    "kind": "user",
    "methods": {
      "deposit((address,address,uint24,int24,int24,uint256,uint256,bytes16))": {
        "notice": "mint uniswapV3 NFT and deposit in the position manager"
      },
      "depositListedStrategy((address,address,uint24,int24,int24,uint256,uint256,bytes16,address))": {
        "notice": "mint uniswapV3 NFT and deposit in the position manager by following listed strategy"
      },
      "increaseLiquidity(uint256,uint256,uint256)": {
        "notice": "increases liquidity of a position"
      },
      "singleTokenDeposit((address,address,bool,uint256,int24,int24,uint24,bytes16))": {
        "notice": "mints a uni NFT with a single input token"
      },
      "singleTokenDepositListedStrategy((address,address,bool,uint256,int24,int24,uint24,address,bytes16))": {
        "notice": "mints a uni NFT with a single input token follow listed strategy"
      },
      "singleTokenIncreaseLiquidity(uint256,bool,uint256)": {
        "notice": "increases liquidity of a position with sigle token"
      }
    },
    "notice": "DepositRecipes allows user to fill their position manager with UniswapV3 positions        by depositing an already minted NFT or by minting directly a new one",
    "version": 1
  },
  "storageLayout": {
    "storage": [
      {
        "astId": 1782,
        "contract": "contracts/recipes/DepositRecipes.sol:DepositRecipes",
        "label": "_paused",
        "offset": 0,
        "slot": "0",
        "type": "t_bool"
      }
    ],
    "types": {
      "t_bool": {
        "encoding": "inplace",
        "label": "bool",
        "numberOfBytes": "1"
      }
    }
  }
}