{
  "address": "0xbEb7dC12B7cb818A699044c5594FEBCa49805a40",
  "abi": [
    {
      "anonymous": false,
      "inputs": [
        {
          "components": [
            {
              "internalType": "address",
              "name": "facetAddress",
              "type": "address"
            },
            {
              "internalType": "enum IDiamondCut.FacetCutAction",
              "name": "action",
              "type": "uint8"
            },
            {
              "internalType": "bytes4[]",
              "name": "functionSelectors",
              "type": "bytes4[]"
            }
          ],
          "indexed": false,
          "internalType": "struct IDiamondCut.FacetCut[]",
          "name": "_diamondCut",
          "type": "tuple[]"
        },
        {
          "indexed": false,
          "internalType": "address",
          "name": "_init",
          "type": "address"
        },
        {
          "indexed": false,
          "internalType": "bytes",
          "name": "_calldata",
          "type": "bytes"
        }
      ],
      "name": "DiamondCut",
      "type": "event"
    },
    {
      "inputs": [
        {
          "components": [
            {
              "internalType": "address",
              "name": "facetAddress",
              "type": "address"
            },
            {
              "internalType": "enum IDiamondCut.FacetCutAction",
              "name": "action",
              "type": "uint8"
            },
            {
              "internalType": "bytes4[]",
              "name": "functionSelectors",
              "type": "bytes4[]"
            }
          ],
          "internalType": "struct IDiamondCut.FacetCut[]",
          "name": "_diamondCut",
          "type": "tuple[]"
        },
        {
          "internalType": "address",
          "name": "_init",
          "type": "address"
        },
        {
          "internalType": "bytes",
          "name": "_calldata",
          "type": "bytes"
        }
      ],
      "name": "diamondCut",
      "outputs": [],
      "stateMutability": "nonpayable",
      "type": "function"
    }
  ],
  "transactionHash": "0x42f571b01813c6dacd00cc24e11c19897f0a3f2ab9e69bd1c0c9a09c37d88fd3",
  "args": [],
  "numDeployments": 1,
  "solcInputHash": "08f28bc02234e5e762609eefb667e33a",
  "bytecode": "0x608060405234801561001057600080fd5b506110d3806100206000396000f3fe608060405234801561001057600080fd5b506004361061002b5760003560e01c80631f931c1c14610030575b600080fd5b61004361003e366004610ba8565b610045565b005b61004d61009e565b61009761005a8587610f98565b8484848080601f01602080910402602001604051908101604052809392919081815260200183838082843760009201919091525061016e92505050565b5050505050565b60006100a86102f8565b90508060050160009054906101000a90046001600160a01b03166001600160a01b0316632d2c5b586040518163ffffffff1660e01b815260040160206040518083038186803b1580156100fa57600080fd5b505afa15801561010e573d6000803e3d6000fd5b505050506040513d601f19601f820116820180604052508101906101329190610b85565b6001600160a01b0316336001600160a01b03161461016b5760405162461bcd60e51b815260040161016290610ee2565b60405180910390fd5b50565b825160005b818110156102ac57600085828151811061018957fe5b6020026020010151602001519050600060028111156101a457fe5b8160028111156101b057fe5b14156101f3576101ee8683815181106101c557fe5b6020026020010151600001518784815181106101dd57fe5b60200260200101516040015161031c565b6102a3565b600181600281111561020157fe5b141561023f576101ee86838151811061021657fe5b60200260200101516000015187848151811061022e57fe5b60200260200101516040015161042c565b600281600281111561024d57fe5b141561028b576101ee86838151811061026257fe5b60200260200101516000015187848151811061027a57fe5b602002602001015160400151610545565b60405162461bcd60e51b815260040161016290610ec5565b50600101610173565b507f8faa70878671ccd212d20771b795c50af8fd3ff6cf27f4bde57e5d4de0aeb6738484846040516102e093929190610ca9565b60405180910390a16102f283836105f8565b50505050565b7fd5aa5c52d76b5d2be1bece4b96c91e533fe2611adb0c19cf868dadf921fc13b890565b805161033a5760405162461bcd60e51b815260040161016290610f1c565b60006103446102f8565b90506001600160a01b03831661036c5760405162461bcd60e51b815260040161016290610ddd565b6001600160a01b03831660009081526001820160205260409020546001600160601b03811661039f5761039f82856106ea565b825160005b818110156104245760008582815181106103ba57fe5b6020908102919091018101516001600160e01b031981166000908152918790526040909120549091506001600160a01b0316801561040a5760405162461bcd60e51b815260040161016290610e6e565b6104168683878b610732565b5050600192830192016103a4565b505050505050565b805161044a5760405162461bcd60e51b815260040161016290610e51565b60006104546102f8565b90506001600160a01b03831661047c5760405162461bcd60e51b815260040161016290610e8b565b6001600160a01b03831660009081526001820160205260409020546001600160601b0381166104af576104af82856106ea565b825160005b818110156104245760008582815181106104ca57fe5b6020908102919091018101516001600160e01b031981166000908152918790526040909120549091506001600160a01b039081169088168114156105205760405162461bcd60e51b815260040161016290610e17565b61052b8682846107d2565b6105378683878b610732565b5050600192830192016104b4565b80516105635760405162461bcd60e51b815260040161016290610f39565b600061056d6102f8565b90506001600160a01b038316156105965760405162461bcd60e51b815260040161016290610eff565b815160005b818110156100975760008482815181106105b157fe5b6020908102919091018101516001600160e01b031981166000908152918690526040909120549091506001600160a01b03166105ee8582846107d2565b505060010161059b565b6001600160a01b03821661062a578051156106255760405162461bcd60e51b815260040161016290610da3565b6106e6565b80516106485760405162461bcd60e51b815260040161016290610dfa565b600080836001600160a01b0316836040516106639190610c8d565b600060405180830381855af49150503d806000811461069e576040519150601f19603f3d011682016040523d82523d6000602084013e6106a3565b606091505b5091509150816102f2578051156106ce578060405162461bcd60e51b81526004016101629190610d90565b60405162461bcd60e51b815260040161016290610dc0565b5050565b6002820180546001600160a01b0390921660008181526001948501602090815260408220860185905594840183559182529290200180546001600160a01b0319169091179055565b6001600160e01b0319831660008181526020868152604080832080546001600160601b03909716600160a01b026001600160a01b0397881617815594909516808352600180890183529583208054968701815583528183206008870401805460e09890981c60046007909816979097026101000a96870263ffffffff9097021990971695909517909555529290915281546001600160a01b031916179055565b6001600160a01b0382166107f85760405162461bcd60e51b815260040161016290610ea8565b6001600160a01b0382163014156108215760405162461bcd60e51b815260040161016290610e34565b6001600160e01b03198116600090815260208481526040808320546001600160a01b03861684526001870190925290912054600160a01b9091046001600160601b0316906000190180821461094d576001600160a01b0384166000908152600186016020526040812080548390811061089657fe5b600091825260208083206008830401546001600160a01b038916845260018a019091526040909220805460079092166004026101000a90920460e01b9250829190859081106108e157fe5b600091825260208083206008830401805463ffffffff60079094166004026101000a938402191660e09590951c929092029390931790556001600160e01b03199290921682528690526040902080546001600160a01b0316600160a01b6001600160601b038516021790555b6001600160a01b0384166000908152600186016020526040902080548061097057fe5b60008281526020808220600860001990940193840401805463ffffffff600460078716026101000a0219169055919092556001600160e01b0319851682528690526040812055806100975760028501546001600160a01b038516600090815260018781016020526040909120015460001990910190808214610a675760008760020183815481106109fd57fe5b6000918252602090912001546002890180546001600160a01b039092169250829184908110610a2857fe5b600091825260208083209190910180546001600160a01b0319166001600160a01b03948516179055929091168152600189810190925260409020018190555b86600201805480610a7457fe5b60008281526020808220830160001990810180546001600160a01b03191690559092019092556001600160a01b0388168252600189810190915260408220015550505050505050565b600082601f830112610acd578081fd5b81356020610ae2610add83610f7a565b610f56565b8281528181019085830183850287018401881015610afe578586fd5b855b85811015610b315781356001600160e01b031981168114610b1f578788fd5b84529284019290840190600101610b00565b5090979650505050505050565b60008083601f840112610b4f578182fd5b50813567ffffffffffffffff811115610b66578182fd5b602083019150836020828501011115610b7e57600080fd5b9250929050565b600060208284031215610b96578081fd5b8151610ba181611088565b9392505050565b600080600080600060608688031215610bbf578081fd5b853567ffffffffffffffff80821115610bd6578283fd5b818801915088601f830112610be9578283fd5b813581811115610bf7578384fd5b8960208083028501011115610c0a578384fd5b6020928301975095509087013590610c2182611088565b90935060408701359080821115610c36578283fd5b50610c4388828901610b3e565b969995985093965092949392505050565b6001600160a01b03169052565b60008151808452610c7981602086016020860161105c565b601f01601f19169290920160200192915050565b60008251610c9f81846020870161105c565b9190910192915050565b606080825284518282018190526000919060809081850190602080820287018401818b01875b84811015610d6157898303607f19018652815180516001600160a01b03168452848101518985019060038110610d0157fe5b858701526040918201519185018a9052815190819052908501908a90898601905b80831015610d4c5783516001600160e01b0319168252928701926001929092019190870190610d22565b50978601979450505090830190600101610ccf565b5050610d6f8289018b610c54565b8781036040890152610d81818a610c61565b9b9a5050505050505050505050565b600060208252610ba16020830184610c61565b60208082526003908201526205349360ec1b604082015260600190565b60208082526003908201526229a4a960e91b604082015260600190565b60208082526003908201526205341360ec1b604082015260600190565b60208082526003908201526253494360e81b604082015260600190565b60208082526003908201526229a92960e91b604082015260600190565b60208082526003908201526253524960e81b604082015260600190565b60208082526003908201526229a92360e91b604082015260600190565b60208082526003908201526253464560e81b604082015260600190565b60208082526003908201526205352360ec1b604082015260600190565b60208082526003908201526253524560e81b604082015260600190565b60208082526003908201526229a4a360e91b604082015260600190565b60208082526003908201526229a6a360e91b604082015260600190565b60208082526003908201526205345360ec1b604082015260600190565b602080825260039082015262534e5360e81b604082015260600190565b60208082526003908201526253455360e81b604082015260600190565b60405181810167ffffffffffffffff81118282101715610f7257fe5b604052919050565b600067ffffffffffffffff821115610f8e57fe5b5060209081020190565b6000610fa6610add84610f7a565b8381526020808201919084845b8781101561105057813587016060808236031215610fcf578788fd5b604080519182019167ffffffffffffffff8084118285101715610fee57fe5b928252833592610ffd84611088565b928152838701359260038410611011578a8bfd5b838883015282850135935080841115611028578a8bfd5b5061103536848601610abd565b91810191909152875250509382019390820190600101610fb3565b50919695505050505050565b60005b8381101561107757818101518382015260200161105f565b838111156102f25750506000910152565b6001600160a01b038116811461016b57600080fdfea2646970667358221220f2cee50758124b16660f6285761998647a026d862fc13b4ea6f80656828e52ca64736f6c63430007060033",
  "devdoc": {
    "kind": "dev",
    "methods": {
      "diamondCut((address,uint8,bytes4[])[],address,bytes)": {
        "params": {
          "_calldata": "A function call, including function selector and arguments                  _calldata is executed with delegatecall on _init",
          "_diamondCut": "Contains the facet addresses and function selectors",
          "_init": "The address of the contract or facet to execute _calldata"
        }
      }
    },
    "version": 1
  },
  "userdoc": {
    "kind": "user",
    "methods": {
      "diamondCut((address,uint8,bytes4[])[],address,bytes)": {
        "notice": "Add/replace/remove any number of functions and optionally execute         a function with delegatecall"
      }
    },
    "version": 1
  },
  "storageLayout": {
    "storage": [],
    "types": null
  }
}