{
  "address": "0x69166cD2f42D682F284565426C60a42AC53F7bAC",
  "abi": [
    {
      "inputs": [
        {
          "internalType": "address",
          "name": "_registry",
          "type": "address"
        },
        {
          "internalType": "address",
          "name": "_uniswapAddressHolder",
          "type": "address"
        }
      ],
      "stateMutability": "nonpayable",
      "type": "constructor"
    },
    {
      "anonymous": false,
      "inputs": [
        {
          "indexed": false,
          "internalType": "address",
          "name": "account",
          "type": "address"
        }
      ],
      "name": "Paused",
      "type": "event"
    },
    {
      "anonymous": false,
      "inputs": [
        {
          "indexed": false,
          "internalType": "address",
          "name": "account",
          "type": "address"
        }
      ],
      "name": "Unpaused",
      "type": "event"
    },
    {
      "anonymous": false,
      "inputs": [
        {
          "indexed": true,
          "internalType": "address",
          "name": "positionManager",
          "type": "address"
        },
        {
          "indexed": false,
          "internalType": "uint256",
          "name": "positionId",
          "type": "uint256"
        },
        {
          "indexed": false,
          "internalType": "uint256",
          "name": "closedTokenId",
          "type": "uint256"
        },
        {
          "indexed": false,
          "internalType": "uint256",
          "name": "mintedTokenId",
          "type": "uint256"
        },
        {
          "indexed": false,
          "internalType": "uint256",
          "name": "collectedFee0",
          "type": "uint256"
        },
        {
          "indexed": false,
          "internalType": "uint256",
          "name": "collectedFee1",
          "type": "uint256"
        }
      ],
      "name": "positionRebalanced",
      "type": "event"
    },
    {
      "inputs": [
        {
          "internalType": "bytes[]",
          "name": "data",
          "type": "bytes[]"
        }
      ],
      "name": "multicall",
      "outputs": [
        {
          "internalType": "bytes[]",
          "name": "results",
          "type": "bytes[]"
        }
      ],
      "stateMutability": "payable",
      "type": "function"
    },
    {
      "inputs": [],
      "name": "pause",
      "outputs": [],
      "stateMutability": "nonpayable",
      "type": "function"
    },
    {
      "inputs": [],
      "name": "paused",
      "outputs": [
        {
          "internalType": "bool",
          "name": "",
          "type": "bool"
        }
      ],
      "stateMutability": "view",
      "type": "function"
    },
    {
      "inputs": [
        {
          "components": [
            {
              "internalType": "address",
              "name": "userAddress",
              "type": "address"
            },
            {
              "internalType": "address payable",
              "name": "feeReceiver",
              "type": "address"
            },
            {
              "internalType": "uint256",
              "name": "positionId",
              "type": "uint256"
            },
            {
              "internalType": "uint256",
              "name": "estimatedGasFee",
              "type": "uint256"
            },
            {
              "internalType": "bool",
              "name": "isForced",
              "type": "bool"
            }
          ],
          "internalType": "struct IIdleLiquidityModule.RebalanceInput",
          "name": "input",
          "type": "tuple"
        }
      ],
      "name": "rebalance",
      "outputs": [],
      "stateMutability": "nonpayable",
      "type": "function"
    },
    {
      "inputs": [
        {
          "components": [
            {
              "internalType": "address",
              "name": "userAddress",
              "type": "address"
            },
            {
              "internalType": "address payable",
              "name": "feeReceiver",
              "type": "address"
            },
            {
              "internalType": "uint256",
              "name": "positionId",
              "type": "uint256"
            },
            {
              "internalType": "uint256",
              "name": "estimatedGasFee",
              "type": "uint256"
            },
            {
              "internalType": "int24",
              "name": "tickLowerDiff",
              "type": "int24"
            },
            {
              "internalType": "int24",
              "name": "tickUpperDiff",
              "type": "int24"
            },
            {
              "internalType": "bool",
              "name": "isForced",
              "type": "bool"
            }
          ],
          "internalType": "struct IIdleLiquidityModule.RebalanceWithTickDiffsInput",
          "name": "input",
          "type": "tuple"
        }
      ],
      "name": "rebalanceWithTickDiffs",
      "outputs": [],
      "stateMutability": "nonpayable",
      "type": "function"
    },
    {
      "inputs": [],
      "name": "registry",
      "outputs": [
        {
          "internalType": "contract IRegistry",
          "name": "",
          "type": "address"
        }
      ],
      "stateMutability": "view",
      "type": "function"
    },
    {
      "inputs": [],
      "name": "uniswapAddressHolder",
      "outputs": [
        {
          "internalType": "contract IUniswapAddressHolder",
          "name": "",
          "type": "address"
        }
      ],
      "stateMutability": "view",
      "type": "function"
    },
    {
      "inputs": [],
      "name": "unpause",
      "outputs": [],
      "stateMutability": "nonpayable",
      "type": "function"
    }
  ],
  "transactionHash": "0x7c9f4c7a6e63b16ef1f066850eb277f076a3a97521dd329246cf9364d50c8a12",
  "args": [
    "0x2833242BAC2E2a196d240ADe39ff6D2b912D9edb",
    "0x99c4bEa3DbC7C2670B0D781946071cAC215aC86D"
  ],
  "numDeployments": 2,
  "solcInputHash": "d6decf1baad82ada54f9f25242ad304c",
  "bytecode": "0x60c06040523480156200001157600080fd5b5060405162002bbb38038062002bbb833981016040819052620000349162000107565b6000805460ff19169055816001600160a01b038116620000715760405162461bcd60e51b815260040162000068906200015d565b60405180910390fd5b60601b6001600160601b0319166080526001600160a01b038116620000aa5760405162461bcd60e51b815260040162000068906200013e565b6001600160a01b038216620000d35760405162461bcd60e51b815260040162000068906200013e565b60601b6001600160601b03191660a052506200017b565b80516001600160a01b03811681146200010257600080fd5b919050565b600080604083850312156200011a578182fd5b6200012583620000ea565b91506200013560208401620000ea565b90509250929050565b6020808252600590820152640494c4341360dc1b604082015260600190565b6020808252600490820152630424d52360e41b604082015260600190565b60805160601c60a05160601c6129d5620001e6600039806109e65280610e585280610ef6528061108352806110eb52806111d75280611519528061157f5250806101d2528061028052806106e552806107b952806107dd5280610a6c5280610b1152506129d56000f3fe60806040526004361061007b5760003560e01c80638456cb591161004e5780638456cb5914610104578063ac9650d814610119578063c0f06ca414610139578063ef904f111461014e5761007b565b806331c14cd9146100805780633f4ba83a146100a25780635c975abb146100b75780637b103999146100e2575b600080fd5b34801561008c57600080fd5b506100a061009b3660046122e2565b61016e565b005b3480156100ae57600080fd5b506100a06106e3565b3480156100c357600080fd5b506100cc6107ae565b6040516100d99190612627565b60405180910390f35b3480156100ee57600080fd5b506100f76107b7565b6040516100d9919061258b565b34801561011057600080fd5b506100a06107db565b61012c610127366004612093565b6108a4565b6040516100d991906125c7565b34801561014557600080fd5b506100f76109e4565b34801561015a57600080fd5b506100a06101693660046122cb565b610a08565b6101766107ae565b156101bb576040805162461bcd60e51b815260206004820152601060248201526f14185d5cd8589b194e881c185d5cd95960821b604482015290519081900360640190fd5b60405163edbe943760e01b81526001600160a01b037f0000000000000000000000000000000000000000000000000000000000000000169063edbe94379061020790339060040161258b565b60206040518083038186803b15801561021f57600080fd5b505afa158015610233573d6000803e3d6000fd5b505050506040513d601f19601f82011682018060405250810190610257919061211e565b61027c5760405162461bcd60e51b815260040161027390612645565b60405180910390fd5b60007f00000000000000000000000000000000000000000000000000000000000000006001600160a01b0316632d2c5b586040518163ffffffff1660e01b815260040160206040518083038186803b1580156102d757600080fd5b505afa1580156102eb573d6000803e3d6000fd5b505050506040513d601f19601f8201168201806040525081019061030f9190612077565b6001600160a01b031663c81e0f9161032a602085018561205b565b6040518263ffffffff1660e01b8152600401610346919061258b565b60206040518083038186803b15801561035e57600080fd5b505afa158015610372573d6000803e3d6000fd5b505050506040513d601f19601f820116820180604052508101906103969190612077565b90506001600160a01b0381166103be5760405162461bcd60e51b8152600401610273906126bd565b6000816001600160a01b031663519f509984604001356040518263ffffffff1660e01b81526004016103f09190612852565b6101c06040518083038186803b15801561040957600080fd5b505afa15801561041d573d6000803e3d6000fd5b505050506040513d601f19601f8201168201806040525081019061044191906121fc565b905061046d61045660a085016080860161213a565b61046660c0860160a0870161213a565b8351610e50565b805161047890611075565b60006104e16040518060a00160405280856001600160a01b031681526020018660200160208101906104aa919061205b565b6001600160a01b03168152845160208201526060808801356040830152016104d860e0880160c08901612102565b151590526111c2565b90506000816040015111806104fa575060008160600151115b6105165760405162461bcd60e51b8152600401610273906126dc565b60006105c76040518060c00160405280866001600160a01b03168152602001856000015181526020016105688660c00151610562876000015188604001516114a190919063ffffffff16565b906114a1565b81526020016105908660e00151610562876020015188606001516114a190919063ffffffff16565b81526020016105a560a0890160808a0161213a565b60020b81526020016105bd60c0890160a08a0161213a565b60020b9052611502565b80519091506001600160a01b0385169063abf0f8a1906040880135906105f360a08a0160808b0161213a565b61060360c08b0160a08c0161213a565b875160808a0151610613916114a1565b602089015160a08b0151610626916114a1565b886020015189604001516040518963ffffffff1660e01b815260040161065398979695949392919061286b565b600060405180830381600087803b15801561066d57600080fd5b505af1158015610681573d6000803e3d6000fd5b50508451835185516020870151604080516001600160a01b038c1697507f4410d8c106d609fac3c0247b20efec516a16df7ed4a4bd1a38ee49fe11fb923096506106d495918d01359491939192906128a7565b60405180910390a25050505050565b7f00000000000000000000000000000000000000000000000000000000000000006001600160a01b0316635aa6e6756040518163ffffffff1660e01b815260040160206040518083038186803b15801561073c57600080fd5b505afa158015610750573d6000803e3d6000fd5b505050506040513d601f19601f820116820180604052508101906107749190612077565b6001600160a01b0316336001600160a01b0316146107a45760405162461bcd60e51b815260040161027390612681565b6107ac61186c565b565b60005460ff1690565b7f000000000000000000000000000000000000000000000000000000000000000081565b7f00000000000000000000000000000000000000000000000000000000000000006001600160a01b0316635aa6e6756040518163ffffffff1660e01b815260040160206040518083038186803b15801561083457600080fd5b505afa158015610848573d6000803e3d6000fd5b505050506040513d601f19601f8201168201806040525081019061086c9190612077565b6001600160a01b0316336001600160a01b03161461089c5760405162461bcd60e51b815260040161027390612681565b6107ac61190c565b60608167ffffffffffffffff811180156108bd57600080fd5b506040519080825280602002602001820160405280156108f157816020015b60608152602001906001900390816108dc5790505b50905060005b828110156109dd576000803086868581811061090f57fe5b905060200281019061092191906128ca565b60405161092f92919061257b565b600060405180830381855af49150503d806000811461096a576040519150601f19603f3d011682016040523d82523d6000602084013e61096f565b606091505b5091509150816109bb5760448151101561098857600080fd5b600481019050808060200190518101906109a29190612172565b60405162461bcd60e51b81526004016102739190612632565b808484815181106109c857fe5b602090810291909101015250506001016108f7565b5092915050565b7f000000000000000000000000000000000000000000000000000000000000000081565b610a106107ae565b15610a55576040805162461bcd60e51b815260206004820152601060248201526f14185d5cd8589b194e881c185d5cd95960821b604482015290519081900360640190fd5b60405163edbe943760e01b81526001600160a01b037f0000000000000000000000000000000000000000000000000000000000000000169063edbe943790610aa190339060040161258b565b60206040518083038186803b158015610ab957600080fd5b505afa158015610acd573d6000803e3d6000fd5b505050506040513d601f19601f82011682018060405250810190610af1919061211e565b610b0d5760405162461bcd60e51b815260040161027390612645565b60007f00000000000000000000000000000000000000000000000000000000000000006001600160a01b0316632d2c5b586040518163ffffffff1660e01b815260040160206040518083038186803b158015610b6857600080fd5b505afa158015610b7c573d6000803e3d6000fd5b505050506040513d601f19601f82011682018060405250810190610ba09190612077565b6001600160a01b031663c81e0f91610bbb602085018561205b565b6040518263ffffffff1660e01b8152600401610bd7919061258b565b60206040518083038186803b158015610bef57600080fd5b505afa158015610c03573d6000803e3d6000fd5b505050506040513d601f19601f82011682018060405250810190610c279190612077565b90506001600160a01b038116610c4f5760405162461bcd60e51b8152600401610273906126bd565b6000816001600160a01b031663519f509984604001356040518263ffffffff1660e01b8152600401610c819190612852565b6101c06040518083038186803b158015610c9a57600080fd5b505afa158015610cae573d6000803e3d6000fd5b505050506040513d601f19601f82011682018060405250810190610cd291906121fc565b9050610ce18160000151611075565b6000610d416040518060a00160405280856001600160a01b03168152602001866020016020810190610d13919061205b565b6001600160a01b03168152845160208201526060808801356040830152016104d860a0880160808901612102565b9050600081604001511180610d5a575060008160600151115b610d765760405162461bcd60e51b8152600401610273906126dc565b6000610e0e6040518060c00160405280866001600160a01b0316815260200185600001518152602001610dc28660c00151610562876000015188604001516114a190919063ffffffff16565b8152602001610dea8660e00151610562876020015188606001516114a190919063ffffffff16565b815260200185610100015160020b815260200185610120015160020b815250611502565b9050836001600160a01b031663abf0f8a18660400135836000015186610100015187610120015161061388600001518a608001516114a190919063ffffffff16565b6000610eec827f00000000000000000000000000000000000000000000000000000000000000006001600160a01b0316635bfccac96040518163ffffffff1660e01b815260040160206040518083038186803b158015610eaf57600080fd5b505afa158015610ec3573d6000803e3d6000fd5b505050506040513d601f19601f82011682018060405250810190610ee79190612077565b61198f565b50509250505060007f00000000000000000000000000000000000000000000000000000000000000006001600160a01b03166380f5db8c6040518163ffffffff1660e01b815260040160206040518083038186803b158015610f4d57600080fd5b505afa158015610f61573d6000803e3d6000fd5b505050506040513d601f19601f82011682018060405250810190610f859190612077565b6001600160a01b03166322afcccb836040518263ffffffff1660e01b8152600401610fb09190612842565b60206040518083038186803b158015610fc857600080fd5b505afa158015610fdc573d6000803e3d6000fd5b505050506040513d601f19601f820116820180604052508101906110009190612156565b905060008560020b1315801561101a575060008460020b12155b801561103657508060020b8560020b8161103057fe5b0760020b155b801561105257508060020b8460020b8161104c57fe5b0760020b155b61106e5760405162461bcd60e51b815260040161027390612663565b5050505050565b60008060008060006110da867f00000000000000000000000000000000000000000000000000000000000000006001600160a01b0316635bfccac96040518163ffffffff1660e01b815260040160206040518083038186803b158015610eaf57600080fd5b9450945094509450945060006111827f00000000000000000000000000000000000000000000000000000000000000006001600160a01b03166380f5db8c6040518163ffffffff1660e01b815260040160206040518083038186803b15801561114257600080fd5b505afa158015611156573d6000803e3d6000fd5b505050506040513d601f19601f8201168201806040525081019061117a9190612077565b878787611a58565b90508260020b8160020b128061119d57508160020b8160020b135b6111b95760405162461bcd60e51b8152600401610273906126fa565b50505050505050565b6111ca611f91565b60008061122e84604001517f00000000000000000000000000000000000000000000000000000000000000006001600160a01b0316635bfccac96040518163ffffffff1660e01b815260040160206040518083038186803b158015610eaf57600080fd5b50508651604080890151905163e4a60d4560e01b81529496509294506001600160a01b03169263e4a60d459261126b92509060009060040161285b565b608060405180830381600087803b15801561128557600080fd5b505af1158015611299573d6000803e3d6000fd5b505050506040513d601f19601f820116820180604052508101906112bd919061242e565b606080880191909152604087019190915260208601919091529084528401511561149a57600084600001516001600160a01b031663e64b8bb06040518060c00160405280866001600160a01b03168152602001856001600160a01b03168152602001886080015161132f57875161133f565b6040880151885161133f916114a1565b8152602001886080015161135757876020015161136a565b6060880151602089015161136a916114a1565b81526020018860600151815260200188602001516001600160a01b03168152506040518263ffffffff1660e01b81526004016113a69190612790565b606060405180830381600087803b1580156113c057600080fd5b505af11580156113d4573d6000803e3d6000fd5b505050506040513d601f19601f820116820180604052508101906113f891906122f3565b84518151919250101561142f57600080855281516114259161141a9190611b85565b604086015190611b85565b604085015261143f565b8051845161143c91611b85565b84525b83602001518160200151111561147f57600060208086018290528201516114759161146a9190611b85565b606086015190611b85565b6060850152611498565b6020808201519085015161149291611b85565b60208501525b505b5050919050565b6000828201838110156114fb576040805162461bcd60e51b815260206004820152601b60248201527f536166654d6174683a206164646974696f6e206f766572666c6f770000000000604482015290519081900360640190fd5b9392505050565b61150a611fb9565b600080600061157085602001517f00000000000000000000000000000000000000000000000000000000000000006001600160a01b0316635bfccac96040518163ffffffff1660e01b815260040160206040518083038186803b158015610eaf57600080fd5b505092509250925060006116167f00000000000000000000000000000000000000000000000000000000000000006001600160a01b03166380f5db8c6040518163ffffffff1660e01b815260040160206040518083038186803b1580156115d657600080fd5b505afa1580156115ea573d6000803e3d6000fd5b505050506040513d601f19601f8201168201806040525081019061160e9190612077565b858585611be2565b905060008060008089600001516001600160a01b031663a1ef2dbb6040518060e001604052808b6001600160a01b031681526020018a6001600160a01b031681526020018962ffffff1681526020018d6040015181526020018d6060015181526020016116938e608001518a60020b611c0390919063ffffffff16565b60020b81526020016116b58e60a001518a60020b611c0390919063ffffffff16565b60020b8152506040518263ffffffff1660e01b81526004016116d791906127dd565b6040805180830381600087803b1580156116f057600080fd5b505af1158015611704573d6000803e3d6000fd5b505050506040513d601f19601f8201168201806040525081019061172891906123de565b9150915089600001516001600160a01b0316631c29efb86040518061010001604052808b6001600160a01b031681526020018a6001600160a01b031681526020018962ffffff16815260200161178e8e608001518a60020b611c0390919063ffffffff16565b60020b81526020016117b08e60a001518a60020b611c0390919063ffffffff16565b60020b8152602001858152602001848152602001600015158152506040518263ffffffff1660e01b81526004016117e79190612719565b606060405180830381600087803b15801561180157600080fd5b505af1158015611815573d6000803e3d6000fd5b505050506040513d601f19601f820116820180604052508101906118399190612401565b918b529450925061184a8285611b85565b60208a01526118598184611b85565b60408a0152509698975050505050505050565b6118746107ae565b6118bc576040805162461bcd60e51b815260206004820152601460248201527314185d5cd8589b194e881b9bdd081c185d5cd95960621b604482015290519081900360640190fd5b6000805460ff191690557f5db9ee0a495bf2e6ff9c91a7834c1ba4fdd244a5e8aa4e537bd38aeae4b073aa6118ef611c77565b604080516001600160a01b039092168252519081900360200190a1565b6119146107ae565b15611959576040805162461bcd60e51b815260206004820152601060248201526f14185d5cd8589b194e881c185d5cd95960821b604482015290519081900360640190fd5b6000805460ff191660011790557f62e78cea01bee320cd4e420270b5ea74000d11b0c9f74754ebdbfc544b05a2586118ef611c77565b6000806000806000856001600160a01b03166399fbab88886040518263ffffffff1660e01b81526004016119c39190612852565b6101806040518083038186803b1580156119dc57600080fd5b505afa1580156119f0573d6000803e3d6000fd5b505050506040513d601f19601f82011682018060405250810190611a149190612463565b909192939495969798999a50909192939495969798995090919293509091925090915090505080955081965082975083985084995050505050509295509295909350565b600080856001600160a01b0316631698ee828686866040518463ffffffff1660e01b8152600401611a8b9392919061259f565b60206040518083038186803b158015611aa357600080fd5b505afa158015611ab7573d6000803e3d6000fd5b505050506040513d601f19601f82011682018060405250810190611adb9190612077565b90506001600160a01b038116611b035760405162461bcd60e51b81526004016102739061269f565b806001600160a01b0316633850c7bd6040518163ffffffff1660e01b815260040160e06040518083038186803b158015611b3c57600080fd5b505afa158015611b50573d6000803e3d6000fd5b505050506040513d601f19601f82011682018060405250810190611b749190612348565b50939b9a5050505050505050505050565b600082821115611bdc576040805162461bcd60e51b815260206004820152601e60248201527f536166654d6174683a207375627472616374696f6e206f766572666c6f770000604482015290519081900360640190fd5b50900390565b6000611bfa85611bf487878787611a58565b84611c7b565b95945050505050565b6000828201600283900b8213801590611c2257508360020b8160020b12155b80611c40575060008360020b128015611c4057508360020b8160020b125b6114fb576040805162461bcd60e51b8152602060048201526003602482015262534d3560e81b604482015290519081900360640190fd5b3390565b6040516322afcccb60e01b815282906000906001600160a01b038616906322afcccb90611cac908690600401612842565b60206040518083038186803b158015611cc457600080fd5b505afa158015611cd8573d6000803e3d6000fd5b505050506040513d601f19601f82011682018060405250810190611cfc9190612156565b905060018160020b1315611df75760008460020b1315611d81576000611d26600283810b90611dff565b90506000611d38600287900b84611ead565b90508160020b8160020b12611d6957611d6283611d59600289900b84611f1d565b60020b90611c03565b9350611d7a565b611d77600287900b82611f1d565b93505b5050611df7565b60008460020b1215611df7576000611d9d600283810b90611dff565b60009081039150611db2600287900b84611ead565b90508160020b8160020b13611de357611ddc83611dd3600289900b84611f1d565b60020b90611f1d565b9350611df4565b611df1600287900b82611f1d565b93505b50505b509392505050565b60008160020b60001415611e40576040805162461bcd60e51b815260206004820152600360248201526229a69960e91b604482015290519081900360640190fd5b8160020b600019148015611e5b5750600283900b627fffff19145b15611e93576040805162461bcd60e51b8152602060048201526003602482015262534d3360e81b604482015290519081900360640190fd5b60008260020b8460020b81611ea457fe5b05949350505050565b6000808260020b13611f06576040805162461bcd60e51b815260206004820152601860248201527f536166654d6174683a206d6f64756c6f206279207a65726f0000000000000000604482015290519081900360640190fd5b8160020b8360020b81611f1557fe5b079392505050565b6000818303600283900b8213801590611f3c57508360020b8160020b13155b80611f5a575060008360020b128015611f5a57508360020b8160020b135b6114fb576040805162461bcd60e51b815260206004820152600360248201526214d34d60ea1b604482015290519081900360640190fd5b6040518060800160405280600081526020016000815260200160008152602001600081525090565b60405180606001604052806000815260200160008152602001600081525090565b8051611fe58161296a565b919050565b80516fffffffffffffffffffffffffffffffff1981168114611fe557600080fd5b8051611fe581612990565b80516fffffffffffffffffffffffffffffffff81168114611fe557600080fd5b805161ffff81168114611fe557600080fd5b805162ffffff81168114611fe557600080fd5b60006020828403121561206c578081fd5b81356114fb8161296a565b600060208284031215612088578081fd5b81516114fb8161296a565b600080602083850312156120a5578081fd5b823567ffffffffffffffff808211156120bc578283fd5b818501915085601f8301126120cf578283fd5b8135818111156120dd578384fd5b86602080830285010111156120f0578384fd5b60209290920196919550909350505050565b600060208284031215612113578081fd5b81356114fb81612982565b60006020828403121561212f578081fd5b81516114fb81612982565b60006020828403121561214b578081fd5b81356114fb81612990565b600060208284031215612167578081fd5b81516114fb81612990565b600060208284031215612183578081fd5b815167ffffffffffffffff8082111561219a578283fd5b818401915084601f8301126121ad578283fd5b8151818111156121b957fe5b6121cc601f8201601f1916602001612916565b91508082528560208285010111156121e2578384fd5b6121f381602084016020860161293a565b50949350505050565b60006101c080838503121561220f578182fd5b61221881612916565b90508251815261222a60208401611fda565b602082015261223b60408401611fea565b6040820152606083015160608201526080830151608082015260a083015160a082015260c083015160c082015260e083015160e082015261010061228081850161200b565b9082015261012061229284820161200b565b908201526101408381015190820152610160808401519082015261018080840151908201526101a0928301519281019290925250919050565b600060a082840312156122dc578081fd5b50919050565b600060e082840312156122dc578081fd5b600060608284031215612304578081fd5b6040516060810181811067ffffffffffffffff8211171561232157fe5b80604052508251815260208301516020820152604083015160408201528091505092915050565b600080600080600080600060e0888a031215612362578283fd5b875161236d8161296a565b602089015190975061237e81612990565b955061238c60408901612036565b945061239a60608901612036565b93506123a860808901612036565b925060a088015160ff811681146123bd578283fd5b60c08901519092506123ce81612982565b8091505092959891949750929550565b600080604083850312156123f0578182fd5b505080516020909101519092909150565b600080600060608486031215612415578081fd5b8351925060208401519150604084015190509250925092565b60008060008060808587031215612443578182fd5b505082516020840151604085015160609095015191969095509092509050565b6000806000806000806000806000806000806101808d8f031215612485578586fd5b8c516bffffffffffffffffffffffff811681146124a0578687fd5b9b506124ae60208e01611fda565b9a506124bc60408e01611fda565b99506124ca60608e01611fda565b98506124d860808e01612048565b97506124e660a08e0161200b565b96506124f460c08e0161200b565b955061250260e08e01612016565b94506101008d015193506101208d015192506125216101408e01612016565b91506125306101608e01612016565b90509295989b509295989b509295989b565b15159052565b6000815180845261256081602086016020860161293a565b601f01601f19169290920160200192915050565b60020b9052565b6000828483379101908152919050565b6001600160a01b0391909116815260200190565b6001600160a01b03938416815291909216602082015262ffffff909116604082015260600190565b6000602080830181845280855180835260408601915060408482028701019250838701855b8281101561261a57603f19888603018452612608858351612548565b945092850192908501906001016125ec565b5092979650505050505050565b901515815260200190565b6000602082526114fb6020830184612548565b6020808252600490820152634f574c4b60e01b604082015260600190565b6020808252600490820152631253151160e21b604082015260600190565b602080825260049082015263424d4f4760e01b604082015260600190565b6020808252600490820152630554850360e41b604082015260600190565b6020808252600590820152640494c504d360dc1b604082015260600190565b60208082526004908201526324a620a960e11b604082015260600190565b60208082526005908201526424a627a7a960d91b604082015260600190565b81516001600160a01b0390811682526020808401519091169082015260408083015162ffffff169082015260608083015160020b9082015260808083015161010083019161276990840182612574565b5060a083015160a083015260c083015160c083015260e08301516109dd60e0840182612542565b81516001600160a01b03908116825260208084015182169083015260408084015190830152606080840151908301526080808401519083015260a092830151169181019190915260c00190565b600060e08201905060018060a01b038084511683528060208501511660208401525062ffffff6040840151166040830152606083015160608301526080830151608083015260a083015160020b60a083015260c083015160020b60c083015292915050565b62ffffff91909116815260200190565b90815260200190565b9182521515602082015260400190565b9788526020880196909652600294850b60408801529290930b6060860152608085015260a084019190915260c083015260e08201526101000190565b948552602085019390935260408401919091526060830152608082015260a00190565b6000808335601e198436030181126128e0578283fd5b83018035915067ffffffffffffffff8211156128fa578283fd5b60200191503681900382131561290f57600080fd5b9250929050565b60405181810167ffffffffffffffff8111828210171561293257fe5b604052919050565b60005b8381101561295557818101518382015260200161293d565b83811115612964576000848401525b50505050565b6001600160a01b038116811461297f57600080fd5b50565b801515811461297f57600080fd5b8060020b811461297f57600080fdfea2646970667358221220c1025701b5e79c1bcd5d9d3e2074ccb5b5e8e73101bb723a1453b6ae48e24b2a64736f6c63430007060033",
  "devdoc": {
    "kind": "dev",
    "methods": {
      "constructor": {
        "params": {
          "_registry": "address of the registry",
          "_uniswapAddressHolder": "address of the uniswap address holder"
        }
      },
      "multicall(bytes[])": {
        "details": "The `msg.value` should not be trusted for any method callable from multicall.",
        "params": {
          "data": "The encoded function data for each of the calls to make to this contract"
        },
        "returns": {
          "results": "The results from each of the calls passed in via data"
        }
      },
      "paused()": {
        "details": "Returns true if the contract is paused, and false otherwise."
      },
      "rebalance((address,address,uint256,uint256,bool))": {
        "params": {
          "input": "RebalanceInput struct"
        }
      },
      "rebalanceWithTickDiffs((address,address,uint256,uint256,int24,int24,bool))": {
        "params": {
          "input": "RebalanceWithTickDiffsInput struct"
        }
      }
    },
    "title": "Idle Liquidity Module to manage liquidity for a user position",
    "version": 1
  },
  "userdoc": {
    "events": {
      "positionRebalanced(address,uint256,uint256,uint256,uint256,uint256)": {
        "notice": "emitted when a position is rebalanced"
      }
    },
    "kind": "user",
    "methods": {
      "constructor": {
        "notice": "assing the uniswap address holder to the contract"
      },
      "multicall(bytes[])": {
        "notice": "Call multiple functions in the current contract and return the data from all of them if they all succeed"
      },
      "rebalance((address,address,uint256,uint256,bool))": {
        "notice": "check if the position is out of range and rebalance it by swapping the tokens as necessary"
      },
      "rebalanceWithTickDiffs((address,address,uint256,uint256,int24,int24,bool))": {
        "notice": "check if the position is out of range and rebalance it by swapping the tokens as necessary and customize lower & upper tick diff"
      },
      "uniswapAddressHolder()": {
        "notice": "uniswap address holder"
      }
    },
    "version": 1
  },
  "storageLayout": {
    "storage": [
      {
        "astId": 1782,
        "contract": "contracts/modules/IdleLiquidityModule.sol:IdleLiquidityModule",
        "label": "_paused",
        "offset": 0,
        "slot": "0",
        "type": "t_bool"
      }
    ],
    "types": {
      "t_bool": {
        "encoding": "inplace",
        "label": "bool",
        "numberOfBytes": "1"
      }
    }
  }
}