{
  "address": "0xf8a63999B07029933161CD2DE38574E29a853Eeb",
  "abi": [
    {
      "inputs": [
        {
          "internalType": "address",
          "name": "_registry",
          "type": "address"
        },
        {
          "internalType": "address",
          "name": "_uniswapAddressHolder",
          "type": "address"
        }
      ],
      "stateMutability": "nonpayable",
      "type": "constructor"
    },
    {
      "anonymous": false,
      "inputs": [
        {
          "indexed": true,
          "internalType": "address",
          "name": "positionManager",
          "type": "address"
        },
        {
          "indexed": false,
          "internalType": "uint256",
          "name": "closedTokenId",
          "type": "uint256"
        },
        {
          "indexed": false,
          "internalType": "uint256",
          "name": "mintedTokenId",
          "type": "uint256"
        },
        {
          "indexed": false,
          "internalType": "uint256",
          "name": "collectedFee0",
          "type": "uint256"
        },
        {
          "indexed": false,
          "internalType": "uint256",
          "name": "collectedFee1",
          "type": "uint256"
        }
      ],
      "name": "positionRebalanced",
      "type": "event"
    },
    {
      "inputs": [
        {
          "components": [
            {
              "internalType": "address",
              "name": "userAddress",
              "type": "address"
            },
            {
              "internalType": "uint256",
              "name": "positionId",
              "type": "uint256"
            },
            {
              "internalType": "uint256",
              "name": "estimatedGasFee",
              "type": "uint256"
            },
            {
              "internalType": "bool",
              "name": "isForced",
              "type": "bool"
            }
          ],
          "internalType": "struct IIdleLiquidityModule.RebalanceInput",
          "name": "input",
          "type": "tuple"
        }
      ],
      "name": "rebalance",
      "outputs": [],
      "stateMutability": "nonpayable",
      "type": "function"
    },
    {
      "inputs": [
        {
          "components": [
            {
              "internalType": "address",
              "name": "userAddress",
              "type": "address"
            },
            {
              "internalType": "uint256",
              "name": "positionId",
              "type": "uint256"
            },
            {
              "internalType": "uint256",
              "name": "estimatedGasFee",
              "type": "uint256"
            },
            {
              "internalType": "int24",
              "name": "tickLowerDiff",
              "type": "int24"
            },
            {
              "internalType": "int24",
              "name": "tickUpperDiff",
              "type": "int24"
            },
            {
              "internalType": "bool",
              "name": "isForced",
              "type": "bool"
            }
          ],
          "internalType": "struct IIdleLiquidityModule.RebalanceWithTickDiffsInput",
          "name": "input",
          "type": "tuple"
        }
      ],
      "name": "rebalanceWithTickDiffs",
      "outputs": [],
      "stateMutability": "nonpayable",
      "type": "function"
    },
    {
      "inputs": [],
      "name": "registry",
      "outputs": [
        {
          "internalType": "contract IRegistry",
          "name": "",
          "type": "address"
        }
      ],
      "stateMutability": "view",
      "type": "function"
    },
    {
      "inputs": [],
      "name": "uniswapAddressHolder",
      "outputs": [
        {
          "internalType": "contract IUniswapAddressHolder",
          "name": "",
          "type": "address"
        }
      ],
      "stateMutability": "view",
      "type": "function"
    }
  ],
  "transactionHash": "0x448fd32fc2f0d555da89d90cadcf1f035c262178839a2acfe6d3765038cf9d94",
  "args": [
    "0xB33A5c53d7039C2fb8eE49be83070115E2ee50Fb",
    "0xf44Fad0121c698882CA90C2673b22F391FBE872f"
  ],
  "numDeployments": 1,
  "solcInputHash": "08f28bc02234e5e762609eefb667e33a",
  "bytecode": "0x60c06040523480156200001157600080fd5b5060405162001d5838038062001d588339810160408190526200003491620000d5565b6001600160601b0319606083901b166080526001600160a01b038116620000785760405162461bcd60e51b81526004016200006f906200010c565b60405180910390fd5b6001600160a01b038216620000a15760405162461bcd60e51b81526004016200006f906200010c565b60601b6001600160601b03191660a052506200012b565b80516001600160a01b0381168114620000d057600080fd5b919050565b60008060408385031215620000e8578182fd5b620000f383620000b8565b91506200010360208401620000b8565b90509250929050565b6020808252600590820152640494c4341360dc1b604082015260600190565b60805160601c60a05160601c611bdc6200017c60003980610a195280610a495280610b475280610e29528061119352508060b652806101b652806105db528061061452806106b95250611bdc6000f3fe608060405234801561001057600080fd5b506004361061004c5760003560e01c80634d835a22146100515780637b103999146100665780639ad0fdbd14610084578063c0f06ca414610097575b600080fd5b61006461005f3660046116ea565b61009f565b005b61006e6105d9565b60405161007b9190611902565b60405180910390f35b6100646100923660046116d3565b6105fd565b61006e610a17565b60405163edbe943760e01b81526001600160a01b037f0000000000000000000000000000000000000000000000000000000000000000169063edbe9437906100eb903390600401611902565b60206040518083038186803b15801561010357600080fd5b505afa158015610117573d6000803e3d6000fd5b505050506040513d601f19601f8201168201806040525081019061013b91906115cc565b6101605760405162461bcd60e51b815260040161015790611971565b60405180910390fd5b600061017260808301606084016115e8565b60020b131580156101965750600061019060a08301608084016115e8565b60020b12155b6101b25760405162461bcd60e51b815260040161015790611916565b60007f00000000000000000000000000000000000000000000000000000000000000006001600160a01b0316632d2c5b586040518163ffffffff1660e01b815260040160206040518083038186803b15801561020d57600080fd5b505afa158015610221573d6000803e3d6000fd5b505050506040513d601f19601f820116820180604052508101906102459190611594565b6001600160a01b031663c81e0f916102606020850185611578565b6040518263ffffffff1660e01b815260040161027c9190611902565b60206040518083038186803b15801561029457600080fd5b505afa1580156102a8573d6000803e3d6000fd5b505050506040513d601f19601f820116820180604052508101906102cc9190611594565b90506001600160a01b0381166102f45760405162461bcd60e51b815260040161015790611934565b60405163519f509960e01b81526000906001600160a01b0383169063519f50999061032790602087013590600401611add565b6101c06040518083038186803b15801561034057600080fd5b505afa158015610354573d6000803e3d6000fd5b505050506040513d601f19601f820116820180604052508101906103789190611604565b90506103878160000151610a3b565b60008060008060006103dc6040518060800160405280896001600160a01b03168152602001886000015181526020018a6040013581526020018a60a00160208101906103d391906115b0565b15159052610b34565b92975090955092509050811515806103f45750600081115b6104105760405162461bcd60e51b815260040161015790611953565b6000806104b26040518060c001604052808b6001600160a01b031681526020018a60000151815260200161045b8b60c001516104558c8a610db590919063ffffffff16565b90610db5565b815260200161047b8b60e001516104558b89610db590919063ffffffff16565b815260200161049060808e0160608f016115e8565b60020b81526020016104a860a08e0160808f016115e8565b60020b9052610e16565b60808b015192975090935091506104c99088610db5565b608089015260a08801516104dd9087610db5565b8860a0018181525050886001600160a01b031663abf0f8a18b60200135878d606001602081019061050e91906115e8565b8e608001602081019061052191906115e8565b8d608001518e60a0015189896040518963ffffffff1660e01b8152600401610550989796959493929190611af6565b600060405180830381600087803b15801561056a57600080fd5b505af115801561057e573d6000803e3d6000fd5b5050505050505050846001600160a01b03167f0a0b02aefb38f8e1bafae75b9e28dab20c199ab1a1ffd218dd3f0cba214f7b4085600001518386866040516105c99493929190611b32565b60405180910390a2505050505050565b7f000000000000000000000000000000000000000000000000000000000000000081565b60405163edbe943760e01b81526001600160a01b037f0000000000000000000000000000000000000000000000000000000000000000169063edbe943790610649903390600401611902565b60206040518083038186803b15801561066157600080fd5b505afa158015610675573d6000803e3d6000fd5b505050506040513d601f19601f8201168201806040525081019061069991906115cc565b6106b55760405162461bcd60e51b815260040161015790611971565b60007f00000000000000000000000000000000000000000000000000000000000000006001600160a01b0316632d2c5b586040518163ffffffff1660e01b815260040160206040518083038186803b15801561071057600080fd5b505afa158015610724573d6000803e3d6000fd5b505050506040513d601f19601f820116820180604052508101906107489190611594565b6001600160a01b031663c81e0f916107636020850185611578565b6040518263ffffffff1660e01b815260040161077f9190611902565b60206040518083038186803b15801561079757600080fd5b505afa1580156107ab573d6000803e3d6000fd5b505050506040513d601f19601f820116820180604052508101906107cf9190611594565b90506001600160a01b0381166107f75760405162461bcd60e51b815260040161015790611934565b60405163519f509960e01b81526000906001600160a01b0383169063519f50999061082a90602087013590600401611add565b6101c06040518083038186803b15801561084357600080fd5b505afa158015610857573d6000803e3d6000fd5b505050506040513d601f19601f8201168201806040525081019061087b9190611604565b905061088a8160000151610a3b565b60008060008060006108d66040518060800160405280896001600160a01b03168152602001886000015181526020018a6040013581526020018a60600160208101906103d391906115b0565b92975090955092509050811515806108ee5750600081115b61090a5760405162461bcd60e51b815260040161015790611953565b6000806109936040518060c001604052808b6001600160a01b031681526020018a60000151815260200161094f8b60c001516104558c8a610db590919063ffffffff16565b815260200161096f8b60e001516104558b89610db590919063ffffffff16565b81526020018a610100015160020b81526020018a610100015160020b815250610e16565b60808b015192975090935091506109aa9088610db5565b608089015260a08801516109be9087610db5565b8860a0018181525050886001600160a01b031663abf0f8a18b60200135878b61010001518c61012001518d608001518e60a0015189896040518963ffffffff1660e01b8152600401610550989796959493929190611af6565b7f000000000000000000000000000000000000000000000000000000000000000081565b6000806000806000610add867f00000000000000000000000000000000000000000000000000000000000000006001600160a01b0316635bfccac96040518163ffffffff1660e01b815260040160206040518083038186803b158015610aa057600080fd5b505afa158015610ab4573d6000803e3d6000fd5b505050506040513d601f19601f82011682018060405250810190610ad89190611594565b6110c2565b945094509450945094506000610af486868661118b565b90508260020b8160020b1280610b0f57508160020b8160020b135b610b2b5760405162461bcd60e51b81526004016101579061198e565b50505050505050565b600080600080600080610b9e87602001517f00000000000000000000000000000000000000000000000000000000000000006001600160a01b0316635bfccac96040518163ffffffff1660e01b815260040160206040518083038186803b158015610aa057600080fd5b5050895160208b015160405163e4a60d4560e01b81529496509294506001600160a01b03169263e4a60d4592610bdb925090600090600401611ae6565b608060405180830381600087803b158015610bf557600080fd5b505af1158015610c09573d6000803e3d6000fd5b505050506040513d601f19601f82011682018060405250810190610c2d91906117e1565b8096508197508298508399505050505060008088600001516001600160a01b031663e64b8bb06040518060c00160405280876001600160a01b03168152602001866001600160a01b031681526020018c60600151610c8b578b610c95565b610c958c8b610db5565b81526020018c60600151610ca9578a610cb3565b610cb38b8a610db5565b81526020018c604001518152602001336001600160a01b03168152506040518263ffffffff1660e01b8152600401610ceb9190611a2b565b606060405180830381600087803b158015610d0557600080fd5b505af1158015610d19573d6000803e3d6000fd5b505050506040513d601f19601f82011682018060405250810190610d3d91906117b4565b509150915087821115610d695760009750610d62610d5b838a6112ad565b87906112ad565b9550610d76565b610d7388836112ad565b97505b86811115610d9d5760009650610d96610d8f82896112ad565b86906112ad565b9450610daa565b610da787826112ad565b96505b505050509193509193565b600082820183811015610e0f576040805162461bcd60e51b815260206004820152601b60248201527f536166654d6174683a206164646974696f6e206f766572666c6f770000000000604482015290519081900360640190fd5b9392505050565b600080600080600080610e8087602001517f00000000000000000000000000000000000000000000000000000000000000006001600160a01b0316635bfccac96040518163ffffffff1660e01b815260040160206040518083038186803b158015610aa057600080fd5b50509250925092506000806000808a600001516001600160a01b031663a1ef2dbb6040518060e001604052808a6001600160a01b03168152602001896001600160a01b031681526020018862ffffff1681526020018e6040015181526020018e606001518152602001610f058f60800151610efc8d8d8d61118b565b60020b9061130a565b60020b8152602001610f208f60a00151610efc8d8d8d61118b565b60020b8152506040518263ffffffff1660e01b8152600401610f429190611a78565b6040805180830381600087803b158015610f5b57600080fd5b505af1158015610f6f573d6000803e3d6000fd5b505050506040513d601f19601f82011682018060405250810190610f939190611791565b915091508a600001516001600160a01b0316631c29efb86040518061010001604052808a6001600160a01b03168152602001896001600160a01b031681526020018862ffffff168152602001610ff28f60800151610efc8d8d8d61118b565b60020b815260200161100d8f60a00151610efc8d8d8d61118b565b60020b8152602001858152602001848152602001600015158152506040518263ffffffff1660e01b815260040161104491906119ad565b606060405180830381600087803b15801561105e57600080fd5b505af1158015611072573d6000803e3d6000fd5b505050506040513d601f19601f8201168201806040525081019061109691906117b4565b919b50945092506110a782856112ad565b98506110b381846112ad565b999b989a505050505050505050565b6000806000806000856001600160a01b03166399fbab88886040518263ffffffff1660e01b81526004016110f69190611add565b6101806040518083038186803b15801561110f57600080fd5b505afa158015611123573d6000803e3d6000fd5b505050506040513d601f19601f820116820180604052508101906111479190611816565b909192939495969798999a50909192939495969798995090919293509091925090915090505080955081965082975083985084995050505050509295509295909350565b60008061122a7f00000000000000000000000000000000000000000000000000000000000000006001600160a01b03166380f5db8c6040518163ffffffff1660e01b815260040160206040518083038186803b1580156111ea57600080fd5b505afa1580156111fe573d6000803e3d6000fd5b505050506040513d601f19601f820116820180604052508101906112229190611594565b86868661137e565b9050806001600160a01b0316633850c7bd6040518163ffffffff1660e01b815260040160e06040518083038186803b15801561126557600080fd5b505afa158015611279573d6000803e3d6000fd5b505050506040513d601f19601f8201168201806040525081019061129d91906116fb565b50939a9950505050505050505050565b600082821115611304576040805162461bcd60e51b815260206004820152601e60248201527f536166654d6174683a207375627472616374696f6e206f766572666c6f770000604482015290519081900360640190fd5b50900390565b6000828201600283900b821380159061132957508360020b8160020b12155b80611347575060008360020b12801561134757508360020b8160020b125b610e0f576040805162461bcd60e51b8152602060048201526003602482015262534d3560e81b604482015290519081900360640190fd5b60006113948561138f86868661139d565b6113f3565b95945050505050565b6113a56114d7565b826001600160a01b0316846001600160a01b031611156113c3579192915b50604080516060810182526001600160a01b03948516815292909316602083015262ffffff169181019190915290565b600081602001516001600160a01b031682600001516001600160a01b03161061141b57600080fd5b50805160208083015160409384015184516001600160a01b0394851681850152939091168385015262ffffff166060808401919091528351808403820181526080840185528051908301206001600160f81b031960a085015294901b6bffffffffffffffffffffffff191660a183015260b58201939093527fe34f199b19b2b4f47f68442619d555527d244f78a3297ea89325f843f87b8b5460d5808301919091528251808303909101815260f5909101909152805191012090565b604080516060810182526000808252602082018190529181019190915290565b805161150281611b71565b919050565b80516fffffffffffffffffffffffffffffffff198116811461150257600080fd5b805161150281611b97565b80516fffffffffffffffffffffffffffffffff8116811461150257600080fd5b805161ffff8116811461150257600080fd5b805162ffffff8116811461150257600080fd5b600060208284031215611589578081fd5b8135610e0f81611b71565b6000602082840312156115a5578081fd5b8151610e0f81611b71565b6000602082840312156115c1578081fd5b8135610e0f81611b89565b6000602082840312156115dd578081fd5b8151610e0f81611b89565b6000602082840312156115f9578081fd5b8135610e0f81611b97565b60006101c0808385031215611617578182fd5b61162081611b4d565b905082518152611632602084016114f7565b602082015261164360408401611507565b6040820152606083015160608201526080830151608082015260a083015160a082015260c083015160c082015260e083015160e0820152610100611688818501611528565b9082015261012061169a848201611528565b908201526101408381015190820152610160808401519082015261018080840151908201526101a0928301519281019290925250919050565b6000608082840312156116e4578081fd5b50919050565b600060c082840312156116e4578081fd5b600080600080600080600060e0888a031215611715578283fd5b875161172081611b71565b602089015190975061173181611b97565b955061173f60408901611553565b945061174d60608901611553565b935061175b60808901611553565b925060a088015160ff81168114611770578283fd5b60c089015190925061178181611b89565b8091505092959891949750929550565b600080604083850312156117a3578182fd5b505080516020909101519092909150565b6000806000606084860312156117c8578081fd5b8351925060208401519150604084015190509250925092565b600080600080608085870312156117f6578182fd5b505082516020840151604085015160609095015191969095509092509050565b6000806000806000806000806000806000806101808d8f031215611838578586fd5b8c516bffffffffffffffffffffffff81168114611853578687fd5b9b5061186160208e016114f7565b9a5061186f60408e016114f7565b995061187d60608e016114f7565b985061188b60808e01611565565b975061189960a08e01611528565b96506118a760c08e01611528565b95506118b560e08e01611533565b94506101008d015193506101208d015192506118d46101408e01611533565b91506118e36101608e01611533565b90509295989b509295989b509295989b565b15159052565b60020b9052565b6001600160a01b0391909116815260200190565b6020808252600490820152631253151160e21b604082015260600190565b6020808252600590820152640494c504d360dc1b604082015260600190565b60208082526004908201526324a620a960e11b604082015260600190565b60208082526003908201526215d21360ea1b604082015260600190565b60208082526005908201526424a627a7a960d91b604082015260600190565b81516001600160a01b0390811682526020808401519091169082015260408083015162ffffff169082015260608083015160020b908201526080808301516101008301916119fd908401826118fb565b5060a083015160a083015260c083015160c083015260e0830151611a2460e08401826118f5565b5092915050565b81516001600160a01b03908116825260208084015182169083015260408084015190830152606080840151908301526080808401519083015260a092830151169181019190915260c00190565b600060e08201905060018060a01b038084511683528060208501511660208401525062ffffff6040840151166040830152606083015160608301526080830151608083015260a083015160020b60a083015260c083015160020b60c083015292915050565b90815260200190565b9182521515602082015260400190565b9788526020880196909652600294850b60408801529290930b6060860152608085015260a084019190915260c083015260e08201526101000190565b93845260208401929092526040830152606082015260800190565b60405181810167ffffffffffffffff81118282101715611b6957fe5b604052919050565b6001600160a01b0381168114611b8657600080fd5b50565b8015158114611b8657600080fd5b8060020b8114611b8657600080fdfea26469706673582212209804953a82a7d9331316e25dc1f9503cb5838dd2967c88e27473fb0574f568de64736f6c63430007060033",
  "devdoc": {
    "events": {
      "positionRebalanced(address,uint256,uint256,uint256,uint256)": {
        "params": {
          "closedTokenId": "closed tokenId",
          "collectedFee0": "amount of token0 collected",
          "collectedFee1": "amount of token1 collected",
          "mintedTokenId": "minted tokenId",
          "positionManager": "address of the called position manager"
        }
      }
    },
    "kind": "dev",
    "methods": {
      "constructor": {
        "params": {
          "_registry": "address of the registry",
          "_uniswapAddressHolder": "address of the uniswap address holder"
        }
      },
      "rebalance((address,uint256,uint256,bool))": {
        "params": {
          "input": "RebalanceInput struct"
        }
      },
      "rebalanceWithTickDiffs((address,uint256,uint256,int24,int24,bool))": {
        "params": {
          "input": "RebalanceWithTickDiffsInput struct"
        }
      }
    },
    "title": "Idle Liquidity Module to manage liquidity for a user position",
    "version": 1
  },
  "userdoc": {
    "events": {
      "positionRebalanced(address,uint256,uint256,uint256,uint256)": {
        "notice": "emitted when a position is rebalanced"
      }
    },
    "kind": "user",
    "methods": {
      "constructor": {
        "notice": "assing the uniswap address holder to the contract"
      },
      "rebalance((address,uint256,uint256,bool))": {
        "notice": "check if the position is out of range and rebalance it by swapping the tokens as necessary"
      },
      "rebalanceWithTickDiffs((address,uint256,uint256,int24,int24,bool))": {
        "notice": "check if the position is out of range and rebalance it by swapping the tokens as necessary and customize lower & upper tick diff"
      },
      "uniswapAddressHolder()": {
        "notice": "uniswap address holder"
      }
    },
    "version": 1
  },
  "storageLayout": {
    "storage": [],
    "types": null
  }
}