{
  "address": "0xB76729D155D25BD43eE3203cc9394BB191b2ca5f",
  "abi": [
    {
      "anonymous": false,
      "inputs": [
        {
          "indexed": true,
          "internalType": "address",
          "name": "positionManager",
          "type": "address"
        },
        {
          "indexed": false,
          "internalType": "uint256",
          "name": "tokenId",
          "type": "uint256"
        },
        {
          "indexed": false,
          "internalType": "uint256",
          "name": "amount0Increased",
          "type": "uint256"
        },
        {
          "indexed": false,
          "internalType": "uint256",
          "name": "amount1Increased",
          "type": "uint256"
        }
      ],
      "name": "LiquidityIncreased",
      "type": "event"
    },
    {
      "inputs": [
        {
          "components": [
            {
              "internalType": "uint256",
              "name": "tokenId",
              "type": "uint256"
            },
            {
              "internalType": "address",
              "name": "token0Address",
              "type": "address"
            },
            {
              "internalType": "address",
              "name": "token1Address",
              "type": "address"
            },
            {
              "internalType": "uint256",
              "name": "amount0Desired",
              "type": "uint256"
            },
            {
              "internalType": "uint256",
              "name": "amount1Desired",
              "type": "uint256"
            }
          ],
          "internalType": "struct IIncreaseLiquidity.IncreaseLiquidityInput",
          "name": "inputs",
          "type": "tuple"
        }
      ],
      "name": "increaseLiquidity",
      "outputs": [
        {
          "internalType": "uint256",
          "name": "amount0Increased",
          "type": "uint256"
        },
        {
          "internalType": "uint256",
          "name": "amount1Increased",
          "type": "uint256"
        }
      ],
      "stateMutability": "nonpayable",
      "type": "function"
    }
  ],
  "transactionHash": "0x3ed9bac24a796d1ab1e797a5d10dfb17502becf8b87e45b24b9a0a19633cdae2",
  "args": [],
  "numDeployments": 1,
  "solcInputHash": "08f28bc02234e5e762609eefb667e33a",
  "bytecode": "0x608060405234801561001057600080fd5b50610a1d806100206000396000f3fe608060405234801561001057600080fd5b506004361061002b5760003560e01c8063b8ab462814610030575b600080fd5b61004361003e366004610884565b61005a565b60405161005192919061095b565b60405180910390f35b60008060006100676102b7565b905060008160030160009054906101000a90046001600160a01b03166001600160a01b0316635bfccac96040518163ffffffff1660e01b815260040160206040518083038186803b1580156100bb57600080fd5b505afa1580156100cf573d6000803e3d6000fd5b505050506040513d601f19601f820116820180604052508101906100f39190610868565b9050610113610108604087016020880161084c565b8287606001356102db565b610131610126606087016040880161084c565b8287608001356102db565b6040805160c0810182528635815260608088013560208301526080808901358385015260009183018290528201524260a0820152905163219f5d1760e01b81526001600160a01b0383169063219f5d1790610190908490600401610917565b606060405180830381600087803b1580156101aa57600080fd5b505af11580156101be573d6000803e3d6000fd5b505050506040513d601f19601f820116820180604052508101906101e2919061089b565b9096509450600090506101f9606088013587610388565b9050600061020b608089013587610388565b90508115610246576004850154610246906001600160a01b03168361023660408c0160208d0161084c565b6001600160a01b031691906103e5565b801561026f57600485015461026f906001600160a01b03168261023660608c0160408d0161084c565b60405130907e8bba597c3ae214d9d008d818cf3fc689aee3c54ee9b2475e6f5a7c133a826f906102a5908b35908b908b90610969565b60405180910390a25050505050915091565b7fd5aa5c52d76b5d2be1bece4b96c91e533fe2611adb0c19cf868dadf921fc13b890565b604051636eb1769f60e11b81526000906001600160a01b0385169063dd62ed3e9061030c90309087906004016108fd565b60206040518083038186803b15801561032457600080fd5b505afa158015610338573d6000803e3d6000fd5b505050506040513d601f19601f8201168201806040525081019061035c91906108e5565b905081811061036b5750610383565b6103816001600160a01b03851684838503610437565b505b505050565b6000828211156103df576040805162461bcd60e51b815260206004820152601e60248201527f536166654d6174683a207375627472616374696f6e206f766572666c6f770000604482015290519081900360640190fd5b50900390565b604080516001600160a01b038416602482015260448082018490528251808303909101815260649091019091526020810180516001600160e01b031663a9059cbb60e01b17905261038390849061051e565b60006104cd82856001600160a01b031663dd62ed3e30876040518363ffffffff1660e01b815260040180836001600160a01b03168152602001826001600160a01b031681526020019250505060206040518083038186803b15801561049b57600080fd5b505afa1580156104af573d6000803e3d6000fd5b505050506040513d60208110156104c557600080fd5b5051906105cf565b604080516001600160a01b038616602482015260448082018490528251808303909101815260649091019091526020810180516001600160e01b031663095ea7b360e01b1790529091506103819085905b6000610573826040518060400160405280602081526020017f5361666545524332303a206c6f772d6c6576656c2063616c6c206661696c6564815250856001600160a01b03166106309092919063ffffffff16565b8051909150156103835780806020019051602081101561059257600080fd5b50516103835760405162461bcd60e51b815260040180806020018281038252602a8152602001806109be602a913960400191505060405180910390fd5b600082820183811015610629576040805162461bcd60e51b815260206004820152601b60248201527f536166654d6174683a206164646974696f6e206f766572666c6f770000000000604482015290519081900360640190fd5b9392505050565b606061063f8484600085610647565b949350505050565b6060824710156106885760405162461bcd60e51b81526004018080602001828103825260268152602001806109986026913960400191505060405180910390fd5b610691856107a2565b6106e2576040805162461bcd60e51b815260206004820152601d60248201527f416464726573733a2063616c6c20746f206e6f6e2d636f6e7472616374000000604482015290519081900360640190fd5b600080866001600160a01b031685876040518082805190602001908083835b602083106107205780518252601f199092019160209182019101610701565b6001836020036101000a03801982511681845116808217855250505050505090500191505060006040518083038185875af1925050503d8060008114610782576040519150601f19603f3d011682016040523d82523d6000602084013e610787565b606091505b50915091506107978282866107a8565b979650505050505050565b3b151590565b606083156107b7575081610629565b8251156107c75782518084602001fd5b8160405162461bcd60e51b81526004018080602001828103825283818151815260200191508051906020019080838360005b838110156108115781810151838201526020016107f9565b50505050905090810190601f16801561083e5780820380516001836020036101000a031916815260200191505b509250505060405180910390fd5b60006020828403121561085d578081fd5b81356106298161097f565b600060208284031215610879578081fd5b81516106298161097f565b600060a08284031215610895578081fd5b50919050565b6000806000606084860312156108af578182fd5b83516fffffffffffffffffffffffffffffffff811681146108ce578283fd5b602085015160409095015190969495509392505050565b6000602082840312156108f6578081fd5b5051919050565b6001600160a01b0392831681529116602082015260400190565b600060c082019050825182526020830151602083015260408301516040830152606083015160608301526080830151608083015260a083015160a083015292915050565b918252602082015260400190565b9283526020830191909152604082015260600190565b6001600160a01b038116811461099457600080fd5b5056fe416464726573733a20696e73756666696369656e742062616c616e636520666f722063616c6c5361666545524332303a204552433230206f7065726174696f6e20646964206e6f742073756363656564a264697066735822122045e613a0c1fecd771c4d44783adfbf74dde6659fbacc7e42d579ec300a3cc89d64736f6c63430007060033",
  "devdoc": {
    "events": {
      "LiquidityIncreased(address,uint256,uint256,uint256)": {
        "params": {
          "amount0Increased": "amount of token0 increased",
          "amount1Increased": "amount of token1 increased",
          "positionManager": "address of the position manager which increased liquidity",
          "tokenId": "id of the position"
        }
      }
    },
    "kind": "dev",
    "methods": {
      "increaseLiquidity((uint256,address,address,uint256,uint256))": {
        "params": {
          "inputs": "struct of IncreaseLiquidityInput parameters"
        },
        "returns": {
          "amount0Increased": "the increased amount of token0",
          "amount1Increased": "the increased amount of token1"
        }
      }
    },
    "version": 1
  },
  "userdoc": {
    "events": {
      "LiquidityIncreased(address,uint256,uint256,uint256)": {
        "notice": "emitted when liquidity is increased"
      }
    },
    "kind": "user",
    "methods": {
      "increaseLiquidity((uint256,address,address,uint256,uint256))": {
        "notice": "increase the liquidity of a UniswapV3 position"
      }
    },
    "notice": "action to increase the liquidity of a V3 position",
    "version": 1
  },
  "storageLayout": {
    "storage": [],
    "types": null
  }
}