{
  "address": "0x6BF114C5C8Fb89D1F2553e0F7756E23142bF9960",
  "abi": [
    {
      "inputs": [
        {
          "internalType": "address",
          "name": "_registry",
          "type": "address"
        },
        {
          "internalType": "address",
          "name": "_uniswapAddressHolder",
          "type": "address"
        }
      ],
      "stateMutability": "nonpayable",
      "type": "constructor"
    },
    {
      "inputs": [
        {
          "internalType": "address",
          "name": "userAddress",
          "type": "address"
        },
        {
          "internalType": "uint256",
          "name": "positionId",
          "type": "uint256"
        }
      ],
      "name": "estimateWithdrawPosition",
      "outputs": [
        {
          "components": [
            {
              "internalType": "uint256",
              "name": "amount0Returned",
              "type": "uint256"
            },
            {
              "internalType": "uint256",
              "name": "amount1Returned",
              "type": "uint256"
            },
            {
              "internalType": "uint256",
              "name": "amount0ReturnedUsdValue",
              "type": "uint256"
            },
            {
              "internalType": "uint256",
              "name": "amount1ReturnedUsdValue",
              "type": "uint256"
            },
            {
              "internalType": "uint256",
              "name": "amount0ReturnedToken1Value",
              "type": "uint256"
            },
            {
              "internalType": "uint256",
              "name": "amount1ReturnedToken0Value",
              "type": "uint256"
            }
          ],
          "internalType": "struct PositionHelper.EstimateWithdrawPositionOutput",
          "name": "output",
          "type": "tuple"
        }
      ],
      "stateMutability": "view",
      "type": "function"
    },
    {
      "inputs": [
        {
          "internalType": "address",
          "name": "userAddress",
          "type": "address"
        },
        {
          "internalType": "uint256",
          "name": "positionId",
          "type": "uint256"
        }
      ],
      "name": "getAmounts",
      "outputs": [
        {
          "components": [
            {
              "internalType": "address",
              "name": "token0",
              "type": "address"
            },
            {
              "internalType": "address",
              "name": "token1",
              "type": "address"
            },
            {
              "internalType": "uint256",
              "name": "amount0",
              "type": "uint256"
            },
            {
              "internalType": "uint256",
              "name": "amount1",
              "type": "uint256"
            },
            {
              "internalType": "uint256",
              "name": "amount0UsdValue",
              "type": "uint256"
            },
            {
              "internalType": "uint256",
              "name": "amount1UsdValue",
              "type": "uint256"
            }
          ],
          "internalType": "struct PositionHelper.GetAmountsOutput",
          "name": "output",
          "type": "tuple"
        }
      ],
      "stateMutability": "view",
      "type": "function"
    },
    {
      "inputs": [
        {
          "internalType": "address",
          "name": "userAddress",
          "type": "address"
        },
        {
          "internalType": "uint256",
          "name": "positionId",
          "type": "uint256"
        }
      ],
      "name": "getPositionInfo",
      "outputs": [
        {
          "components": [
            {
              "internalType": "uint256",
              "name": "tokenId",
              "type": "uint256"
            },
            {
              "internalType": "address",
              "name": "strategyProvider",
              "type": "address"
            },
            {
              "internalType": "bytes16",
              "name": "strategyId",
              "type": "bytes16"
            },
            {
              "internalType": "uint256",
              "name": "totalDepositUSDValue",
              "type": "uint256"
            },
            {
              "internalType": "uint256",
              "name": "amount0CollectedFee",
              "type": "uint256"
            },
            {
              "internalType": "uint256",
              "name": "amount1CollectedFee",
              "type": "uint256"
            },
            {
              "internalType": "uint256",
              "name": "amount0Leftover",
              "type": "uint256"
            },
            {
              "internalType": "uint256",
              "name": "amount1Leftover",
              "type": "uint256"
            },
            {
              "internalType": "int24",
              "name": "tickLowerDiff",
              "type": "int24"
            },
            {
              "internalType": "int24",
              "name": "tickUpperDiff",
              "type": "int24"
            },
            {
              "internalType": "uint256",
              "name": "amount0Returned",
              "type": "uint256"
            },
            {
              "internalType": "uint256",
              "name": "amount1Returned",
              "type": "uint256"
            },
            {
              "internalType": "uint256",
              "name": "amount0ReturnedUsdValue",
              "type": "uint256"
            },
            {
              "internalType": "uint256",
              "name": "amount1ReturnedUsdValue",
              "type": "uint256"
            }
          ],
          "internalType": "struct IPositionManager.PositionInfo",
          "name": "pInfo",
          "type": "tuple"
        }
      ],
      "stateMutability": "view",
      "type": "function"
    },
    {
      "inputs": [
        {
          "internalType": "address",
          "name": "userAddress",
          "type": "address"
        },
        {
          "internalType": "uint256",
          "name": "positionId",
          "type": "uint256"
        }
      ],
      "name": "getPositionTokenInfo",
      "outputs": [
        {
          "components": [
            {
              "internalType": "uint256",
              "name": "tokenId",
              "type": "uint256"
            },
            {
              "internalType": "address",
              "name": "token0",
              "type": "address"
            },
            {
              "internalType": "address",
              "name": "token1",
              "type": "address"
            },
            {
              "internalType": "uint24",
              "name": "fee",
              "type": "uint24"
            },
            {
              "internalType": "int24",
              "name": "tickLower",
              "type": "int24"
            },
            {
              "internalType": "int24",
              "name": "tickUpper",
              "type": "int24"
            },
            {
              "internalType": "address",
              "name": "strategyProvider",
              "type": "address"
            },
            {
              "internalType": "bytes16",
              "name": "strategyId",
              "type": "bytes16"
            },
            {
              "internalType": "uint256",
              "name": "totalDepositUSDValue",
              "type": "uint256"
            },
            {
              "internalType": "int24",
              "name": "tickLowerDiff",
              "type": "int24"
            },
            {
              "internalType": "int24",
              "name": "tickUpperDiff",
              "type": "int24"
            }
          ],
          "internalType": "struct PositionHelper.PositionTokenInfo",
          "name": "ptInfo",
          "type": "tuple"
        }
      ],
      "stateMutability": "view",
      "type": "function"
    },
    {
      "inputs": [
        {
          "internalType": "address",
          "name": "userAddress",
          "type": "address"
        },
        {
          "internalType": "uint256",
          "name": "positionId",
          "type": "uint256"
        }
      ],
      "name": "getTickInfo",
      "outputs": [
        {
          "internalType": "int24",
          "name": "currentTick",
          "type": "int24"
        },
        {
          "internalType": "int24",
          "name": "tickLower",
          "type": "int24"
        },
        {
          "internalType": "int24",
          "name": "tickUpper",
          "type": "int24"
        }
      ],
      "stateMutability": "view",
      "type": "function"
    },
    {
      "inputs": [
        {
          "internalType": "address",
          "name": "userAddress",
          "type": "address"
        },
        {
          "internalType": "uint256",
          "name": "positionId",
          "type": "uint256"
        }
      ],
      "name": "getUncollectedFees",
      "outputs": [
        {
          "components": [
            {
              "internalType": "address",
              "name": "token0",
              "type": "address"
            },
            {
              "internalType": "address",
              "name": "token1",
              "type": "address"
            },
            {
              "internalType": "uint128",
              "name": "amount0",
              "type": "uint128"
            },
            {
              "internalType": "uint128",
              "name": "amount1",
              "type": "uint128"
            },
            {
              "internalType": "uint256",
              "name": "amount0UsdValue",
              "type": "uint256"
            },
            {
              "internalType": "uint256",
              "name": "amount1UsdValue",
              "type": "uint256"
            }
          ],
          "internalType": "struct PositionHelper.GetUncollectedFeesOutput",
          "name": "output",
          "type": "tuple"
        }
      ],
      "stateMutability": "view",
      "type": "function"
    },
    {
      "inputs": [
        {
          "internalType": "address",
          "name": "tokenIn",
          "type": "address"
        },
        {
          "internalType": "address",
          "name": "tokenOut",
          "type": "address"
        },
        {
          "internalType": "uint256",
          "name": "amountIn",
          "type": "uint256"
        }
      ],
      "name": "quote",
      "outputs": [
        {
          "internalType": "uint256",
          "name": "amountOut",
          "type": "uint256"
        }
      ],
      "stateMutability": "view",
      "type": "function"
    },
    {
      "inputs": [
        {
          "internalType": "address",
          "name": "token",
          "type": "address"
        },
        {
          "internalType": "uint256",
          "name": "amount",
          "type": "uint256"
        }
      ],
      "name": "quoteUsdValue",
      "outputs": [
        {
          "internalType": "uint256",
          "name": "usdValue",
          "type": "uint256"
        }
      ],
      "stateMutability": "view",
      "type": "function"
    },
    {
      "inputs": [],
      "name": "registry",
      "outputs": [
        {
          "internalType": "contract IRegistry",
          "name": "",
          "type": "address"
        }
      ],
      "stateMutability": "view",
      "type": "function"
    },
    {
      "inputs": [],
      "name": "uniswapAddressHolder",
      "outputs": [
        {
          "internalType": "contract IUniswapAddressHolder",
          "name": "",
          "type": "address"
        }
      ],
      "stateMutability": "view",
      "type": "function"
    }
  ],
  "transactionHash": "0x7f8f92b778b2b50bb7cbc6b22ce7ea8b6ab5c0fb157d7905d68229d6208bf415",
  "args": [
    "0x2833242BAC2E2a196d240ADe39ff6D2b912D9edb",
    "0x99c4bEa3DbC7C2670B0D781946071cAC215aC86D"
  ],
  "numDeployments": 2,
  "solcInputHash": "d6decf1baad82ada54f9f25242ad304c",
  "bytecode": "0x60c06040523480156200001157600080fd5b506040516200409438038062004094833981016040819052620000349162000071565b6001600160601b0319606091821b811660805291901b1660a052620000a8565b80516001600160a01b03811681146200006c57600080fd5b919050565b6000806040838503121562000084578182fd5b6200008f8362000054565b91506200009f6020840162000054565b90509250929050565b60805160601c60a05160601c613f276200016d600039806101ca52806103b65280610c355280610dd15280610e6f5280610ecd5280610f8d528061102652806110e5528061123752806112d1528061138852806113f15280611b035280611e315280611eff5280611f985280612068528061211452806121e95280612248528061232052508061059b5280610705528061077752806108b652806112ab5280611477528061150852806116135280611b9f528061246352806125bb5250613f276000f3fe608060405234801561001057600080fd5b506004361061009e5760003560e01c80637b103999116100665780637b1039991461014e578063b646638414610163578063c0f06ca414610183578063edce3dde1461018b578063f3dc459f1461019e5761009e565b80631327d7fb146100a35780633590f9f6146100cc57806349420f81146100ec57806352963c8b1461010e578063671c26c71461012e575b600080fd5b6100b66100b136600461368e565b6101be565b6040516100c39190613d23565b60405180910390f35b6100df6100da36600461368e565b6103aa565b6040516100c39190613de2565b6100ff6100fa36600461368e565b6106e4565b6040516100c393929190613b81565b61012161011c36600461368e565b610899565b6040516100c39190613cc4565b61014161013c36600461368e565b610b17565b6040516100c39190613c33565b610156611235565b6040516100c39190613b22565b61017661017136600461364e565b611259565b6040516100c39190613eac565b6101566112a9565b61017661019936600461368e565b6112cd565b6101b16101ac36600461368e565b611452565b6040516100c39190613c77565b6101c6613380565b60007f00000000000000000000000000000000000000000000000000000000000000006001600160a01b0316632d2c5b586040518163ffffffff1660e01b815260040160206040518083038186803b15801561022157600080fd5b505afa158015610235573d6000803e3d6000fd5b505050506040513d601f19601f820116820180604052508101906102599190613632565b6001600160a01b031663c81e0f91856040518263ffffffff1660e01b81526004016102849190613b22565b60206040518083038186803b15801561029c57600080fd5b505afa1580156102b0573d6000803e3d6000fd5b505050506040513d601f19601f820116820180604052508101906102d49190613632565b90506001600160a01b0381166103055760405162461bcd60e51b81526004016102fc90613c15565b60405180910390fd5b60405163519f509960e01b81526001600160a01b0382169063519f509990610331908690600401613eac565b6101c06040518083038186803b15801561034a57600080fd5b505afa15801561035e573d6000803e3d6000fd5b505050506040513d601f19601f820116820180604052508101906103829190613761565b80519092506103a35760405162461bcd60e51b81526004016102fc90613bf8565b5092915050565b6103b2613408565b60007f00000000000000000000000000000000000000000000000000000000000000006001600160a01b0316632d2c5b586040518163ffffffff1660e01b815260040160206040518083038186803b15801561040d57600080fd5b505afa158015610421573d6000803e3d6000fd5b505050506040513d601f19601f820116820180604052508101906104459190613632565b6001600160a01b031663c81e0f91856040518263ffffffff1660e01b81526004016104709190613b22565b60206040518083038186803b15801561048857600080fd5b505afa15801561049c573d6000803e3d6000fd5b505050506040513d601f19601f820116820180604052508101906104c09190613632565b90506001600160a01b0381166104e85760405162461bcd60e51b81526004016102fc90613c15565b60405163519f509960e01b81526000906001600160a01b0383169063519f509990610517908790600401613eac565b6101c06040518083038186803b15801561053057600080fd5b505afa158015610544573d6000803e3d6000fd5b505050506040513d601f19601f820116820180604052508101906105689190613761565b80519091506105895760405162461bcd60e51b81526004016102fc90613bf8565b600080600080600061062f86600001517f00000000000000000000000000000000000000000000000000000000000000006001600160a01b0316635bfccac96040518163ffffffff1660e01b815260040160206040518083038186803b1580156105f257600080fd5b505afa158015610606573d6000803e3d6000fd5b505050506040513d601f19601f8201168201806040525081019061062a9190613632565b6117bd565b9450945094509450945060405180610160016040528087600001518152602001866001600160a01b03168152602001856001600160a01b031681526020018462ffffff1681526020018360020b81526020018260020b815260200187602001516001600160a01b0316815260200187604001516001600160801b03191681526020018760600151815260200187610100015160020b815260200187610120015160020b81525097505050505050505092915050565b6000806000806106f486866101be565b9050600080600061075c84600001517f00000000000000000000000000000000000000000000000000000000000000006001600160a01b0316635bfccac96040518163ffffffff1660e01b815260040160206040518083038186803b1580156105f257600080fd5b809950819a508295508396508497505050505050600061080e7f00000000000000000000000000000000000000000000000000000000000000006001600160a01b03166380f5db8c6040518163ffffffff1660e01b815260040160206040518083038186803b1580156107ce57600080fd5b505afa1580156107e2573d6000803e3d6000fd5b505050506040513d601f19601f820116820180604052508101906108069190613632565b858585611886565b9050806001600160a01b0316633850c7bd6040518163ffffffff1660e01b815260040160e06040518083038186803b15801561084957600080fd5b505afa15801561085d573d6000803e3d6000fd5b505050506040513d601f19601f82011682018060405250810190610881919061395f565b50939f9b9e50999c50999a5050505050505050505050565b6108a1613464565b60006108ad84846101be565b905060008060007f00000000000000000000000000000000000000000000000000000000000000006001600160a01b0316635bfccac96040518163ffffffff1660e01b815260040160206040518083038186803b15801561090d57600080fd5b505afa158015610921573d6000803e3d6000fd5b505050506040513d601f19601f820116820180604052508101906109459190613632565b845160405163133f757160e31b81526001600160a01b0392909216916399fbab889161097391600401613eac565b6101806040518083038186803b15801561098c57600080fd5b505afa1580156109a0573d6000803e3d6000fd5b505050506040513d601f19601f820116820180604052508101906109c49190613a18565b909192939495969798999a5090919293949596979899509091929394959650909192939495509091929394508b6000018c6020018d6040018e606001846001600160801b03166001600160801b0316815250846001600160801b03166001600160801b0316815250849950859a50869b50876001600160a01b03166001600160a01b0316815250876001600160a01b03166001600160a01b031681525050505050505050600080610a78866000015161193c565b91509150610a96848303866001600160801b0316600160801b6119f5565b6040880180516001600160801b03920182169052610abe90848303908716600160801b6119f5565b6060880180516001600160801b0392018216905287516040890151610ae392166112cd565b608088015260208701516060880151610b0591906001600160801b03166112cd565b60a08801525094979650505050505050565b610b1f613499565b610b27613380565b6000806000806000610b398989611452565b90506000610b478a8a610899565b8051602082015190975095509050610b5f8a8a6101be565b9650610b938760c00151610b8d83604001516001600160801b03168560400151611aa490919063ffffffff16565b90611aa4565b9350610bc18760e00151610b8d83606001516001600160801b03168560600151611aa490919063ffffffff16565b9250505060006001600160a01b031685602001516001600160a01b03161415610c315781865260208601819052610bf884836112cd565b6040870152610c0783826112cd565b6060870152610c17848484611259565b6080870152610c27838583611259565b60a087015261122a565b60007f00000000000000000000000000000000000000000000000000000000000000006001600160a01b031663f80ffbd56040518163ffffffff1660e01b815260040160206040518083038186803b158015610c8c57600080fd5b505afa158015610ca0573d6000803e3d6000fd5b505050506040513d601f19601f82011682018060405250810190610cc49190613632565b6001600160a01b0316639362c87287602001516040518263ffffffff1660e01b8152600401610cf39190613b22565b60206040518083038186803b158015610d0b57600080fd5b505afa158015610d1f573d6000803e3d6000fd5b505050506040513d601f19601f82011682018060405250810190610d439190613632565b90506000816001600160a01b03166359be536488604001516040518263ffffffff1660e01b8152600401610d779190613b5e565b60806040518083038186803b158015610d8f57600080fd5b505afa158015610da3573d6000803e3d6000fd5b505050506040513d601f19601f82011682018060405250810190610dc79190613830565b90506000610e65877f00000000000000000000000000000000000000000000000000000000000000006001600160a01b03166308846aa26040518163ffffffff1660e01b815260040160206040518083038186803b158015610e2857600080fd5b505afa158015610e3c573d6000803e3d6000fd5b505050506040513d601f19601f82011682018060405250810190610e609190613632565b611afe565b90506000610ec6877f00000000000000000000000000000000000000000000000000000000000000006001600160a01b03166308846aa26040518163ffffffff1660e01b815260040160206040518083038186803b158015610e2857600080fd5b90506000807f00000000000000000000000000000000000000000000000000000000000000006001600160a01b03166308846aa26040518163ffffffff1660e01b815260040160206040518083038186803b158015610f2457600080fd5b505afa158015610f38573d6000803e3d6000fd5b505050506040513d601f19601f82011682018060405250810190610f5c9190613632565b6001600160a01b03168a6001600160a01b03161415610f7d57879150611024565b61102184610f8a8a611cb9565b8c7f00000000000000000000000000000000000000000000000000000000000000006001600160a01b03166308846aa26040518163ffffffff1660e01b815260040160206040518083038186803b158015610fe457600080fd5b505afa158015610ff8573d6000803e3d6000fd5b505050506040513d601f19601f8201168201806040525081019061101c9190613632565b611d02565b91505b7f00000000000000000000000000000000000000000000000000000000000000006001600160a01b03166308846aa26040518163ffffffff1660e01b815260040160206040518083038186803b15801561107d57600080fd5b505afa158015611091573d6000803e3d6000fd5b505050506040513d601f19601f820116820180604052508101906110b59190613632565b6001600160a01b0316896001600160a01b031614156110d557508561113f565b61113c836110e289611cb9565b8b7f00000000000000000000000000000000000000000000000000000000000000006001600160a01b03166308846aa26040518163ffffffff1660e01b815260040160206040518083038186803b158015610fe457600080fd5b90505b60608b015161114e8383611aa4565b11156111da576111d36040518061014001604052808c6001600160a01b031681526020018b6001600160a01b031681526020018a81526020018981526020018481526020018381526020018d606001518152602001876020015162ffffff168152602001866001600160a01b03168152602001856001600160a01b0316815250611dea565b9b50611223565b878c5260208c018790526111ee8a896112cd565b60408d01526111fd89886112cd565b60608d015261120d8a8a8a611259565b60808d015261121d898b89611259565b60a08d01525b5050505050505b505050505092915050565b7f000000000000000000000000000000000000000000000000000000000000000081565b6000826001600160a01b0316846001600160a01b0316141561127c5750806112a2565b60006112888585611afe565b905061129e8161129785611cb9565b8787611d02565b9150505b9392505050565b7f000000000000000000000000000000000000000000000000000000000000000081565b60007f00000000000000000000000000000000000000000000000000000000000000006001600160a01b03166308846aa26040518163ffffffff1660e01b815260040160206040518083038186803b15801561132857600080fd5b505afa15801561133c573d6000803e3d6000fd5b505050506040513d601f19601f820116820180604052508101906113609190613632565b6001600160a01b0316836001600160a01b0316141561138057508061144c565b60006113df847f00000000000000000000000000000000000000000000000000000000000000006001600160a01b03166308846aa26040518163ffffffff1660e01b815260040160206040518083038186803b158015610e2857600080fd5b9050611448816113ee85611cb9565b867f00000000000000000000000000000000000000000000000000000000000000006001600160a01b03166308846aa26040518163ffffffff1660e01b815260040160206040518083038186803b158015610fe457600080fd5b9150505b92915050565b61145a6134cf565b600061146684846101be565b905060008060006114ce84600001517f00000000000000000000000000000000000000000000000000000000000000006001600160a01b0316635bfccac96040518163ffffffff1660e01b815260040160206040518083038186803b1580156105f257600080fd5b6001600160a01b039384166020808c01919091529484168a526040805163203d76e360e21b815290519398509196509450600093611590937f000000000000000000000000000000000000000000000000000000000000000016926380f5db8c926004808201939291829003018186803b15801561154b57600080fd5b505afa15801561155f573d6000803e3d6000fd5b505050506040513d601f19601f820116820180604052508101906115839190613632565b8751602089015187611886565b9050600080826001600160a01b0316633850c7bd6040518163ffffffff1660e01b815260040160e06040518083038186803b1580156115ce57600080fd5b505afa1580156115e2573d6000803e3d6000fd5b505050506040513d601f19601f82011682018060405250810190611606919061395f565b50505050509150915060007f00000000000000000000000000000000000000000000000000000000000000006001600160a01b0316635bfccac96040518163ffffffff1660e01b815260040160206040518083038186803b15801561166a57600080fd5b505afa15801561167e573d6000803e3d6000fd5b505050506040513d601f19601f820116820180604052508101906116a29190613632565b885160405163133f757160e31b81526001600160a01b0392909216916399fbab88916116d091600401613eac565b6101806040518083038186803b1580156116e957600080fd5b505afa1580156116fd573d6000803e3d6000fd5b505050506040513d601f19601f820116820180604052508101906117219190613a18565b505050509750505050505050506117388b8b6101be565b975061174781838888876123bc565b60608b015260408a0181905260c08901516117629190611aa4565b60408a015260e088015160608a015161177a91611aa4565b60608a0152885160408a015161179091906112cd565b60808a0152602089015160608a01516117a991906112cd565b60a08a015250969998505050505050505050565b6000806000806000856001600160a01b03166399fbab88886040518263ffffffff1660e01b81526004016117f19190613eac565b6101806040518083038186803b15801561180a57600080fd5b505afa15801561181e573d6000803e3d6000fd5b505050506040513d601f19601f820116820180604052508101906118429190613a18565b909192939495969798999a50909192939495969798995090919293509091925090915090505080955081965082975083985084995050505050509295509295909350565b600080856001600160a01b0316631698ee828686866040518463ffffffff1660e01b81526004016118b993929190613b36565b60206040518083038186803b1580156118d157600080fd5b505afa1580156118e5573d6000803e3d6000fd5b505050506040513d601f19601f820116820180604052508101906119099190613632565b90506001600160a01b0381166119315760405162461bcd60e51b81526004016102fc90613bda565b90505b949350505050565b600080600061194a84612454565b9050600080826020015160020b836000015160020b1261197557505060a081015160c0820151611990565b8260a0015183606001510391508260c0015183608001510390505b600080846040015160020b856000015160020b12156119bb57505060e08301516101008401516119d7565b8460e00151856060015103915084610100015185608001510390505b60608501516080909501519390940303969103919091039350915050565b6000808060001985870986860292508281109083900303905080611a2b5760008411611a2057600080fd5b5082900490506112a2565b808411611a3757600080fd5b6000848688096000868103871696879004966002600389028118808a02820302808a02820302808a02820302808a02820302808a02820302808a02909103029181900381900460010186841190950394909402919094039290920491909117919091029150509392505050565b6000828201838110156112a2576040805162461bcd60e51b815260206004820152601b60248201527f536166654d6174683a206164646974696f6e206f766572666c6f770000000000604482015290519081900360640190fd5b6000807f00000000000000000000000000000000000000000000000000000000000000006001600160a01b03166386dd37f36040518163ffffffff1660e01b815260040160006040518083038186803b158015611b5a57600080fd5b505afa158015611b6e573d6000803e3d6000fd5b505050506040513d6000823e601f3d908101601f19168201604052611b9691908101906136b9565b90506000611c367f00000000000000000000000000000000000000000000000000000000000000006001600160a01b03166380f5db8c6040518163ffffffff1660e01b815260040160206040518083038186803b158015611bf657600080fd5b505afa158015611c0a573d6000803e3d6000fd5b505050506040513d601f19601f82011682018060405250810190611c2e9190613632565b8686856128ea565b9050806001600160a01b0316633850c7bd6040518163ffffffff1660e01b815260040160e06040518083038186803b158015611c7157600080fd5b505afa158015611c85573d6000803e3d6000fd5b505050506040513d601f19601f82011682018060405250810190611ca9919061395f565b50949a9950505050505050505050565b806001600160801b0381168114611cfd576040805162461bcd60e51b815260206004820152600360248201526226a41960e91b604482015290519081900360640190fd5b919050565b60006001600160801b036001600160a01b03861611611d71576001600160a01b0380861680029083811690851610611d5157611d4c600160c01b866001600160801b0316836119f5565b611d69565b611d6981866001600160801b0316600160c01b6119f5565b915050611934565b6000611d906001600160a01b03871680680100000000000000006119f5565b9050826001600160a01b0316846001600160a01b031610611dc857611dc3600160801b866001600160801b0316836119f5565b611de0565b611de081866001600160801b0316600160801b6119f5565b9695505050505050565b611df2613499565b6000611e2a611e208460c00151611e1a8660a001518760800151611aa490919063ffffffff16565b90612ab2565b8460e00151612b0f565b90506000807f00000000000000000000000000000000000000000000000000000000000000006001600160a01b03166308846aa26040518163ffffffff1660e01b815260040160206040518083038186803b158015611e8857600080fd5b505afa158015611e9c573d6000803e3d6000fd5b505050506040513d601f19601f82011682018060405250810190611ec09190613632565b6001600160a01b031685600001516001600160a01b03161415611eef578451611ee890612b24565b9150611f96565b611f9385610100015186600001517f00000000000000000000000000000000000000000000000000000000000000006001600160a01b03166308846aa26040518163ffffffff1660e01b815260040160206040518083038186803b158015611f5657600080fd5b505afa158015611f6a573d6000803e3d6000fd5b505050506040513d601f19601f82011682018060405250810190611f8e9190613632565b612ba3565b91505b7f00000000000000000000000000000000000000000000000000000000000000006001600160a01b03166308846aa26040518163ffffffff1660e01b815260040160206040518083038186803b158015611fef57600080fd5b505afa158015612003573d6000803e3d6000fd5b505050506040513d601f19601f820116820180604052508101906120279190613632565b6001600160a01b031685602001516001600160a01b03161415612058576120518560200151612b24565b90506120c2565b6120bf85610120015186602001517f00000000000000000000000000000000000000000000000000000000000000006001600160a01b03166308846aa26040518163ffffffff1660e01b815260040160206040518083038186803b158015611f5657600080fd5b90505b6000806120e48760000151886020015189604001518a6060015188888b612c51565b604089015191935091506120f89083612ab2565b865260608701516121099082612ab2565b8660200181815250507f00000000000000000000000000000000000000000000000000000000000000006001600160a01b03166308846aa26040518163ffffffff1660e01b815260040160206040518083038186803b15801561216b57600080fd5b505afa15801561217f573d6000803e3d6000fd5b505050506040513d601f19601f820116820180604052508101906121a39190613632565b6001600160a01b031687600001516001600160a01b031614156121cc5785516040870152612246565b6122408761010001516121e28860000151611cb9565b89600001517f00000000000000000000000000000000000000000000000000000000000000006001600160a01b03166308846aa26040518163ffffffff1660e01b815260040160206040518083038186803b158015610fe457600080fd5b60408701525b7f00000000000000000000000000000000000000000000000000000000000000006001600160a01b03166308846aa26040518163ffffffff1660e01b815260040160206040518083038186803b15801561229f57600080fd5b505afa1580156122b3573d6000803e3d6000fd5b505050506040513d601f19601f820116820180604052508101906122d79190613632565b6001600160a01b031687602001516001600160a01b03161415612303576020860151606087015261237d565b6123778761012001516123198860200151611cb9565b89602001517f00000000000000000000000000000000000000000000000000000000000000006001600160a01b03166308846aa26040518163ffffffff1660e01b815260040160206040518083038186803b158015610fe457600080fd5b60608701525b865160208801518751612391929190611259565b60808701526020808801518851918801516123ac9290611259565b60a0870152509395945050505050565b6000808460020b8660020b12156123f1576123ea6123d986612d6d565b6123e286612d6d565b89600161309f565b915061244a565b8360020b8660020b121561242a5761240c836123e286612d6d565b915061242361241a86612d6d565b84896001613153565b905061244a565b61244761243686612d6d565b61243f86612d6d565b896001613153565b90505b9550959350505050565b61245c613517565b60008060007f00000000000000000000000000000000000000000000000000000000000000006001600160a01b0316635bfccac96040518163ffffffff1660e01b815260040160206040518083038186803b1580156124ba57600080fd5b505afa1580156124ce573d6000803e3d6000fd5b505050506040513d601f19601f820116820180604052508101906124f29190613632565b6001600160a01b03166399fbab88866040518263ffffffff1660e01b815260040161251d9190613eac565b6101806040518083038186803b15801561253657600080fd5b505afa15801561254a573d6000803e3d6000fd5b505050506040513d601f19601f8201168201806040525081019061256e9190613a18565b5050505050600290810b810b6040808d019190915291810b900b6020808c0191909152815163203d76e360e21b815291519499509297509095506000945061264793506001600160a01b037f000000000000000000000000000000000000000000000000000000000000000016926380f5db8c92600480840193919291829003018186803b1580156125ff57600080fd5b505afa158015612613573d6000803e3d6000fd5b505050506040513d601f19601f820116820180604052508101906126379190613632565b6126428686866131c3565b613219565b9050806001600160a01b031663f30583996040518163ffffffff1660e01b815260040160206040518083038186803b15801561268257600080fd5b505afa158015612696573d6000803e3d6000fd5b505050506040513d601f19601f820116820180604052508101906126ba91906139e6565b856060018181525050806001600160a01b031663461413196040518163ffffffff1660e01b815260040160206040518083038186803b1580156126fc57600080fd5b505afa158015612710573d6000803e3d6000fd5b505050506040513d601f19601f8201168201806040525081019061273491906139e6565b856080018181525050806001600160a01b0316633850c7bd6040518163ffffffff1660e01b815260040160e06040518083038186803b15801561277657600080fd5b505afa15801561278a573d6000803e3d6000fd5b505050506040513d601f19601f820116820180604052508101906127ae919061395f565b5050505050600290810b900b865250602085015160405163f30dba9360e01b81526001600160a01b0383169163f30dba93916127ed9190600401613b73565b6101006040518083038186803b15801561280657600080fd5b505afa15801561281a573d6000803e3d6000fd5b505050506040513d601f19601f8201168201806040525081019061283e91906138c4565b5050505060c089015260a08801525050604080860151905163f30dba9360e01b81526001600160a01b0383169163f30dba939161287e9190600401613b73565b6101006040518083038186803b15801561289757600080fd5b505afa1580156128ab573d6000803e3d6000fd5b505050506040513d601f19601f820116820180604052508101906128cf91906138c4565b5050505061010089015260e088015250949695505050505050565b6000806128f785856132fd565b50909550935060005b8351811015612a825783818151811061291557fe5b602002602001015162ffffff166000141561292f57612a7a565b6000876001600160a01b0316631698ee82888888868151811061294e57fe5b60200260200101516040518463ffffffff1660e01b815260040161297493929190613b36565b60206040518083038186803b15801561298c57600080fd5b505afa1580156129a0573d6000803e3d6000fd5b505050506040513d601f19601f820116820180604052508101906129c49190613632565b90506001600160a01b0381166129da5750612a7a565b6000816001600160a01b0316631a6865026040518163ffffffff1660e01b815260040160206040518083038186803b158015612a1557600080fd5b505afa158015612a29573d6000803e3d6000fd5b505050506040513d601f19601f82011682018060405250810190612a4d91906138aa565b9050836001600160801b0316816001600160801b031611612a6f578484612a72565b81815b909550935050505b600101612900565b506001600160a01b038216612aa95760405162461bcd60e51b81526004016102fc90613b9e565b50949350505050565b600082821115612b09576040805162461bcd60e51b815260206004820152601e60248201527f536166654d6174683a207375627472616374696f6e206f766572666c6f770000604482015290519081900360640190fd5b50900390565b60006127106114488462ffffff8516836119f5565b6000816001600160a01b031663313ce5676040518163ffffffff1660e01b815260040160206040518083038186803b158015612b5f57600080fd5b505afa158015612b73573d6000803e3d6000fd5b505050506040513d601f19601f82011682018060405250810190612b9791906139fe565b60ff16600a0a92915050565b6000816001600160a01b0316836001600160a01b03161415612bcf57612bc883612b24565b90506112a2565b61193484846001600160a01b031663313ce5676040518163ffffffff1660e01b815260040160206040518083038186803b158015612c0c57600080fd5b505afa158015612c20573d6000803e3d6000fd5b505050506040513d601f19601f82011682018060405250810190612c4491906139fe565b60ff16600a0a8585611d02565b6000806000612d18612cda88878c6001600160a01b031663313ce5676040518163ffffffff1660e01b815260040160206040518083038186803b158015612c9757600080fd5b505afa158015612cab573d6000803e3d6000fd5b505050506040513d601f19601f82011682018060405250810190612ccf91906139fe565b60ff16600a0a6119f5565b610b8d8a898e6001600160a01b031663313ce5676040518163ffffffff1660e01b815260040160206040518083038186803b158015612c9757600080fd5b9050838110158015612d2a5750600081115b612d465760405162461bcd60e51b81526004016102fc90613bbd565b612d518885836119f5565b9250612d5e8785836119f5565b91505097509795505050505050565b60008060008360020b12612d84578260020b612d8c565b8260020b6000035b9050620d89e8811115612dca576040805162461bcd60e51b81526020600482015260016024820152601560fa1b604482015290519081900360640190fd5b600060018216612dde57600160801b612df0565b6ffffcb933bd6fad37aa2d162d1a5940015b70ffffffffffffffffffffffffffffffffff1690506002821615612e24576ffff97272373d413259a46990580e213a0260801c5b6004821615612e43576ffff2e50f5f656932ef12357cf3c7fdcc0260801c5b6008821615612e62576fffe5caca7e10e4e61c3624eaa0941cd00260801c5b6010821615612e81576fffcb9843d60f6159c9db58835c9266440260801c5b6020821615612ea0576fff973b41fa98c081472e6896dfb254c00260801c5b6040821615612ebf576fff2ea16466c96a3843ec78b326b528610260801c5b6080821615612ede576ffe5dee046a99a2a811c461f1969c30530260801c5b610100821615612efe576ffcbe86c7900a88aedcffc83b479aa3a40260801c5b610200821615612f1e576ff987a7253ac413176f2b074cf7815e540260801c5b610400821615612f3e576ff3392b0822b70005940c7a398e4b70f30260801c5b610800821615612f5e576fe7159475a2c29b7443b29c7fa6e889d90260801c5b611000821615612f7e576fd097f3bdfd2022b8845ad8f792aa58250260801c5b612000821615612f9e576fa9f746462d870fdf8a65dc1f90e061e50260801c5b614000821615612fbe576f70d869a156d2a1b890bb3df62baf32f70260801c5b618000821615612fde576f31be135f97d08fd981231505542fcfa60260801c5b62010000821615612fff576f09aa508b5b7a84e1c677de54f3e99bc90260801c5b6202000082161561301f576e5d6af8dedb81196699c329225ee6040260801c5b6204000082161561303e576d2216e584f5fa1ea926041bedfe980260801c5b6208000082161561305b576b048a170391f7dc42444e8fa20260801c5b60008460020b131561307657806000198161307257fe5b0490505b64010000000081061561308a57600161308d565b60005b60ff16602082901c0192505050919050565b6000836001600160a01b0316856001600160a01b031611156130bf579293925b6fffffffffffffffffffffffffffffffff60601b606084901b166001600160a01b0386860381169087166130f257600080fd5b8361312257866001600160a01b03166131158383896001600160a01b03166119f5565b8161311c57fe5b04613148565b6131486131398383896001600160a01b031661333b565b886001600160a01b0316613375565b979650505050505050565b6000836001600160a01b0316856001600160a01b03161115613173579293925b816131a05761319b836001600160801b03168686036001600160a01b0316600160601b6119f5565b611931565b611931836001600160801b03168686036001600160a01b0316600160601b61333b565b6131cb61356c565b826001600160a01b0316846001600160a01b031611156131e9579192915b50604080516060810182526001600160a01b03948516815292909316602083015262ffffff169181019190915290565b600081602001516001600160a01b031682600001516001600160a01b03161061324157600080fd5b50805160208083015160409384015184516001600160a01b0394851681850152939091168385015262ffffff166060808401919091528351808403820181526080840185528051908301206001600160f81b031960a085015294901b6bffffffffffffffffffffffff191660a183015260b58201939093527fe34f199b19b2b4f47f68442619d555527d244f78a3297ea89325f843f87b8b5460d5808301919091528251808303909101815260f5909101909152805191012090565b6000806000836001600160a01b0316856001600160a01b0316111561332a57508291508390506001613334565b5083915082905060005b9250925092565b60006133488484846119f5565b90506000828061335457fe5b84860911156112a257600019811061336b57600080fd5b6001019392505050565b808204910615150190565b604051806101c001604052806000815260200160006001600160a01b0316815260200160006001600160801b03191681526020016000815260200160008152602001600081526020016000815260200160008152602001600060020b8152602001600060020b8152602001600081526020016000815260200160008152602001600081525090565b6040805161016081018252600080825260208201819052918101829052606081018290526080810182905260a0810182905260c0810182905260e081018290526101008101829052610120810182905261014081019190915290565b6040805160c081018252600080825260208201819052918101829052606081018290526080810182905260a081019190915290565b6040518060c001604052806000815260200160008152602001600081526020016000815260200160008152602001600081525090565b6040518060c0016040528060006001600160a01b0316815260200160006001600160a01b03168152602001600081526020016000815260200160008152602001600081525090565b604051806101200160405280600060020b8152602001600060020b8152602001600060020b81526020016000815260200160008152602001600081526020016000815260200160008152602001600081525090565b604080516060810182526000808252602082018190529181019190915290565b8051611cfd81613ed9565b80518015158114611cfd57600080fd5b80516001600160801b031981168114611cfd57600080fd5b8051600281900b8114611cfd57600080fd5b80516001600160801b0381168114611cfd57600080fd5b805161ffff81168114611cfd57600080fd5b805162ffffff81168114611cfd57600080fd5b805163ffffffff81168114611cfd57600080fd5b805160ff81168114611cfd57600080fd5b600060208284031215613643578081fd5b81516112a281613ed9565b600080600060608486031215613662578182fd5b833561366d81613ed9565b9250602084013561367d81613ed9565b929592945050506040919091013590565b600080604083850312156136a0578182fd5b82356136ab81613ed9565b946020939093013593505050565b600060208083850312156136cb578182fd5b825167ffffffffffffffff808211156136e2578384fd5b818501915085601f8301126136f5578384fd5b81518181111561370157fe5b8381029150613711848301613eb5565b8181528481019084860184860187018a101561372b578788fd5b8795505b8386101561375457613740816135fa565b83526001959095019491860191860161372f565b5098975050505050505050565b60006101c0808385031215613774578182fd5b61377d81613eb5565b90508251815261378f6020840161358c565b60208201526137a0604084016135a7565b6040820152606083015160608201526080830151608082015260a083015160a082015260c083015160c082015260e083015160e08201526101006137e58185016135bf565b908201526101206137f78482016135bf565b908201526101408381015190820152610160808401519082015261018080840151908201526101a0928301519281019290925250919050565b600060808284031215613841578081fd5b6040516080810181811067ffffffffffffffff8211171561385e57fe5b604052825161386c81613ed9565b815261387a602084016135fa565b6020820152604083015161388d81613ed9565b604082015261389e6060840161360d565b60608201529392505050565b6000602082840312156138bb578081fd5b6112a2826135d1565b600080600080600080600080610100898b0312156138e0578586fd5b6138e9896135d1565b9750602089015180600f0b81146138fe578687fd5b80975050604089015195506060890151945060808901518060060b8114613923578485fd5b60a08a015190945061393481613ed9565b925061394260c08a0161360d565b915061395060e08a01613597565b90509295985092959890939650565b600080600080600080600060e0888a031215613979578081fd5b875161398481613ed9565b9650613992602089016135bf565b95506139a0604089016135e8565b94506139ae606089016135e8565b93506139bc608089016135e8565b92506139ca60a08901613621565b91506139d860c08901613597565b905092959891949750929550565b6000602082840312156139f7578081fd5b5051919050565b600060208284031215613a0f578081fd5b6112a282613621565b6000806000806000806000806000806000806101808d8f031215613a3a578586fd5b8c516bffffffffffffffffffffffff81168114613a55578687fd5b9b50613a6360208e0161358c565b9a50613a7160408e0161358c565b9950613a7f60608e0161358c565b9850613a8d60808e016135fa565b9750613a9b60a08e016135bf565b9650613aa960c08e016135bf565b9550613ab760e08e016135d1565b94506101008d015193506101208d01519250613ad66101408e016135d1565b9150613ae56101608e016135d1565b90509295989b509295989b509295989b565b6001600160a01b03169052565b6001600160801b0319169052565b60020b9052565b62ffffff169052565b6001600160a01b0391909116815260200190565b6001600160a01b03938416815291909216602082015262ffffff909116604082015260600190565b6001600160801b031991909116815260200190565b60029190910b815260200190565b600293840b815291830b602083015290910b604082015260600190565b602080825260059082015264055484450360dc1b604082015260600190565b60208082526003908201526244544160e81b604082015260600190565b6020808252600490820152630554850360e41b604082015260600190565b60208082526003908201526214121560ea1b604082015260600190565b6020808252600490820152630504841360e41b604082015260600190565b600060c082019050825182526020830151602083015260408301516040830152606083015160608301526080830151608083015260a083015160a083015292915050565b81516001600160a01b0390811682526020808401519091169082015260408083015190820152606080830151908201526080808301519082015260a0918201519181019190915260c00190565b600060c08201905060018060a01b038084511683528060208501511660208401525060408301516001600160801b03808216604085015280606086015116606085015250506080830151608083015260a083015160a083015292915050565b815181526020808301516101c0830191613d3f90840182613af7565b506040830151613d526040840182613b04565b50606083015160608301526080830151608083015260a083015160a083015260c083015160c083015260e083015160e083015261010080840151613d9882850182613b12565b505061012080840151613dad82850182613b12565b50506101408381015190830152610160808401519083015261018080840151908301526101a092830151929091019190915290565b81518152602080830151610160830191613dfe90840182613af7565b506040830151613e116040840182613af7565b506060830151613e246060840182613b19565b506080830151613e376080840182613b12565b5060a0830151613e4a60a0840182613b12565b5060c0830151613e5d60c0840182613af7565b5060e0830151613e7060e0840182613b04565b50610100838101519083015261012080840151613e8f82850182613b12565b505061014080840151613ea482850182613b12565b505092915050565b90815260200190565b60405181810167ffffffffffffffff81118282101715613ed157fe5b604052919050565b6001600160a01b0381168114613eee57600080fd5b5056fea2646970667358221220891f30cc523b8ac8663f3b9642bb6aa160ee7ed024dbad5f23f24e5c09c3ee3464736f6c63430007060033",
  "devdoc": {
    "kind": "dev",
    "methods": {
      "getAmounts(address,uint256)": {
        "params": {
          "positionId": "ID of the position",
          "userAddress": "address of the user"
        },
        "returns": {
          "output": "the output struct of getAmounts"
        }
      },
      "getPositionInfo(address,uint256)": {
        "params": {
          "positionId": "ID of the position",
          "userAddress": "address of the user"
        },
        "returns": {
          "pInfo": "the position info"
        }
      },
      "getPositionTokenInfo(address,uint256)": {
        "params": {
          "positionId": "ID of the position",
          "userAddress": "address of the user"
        },
        "returns": {
          "ptInfo": "the position token info"
        }
      },
      "getTickInfo(address,uint256)": {
        "params": {
          "positionId": "ID of the position",
          "userAddress": "address of the user"
        },
        "returns": {
          "currentTick": "the current tick of the target pool",
          "tickLower": "the lower bound of the position",
          "tickUpper": "the upper bound of the position"
        }
      },
      "getUncollectedFees(address,uint256)": {
        "params": {
          "positionId": "ID of the position",
          "userAddress": "address of the user"
        },
        "returns": {
          "output": "the output struct of getUncollectedFees"
        }
      }
    },
    "version": 1
  },
  "userdoc": {
    "kind": "user",
    "methods": {
      "getAmounts(address,uint256)": {
        "notice": "Get the amounts of a position"
      },
      "getPositionInfo(address,uint256)": {
        "notice": "Get the position info of a position"
      },
      "getPositionTokenInfo(address,uint256)": {
        "notice": "Get the position token info of a position"
      },
      "getTickInfo(address,uint256)": {
        "notice": "Get the tick info of a position"
      },
      "getUncollectedFees(address,uint256)": {
        "notice": "Get the uncollected fees of a position"
      }
    },
    "version": 1
  },
  "storageLayout": {
    "storage": [],
    "types": null
  }
}