{
  "address": "0x9ff67463BDb860e51b8992ae35dee1896acDDd5b",
  "abi": [
    {
      "inputs": [
        {
          "internalType": "address",
          "name": "_registryAddressHolder",
          "type": "address"
        },
        {
          "internalType": "address",
          "name": "_uniswapAddressHolder",
          "type": "address"
        },
        {
          "internalType": "address",
          "name": "_diamondCutFacet",
          "type": "address"
        }
      ],
      "stateMutability": "nonpayable",
      "type": "constructor"
    },
    {
      "anonymous": false,
      "inputs": [
        {
          "indexed": false,
          "internalType": "address",
          "name": "account",
          "type": "address"
        }
      ],
      "name": "Paused",
      "type": "event"
    },
    {
      "anonymous": false,
      "inputs": [
        {
          "indexed": true,
          "internalType": "address",
          "name": "positionManager",
          "type": "address"
        },
        {
          "indexed": false,
          "internalType": "address",
          "name": "user",
          "type": "address"
        }
      ],
      "name": "PositionManagerCreated",
      "type": "event"
    },
    {
      "anonymous": false,
      "inputs": [
        {
          "indexed": false,
          "internalType": "address",
          "name": "account",
          "type": "address"
        }
      ],
      "name": "Unpaused",
      "type": "event"
    },
    {
      "inputs": [
        {
          "internalType": "uint256",
          "name": "",
          "type": "uint256"
        }
      ],
      "name": "actions",
      "outputs": [
        {
          "internalType": "address",
          "name": "facetAddress",
          "type": "address"
        },
        {
          "internalType": "enum IDiamondCut.FacetCutAction",
          "name": "action",
          "type": "uint8"
        }
      ],
      "stateMutability": "view",
      "type": "function"
    },
    {
      "inputs": [],
      "name": "create",
      "outputs": [
        {
          "internalType": "address",
          "name": "",
          "type": "address"
        }
      ],
      "stateMutability": "nonpayable",
      "type": "function"
    },
    {
      "inputs": [],
      "name": "diamondCutFacet",
      "outputs": [
        {
          "internalType": "address",
          "name": "",
          "type": "address"
        }
      ],
      "stateMutability": "view",
      "type": "function"
    },
    {
      "inputs": [
        {
          "internalType": "uint256",
          "name": "cursor",
          "type": "uint256"
        },
        {
          "internalType": "uint256",
          "name": "howMany",
          "type": "uint256"
        }
      ],
      "name": "getPositionManagers",
      "outputs": [
        {
          "internalType": "address[]",
          "name": "managers",
          "type": "address[]"
        },
        {
          "internalType": "uint256",
          "name": "newCursor",
          "type": "uint256"
        }
      ],
      "stateMutability": "view",
      "type": "function"
    },
    {
      "inputs": [],
      "name": "getPositionManagersLength",
      "outputs": [
        {
          "internalType": "uint256",
          "name": "",
          "type": "uint256"
        }
      ],
      "stateMutability": "view",
      "type": "function"
    },
    {
      "inputs": [],
      "name": "pause",
      "outputs": [],
      "stateMutability": "nonpayable",
      "type": "function"
    },
    {
      "inputs": [],
      "name": "paused",
      "outputs": [
        {
          "internalType": "bool",
          "name": "",
          "type": "bool"
        }
      ],
      "stateMutability": "view",
      "type": "function"
    },
    {
      "inputs": [
        {
          "internalType": "uint256",
          "name": "",
          "type": "uint256"
        }
      ],
      "name": "positionManagers",
      "outputs": [
        {
          "internalType": "address",
          "name": "",
          "type": "address"
        }
      ],
      "stateMutability": "view",
      "type": "function"
    },
    {
      "inputs": [],
      "name": "registryAddressHolder",
      "outputs": [
        {
          "internalType": "address",
          "name": "",
          "type": "address"
        }
      ],
      "stateMutability": "view",
      "type": "function"
    },
    {
      "inputs": [],
      "name": "uniswapAddressHolder",
      "outputs": [
        {
          "internalType": "address",
          "name": "",
          "type": "address"
        }
      ],
      "stateMutability": "view",
      "type": "function"
    },
    {
      "inputs": [],
      "name": "unpause",
      "outputs": [],
      "stateMutability": "nonpayable",
      "type": "function"
    },
    {
      "inputs": [
        {
          "components": [
            {
              "internalType": "address",
              "name": "facetAddress",
              "type": "address"
            },
            {
              "internalType": "enum IDiamondCut.FacetCutAction",
              "name": "action",
              "type": "uint8"
            },
            {
              "internalType": "bytes4[]",
              "name": "functionSelectors",
              "type": "bytes4[]"
            }
          ],
          "internalType": "struct IDiamondCut.FacetCut",
          "name": "facetAction",
          "type": "tuple"
        }
      ],
      "name": "updateActionData",
      "outputs": [],
      "stateMutability": "nonpayable",
      "type": "function"
    },
    {
      "inputs": [
        {
          "internalType": "address",
          "name": "positionManager",
          "type": "address"
        },
        {
          "components": [
            {
              "internalType": "address",
              "name": "facetAddress",
              "type": "address"
            },
            {
              "internalType": "enum IDiamondCut.FacetCutAction",
              "name": "action",
              "type": "uint8"
            },
            {
              "internalType": "bytes4[]",
              "name": "functionSelectors",
              "type": "bytes4[]"
            }
          ],
          "internalType": "struct IDiamondCut.FacetCut[]",
          "name": "actionsToUpdate",
          "type": "tuple[]"
        }
      ],
      "name": "updateDiamond",
      "outputs": [],
      "stateMutability": "nonpayable",
      "type": "function"
    },
    {
      "inputs": [
        {
          "internalType": "address",
          "name": "",
          "type": "address"
        }
      ],
      "name": "userToPositionManager",
      "outputs": [
        {
          "internalType": "address",
          "name": "",
          "type": "address"
        }
      ],
      "stateMutability": "view",
      "type": "function"
    }
  ],
  "transactionHash": "0xfec0310a5896db6a1978511824f6360f887e4ddc52a0c919b2a225080d9fd3e3",
  "args": [
    "0x1BdcF8Fea00691B61a1fA48c4785A23E9a6b4180",
    "0xC847FD0bFADCAb154FDFAD397BA236280C45239E",
    "0xAdf2c9e6cE2147e31582298eB29BB69c6D5F23FB"
  ],
  "numDeployments": 1,
  "solcInputHash": "55336bc26235c2a8ef1da4e9acf1a7fc",
  "bytecode": "0x60e06040523480156200001157600080fd5b5060405162005d9938038062005d99833981016040819052620000349162000107565b6000805460ff191690556001600160a01b038316620000705760405162461bcd60e51b815260040162000067906200018f565b60405180910390fd5b6001600160a01b038216620000995760405162461bcd60e51b8152600401620000679062000150565b6001600160a01b038116620000c25760405162461bcd60e51b8152600401620000679062000170565b6001600160601b0319606093841b811660805291831b821660c05290911b1660a052620001af565b80516001600160a01b03811681146200010257600080fd5b919050565b6000806000606084860312156200011c578283fd5b6200012784620000ea565b92506200013760208501620000ea565b91506200014760408501620000ea565b90509250925092565b60208082526006908201526505046554148360d41b604082015260600190565b602080825260059082015264050464443360dc1b604082015260600190565b60208082526006908201526505046524148360d41b604082015260600190565b60805160601c60a05160601c60c05160601c615b9b620001fe600039806109965280610afc5250806109725280610b1d52508061094e5280610adb5280610c8e5280610f125250615b9b6000f3fe60806040523480156200001157600080fd5b5060043610620001005760003560e01c80638456cb591162000099578063c0f06ca4116200006f578063c0f06ca414620001e5578063c81e0f9114620001ef578063cd1719151462000206578063efc81a8c146200022d5762000100565b80638456cb5914620001c7578063974914d514620001d1578063a051e9b314620001db5762000100565b80635c975abb11620000db5780635c975abb14620001595780636cbaebe51462000172578063766cadc4146200018957806383240f8314620001a05762000100565b806320e467f614620001055780633f4ba83a14620001345780634d78530d1462000140575b600080fd5b6200011c620001163660046200138c565b62000237565b6040516200012b9190620013f1565b60405180910390f35b6200013e62000262565b005b6200014a62000328565b6040516200012b9190620018cf565b620001636200032e565b6040516200012b91906200186c565b6200013e6200018336600462001351565b62000337565b6200013e6200019a36600462001198565b6200073c565b620001b7620001b13660046200138c565b62000856565b6040516200012b92919062001430565b6200013e62000891565b6200011c6200094c565b6200011c62000970565b6200011c62000994565b6200011c6200020036600462001153565b620009b8565b6200021d62000217366004620013a5565b620009d3565b6040516200012b9291906200144f565b6200011c62000a4b565b600181815481106200024857600080fd5b6000918252602090912001546001600160a01b0316905081565b6200026c62000c8a565b6001600160a01b0316635aa6e6756040518163ffffffff1660e01b815260040160206040518083038186803b158015620002a557600080fd5b505afa158015620002ba573d6000803e3d6000fd5b505050506040513d601f19601f82011682018060405250810190620002e0919062001179565b6001600160a01b0316336001600160a01b0316146200031c5760405162461bcd60e51b8152600401620003139062001894565b60405180910390fd5b6200032662000d26565b565b60015490565b60005460ff1690565b6200034162000c8a565b6001600160a01b0316635aa6e6756040518163ffffffff1660e01b815260040160206040518083038186803b1580156200037a57600080fd5b505afa1580156200038f573d6000803e3d6000fd5b505050506040513d601f19601f82011682018060405250810190620003b5919062001179565b6001600160a01b0316336001600160a01b031614620003e85760405162461bcd60e51b8152600401620003139062001894565b6002620003fc604083016020840162001332565b60028111156200040857fe5b1415620005795760025460005b818110156200055e576200042d602084018462001153565b6001600160a01b0316600282815481106200044457fe5b60009182526020909120600290910201546001600160a01b031614156200055557600260018303815481106200047657fe5b9060005260206000209060020201600282815481106200049257fe5b600091825260209091208254600292830290910180546001600160a01b0319166001600160a01b03909216919091178082558354919260ff600160a01b938490041692849260ff60a01b1916918490811115620004eb57fe5b021790555060018281018054620005069284019190620010a4565b5090505060028054806200051657fe5b60008281526020812060026000199093019283020180546001600160a81b03191681559062000549600183018262001107565b50509055505062000739565b60010162000415565b5060405162461bcd60e51b81526004016200031390620018b2565b60016200058d604083016020840162001332565b60028111156200059957fe5b1415620006355760025460005b818110156200055e57620005be602084018462001153565b6001600160a01b031660028281548110620005d557fe5b60009182526020909120600290910201546001600160a01b031614156200062c5782600282815481106200060557fe5b9060005260206000209060020201818162000621919062001a20565b905050505062000739565b600101620005a6565b600062000649604083016020840162001332565b60028111156200065557fe5b14156200071f5760025460005b81811015620006d5576200067a602084018462001153565b6001600160a01b0316600282815481106200069157fe5b60009182526020909120600290910201546001600160a01b03161415620006cc5760405162461bcd60e51b81526004016200031390620018b2565b60010162000662565b506002805460018101825560008290528391027f405787fa12a823e0f2b7631cc41b3ba8828b3321ca811111fa75cd3aa3bb5ace0162000716828262001a20565b50505062000739565b60405162461bcd60e51b81526004016200031390620018b2565b50565b6200074662000c8a565b6001600160a01b0316635aa6e6756040518163ffffffff1660e01b815260040160206040518083038186803b1580156200077f57600080fd5b505afa15801562000794573d6000803e3d6000fd5b505050506040513d601f19601f82011682018060405250810190620007ba919062001179565b6001600160a01b0316336001600160a01b031614620007ed5760405162461bcd60e51b8152600401620003139062001894565b6040516307e4c70760e21b81526001600160a01b03831690631f931c1c906200081e908490600090600401620014a2565b600060405180830381600087803b1580156200083957600080fd5b505af11580156200084e573d6000803e3d6000fd5b505050505050565b600281815481106200086757600080fd5b60009182526020909120600290910201546001600160a01b0381169150600160a01b900460ff1682565b6200089b62000c8a565b6001600160a01b0316635aa6e6756040518163ffffffff1660e01b815260040160206040518083038186803b158015620008d457600080fd5b505afa158015620008e9573d6000803e3d6000fd5b505050506040513d601f19601f820116820180604052508101906200090f919062001179565b6001600160a01b0316336001600160a01b031614620009425760405162461bcd60e51b8152600401620003139062001894565b6200032662000dcb565b7f000000000000000000000000000000000000000000000000000000000000000081565b7f000000000000000000000000000000000000000000000000000000000000000081565b7f000000000000000000000000000000000000000000000000000000000000000081565b6003602052600090815260409020546001600160a01b031681565b6060600062000a40600180548060200260200160405190810160405280929190818152602001828054801562000a3357602002820191906000526020600020905b81546001600160a01b0316815260019091019060200180831162000a14575b5050505050858562000e53565b915091509250929050565b600062000a576200032e565b1562000a9d576040805162461bcd60e51b815260206004820152601060248201526f14185d5cd8589b194e881c185d5cd95960821b604482015290519081900360640190fd5b336000908152600360205260409020546001600160a01b03161562000ad65760405162461bcd60e51b8152600401620003139062001877565b6000337f00000000000000000000000000000000000000000000000000000000000000007f00000000000000000000000000000000000000000000000000000000000000007f000000000000000000000000000000000000000000000000000000000000000060405162000b4a906200112e565b62000b59949392919062001405565b604051809103906000f08015801562000b76573d6000803e3d6000fd5b50600180548082019091557fb10e2d527612073b26eecdfd717e6a320cf44b4afac2b0732d9fcbe2b7fa0cf60180546001600160a01b0383166001600160a01b03199182168117909255336000908152600360205260408082208054909316841790925590516307e4c70760e21b81529293509091631f931c1c9162000c03916002919060040162001591565b600060405180830381600087803b15801562000c1e57600080fd5b505af115801562000c33573d6000803e3d6000fd5b5050505062000c423362000f10565b806001600160a01b03167fcd08baef8491fbefc9205236874e188ae474400c7fbf8022f3b86d97ec5bc40f3360405162000c7d9190620013f1565b60405180910390a2905090565b60007f00000000000000000000000000000000000000000000000000000000000000006001600160a01b0316637b1039996040518163ffffffff1660e01b815260040160206040518083038186803b15801562000ce657600080fd5b505afa15801562000cfb573d6000803e3d6000fd5b505050506040513d601f19601f8201168201806040525081019062000d21919062001179565b905090565b62000d306200032e565b62000d79576040805162461bcd60e51b815260206004820152601460248201527314185d5cd8589b194e881b9bdd081c185d5cd95960621b604482015290519081900360640190fd5b6000805460ff191690557f5db9ee0a495bf2e6ff9c91a7834c1ba4fdd244a5e8aa4e537bd38aeae4b073aa62000dae620010a0565b604080516001600160a01b039092168252519081900360200190a1565b62000dd56200032e565b1562000e1b576040805162461bcd60e51b815260206004820152601060248201526f14185d5cd8589b194e881c185d5cd95960821b604482015290519081900360640190fd5b6000805460ff191660011790557f62e78cea01bee320cd4e420270b5ea74000d11b0c9f74754ebdbfc544b05a25862000dae620010a0565b825160609060009084810384111562000e6c5784810393505b8367ffffffffffffffff8111801562000e8457600080fd5b5060405190808252806020026020018201604052801562000eaf578160200160208202803683370190505b50925060005b8481101562000f0357868187018151811062000ecd57fe5b602002602001015184828151811062000ee257fe5b6001600160a01b039092166020928302919091019091015260010162000eb5565b5091959390920193505050565b7f00000000000000000000000000000000000000000000000000000000000000006001600160a01b0316637b1039996040518163ffffffff1660e01b815260040160206040518083038186803b15801562000f6a57600080fd5b505afa15801562000f7f573d6000803e3d6000fd5b505050506040513d601f19601f8201168201806040525081019062000fa5919062001179565b6001600160a01b031663f80ffbd56040518163ffffffff1660e01b815260040160206040518083038186803b15801562000fde57600080fd5b505afa15801562000ff3573d6000803e3d6000fd5b505050506040513d601f19601f8201168201806040525081019062001019919062001179565b6001600160a01b0316639ed93318826040518263ffffffff1660e01b8152600401620010469190620013f1565b602060405180830381600087803b1580156200106157600080fd5b505af115801562001076573d6000803e3d6000fd5b505050506040513d601f19601f820116820180604052508101906200109c919062001179565b5050565b3390565b82805482825590600052602060002090600701600890048101928215620010f5576000526020600020916007016008900482015b82811115620010f5578254825591600101919060010190620010d8565b50620011039291506200113c565b5090565b5080546000825560070160089004906000526020600020908101906200073991906200113c565b6140298062001b3d83390190565b5b808211156200110357600081556001016200113d565b60006020828403121562001165578081fd5b8135620011728162001b01565b9392505050565b6000602082840312156200118b578081fd5b8151620011728162001b01565b60008060408385031215620011ab578081fd5b620011b7833562001b01565b82359150602083013567ffffffffffffffff80821115620011d6578283fd5b818501915085601f830112620011ea578283fd5b62001200620011fa8335620018fd565b620018d8565b82358152602080820191908401855b85358110156200132357813586016060818c03601f1901121562001231578788fd5b6040516060810181811088821117156200124757fe5b60405260208201356200125a8162001b01565b81526200126b604083013562001b2e565b604082013560208201526060820135878111156200128757898afd5b8083019250508b603f8301126200129c578889fd5b6020820135620012b0620011fa82620018fd565b80828252602082019150604085018f6040602086028801011115620012d3578c8dfd5b8c95505b838610156200130457620012ec813562001b17565b803583526001959095019460209283019201620012d7565b506040840152505085525060209384019391909101906001016200120f565b50959890975095505050505050565b60006020828403121562001344578081fd5b8135620011728162001b2e565b60006020828403121562001363578081fd5b813567ffffffffffffffff8111156200137a578182fd5b82016060818503121562001172578182fd5b6000602082840312156200139e578081fd5b5035919050565b60008060408385031215620013b8578182fd5b50508035926020909101359150565b6001600160a01b03169052565b6001600160e01b0319169052565b60038110620013ed57fe5b9052565b6001600160a01b0391909116815260200190565b6001600160a01b03948516815292841660208401529083166040830152909116606082015260800190565b6001600160a01b038316815260408101620011726020830184620013e2565b604080825283519082018190526000906020906060840190828701845b82811015620014935781516001600160a01b0316845292840192908401906001016200146c565b50505092019290925292915050565b606080825283518282018190526000919060809081850190602080820287018401818a01875b848110156200155f57898303607f19018652815180516001600160a01b031684528481015189850190620014ff87870182620013e2565b506040918201519185018a9052815190819052908501908a90898601905b80831015620015495783516001600160e01b03191682529287019260019290920191908701906200151d565b50978601979450505090830190600101620014c8565b50506200156f8289018a620013c7565b8781036040890152620015838782620018cf565b9a9950505050505050505050565b60006060825260608201845480825260808401915060206080818302860101878552818520855b848110156200183c57878303607f1901865281546001600160a01b0381168452620015ed85850160a083901c60ff16620013e2565b506001808301606060408601526060850181546200160c8183620018cf565b915062001619836200191c565b92508a5b81600782011015620016e25783546200163a848260e01b620013d4565b6001600160e01b031962001657858c0160c084901b8316620013d4565b6200166b60408601828460a01b16620013d4565b6200167f60608601828460801b16620013d4565b6200169360808601828460601b16620013d4565b620016a760a08601828460401b16620013d4565b620016ba60c0860182848e1b16620013d4565b620016cb60e08601828416620013d4565b50509284019261010092909201916008016200161d565b925492818110156200170457620016fd838560e01b620013d4565b9188019184015b818110156200172e57620017278360c086901b6001600160e01b031916620013d4565b9188019184015b818110156200175857620017518360a086901b6001600160e01b031916620013d4565b9188019184015b8181101562001782576200177b83608086901b6001600160e01b031916620013d4565b9188019184015b81811015620017ac57620017a583606086901b6001600160e01b031916620013d4565b9188019184015b81811015620017d657620017cf83604086901b6001600160e01b031916620013d4565b9188019184015b81811015620017fe57620017f783858b1b6001600160e01b031916620013d4565b9188019184015b8181101562001822576200181d836001600160e01b03198616620013d4565b918801915b5050978601979450505060029190910190600101620015b8565b50506200184c82870188620013c7565b8581036040870152620018608582620018cf565b98975050505050505050565b901515815260200190565b60208082526003908201526205046560ec1b604082015260600190565b60208082526004908201526350464f4760e01b604082015260600190565b60208082526003908201526250465560e81b604082015260600190565b90815260200190565b60405181810167ffffffffffffffff81118282101715620018f557fe5b604052919050565b600067ffffffffffffffff8211156200191257fe5b5060209081020190565b60009081526020902090565b680100000000000000008311156200193c57fe5b805483825580841015620019a75760008281526020812060086007870104810160086007850104820191506004600788160280156200198c57600019808301805482846020036008021c16815550505b505b81811015620019a3578281556001016200198e565b5050505b5081620019b4826200191c565b6000805b8681101562001a0257620019d8620019d08562001a0b565b838562001add565b602084019350600482019150601c821115620019f957600091506001830192505b600101620019b8565b50505050505050565b6000813562001a1a8162001b17565b92915050565b813562001a2d8162001b01565b81546001600160a01b0319166001600160a01b039190911617808255602083013562001a598162001b2e565b6003811062001a6457fe5b60ff60a01b199190911660a09190911b60ff60a01b16178155604082013536839003601e1901811262001a9657600080fd5b8201803567ffffffffffffffff81111562001ab057600080fd5b6020918201918102360382131562001ac757600080fd5b62001ad781836001860162001928565b50505050565b80546008830263ffffffff811b808660e01c831b1681198416178455505050505050565b6001600160a01b03811681146200073957600080fd5b6001600160e01b0319811681146200073957600080fd5b600381106200073957600080fdfe60806040526040516200402938038062004029833981016040819052620000269162000c03565b6200003c846200018260201b620012fc1760201c565b604080516001808252818301909252600091816020015b6200005d62000bc7565b815260200190600190039081620000535750506040805160018082528183019092529192506000919060208083019080368337019050509050631f931c1c60e01b81600081518110620000ac57fe5b6001600160e01b031990921660209283029190910182015260408051606081019091526001600160a01b0385168152908101600081526020018281525082600081518110620000f757fe5b60200260200101819052506200012a826000604051806020016040528060008152506200023460201b6200139f1760201c565b600062000141620003d460201b620005d41760201c565b6004810180546001600160a01b039889166001600160a01b03199182161790915560059091018054969097169516949094179094555062000f899350505050565b6001600160a01b038116620001b45760405162461bcd60e51b8152600401620001ab9062000f03565b60405180910390fd5b6000620001c0620003d4565b6003810180546001600160a01b031981166001600160a01b03868116918217909355929350169081146200022f57826001600160a01b0316816001600160a01b03167f8be0079c531659141344cd1fd0a4f28419497f9722a3daafe3b4186f6b6457e060405160405180910390a35b505050565b825160005b81811015620003845760008582815181106200025157fe5b6020026020010151602001519050600060028111156200026d57fe5b8160028111156200027a57fe5b1415620002c957620002c38683815181106200029257fe5b602002602001015160000151878481518110620002ab57fe5b602002602001015160400151620003f860201b60201c565b6200037a565b6001816002811115620002d857fe5b14156200032157620002c3868381518110620002f057fe5b6020026020010151600001518784815181106200030957fe5b6020026020010151604001516200051b60201b60201c565b60028160028111156200033057fe5b14156200036057620002c38683815181106200034857fe5b6020026020010151604001516200064960201b60201c565b60405162461bcd60e51b8152600401620001ab9062000ee6565b5060010162000239565b507f8faa70878671ccd212d20771b795c50af8fd3ff6cf27f4bde57e5d4de0aeb673848484604051620003ba9392919062000cb8565b60405180910390a1620003ce8383620006e0565b50505050565b7fd5aa5c52d76b5d2be1bece4b96c91e533fe2611adb0c19cf868dadf921fc13b890565b8051620004195760405162461bcd60e51b8152600401620001ab9062000f20565b600062000425620003d4565b90506001600160a01b038316620004505760405162461bcd60e51b8152600401620001ab9062000dfe565b6001600160a01b03831660009081526001820160205260409020546001600160601b0381166200048657620004868285620007e4565b825160005b8181101562000513576000858281518110620004a357fe5b6020908102919091018101516001600160e01b031981166000908152918790526040909120549091506001600160a01b03168015620004f65760405162461bcd60e51b8152600401620001ab9062000e8f565b620005048683878b6200082c565b5050600192830192016200048b565b505050505050565b80516200053c5760405162461bcd60e51b8152600401620001ab9062000e72565b600062000548620003d4565b90506001600160a01b038316620005735760405162461bcd60e51b8152600401620001ab9062000eac565b6001600160a01b03831660009081526001820160205260409020546001600160601b038116620005a957620005a98285620007e4565b825160005b8181101562000513576000858281518110620005c657fe5b6020908102919091018101516001600160e01b031981166000908152918790526040909120549091506001600160a01b039081169088168114156200061f5760405162461bcd60e51b8152600401620001ab9062000e38565b6200062c868284620008cc565b6200063a8683878b6200082c565b505060019283019201620005ae565b80516200066a5760405162461bcd60e51b8152600401620001ab9062000f3d565b600062000676620003d4565b825190915060005b81811015620003ce5760008482815181106200069657fe5b6020908102919091018101516001600160e01b031981166000908152918690526040909120549091506001600160a01b0316620006d5858284620008cc565b50506001016200067e565b6001600160a01b0382166200071757805115620007115760405162461bcd60e51b8152600401620001ab9062000dc4565b620007e0565b8051620007385760405162461bcd60e51b8152600401620001ab9062000e1b565b600080836001600160a01b03168360405162000755919062000c9a565b600060405180830381855af49150503d806000811462000792576040519150601f19603f3d011682016040523d82523d6000602084013e62000797565b606091505b509150915081620003ce57805115620007c6578060405162461bcd60e51b8152600401620001ab919062000da8565b60405162461bcd60e51b8152600401620001ab9062000de1565b5050565b6002820180546001600160a01b0390921660008181526001948501602090815260408220860185905594840183559182529290200180546001600160a01b0319169091179055565b6001600160e01b0319831660008181526020868152604080832080546001600160601b03909716600160a01b026001600160a01b0397881617815594909516808352600180890183529583208054968701815583528183206008870401805460e09890981c60046007909816979097026101000a96870263ffffffff9097021990971695909517909555529290915281546001600160a01b031916179055565b6001600160a01b038216620008f55760405162461bcd60e51b8152600401620001ab9062000ec9565b6001600160a01b038216301415620009215760405162461bcd60e51b8152600401620001ab9062000e55565b6001600160e01b03198116600090815260208481526040808320546001600160a01b03861684526001870190925290912054600160a01b9091046001600160601b0316906000190180821462000a50576001600160a01b038416600090815260018601602052604081208054839081106200099857fe5b600091825260208083206008830401546001600160a01b038916845260018a019091526040909220805460079092166004026101000a90920460e01b925082919085908110620009e457fe5b600091825260208083206008830401805463ffffffff60079094166004026101000a938402191660e09590951c929092029390931790556001600160e01b03199290921682528690526040902080546001600160a01b0316600160a01b6001600160601b038516021790555b6001600160a01b0384166000908152600186016020526040902080548062000a7457fe5b60008281526020808220600860001990940193840401805463ffffffff600460078716026101000a0219169055919092556001600160e01b03198516825286905260408120558062000bc05760028501546001600160a01b03851660009081526001878101602052604090912001546000199091019080821462000b6f57600087600201838154811062000b0457fe5b6000918252602090912001546002890180546001600160a01b03909216925082918490811062000b3057fe5b600091825260208083209190910180546001600160a01b0319166001600160a01b03948516179055929091168152600189810190925260409020018190555b8660020180548062000b7d57fe5b60008281526020808220830160001990810180546001600160a01b03191690559092019092556001600160a01b0388168252600189810190915260408220015550505b5050505050565b6040805160608082018352600080835260208301529181019190915290565b80516001600160a01b038116811462000bfe57600080fd5b919050565b6000806000806080858703121562000c19578384fd5b62000c248562000be6565b935062000c346020860162000be6565b925062000c446040860162000be6565b915062000c546060860162000be6565b905092959194509250565b6001600160a01b03169052565b6000815180845262000c8681602086016020860162000f5a565b601f01601f19169290920160200192915050565b6000825162000cae81846020870162000f5a565b9190910192915050565b606080825284518282018190526000919060809081850190602080820287018401818b01875b8481101562000d7557898303607f19018652815180516001600160a01b0316845284810151898501906003811062000d1257fe5b858701526040918201519185018a9052815190819052908501908a90898601905b8083101562000d5f5783516001600160e01b031916825292870192600192909201919087019062000d33565b5097860197945050509083019060010162000cde565b505062000d858289018b62000c5f565b878103604089015262000d99818a62000c6c565b9b9a5050505050505050505050565b60006020825262000dbd602083018462000c6c565b9392505050565b60208082526003908201526205349360ec1b604082015260600190565b60208082526003908201526229a4a960e91b604082015260600190565b60208082526003908201526205341360ec1b604082015260600190565b60208082526003908201526253494360e81b604082015260600190565b60208082526003908201526229a92960e91b604082015260600190565b60208082526003908201526253524960e81b604082015260600190565b60208082526003908201526229a92360e91b604082015260600190565b60208082526003908201526253464560e81b604082015260600190565b60208082526003908201526205352360ec1b604082015260600190565b60208082526003908201526253524560e81b604082015260600190565b60208082526003908201526229a4a360e91b604082015260600190565b602080825260039082015262534e4f60e81b604082015260600190565b602080825260039082015262534e5360e81b604082015260600190565b60208082526003908201526253455360e81b604082015260600190565b60005b8381101562000f7757818101518382015260200162000f5d565b83811115620003ce5750506000910152565b6130908062000f996000396000f3fe6080604052600436106101235760003560e01c80636fd39a8f116100a0578063dbe7b59211610064578063dbe7b59214610499578063dec2ed1e146104b9578063ebb3190c146104d9578063f1db58bc146104f9578063f4a802f2146105195761012a565b80636fd39a8f146103c457806373730d4c146103f1578063893d20e81461041e57806399fbab8814610440578063abf0f8a1146104795761012a565b8063519f5099116100e7578063519f50991461031457806355939dc9146103415780635e9396151461036f5780636a3e7dec1461038f5780636a4911fc146103a45761012a565b806312a2fa761461024d578063150b7a02146102785780632f4ac572146102a55780633943f72c146102d257806342b86270146102f45761012a565b3661012a57005b610132610549565b6001600160a01b031663c200a811336040518263ffffffff1660e01b815260040161015d919061299a565b60206040518083038186803b15801561017557600080fd5b505afa158015610189573d6000803e3d6000fd5b505050506040513d601f19601f820116820180604052508101906101ad9190612673565b806101b757503330145b6101dc5760405162461bcd60e51b81526004016101d390612c3a565b60405180910390fd5b60006101e66105d4565b600080356001600160e01b0319168152602082905260409020549091506001600160a01b0316806102295760405162461bcd60e51b81526004016101d390612cb0565b3660008037600080366000845af43d6000803e808015610248573d6000f35b3d6000fd5b34801561025957600080fd5b506102626105f8565b60405161026f9190612b0b565b60405180910390f35b34801561028457600080fd5b506102986102933660046124f1565b6105fe565b60405161026f9190612b14565b3480156102b157600080fd5b506102c56102c03660046127c5565b61060e565b60405161026f9190612e4e565b3480156102de57600080fd5b506102f26102ed366004612824565b610658565b005b34801561030057600080fd5b506102f261030f3660046125a7565b610727565b34801561032057600080fd5b5061033461032f3660046127c5565b61083b565b60405161026f9190612d98565b34801561034d57600080fd5b5061036161035c36600461285b565b610957565b60405161026f929190612ab8565b34801561037b57600080fd5b506102f261038a366004612748565b6109c1565b34801561039b57600080fd5b50610262610b4e565b3480156103b057600080fd5b506102626103bf3660046127f5565b610b54565b3480156103d057600080fd5b506103e46103df3660046127c5565b610b71565b60405161026f9190612b29565b3480156103fd57600080fd5b5061041161040c3660046127c5565b610b86565b60405161026f9190612b00565b34801561042a57600080fd5b50610433610b97565b60405161026f919061299a565b34801561044c57600080fd5b5061046061045b3660046127c5565b610bb3565b60405161026f9d9c9b9a99989796959493929190612ed1565b34801561048557600080fd5b506102f261049436600461287c565b610c30565b3480156104a557600080fd5b506102626104b43660046127f5565b610dcb565b3480156104c557600080fd5b506102626104d43660046127c5565b610df3565b3480156104e557600080fd5b506102f26104f43660046128e5565b610e44565b34801561050557600080fd5b506102626105143660046126d5565b610f96565b34801561052557600080fd5b506105396105343660046127c5565b6112d3565b60405161026f9493929190612f7d565b60006105536105d4565b60049081015460408051637b10399960e01b815290516001600160a01b0390921692637b103999928282019260209290829003018186803b15801561059757600080fd5b505afa1580156105ab573d6000803e3d6000fd5b505050506040513d601f19601f820116820180604052508101906105cf91906124d5565b905090565b7fd5aa5c52d76b5d2be1bece4b96c91e533fe2611adb0c19cf868dadf921fc13b890565b60005481565b630a85bd0160e11b949350505050565b6106166123fe565b50600090815260036020818152604092839020835160808101855281548152600182015492810192909252600281015493820193909352910154606082015290565b610660610549565b6001600160a01b031663c200a811336040518263ffffffff1660e01b815260040161068b919061299a565b60206040518083038186803b1580156106a357600080fd5b505afa1580156106b7573d6000803e3d6000fd5b505050506040513d601f19601f820116820180604052508101906106db9190612673565b806106e557503330145b6107015760405162461bcd60e51b81526004016101d390612c3a565b60009283526005602090815260408085206001600160a01b039094168552929052912055565b61072f610549565b6001600160a01b0316635aa6e6756040518163ffffffff1660e01b815260040160206040518083038186803b15801561076757600080fd5b505afa15801561077b573d6000803e3d6000fd5b505050506040513d601f19601f8201168201806040525081019061079f91906124d5565b6001600160a01b0316336001600160a01b0316146107cf5760405162461bcd60e51b81526004016101d390612d40565b60006107d96105d4565b60038101549091506001600160a01b031660006107f7858386611511565b90507fbfed55bdcd242e3dd0f60ddd7d1e87c67f61c34cd9527b3e6455d841b102536285838360405161082c939291906129ae565b60405180910390a15050505050565b610843612426565b5060008181526002602081815260409283902083516101a081018552815480825260018301546001600160a01b031693820193909352818401546001600160801b0319608091821b169582019590955260038201546060820152600482015494810194909452600581015460a0850152600681015460c0850152600781015460e085015260088101546101008501526009810154610120850152600a810154610140850152600b015480830b830b830b61016085015263010000009004820b820b90910b61018083015215801590610936575060008281526004602052604081205460ff16600281111561093357fe5b14155b6109525760405162461bcd60e51b81526004016101d390612c92565b919050565b606060006109b660018054806020026020016040519081016040528092919081815260200182805480156109aa57602002820191906000526020600020905b815481526020019060010190808311610996575b505050505085856115c1565b915091509250929050565b6109c9610549565b6001600160a01b031663c200a811336040518263ffffffff1660e01b81526004016109f4919061299a565b60206040518083038186803b158015610a0c57600080fd5b505afa158015610a20573d6000803e3d6000fd5b505050506040513d601f19601f82011682018060405250810190610a449190612673565b80610a4e57503330145b610a6a5760405162461bcd60e51b81526004016101d390612c3a565b80516000908152600460209081526040808320805460ff191660029081179091558285015185518552818452828520600701558185015185518552828520600801558451845281842060090184905584518452818420600a0184905581516080808201845260608088015183529087015182860190815260a088015183860190815260c08901519284019283528851885260039687905285882093518455905160018401555192820192909255905192019190915582519051909133917fa9e0cdf27a7965d21573ebb808fbcb2c2a1cfd656e1ecf3f82549437b47406779190a350565b60015490565b600560209081526000928352604080842090915290825290205481565b60046020526000908152604090205460ff1681565b6000610b918261166a565b92915050565b6000610ba16105d4565b600301546001600160a01b0316905090565b6002602081905260009182526040909120805460018201548284015460038401546004850154600586015460068701546007880154600889015460098a0154600a8b0154600b909b0154999b6001600160a01b039099169a60809890981b99969895979496939592949193909281810b9163010000009004900b8d565b610c38610549565b6001600160a01b031663c200a811336040518263ffffffff1660e01b8152600401610c63919061299a565b60206040518083038186803b158015610c7b57600080fd5b505afa158015610c8f573d6000803e3d6000fd5b505050506040513d601f19601f82011682018060405250810190610cb39190612673565b80610cbd57503330145b610cd95760405162461bcd60e51b81526004016101d390612c3a565b87610ce38161166a565b610cff5760405162461bcd60e51b81526004016101d390612be0565b6000898152600260208190526040909120898155600b8101805462ffffff19168a840b62ffffff9081169190911765ffffff00000019166301000000948b900b919091169390930292909217909155600781018690556008810185905560098101849055600a01829055610d7288611692565b88336001600160a01b03167f37bda77da1f3fd6ccd1b4f0f745ce6f0b90425dcc3f496760b47b977bf43673a8a8a8a8a8a8a8a604051610db89796959493929190612f47565b60405180910390a3505050505050505050565b60009182526005602090815260408084206001600160a01b0393909316845291905290205490565b600060015b6000548111610e2b576000818152600260205260409020548190841415610e225791506109529050565b50600101610df8565b5060405162461bcd60e51b81526004016101d390612c92565b610e4c610549565b6001600160a01b031663c200a811336040518263ffffffff1660e01b8152600401610e77919061299a565b60206040518083038186803b158015610e8f57600080fd5b505afa158015610ea3573d6000803e3d6000fd5b505050506040513d601f19601f82011682018060405250810190610ec79190612673565b80610ed157503330145b610eed5760405162461bcd60e51b81526004016101d390612c3a565b86610ef78161166a565b610f135760405162461bcd60e51b81526004016101d390612be0565b600088815260026020526040908190206003810189905560048101889055600581018790556006810186905560098101859055600a0183905551889033907f922d5757cb8bf53d762ce750fc76a7fce3d4f5c3156958d1db1375cea3fa952090610f84908b908b9089908990612f7d565b60405180910390a35050505050505050565b6000610fa0610549565b6001600160a01b031663c200a811336040518263ffffffff1660e01b8152600401610fcb919061299a565b60206040518083038186803b158015610fe357600080fd5b505afa158015610ff7573d6000803e3d6000fd5b505050506040513d601f19601f8201168201806040525081019061101b9190612673565b8061102557503330145b6110415760405162461bcd60e51b81526004016101d390612c3a565b6110496117f9565b600081815260046020908152604091829020805460ff1916600117905581516101a0810183528535815292935082810191611089919086019086016124b9565b6001600160a01b031681526020016110a76060850160408601612693565b6001600160801b031916815260200183606001358152602001836080013581526020018360a0013581526020018360c0013581526020016000815260200160008152602001836101200135815260200183610140013581526020018360e001602081019061111591906126bb565b60020b815260200161112f610120850161010086016126bb565b600290810b9091526000838152602082815260409182902084518155908401516001820180546001600160a01b039092166001600160a01b0319909216919091179055908301518183018054608092831c6001600160801b031990911617905560608401516003830155830151600482015560a0830151600582015560c0830151600682015560e0830151600782015561010083015160088201556101208301516009820155610140830151600a820155610160830151600b909101805461018090940151830b62ffffff90811663010000000265ffffff000000199390940b1662ffffff19909416939093171617905561122a8235611692565b61123381611807565b80337fb27dcef0f495a0da875e7f861e6824ea459dc69587dd15f3920a3c14fbbf4657843561126860408701602088016124b9565b6112786060880160408901612693565b606088013560808901356101208a01356101408b013561129f6101008d0160e08e016126bb565b6112b16101208e016101008f016126bb565b6040516112c699989796959493929190612e79565b60405180910390a3919050565b600360208190526000918252604090912080546001820154600283015492909301549092919084565b6001600160a01b0381166113225760405162461bcd60e51b81526004016101d390612d23565b600061132c6105d4565b6003810180546001600160a01b031981166001600160a01b038681169182179093559293501690811461139a57826001600160a01b0316816001600160a01b03167f8be0079c531659141344cd1fd0a4f28419497f9722a3daafe3b4186f6b6457e060405160405180910390a35b505050565b825160005b818110156114c55760008582815181106113ba57fe5b6020026020010151602001519050600060028111156113d557fe5b8160028111156113e157fe5b14156114245761141f8683815181106113f657fe5b60200260200101516000015187848151811061140e57fe5b602002602001015160400151611961565b6114bc565b600181600281111561143257fe5b14156114705761141f86838151811061144757fe5b60200260200101516000015187848151811061145f57fe5b602002602001015160400151611a71565b600281600281111561147e57fe5b14156114a45761141f86838151811061149357fe5b602002602001015160400151611b8a565b60405162461bcd60e51b81526004016101d390612d06565b506001016113a4565b507f8faa70878671ccd212d20771b795c50af8fd3ff6cf27f4bde57e5d4de0aeb6738484846040516114f9939291906129d2565b60405180910390a161150b8383611c17565b50505050565b600080846001600160a01b03166370a08231306040518263ffffffff1660e01b8152600401611540919061299a565b60206040518083038186803b15801561155857600080fd5b505afa15801561156c573d6000803e3d6000fd5b505050506040513d601f19601f8201168201806040525081019061159091906127dd565b90508083106115a1578091506115a5565b8291505b6115b96001600160a01b0386168584611d09565b509392505050565b82516060906000908481038411156115d95784810393505b8367ffffffffffffffff811180156115f057600080fd5b5060405190808252806020026020018201604052801561161a578160200160208202803683370190505b50925060005b8481101561165d57868187018151811061163657fe5b602002602001015184828151811061164a57fe5b6020908102919091010152600101611620565b5091959390920193505050565b6000600160008381526004602052604090205460ff16600281111561168b57fe5b1492915050565b803061169c6105d4565b60050160009054906101000a90046001600160a01b03166001600160a01b0316635bfccac96040518163ffffffff1660e01b815260040160206040518083038186803b1580156116eb57600080fd5b505afa1580156116ff573d6000803e3d6000fd5b505050506040513d601f19601f8201168201806040525081019061172391906124d5565b6001600160a01b0316636352211e836040518263ffffffff1660e01b815260040161174e9190612b0b565b60206040518083038186803b15801561176657600080fd5b505afa15801561177a573d6000803e3d6000fd5b505050506040513d601f19601f8201168201806040525081019061179e91906124d5565b6001600160a01b0316146117c45760405162461bcd60e51b81526004016101d390612bfe565b506001805480820182556000919091527fb10e2d527612073b26eecdfd717e6a320cf44b4afac2b0732d9fcbe2b7fa0cf60155565b600080546001019081905590565b6000611811610549565b6001600160a01b0316633a8141cc6040518163ffffffff1660e01b815260040160006040518083038186803b15801561184957600080fd5b505afa15801561185d573d6000803e3d6000fd5b505050506040513d6000823e601f3d908101601f1916820160405261188591908101906125d2565b805190915060005b8181101561150b57600061189f610549565b6001600160a01b031663211b20a38584815181106118b957fe5b60200260200101516040518263ffffffff1660e01b81526004016118dd9190612b0b565b60606040518083038186803b1580156118f557600080fd5b505afa158015611909573d6000803e3d6000fd5b505050506040513d601f19601f8201168201806040525081019061192d91906126ed565b604080820151600088815260056020908152838220948101516001600160a01b03168252939093529120555060010161188d565b805161197f5760405162461bcd60e51b81526004016101d390612d5e565b60006119896105d4565b90506001600160a01b0383166119b15760405162461bcd60e51b81526004016101d390612b89565b6001600160a01b03831660009081526001820160205260409020546001600160601b0381166119e4576119e48285611d5b565b825160005b81811015611a695760008582815181106119ff57fe5b6020908102919091018101516001600160e01b031981166000908152918790526040909120549091506001600160a01b03168015611a4f5760405162461bcd60e51b81526004016101d390612c75565b611a5b8683878b611da3565b5050600192830192016119e9565b505050505050565b8051611a8f5760405162461bcd60e51b81526004016101d390612c58565b6000611a996105d4565b90506001600160a01b038316611ac15760405162461bcd60e51b81526004016101d390612ccc565b6001600160a01b03831660009081526001820160205260409020546001600160601b038116611af457611af48285611d5b565b825160005b81811015611a69576000858281518110611b0f57fe5b6020908102919091018101516001600160e01b031981166000908152918790526040909120549091506001600160a01b03908116908816811415611b655760405162461bcd60e51b81526004016101d390612bc3565b611b70868284611e43565b611b7c8683878b611da3565b505060019283019201611af9565b8051611ba85760405162461bcd60e51b81526004016101d390612d7b565b6000611bb26105d4565b825190915060005b8181101561150b576000848281518110611bd057fe5b6020908102919091018101516001600160e01b031981166000908152918690526040909120549091506001600160a01b0316611c0d858284611e43565b5050600101611bba565b6001600160a01b038216611c4957805115611c445760405162461bcd60e51b81526004016101d390612b4f565b611d05565b8051611c675760405162461bcd60e51b81526004016101d390612ba6565b600080836001600160a01b031683604051611c82919061297e565b600060405180830381855af49150503d8060008114611cbd576040519150601f19603f3d011682016040523d82523d6000602084013e611cc2565b606091505b50915091508161150b57805115611ced578060405162461bcd60e51b81526004016101d39190612b3c565b60405162461bcd60e51b81526004016101d390612b6c565b5050565b604080516001600160a01b038416602482015260448082018490528251808303909101815260649091019091526020810180516001600160e01b031663a9059cbb60e01b17905261139a90849061212f565b6002820180546001600160a01b0390921660008181526001948501602090815260408220860185905594840183559182529290200180546001600160a01b0319169091179055565b6001600160e01b0319831660008181526020868152604080832080546001600160601b03909716600160a01b026001600160a01b0397881617815594909516808352600180890183529583208054968701815583528183206008870401805460e09890981c60046007909816979097026101000a96870263ffffffff9097021990971695909517909555529290915281546001600160a01b031916179055565b6001600160a01b038216611e695760405162461bcd60e51b81526004016101d390612ce9565b6001600160a01b038216301415611e925760405162461bcd60e51b81526004016101d390612c1d565b6001600160e01b03198116600090815260208481526040808320546001600160a01b03861684526001870190925290912054600160a01b9091046001600160601b03169060001901808214611fbe576001600160a01b03841660009081526001860160205260408120805483908110611f0757fe5b600091825260208083206008830401546001600160a01b038916845260018a019091526040909220805460079092166004026101000a90920460e01b925082919085908110611f5257fe5b600091825260208083206008830401805463ffffffff60079094166004026101000a938402191660e09590951c929092029390931790556001600160e01b03199290921682528690526040902080546001600160a01b0316600160a01b6001600160601b038516021790555b6001600160a01b03841660009081526001860160205260409020805480611fe157fe5b60008281526020808220600860001990940193840401805463ffffffff600460078716026101000a0219169055919092556001600160e01b0319851682528690526040812055806121285760028501546001600160a01b0385166000908152600187810160205260409091200154600019909101908082146120d857600087600201838154811061206e57fe5b6000918252602090912001546002890180546001600160a01b03909216925082918490811061209957fe5b600091825260208083209190910180546001600160a01b0319166001600160a01b03948516179055929091168152600189810190925260409020018190555b866002018054806120e557fe5b60008281526020808220830160001990810180546001600160a01b03191690559092019092556001600160a01b0388168252600189810190915260408220015550505b5050505050565b6000612184826040518060400160405280602081526020017f5361666545524332303a206c6f772d6c6576656c2063616c6c206661696c6564815250856001600160a01b03166121e09092919063ffffffff16565b80519091501561139a578080602001905160208110156121a357600080fd5b505161139a5760405162461bcd60e51b815260040180806020018281038252602a815260200180613031602a913960400191505060405180910390fd5b60606121ef84846000856121f9565b90505b9392505050565b60608247101561223a5760405162461bcd60e51b815260040180806020018281038252602681526020018061300b6026913960400191505060405180910390fd5b61224385612354565b612294576040805162461bcd60e51b815260206004820152601d60248201527f416464726573733a2063616c6c20746f206e6f6e2d636f6e7472616374000000604482015290519081900360640190fd5b600080866001600160a01b031685876040518082805190602001908083835b602083106122d25780518252601f1990920191602091820191016122b3565b6001836020036101000a03801982511681845116808217855250505050505090500191505060006040518083038185875af1925050503d8060008114612334576040519150601f19603f3d011682016040523d82523d6000602084013e612339565b606091505b509150915061234982828661235a565b979650505050505050565b3b151590565b606083156123695750816121f2565b8251156123795782518084602001fd5b8160405162461bcd60e51b81526004018080602001828103825283818151815260200191508051906020019080838360005b838110156123c35781810151838201526020016123ab565b50505050905090810190601f1680156123f05780820380516001836020036101000a031916815260200191505b509250505060405180910390fd5b6040518060800160405280600081526020016000815260200160008152602001600081525090565b604051806101a001604052806000815260200160006001600160a01b0316815260200160006001600160801b03191681526020016000815260200160008152602001600081526020016000815260200160008152602001600081526020016000815260200160008152602001600060020b8152602001600060020b81525090565b8035600281900b811461095257600080fd5b6000602082840312156124ca578081fd5b81356121f281612ff5565b6000602082840312156124e6578081fd5b81516121f281612ff5565b60008060008060808587031215612506578283fd5b843561251181612ff5565b935060208581013561252281612ff5565b935060408601359250606086013567ffffffffffffffff80821115612545578384fd5b818801915088601f830112612558578384fd5b81358181111561256457fe5b612576601f8201601f19168501612f98565b9150808252898482850101111561258b578485fd5b8084840185840137810190920192909252939692955090935050565b600080604083850312156125b9578182fd5b82356125c481612ff5565b946020939093013593505050565b600060208083850312156125e4578182fd5b825167ffffffffffffffff808211156125fb578384fd5b818501915085601f83011261260e578384fd5b81518181111561261a57fe5b838102915061262a848301612f98565b8181528481019084860184860187018a1015612644578788fd5b8795505b83861015612666578051835260019590950194918601918601612648565b5098975050505050505050565b600060208284031215612684578081fd5b815180151581146121f2578182fd5b6000602082840312156126a4578081fd5b81356001600160801b0319811681146121f2578182fd5b6000602082840312156126cc578081fd5b6121f2826124a7565b600061016082840312156126e7578081fd5b50919050565b6000606082840312156126fe578081fd5b6040516060810181811067ffffffffffffffff8211171561271b57fe5b60405282518152602083015161273081612ff5565b60208201526040928301519281019290925250919050565b600060e08284031215612759578081fd5b60405160e0810181811067ffffffffffffffff8211171561277657fe5b8060405250823581526020830135602082015260408301356040820152606083013560608201526080830135608082015260a083013560a082015260c083013560c08201528091505092915050565b6000602082840312156127d6578081fd5b5035919050565b6000602082840312156127ee578081fd5b5051919050565b60008060408385031215612807578182fd5b82359150602083013561281981612ff5565b809150509250929050565b600080600060608486031215612838578081fd5b83359250602084013561284a81612ff5565b929592945050506040919091013590565b6000806040838503121561286d578182fd5b50508035926020909101359150565b600080600080600080600080610100898b031215612898578586fd5b88359750602089013596506128af60408a016124a7565b95506128bd60608a016124a7565b979a969950949760808101359660a0820135965060c0820135955060e0909101359350915050565b600080600080600080600060e0888a0312156128ff578081fd5b505085359760208701359750604087013596606081013596506080810135955060a0810135945060c0013592509050565b6001600160a01b03169052565b6001600160801b0319169052565b60008151808452612963816020860160208601612fbc565b601f01601f19169290920160200192915050565b60020b9052565b60008251612990818460208701612fbc565b9190910192915050565b6001600160a01b0391909116815260200190565b6001600160a01b039384168152919092166020820152604081019190915260600190565b606080825284518282018190526000919060809081850190602080820287018401818b01875b84811015612a8957898303607f19018652815180516001600160a01b031684528481015189850190612a2981612fe8565b858701526040918201519185018a9052815190819052908501908a90898601905b80831015612a745783516001600160e01b0319168252928701926001929092019190870190612a4a565b509786019794505050908301906001016129f8565b5050612a978289018b612930565b8781036040890152612aa9818a61294b565b9b9a5050505050505050505050565b604080825283519082018190526000906020906060840190828701845b82811015612af157815184529284019290840190600101612ad5565b50505092019290925292915050565b901515815260200190565b90815260200190565b6001600160e01b031991909116815260200190565b60208101612b3683612fe8565b91905290565b6000602082526121f2602083018461294b565b60208082526003908201526205349360ec1b604082015260600190565b60208082526003908201526229a4a960e91b604082015260600190565b60208082526003908201526205341360ec1b604082015260600190565b60208082526003908201526253494360e81b604082015260600190565b60208082526003908201526229a92960e91b604082015260600190565b6020808252600490820152632826a82960e11b604082015260600190565b6020808252600590820152640504d4f4f560dc1b604082015260600190565b60208082526003908201526253524960e81b604082015260600190565b602080825260049082015263504d4f5760e01b604082015260600190565b60208082526003908201526229a92360e91b604082015260600190565b60208082526003908201526253464560e81b604082015260600190565b6020808252600490820152630504d47560e41b604082015260600190565b602080825260029082015261504d60f01b604082015260600190565b60208082526003908201526205352360ec1b604082015260600190565b60208082526003908201526253524560e81b604082015260600190565b60208082526003908201526229a4a360e91b604082015260600190565b602080825260039082015262534e4f60e81b604082015260600190565b602080825260049082015263504d4f4760e01b604082015260600190565b602080825260039082015262534e5360e81b604082015260600190565b60208082526003908201526253455360e81b604082015260600190565b815181526020808301516101a0830191612db490840182612930565b506040830151612dc7604084018261293d565b50606083015160608301526080830151608083015260a083015160a083015260c083015160c083015260e083015160e083015261010080840151818401525061012080840151818401525061014080840151818401525061016080840151612e3182850182612977565b505061018080840151612e4682850182612977565b505092915050565b8151815260208083015190820152604080830151908201526060918201519181019190915260800190565b9889526001600160a01b039790971660208901526001600160801b03199590951660408801526060870193909352608086019190915260a085015260c0840152600290810b60e08401520b6101008201526101200190565b9c8d526001600160a01b039b909b1660208d01526001600160801b03199990991660408c015260608b019790975260808a019590955260a089019390935260c088019190915260e0870152610100860152610120850152610140840152600290810b6101608401520b6101808201526101a00190565b968752600295860b60208801529390940b60408601526060850191909152608084015260a083019190915260c082015260e00190565b93845260208401929092526040830152606082015260800190565b60405181810167ffffffffffffffff81118282101715612fb457fe5b604052919050565b60005b83811015612fd7578181015183820152602001612fbf565b8381111561150b5750506000910152565b60038110612ff257fe5b50565b6001600160a01b0381168114612ff257600080fdfe416464726573733a20696e73756666696369656e742062616c616e636520666f722063616c6c5361666545524332303a204552433230206f7065726174696f6e20646964206e6f742073756363656564a2646970667358221220dea8d8a40a13b3627d2afa03c7a15daa90bcc5ba5dbf825a4d7bc2f154bfbded64736f6c63430007060033a2646970667358221220995f0208664e892ea6cdc3d4360a4cc30c37de40c3b8309e41526be36aa0121c64736f6c63430007060033",
  "devdoc": {
    "events": {
      "PositionManagerCreated(address,address)": {
        "params": {
          "positionManager": "address of PositionManager",
          "user": "address of user"
        }
      }
    },
    "kind": "dev",
    "methods": {
      "create()": {
        "returns": {
          "_0": "address return new PositionManager address"
        }
      },
      "getPositionManagers(uint256,uint256)": {
        "params": {
          "cursor": "is the aforementioned cursor. It simply indicates the starting index for enumeration. The first call should pass 0, and subsequent calls should pass the returned newCursor.",
          "howMany": "indicates how many items should be returned. If there arent enough remaining items in the array, the function will return fewer items."
        },
        "returns": {
          "managers": "address[] return array of PositionManager addresses",
          "newCursor": "uint256 return the new cursor"
        }
      },
      "getPositionManagersLength()": {
        "returns": {
          "_0": "uint256 return length of PositionManager array"
        }
      },
      "paused()": {
        "details": "Returns true if the contract is paused, and false otherwise."
      },
      "updateActionData((address,uint8,bytes4[]))": {
        "params": {
          "facetAction": "facet of the action to add or remove from position manager factory"
        }
      },
      "updateDiamond(address,(address,uint8,bytes4[])[])": {
        "details": "Add (0) Replace(1) Remove(2)",
        "params": {
          "actionsToUpdate": "contains the facet addresses and function selectors of the actions",
          "positionManager": "address of the position manager on which one should modified an action"
        }
      }
    },
    "version": 1
  },
  "userdoc": {
    "events": {
      "PositionManagerCreated(address,address)": {
        "notice": "emitted when a new position manager is created"
      }
    },
    "kind": "user",
    "methods": {
      "create()": {
        "notice": "deploy new positionManager and assign to userAddress"
      },
      "getPositionManagers(uint256,uint256)": {
        "notice": "get the array of position manager addresses"
      },
      "getPositionManagersLength()": {
        "notice": "get the length of position manager array"
      },
      "pause()": {
        "notice": "pause the factory"
      },
      "unpause()": {
        "notice": "unpause the factory"
      },
      "updateActionData((address,uint8,bytes4[]))": {
        "notice": "adds or removes an action to/from the factory"
      },
      "updateDiamond(address,(address,uint8,bytes4[])[])": {
        "notice": "update actions already existing on positionManager"
      }
    },
    "version": 1
  },
  "storageLayout": {
    "storage": [
      {
        "astId": 2001,
        "contract": "contracts/PositionManagerFactory.sol:PositionManagerFactory",
        "label": "_paused",
        "offset": 0,
        "slot": "0",
        "type": "t_bool"
      },
      {
        "astId": 6006,
        "contract": "contracts/PositionManagerFactory.sol:PositionManagerFactory",
        "label": "positionManagers",
        "offset": 0,
        "slot": "1",
        "type": "t_array(t_address)dyn_storage"
      },
      {
        "astId": 6009,
        "contract": "contracts/PositionManagerFactory.sol:PositionManagerFactory",
        "label": "actions",
        "offset": 0,
        "slot": "2",
        "type": "t_array(t_struct(FacetCut)13713_storage)dyn_storage"
      },
      {
        "astId": 6014,
        "contract": "contracts/PositionManagerFactory.sol:PositionManagerFactory",
        "label": "userToPositionManager",
        "offset": 0,
        "slot": "3",
        "type": "t_mapping(t_address,t_address)"
      }
    ],
    "types": {
      "t_address": {
        "encoding": "inplace",
        "label": "address",
        "numberOfBytes": "20"
      },
      "t_array(t_address)dyn_storage": {
        "base": "t_address",
        "encoding": "dynamic_array",
        "label": "address[]",
        "numberOfBytes": "32"
      },
      "t_array(t_bytes4)dyn_storage": {
        "base": "t_bytes4",
        "encoding": "dynamic_array",
        "label": "bytes4[]",
        "numberOfBytes": "32"
      },
      "t_array(t_struct(FacetCut)13713_storage)dyn_storage": {
        "base": "t_struct(FacetCut)13713_storage",
        "encoding": "dynamic_array",
        "label": "struct IDiamondCut.FacetCut[]",
        "numberOfBytes": "32"
      },
      "t_bool": {
        "encoding": "inplace",
        "label": "bool",
        "numberOfBytes": "1"
      },
      "t_bytes4": {
        "encoding": "inplace",
        "label": "bytes4",
        "numberOfBytes": "4"
      },
      "t_enum(FacetCutAction)13705": {
        "encoding": "inplace",
        "label": "enum IDiamondCut.FacetCutAction",
        "numberOfBytes": "1"
      },
      "t_mapping(t_address,t_address)": {
        "encoding": "mapping",
        "key": "t_address",
        "label": "mapping(address => address)",
        "numberOfBytes": "32",
        "value": "t_address"
      },
      "t_struct(FacetCut)13713_storage": {
        "encoding": "inplace",
        "label": "struct IDiamondCut.FacetCut",
        "members": [
          {
            "astId": 13707,
            "contract": "contracts/PositionManagerFactory.sol:PositionManagerFactory",
            "label": "facetAddress",
            "offset": 0,
            "slot": "0",
            "type": "t_address"
          },
          {
            "astId": 13709,
            "contract": "contracts/PositionManagerFactory.sol:PositionManagerFactory",
            "label": "action",
            "offset": 20,
            "slot": "0",
            "type": "t_enum(FacetCutAction)13705"
          },
          {
            "astId": 13712,
            "contract": "contracts/PositionManagerFactory.sol:PositionManagerFactory",
            "label": "functionSelectors",
            "offset": 0,
            "slot": "1",
            "type": "t_array(t_bytes4)dyn_storage"
          }
        ],
        "numberOfBytes": "64"
      }
    }
  }
}