{
  "address": "0xf049A64F82C15705a263c968C90A2EeD2Ad3166C",
  "abi": [
    {
      "inputs": [
        {
          "internalType": "address",
          "name": "_registry",
          "type": "address"
        },
        {
          "internalType": "address",
          "name": "_diamondCutFacet",
          "type": "address"
        },
        {
          "internalType": "address",
          "name": "_uniswapAddressHolder",
          "type": "address"
        }
      ],
      "stateMutability": "nonpayable",
      "type": "constructor"
    },
    {
      "anonymous": false,
      "inputs": [
        {
          "indexed": true,
          "internalType": "address",
          "name": "positionManager",
          "type": "address"
        },
        {
          "indexed": false,
          "internalType": "address",
          "name": "user",
          "type": "address"
        }
      ],
      "name": "PositionManagerCreated",
      "type": "event"
    },
    {
      "inputs": [
        {
          "internalType": "uint256",
          "name": "",
          "type": "uint256"
        }
      ],
      "name": "actions",
      "outputs": [
        {
          "internalType": "address",
          "name": "facetAddress",
          "type": "address"
        },
        {
          "internalType": "enum IDiamondCut.FacetCutAction",
          "name": "action",
          "type": "uint8"
        }
      ],
      "stateMutability": "view",
      "type": "function"
    },
    {
      "inputs": [],
      "name": "create",
      "outputs": [
        {
          "internalType": "address",
          "name": "",
          "type": "address"
        }
      ],
      "stateMutability": "nonpayable",
      "type": "function"
    },
    {
      "inputs": [],
      "name": "diamondCutFacet",
      "outputs": [
        {
          "internalType": "address",
          "name": "",
          "type": "address"
        }
      ],
      "stateMutability": "view",
      "type": "function"
    },
    {
      "inputs": [
        {
          "internalType": "uint256",
          "name": "cursor",
          "type": "uint256"
        },
        {
          "internalType": "uint256",
          "name": "howMany",
          "type": "uint256"
        }
      ],
      "name": "getPositionManagers",
      "outputs": [
        {
          "internalType": "address[]",
          "name": "managers",
          "type": "address[]"
        },
        {
          "internalType": "uint256",
          "name": "newCursor",
          "type": "uint256"
        }
      ],
      "stateMutability": "view",
      "type": "function"
    },
    {
      "inputs": [],
      "name": "getPositionManagersLength",
      "outputs": [
        {
          "internalType": "uint256",
          "name": "",
          "type": "uint256"
        }
      ],
      "stateMutability": "view",
      "type": "function"
    },
    {
      "inputs": [
        {
          "internalType": "uint256",
          "name": "",
          "type": "uint256"
        }
      ],
      "name": "positionManagers",
      "outputs": [
        {
          "internalType": "address",
          "name": "",
          "type": "address"
        }
      ],
      "stateMutability": "view",
      "type": "function"
    },
    {
      "inputs": [],
      "name": "registry",
      "outputs": [
        {
          "internalType": "address",
          "name": "",
          "type": "address"
        }
      ],
      "stateMutability": "view",
      "type": "function"
    },
    {
      "inputs": [],
      "name": "uniswapAddressHolder",
      "outputs": [
        {
          "internalType": "address",
          "name": "",
          "type": "address"
        }
      ],
      "stateMutability": "view",
      "type": "function"
    },
    {
      "inputs": [
        {
          "components": [
            {
              "internalType": "address",
              "name": "facetAddress",
              "type": "address"
            },
            {
              "internalType": "enum IDiamondCut.FacetCutAction",
              "name": "action",
              "type": "uint8"
            },
            {
              "internalType": "bytes4[]",
              "name": "functionSelectors",
              "type": "bytes4[]"
            }
          ],
          "internalType": "struct IDiamondCut.FacetCut",
          "name": "facetAction",
          "type": "tuple"
        }
      ],
      "name": "updateActionData",
      "outputs": [],
      "stateMutability": "nonpayable",
      "type": "function"
    },
    {
      "inputs": [
        {
          "internalType": "address",
          "name": "positionManager",
          "type": "address"
        },
        {
          "components": [
            {
              "internalType": "address",
              "name": "facetAddress",
              "type": "address"
            },
            {
              "internalType": "enum IDiamondCut.FacetCutAction",
              "name": "action",
              "type": "uint8"
            },
            {
              "internalType": "bytes4[]",
              "name": "functionSelectors",
              "type": "bytes4[]"
            }
          ],
          "internalType": "struct IDiamondCut.FacetCut[]",
          "name": "actionsToUpdate",
          "type": "tuple[]"
        }
      ],
      "name": "updateDiamond",
      "outputs": [],
      "stateMutability": "nonpayable",
      "type": "function"
    },
    {
      "inputs": [
        {
          "internalType": "address",
          "name": "",
          "type": "address"
        }
      ],
      "name": "userToPositionManager",
      "outputs": [
        {
          "internalType": "address",
          "name": "",
          "type": "address"
        }
      ],
      "stateMutability": "view",
      "type": "function"
    }
  ],
  "transactionHash": "0x016872191b667dfd9aaece2cb09615918851a1b90738b596c214986757e1eeb9",
  "args": [
    "0xB33A5c53d7039C2fb8eE49be83070115E2ee50Fb",
    "0xbEb7dC12B7cb818A699044c5594FEBCa49805a40",
    "0xf44Fad0121c698882CA90C2673b22F391FBE872f"
  ],
  "numDeployments": 1,
  "solcInputHash": "08f28bc02234e5e762609eefb667e33a",
  "bytecode": "0x60e06040523480156200001157600080fd5b5060405162005b2838038062005b28833981016040819052620000349162000079565b6001600160601b0319606093841b811660805291831b821660a05290911b1660c052620000c2565b80516001600160a01b03811681146200007457600080fd5b919050565b6000806000606084860312156200008e578283fd5b62000099846200005c565b9250620000a9602085016200005c565b9150620000b9604085016200005c565b90509250925092565b60805160601c60a05160601c60c05160601c615a1262000116600039806107cf5280610a1a5250806107ab52806109215250806101f5528061061b528061074c52806109425280610b325250615a126000f3fe60806040523480156200001157600080fd5b5060043610620000b85760003560e01c806383240f83116200007b57806383240f83146200013f578063a051e9b31462000166578063c0f06ca41462000170578063c81e0f91146200017a578063cd1719151462000191578063efc81a8c14620001b857620000b8565b806320e467f614620000bd5780634d78530d14620000ec5780636cbaebe51462000105578063766cadc4146200011e5780637b1039991462000135575b600080fd5b620000d4620000ce36600462000f30565b620001c2565b604051620000e3919062000f95565b60405180910390f35b620000f6620001ed565b604051620000e3919062001478565b6200011c6200011636600462000ef5565b620001f3565b005b6200011c6200012f36600462000d40565b62000619565b620000d46200074a565b620001566200015036600462000f30565b6200076e565b604051620000e392919062000fe6565b620000d4620007a9565b620000d4620007cd565b620000d46200018b36600462000cfb565b620007f1565b620001a8620001a236600462000f49565b6200080c565b604051620000e392919062001005565b620000d4620008e3565b60008181548110620001d357600080fd5b6000918252602090912001546001600160a01b0316905081565b60005490565b7f00000000000000000000000000000000000000000000000000000000000000006001600160a01b0316635aa6e6756040518163ffffffff1660e01b815260040160206040518083038186803b1580156200024d57600080fd5b505afa15801562000262573d6000803e3d6000fd5b505050506040513d601f19601f8201168201806040525081019062000288919062000d21565b6001600160a01b0316336001600160a01b031614620002c45760405162461bcd60e51b8152600401620002bb906200145b565b60405180910390fd5b6002620002d8604083016020840162000ed6565b6002811115620002e457fe5b1415620004545760015460005b81811015620004395762000309602084018462000cfb565b6001600160a01b0316600182815481106200032057fe5b60009182526020909120600290910201546001600160a01b0316141562000430576001808303815481106200035157fe5b9060005260206000209060020201600182815481106200036d57fe5b600091825260209091208254600292830290910180546001600160a01b0319166001600160a01b03909216919091178082558354919260ff600160a01b938490041692849260ff60a01b1916918490811115620003c657fe5b021790555060018281018054620003e1928401919062000c4c565b509050506001805480620003f157fe5b60008281526020812060026000199093019283020180546001600160a81b03191681559062000424600183018262000caf565b50509055505062000616565b600101620002f1565b5060405162461bcd60e51b8152600401620002bb906200143e565b600162000468604083016020840162000ed6565b60028111156200047457fe5b1415620005105760015460005b81811015620004395762000499602084018462000cfb565b6001600160a01b031660018281548110620004b057fe5b60009182526020909120600290910201546001600160a01b0316141562000507578260018281548110620004e057fe5b90600052602060002090600202018181620004fc9190620015c9565b905050505062000616565b60010162000481565b600062000524604083016020840162000ed6565b60028111156200053057fe5b1415620005fc5760015460005b81811015620005b05762000555602084018462000cfb565b6001600160a01b0316600182815481106200056c57fe5b60009182526020909120600290910201546001600160a01b03161415620005a75760405162461bcd60e51b8152600401620002bb906200143e565b6001016200053d565b5060018054808201825560009190915282906002027fb10e2d527612073b26eecdfd717e6a320cf44b4afac2b0732d9fcbe2b7fa0cf601620005f38282620015c9565b50505062000616565b60405162461bcd60e51b8152600401620002bb906200143e565b50565b7f00000000000000000000000000000000000000000000000000000000000000006001600160a01b0316635aa6e6756040518163ffffffff1660e01b815260040160206040518083038186803b1580156200067357600080fd5b505afa15801562000688573d6000803e3d6000fd5b505050506040513d601f19601f82011682018060405250810190620006ae919062000d21565b6001600160a01b0316336001600160a01b031614620006e15760405162461bcd60e51b8152600401620002bb906200145b565b6040516307e4c70760e21b81526001600160a01b03831690631f931c1c906200071290849060009060040162001058565b600060405180830381600087803b1580156200072d57600080fd5b505af115801562000742573d6000803e3d6000fd5b505050505050565b7f000000000000000000000000000000000000000000000000000000000000000081565b600181815481106200077f57600080fd5b60009182526020909120600290910201546001600160a01b0381169150600160a01b900460ff1682565b7f000000000000000000000000000000000000000000000000000000000000000081565b7f000000000000000000000000000000000000000000000000000000000000000081565b6002602052600090815260409020546001600160a01b031681565b600080546060919083908590038111156200082957506000548490035b8067ffffffffffffffff811180156200084157600080fd5b506040519080825280602002602001820160405280156200086c578160200160208202803683370190505b50925060005b81811015620008d7576000818701815481106200088b57fe5b9060005260206000200160009054906101000a90046001600160a01b0316848281518110620008b657fe5b6001600160a01b039092166020928302919091019091015260010162000872565b50840190509250929050565b336000908152600260205260408120546001600160a01b0316156200091c5760405162461bcd60e51b8152600401620002bb9062001421565b6000337f00000000000000000000000000000000000000000000000000000000000000007f00000000000000000000000000000000000000000000000000000000000000006040516200096f9062000cd6565b6200097d9392919062000fc3565b604051809103906000f0801580156200099a573d6000803e3d6000fd5b50600080546001810182557f290decd9548b62a8d60345a988386fc84ba6bc95484008f6362f93160ef3e5630180546001600160a01b0384166001600160a01b0319918216811790925533808452600260205260409384902080549092168317909155915163784d200b60e11b81529293509163f09a40169162000a43917f00000000000000000000000000000000000000000000000000000000000000009060040162000fa9565b600060405180830381600087803b15801562000a5e57600080fd5b505af115801562000a73573d6000803e3d6000fd5b50506040516307e4c70760e21b81526001600160a01b0384169250631f931c1c915062000aa99060019060009060040162001147565b600060405180830381600087803b15801562000ac457600080fd5b505af115801562000ad9573d6000803e3d6000fd5b5050505062000ae83362000b30565b806001600160a01b03167fcd08baef8491fbefc9205236874e188ae474400c7fbf8022f3b86d97ec5bc40f3360405162000b23919062000f95565b60405180910390a2905090565b7f00000000000000000000000000000000000000000000000000000000000000006001600160a01b031663f80ffbd56040518163ffffffff1660e01b815260040160206040518083038186803b15801562000b8a57600080fd5b505afa15801562000b9f573d6000803e3d6000fd5b505050506040513d601f19601f8201168201806040525081019062000bc5919062000d21565b6001600160a01b0316639ed93318826040518263ffffffff1660e01b815260040162000bf2919062000f95565b602060405180830381600087803b15801562000c0d57600080fd5b505af115801562000c22573d6000803e3d6000fd5b505050506040513d601f19601f8201168201806040525081019062000c48919062000d21565b5050565b8280548282559060005260206000209060070160089004810192821562000c9d576000526020600020916007016008900482015b8281111562000c9d57825482559160010191906001019062000c80565b5062000cab92915062000ce4565b5090565b50805460008255600701600890049060005260206000209081019062000616919062000ce4565b6142f780620016e683390190565b5b8082111562000cab576000815560010162000ce5565b60006020828403121562000d0d578081fd5b813562000d1a81620016aa565b9392505050565b60006020828403121562000d33578081fd5b815162000d1a81620016aa565b6000806040838503121562000d53578081fd5b62000d5f8335620016aa565b82359150602083013567ffffffffffffffff8082111562000d7e578283fd5b818501915085601f83011262000d92578283fd5b62000da862000da28335620014a6565b62001481565b82358152602080820191908401855b853581101562000ec757813586016060818c03601f1901121562000dd9578788fd5b60405160608101818110888211171562000def57fe5b604052602082013562000e0281620016aa565b8152604082013562000e1481620016d7565b602082015260608201358781111562000e2b57898afd5b8083019250508b603f83011262000e40578889fd5b602082013562000e5462000da282620014a6565b80828252602082019150604085018f604060208602880101111562000e77578c8dfd5b8c95505b8386101562000ea85762000e908135620016c0565b80358352600195909501946020928301920162000e7b565b5060408401525050855250602093840193919091019060010162000db7565b50959890975095505050505050565b60006020828403121562000ee8578081fd5b813562000d1a81620016d7565b60006020828403121562000f07578081fd5b813567ffffffffffffffff81111562000f1e578182fd5b82016060818503121562000d1a578182fd5b60006020828403121562000f42578081fd5b5035919050565b6000806040838503121562000f5c578182fd5b50508035926020909101359150565b6001600160a01b03169052565b6001600160e01b0319169052565b6003811062000f9157fe5b9052565b6001600160a01b0391909116815260200190565b6001600160a01b0392831681529116602082015260400190565b6001600160a01b0393841681529183166020830152909116604082015260600190565b6001600160a01b03831681526040810162000d1a602083018462000f86565b604080825283519082018190526000906020906060840190828701845b82811015620010495781516001600160a01b03168452928401929084019060010162001022565b50505092019290925292915050565b606080825283518282018190526000919060809081850190602080820287018401818a01875b848110156200111557898303607f19018652815180516001600160a01b031684528481015189850190620010b58787018262000f86565b506040918201519185018a9052815190819052908501908a90898601905b80831015620010ff5783516001600160e01b0319168252928701926001929092019190870190620010d3565b509786019794505050908301906001016200107e565b5050620011258289018a62000f6b565b878103604089015262001139878262001478565b9a9950505050505050505050565b60006060825260608201845480825260808401915060206080818302860101878552818520855b84811015620013f157878303607f1901865281546001600160a01b0381168452620011a385850160a083901c60ff1662000f86565b506001606060408501526060840181840154620011c1818362001478565b9150620011d0838601620014c5565b8a5b8260078201101562001297578154620011ef858260e01b62000f78565b6001600160e01b03196200120c868c0160c084901b831662000f78565b6200122060408701828460a01b1662000f78565b6200123460608701828460801b1662000f78565b6200124860808701828460601b1662000f78565b6200125c60a08701828460401b1662000f78565b6200126f60c0870182848e1b1662000f78565b6200128060e0870182841662000f78565b5050610100939093019290840190600801620011d2565b90549082811015620012b957620012b2848360e01b62000f78565b9288019284015b82811015620012e357620012dc8460c084901b6001600160e01b03191662000f78565b9288019284015b828110156200130d57620013068460a084901b6001600160e01b03191662000f78565b9288019284015b8281101562001337576200133084608084901b6001600160e01b03191662000f78565b9288019284015b8281101562001361576200135a84606084901b6001600160e01b03191662000f78565b9288019284015b828110156200138b576200138484604084901b6001600160e01b03191662000f78565b9288019284015b82811015620013b357620013ac84838b1b6001600160e01b03191662000f78565b9288019284015b82811015620013d757620013d2846001600160e01b0319841662000f78565b928801925b50505096850196935050600291909101906001016200116e565b5050620014018287018862000f6b565b858103604087015262001415858262001478565b98975050505050505050565b60208082526003908201526205046560ec1b604082015260600190565b60208082526003908201526250465560e81b604082015260600190565b60208082526003908201526250464760e81b604082015260600190565b90815260200190565b60405181810167ffffffffffffffff811182821017156200149e57fe5b604052919050565b600067ffffffffffffffff821115620014bb57fe5b5060209081020190565b60009081526020902090565b68010000000000000000831115620014e557fe5b805483825580841015620015505760008281526020812060086007870104810160086007850104820191506004600788160280156200153557600019808301805482846020036008021c16815550505b505b818110156200154c5782815560010162001537565b5050505b50816200155d82620014c5565b6000805b86811015620015ab57620015816200157985620015b4565b838562001686565b602084019350600482019150601c821115620015a257600091506001830192505b60010162001561565b50505050505050565b60008135620015c381620016c0565b92915050565b8135620015d681620016aa565b81546001600160a01b0319166001600160a01b03919091161780825560208301356200160281620016d7565b600381106200160d57fe5b60ff60a01b199190911660a09190911b60ff60a01b16178155604082013536839003601e190181126200163f57600080fd5b8201803567ffffffffffffffff8111156200165957600080fd5b602091820191810236038213156200167057600080fd5b62001680818360018601620014d1565b50505050565b80546008830263ffffffff811b808660e01c831b1681198416178455505050505050565b6001600160a01b03811681146200061657600080fd5b6001600160e01b0319811681146200061657600080fd5b600381106200061657600080fdfe6080604052604051620042f7380380620042f7833981016040819052620000269162000c38565b6200003c836200016f60201b6200150b1760201c565b604080516001808252818301909252600091816020015b6200005d62000bfc565b815260200190600190039081620000535750506040805160018082528183019092529192506000919060208083019080368337019050509050631f931c1c60e01b81600081518110620000ac57fe5b6001600160e01b031990921660209283029190910182015260408051606081019091526001600160a01b0386168152908101600081526020018281525082600081518110620000f757fe5b60200260200101819052506200012a826000604051806020016040528060008152506200022160201b620015ae1760201c565b600062000141620003da60201b6200067a1760201c565b60050180546001600160a01b0319166001600160a01b0395909516949094179093555062000fc89350505050565b6001600160a01b038116620001a15760405162461bcd60e51b8152600401620001989062000f25565b60405180910390fd5b6000620001ad620003da565b6004810180546001600160a01b031981166001600160a01b03868116918217909355929350169081146200021c57826001600160a01b0316816001600160a01b03167f8be0079c531659141344cd1fd0a4f28419497f9722a3daafe3b4186f6b6457e060405160405180910390a35b505050565b825160005b818110156200038a5760008582815181106200023e57fe5b6020026020010151602001519050600060028111156200025a57fe5b8160028111156200026757fe5b1415620002b657620002b08683815181106200027f57fe5b6020026020010151600001518784815181106200029857fe5b602002602001015160400151620003fe60201b60201c565b62000380565b6001816002811115620002c557fe5b14156200030e57620002b0868381518110620002dd57fe5b602002602001015160000151878481518110620002f657fe5b6020026020010151604001516200052160201b60201c565b60028160028111156200031d57fe5b14156200036657620002b08683815181106200033557fe5b6020026020010151600001518784815181106200034e57fe5b6020026020010151604001516200064f60201b60201c565b60405162461bcd60e51b8152600401620001989062000f08565b5060010162000226565b507f8faa70878671ccd212d20771b795c50af8fd3ff6cf27f4bde57e5d4de0aeb673848484604051620003c09392919062000cda565b60405180910390a1620003d4838362000716565b50505050565b7fd5aa5c52d76b5d2be1bece4b96c91e533fe2611adb0c19cf868dadf921fc13b890565b80516200041f5760405162461bcd60e51b8152600401620001989062000f5f565b60006200042b620003da565b90506001600160a01b038316620004565760405162461bcd60e51b8152600401620001989062000e20565b6001600160a01b03831660009081526001820160205260409020546001600160601b0381166200048c576200048c82856200081a565b825160005b8181101562000519576000858281518110620004a957fe5b6020908102919091018101516001600160e01b031981166000908152918790526040909120549091506001600160a01b03168015620004fc5760405162461bcd60e51b8152600401620001989062000eb1565b6200050a8683878b62000862565b50506001928301920162000491565b505050505050565b8051620005425760405162461bcd60e51b8152600401620001989062000e94565b60006200054e620003da565b90506001600160a01b038316620005795760405162461bcd60e51b8152600401620001989062000ece565b6001600160a01b03831660009081526001820160205260409020546001600160601b038116620005af57620005af82856200081a565b825160005b8181101562000519576000858281518110620005cc57fe5b6020908102919091018101516001600160e01b031981166000908152918790526040909120549091506001600160a01b03908116908816811415620006255760405162461bcd60e51b8152600401620001989062000e5a565b6200063286828462000902565b620006408683878b62000862565b505060019283019201620005b4565b8051620006705760405162461bcd60e51b8152600401620001989062000f7c565b60006200067c620003da565b90506001600160a01b03831615620006a85760405162461bcd60e51b8152600401620001989062000f42565b815160005b818110156200070f576000848281518110620006c557fe5b6020908102919091018101516001600160e01b031981166000908152918690526040909120549091506001600160a01b03166200070485828462000902565b5050600101620006ad565b5050505050565b6001600160a01b0382166200074d57805115620007475760405162461bcd60e51b8152600401620001989062000de6565b62000816565b80516200076e5760405162461bcd60e51b8152600401620001989062000e3d565b600080836001600160a01b0316836040516200078b919062000cbc565b600060405180830381855af49150503d8060008114620007c8576040519150601f19603f3d011682016040523d82523d6000602084013e620007cd565b606091505b509150915081620003d457805115620007fc578060405162461bcd60e51b815260040162000198919062000dca565b60405162461bcd60e51b8152600401620001989062000e03565b5050565b6002820180546001600160a01b0390921660008181526001948501602090815260408220860185905594840183559182529290200180546001600160a01b0319169091179055565b6001600160e01b0319831660008181526020868152604080832080546001600160601b03909716600160a01b026001600160a01b0397881617815594909516808352600180890183529583208054968701815583528183206008870401805460e09890981c60046007909816979097026101000a96870263ffffffff9097021990971695909517909555529290915281546001600160a01b031916179055565b6001600160a01b0382166200092b5760405162461bcd60e51b8152600401620001989062000eeb565b6001600160a01b038216301415620009575760405162461bcd60e51b8152600401620001989062000e77565b6001600160e01b03198116600090815260208481526040808320546001600160a01b03861684526001870190925290912054600160a01b9091046001600160601b0316906000190180821462000a86576001600160a01b03841660009081526001860160205260408120805483908110620009ce57fe5b600091825260208083206008830401546001600160a01b038916845260018a019091526040909220805460079092166004026101000a90920460e01b92508291908590811062000a1a57fe5b600091825260208083206008830401805463ffffffff60079094166004026101000a938402191660e09590951c929092029390931790556001600160e01b03199290921682528690526040902080546001600160a01b0316600160a01b6001600160601b038516021790555b6001600160a01b0384166000908152600186016020526040902080548062000aaa57fe5b60008281526020808220600860001990940193840401805463ffffffff600460078716026101000a0219169055919092556001600160e01b0319851682528690526040812055806200070f5760028501546001600160a01b03851660009081526001878101602052604090912001546000199091019080821462000ba557600087600201838154811062000b3a57fe5b6000918252602090912001546002890180546001600160a01b03909216925082918490811062000b6657fe5b600091825260208083209190910180546001600160a01b0319166001600160a01b03948516179055929091168152600189810190925260409020018190555b8660020180548062000bb357fe5b60008281526020808220830160001990810180546001600160a01b03191690559092019092556001600160a01b0388168252600189810190915260408220015550505050505050565b6040805160608082018352600080835260208301529181019190915290565b80516001600160a01b038116811462000c3357600080fd5b919050565b60008060006060848603121562000c4d578283fd5b62000c588462000c1b565b925062000c686020850162000c1b565b915062000c786040850162000c1b565b90509250925092565b6001600160a01b03169052565b6000815180845262000ca881602086016020860162000f99565b601f01601f19169290920160200192915050565b6000825162000cd081846020870162000f99565b9190910192915050565b606080825284518282018190526000919060809081850190602080820287018401818b01875b8481101562000d9757898303607f19018652815180516001600160a01b0316845284810151898501906003811062000d3457fe5b858701526040918201519185018a9052815190819052908501908a90898601905b8083101562000d815783516001600160e01b031916825292870192600192909201919087019062000d55565b5097860197945050509083019060010162000d00565b505062000da78289018b62000c81565b878103604089015262000dbb818a62000c8e565b9b9a5050505050505050505050565b60006020825262000ddf602083018462000c8e565b9392505050565b60208082526003908201526205349360ec1b604082015260600190565b60208082526003908201526229a4a960e91b604082015260600190565b60208082526003908201526205341360ec1b604082015260600190565b60208082526003908201526253494360e81b604082015260600190565b60208082526003908201526229a92960e91b604082015260600190565b60208082526003908201526253524960e81b604082015260600190565b60208082526003908201526229a92360e91b604082015260600190565b60208082526003908201526253464560e81b604082015260600190565b60208082526003908201526205352360ec1b604082015260600190565b60208082526003908201526253524560e81b604082015260600190565b60208082526003908201526229a4a360e91b604082015260600190565b602080825260039082015262534e4f60e81b604082015260600190565b60208082526003908201526205345360ec1b604082015260600190565b602080825260039082015262534e5360e81b604082015260600190565b60208082526003908201526253455360e81b604082015260600190565b60005b8381101562000fb657818101518382015260200162000f9c565b83811115620003d45750506000910152565b61331f8062000fd86000396000f3fe6080604052600436106101395760003560e01c806373730d4c116100ab578063b82344d31161006f578063b82344d31461044d578063cd9c18411461046d578063dbe7b59214610482578063e0adc11e146104a2578063ef393a8c146104c2578063f09a4016146104e257610143565b806373730d4c1461037657806373cc1154146103a3578063893d20e8146103d157806399fbab88146103f3578063abf0f8a11461042d57610143565b806348413aa9116100fd57806348413aa9146102b4578063519f5099146102d457806355939dc9146103015780635e939615146103215780636a3e7dec146103415780636a4911fc1461035657610143565b8063150b7a02146101ec57806333cfdd691461022257806334927e6f146102445780633943f72c146102725780634543f79e1461029457610143565b3661014357600080fd5b61014c33610502565b8061015657503330145b61017b5760405162461bcd60e51b815260040161017290612f18565b60405180910390fd5b600061018561067a565b600080356001600160e01b0319168152602082905260409020549091506001600160a01b0316806101c85760405162461bcd60e51b815260040161017290612f8d565b3660008037600080366000845af43d6000803e8080156101e7573d6000f35b3d6000fd5b3480156101f857600080fd5b5061020c61020736600461280b565b61069e565b6040516102199190612db5565b60405180910390f35b34801561022e57600080fd5b506102376106ae565b6040516102199190612dac565b34801561025057600080fd5b5061026461025f366004612b15565b6106b4565b604051610219929190612d59565b34801561027e57600080fd5b5061029261028d366004612ade565b610765565b005b3480156102a057600080fd5b506102926102af36600461279b565b6107ba565b3480156102c057600080fd5b506102646102cf366004612b15565b610918565b3480156102e057600080fd5b506102f46102ef366004612a8a565b6109bd565b60405161021991906130af565b34801561030d57600080fd5b5061026461031c366004612b15565b610aba565b34801561032d57600080fd5b5061029261033c366004612a0d565b610b5f565b34801561034d57600080fd5b50610237610bfa565b34801561036257600080fd5b50610237610371366004612aba565b610c00565b34801561038257600080fd5b50610396610391366004612a8a565b610c1d565b6040516102199190612da1565b3480156103af57600080fd5b506103c36103be366004612a8a565b610c2e565b604051610219929190612dca565b3480156103dd57600080fd5b506103e6610c85565b6040516102199190612c3a565b3480156103ff57600080fd5b5061041361040e366004612a8a565b610ca3565b6040516102199e9d9c9b9a9998979695949392919061316e565b34801561043957600080fd5b50610292610448366004612b36565b610d27565b34801561045957600080fd5b50610292610468366004612b9f565b610df6565b34801561047957600080fd5b50610237610e75565b34801561048e57600080fd5b5061023761049d366004612aba565b610e7b565b3480156104ae57600080fd5b506102376104bd3660046129a4565b610ea3565b3480156104ce57600080fd5b506102f46104dd366004612a8a565b6110e9565b3480156104ee57600080fd5b506102926104fd3660046127d3565b611365565b60008061050d61067a565b905060008160050160009054906101000a90046001600160a01b03166001600160a01b0316633a8141cc6040518163ffffffff1660e01b815260040160006040518083038186803b15801561056157600080fd5b505afa158015610575573d6000803e3d6000fd5b505050506040513d6000823e601f3d908101601f1916820160405261059d91908101906128c1565b805190915060005b8181101561066c57600584015483516001600160a01b0380891692169063211b20a3908690859081106105d457fe5b60200260200101516040518263ffffffff1660e01b81526004016105f89190612dac565b604080518083038186803b15801561060f57600080fd5b505afa158015610623573d6000803e3d6000fd5b505050506040513d601f19601f8201168201806040525081019061064791906129bc565b516001600160a01b03161415610664576001945050505050610675565b6001016105a5565b50600093505050505b919050565b7fd5aa5c52d76b5d2be1bece4b96c91e533fe2611adb0c19cf868dadf921fc13b890565b630a85bd0160e11b949350505050565b60025490565b60015460609060009083908590038111156106d157506001548490035b8067ffffffffffffffff811180156106e857600080fd5b50604051908082528060200260200182016040528015610712578160200160208202803683370190505b50925060005b818110156107595760018187018154811061072f57fe5b906000526020600020015484828151811061074657fe5b6020908102919091010152600101610718565b50840190509250929050565b61076e33610502565b8061077857503330145b6107945760405162461bcd60e51b815260040161017290612f18565b60009283526006602090815260408085206001600160a01b039094168552929052912055565b60006107c461067a565b90508060050160009054906101000a90046001600160a01b03166001600160a01b0316635aa6e6756040518163ffffffff1660e01b815260040160206040518083038186803b15801561081657600080fd5b505afa15801561082a573d6000803e3d6000fd5b505050506040513d601f19601f8201168201806040525081019061084e91906127b7565b6001600160a01b0316336001600160a01b03161461087e5760405162461bcd60e51b815260040161017290613057565b600061088861067a565b60048101549091506001600160a01b031660006108a58530611732565b905060006108b48684846117b8565b90508082146108d55760405162461bcd60e51b815260040161017290613000565b7fbfed55bdcd242e3dd0f60ddd7d1e87c67f61c34cd9527b3e6455d841b102536286848360405161090893929190612c4e565b60405180910390a1505050505050565b600254606090600090839085900381111561093557506002548490035b8067ffffffffffffffff8111801561094c57600080fd5b50604051908082528060200260200182016040528015610976578160200160208202803683370190505b50925060005b818110156107595760028187018154811061099357fe5b90600052602060002001548482815181106109aa57fe5b602090810291909101015260010161097c565b6109c5612701565b5060008181526005602081815260409283902083516101c081018552815480825260018301546001600160a01b0316938201939093526002808301546001600160801b0319608091821b1696830196909652600383015460608301526004830154958201959095529281015460a0840152600681015460c0840152600781015460e0840152600881015480850b850b850b61010085015263010000009004840b840b90930b6101208301526009830154610140830152600a830154610160830152600b830154610180830152600c909201546101a0820152906106755760405162461bcd60e51b815260040161017290612f70565b6004546060906000908390859003811115610ad757506004548490035b8067ffffffffffffffff81118015610aee57600080fd5b50604051908082528060200260200182016040528015610b18578160200160208202803683370190505b50925060005b8181101561075957600481870181548110610b3557fe5b9060005260206000200154848281518110610b4c57fe5b6020908102919091010152600101610b1e565b610b6833610502565b80610b7257503330145b610b8e5760405162461bcd60e51b815260040161017290612f18565b8051600090815260056020818152604080842091850151600483015584015191810191909155606083015160098201556080830151600a82015560a0830151600b82015560c0830151600c8201556006810182905560078101919091558151610bf6906117f6565b5050565b60045490565b600660209081526000928352604080842090915290825290205481565b6000610c288261185b565b92915050565b60008181526005602052604081205481908390610c5d5760405162461bcd60e51b815260040161017290612e48565b505050600090815260056020526040902060080154600281810b926301000000909204900b90565b600080610c9061067a565b600401546001600160a01b031691505090565b600560208190526000918252604090912080546001820154600280840154600385015460048601549686015460068701546007880154600889015460098a0154600a8b0154600b8c0154600c909c01549a9c6001600160a01b03909a169b60809890981b9a96999895979496939583810b956301000000909404900b93919290918e565b610d3033610502565b80610d3a57503330145b610d565760405162461bcd60e51b815260040161017290612f18565b87610d608161185b565b610d7c5760405162461bcd60e51b815260040161017290612ea0565b600089815260056020819052604090912089815560088101805462ffffff191660028b810b62ffffff9081169290921765ffffff00000019166301000000918c900b9290921602179055600481018790559081018590556006810184905560078101839055610dea896118a3565b50505050505050505050565b610dff33610502565b80610e0957503330145b610e255760405162461bcd60e51b815260040161017290612f18565b6000848152600560205260409020548490610e525760405162461bcd60e51b815260040161017290612e48565b506000938452600560205260409093206003810192909255600682015560070155565b60015490565b60009182526006602090815260408084206001600160a01b0393909316845291905290205490565b6000610eae33610502565b80610eb857503330145b610ed45760405162461bcd60e51b815260040161017290612f18565b610edc611a1a565b6001805480820182556000919091527fb10e2d527612073b26eecdfd717e6a320cf44b4afac2b0732d9fcbe2b7fa0cf601819055604080516101c08101825284358152919250602082810191610f379190860190860161279b565b6001600160a01b03168152602001610f556060850160408601612962565b6001600160801b03191681526020018360600135815260200160008152602001600081526020018360c0013581526020018360e001358152602001836080016020810190610fa3919061298a565b60020b8152602001610fbb60c0850160a0860161298a565b600290810b82526000602080840182905260408085018390526060808601849052608095860184905287845260058084529382902087518155928701516001840180546001600160a01b039092166001600160a01b031990921691909117905590860151828501805491871c6001600160801b0319909216919091179055850151600382015592840151600484015560a08401519083015560c0830151600683015560e08301516007830155610100830151600883018054610120860151840b62ffffff90811663010000000265ffffff000000199490950b1662ffffff1990911617919091169190911790556101408201516009820155610160820151600a820155610180820151600b8201556101a090910151600c909101556110e082356118a3565b61067581611a28565b6110f1612701565b60005b60015481101561121e5760006001828154811061110d57fe5b9060005260206000200154905083600560008381526020019081526020016000206000015414156112155760009081526005602081815260409283902083516101c0810185528154815260018201546001600160a01b0316928101929092526002808201546001600160801b0319608091821b1695840195909552600382015460608401526004820154948301949094529182015460a0820152600682015460c0820152600782015460e0820152600882015480840b840b840b61010083015263010000009004830b830b90920b6101208301526009810154610140830152600a810154610160830152600b810154610180830152600c01546101a082015291506106759050565b506001016110f4565b5060005b60025481101561134c5760006002828154811061123b57fe5b9060005260206000200154905083600560008381526020019081526020016000206000015414156113435760009081526005602081815260409283902083516101c0810185528154815260018201546001600160a01b0316928101929092526002808201546001600160801b0319608091821b1695840195909552600382015460608401526004820154948301949094529182015460a0820152600682015460c0820152600782015460e0820152600882015480840b840b840b61010083015263010000009004830b830b90920b6101208301526009810154610140830152600a810154610160830152600b810154610180830152600c01546101a082015291506106759050565b50600101611222565b5060405162461bcd60e51b815260040161017290612f70565b600061136f61067a565b9050336001600160a01b03168160050160009054906101000a90046001600160a01b03166001600160a01b0316632d2c5b586040518163ffffffff1660e01b815260040160206040518083038186803b1580156113cb57600080fd5b505afa1580156113df573d6000803e3d6000fd5b505050506040513d601f19601f8201168201806040525081019061140391906127b7565b6001600160a01b0316146114295760405162461bcd60e51b815260040161017290612efa565b600054610100900460ff16806114425750611442611ba4565b80611450575060005460ff16155b61148b5760405162461bcd60e51b815260040180806020018281038252602e815260200180613292602e913960400191505060405180910390fd5b600054610100900460ff161580156114b6576000805460ff1961ff0019909116610100171660011790555b60006114c061067a565b6004810180546001600160a01b038089166001600160a01b0319928316179092556003909201805491871691909216179055508015611505576000805461ff00191690555b50505050565b6001600160a01b0381166115315760405162461bcd60e51b81526004016101729061301d565b600061153b61067a565b6004810180546001600160a01b031981166001600160a01b03868116918217909355929350169081146115a957826001600160a01b0316816001600160a01b03167f8be0079c531659141344cd1fd0a4f28419497f9722a3daafe3b4186f6b6457e060405160405180910390a35b505050565b825160005b818110156116ec5760008582815181106115c957fe5b6020026020010151602001519050600060028111156115e457fe5b8160028111156115f057fe5b14156116335761162e86838151811061160557fe5b60200260200101516000015187848151811061161d57fe5b602002602001015160400151611bb5565b6116e3565b600181600281111561164157fe5b141561167f5761162e86838151811061165657fe5b60200260200101516000015187848151811061166e57fe5b602002602001015160400151611cc5565b600281600281111561168d57fe5b14156116cb5761162e8683815181106116a257fe5b6020026020010151600001518784815181106116ba57fe5b602002602001015160400151611dde565b60405162461bcd60e51b815260040161017290612fe3565b506001016115b3565b507f8faa70878671ccd212d20771b795c50af8fd3ff6cf27f4bde57e5d4de0aeb67384848460405161172093929190612c72565b60405180910390a16115058383611e91565b6040516370a0823160e01b81526000906001600160a01b038416906370a0823190611761908590600401612c3a565b60206040518083038186803b15801561177957600080fd5b505afa15801561178d573d6000803e3d6000fd5b505050506040513d601f19601f820116820180604052508101906117b19190612aa2565b9392505050565b6000806117c58530611732565b90508083106117d6578091506117da565b8291505b6117ee6001600160a01b0386168584611f7f565b509392505050565b806118008161185b565b61181c5760405162461bcd60e51b815260040161017290612ea0565b61182582611fd1565b50600280546001810182556000919091527f405787fa12a823e0f2b7631cc41b3ba8828b3321ca811111fa75cd3aa3bb5ace0155565b6000805b60015481101561189a57826001828154811061187757fe5b90600052602060002001541415611892576001915050610675565b60010161185f565b50600092915050565b8060006118ae61067a565b9050306001600160a01b03168160030160009054906101000a90046001600160a01b03166001600160a01b0316635bfccac96040518163ffffffff1660e01b815260040160206040518083038186803b15801561190a57600080fd5b505afa15801561191e573d6000803e3d6000fd5b505050506040513d601f19601f8201168201806040525081019061194291906127b7565b6001600160a01b0316636352211e846040518263ffffffff1660e01b815260040161196d9190612dac565b60206040518083038186803b15801561198557600080fd5b505afa158015611999573d6000803e3d6000fd5b505050506040513d601f19601f820116820180604052508101906119bd91906127b7565b6001600160a01b0316146119e35760405162461bcd60e51b815260040161017290612ebe565b5050600480546001810182556000919091527f8a35acfbc15ff81a39ae7d344fd709f28e8600b4aa8c65c6b64bfe7fe36bd19b0155565b600380546001019081905590565b6000611a3261067a565b905060008160050160009054906101000a90046001600160a01b03166001600160a01b0316633a8141cc6040518163ffffffff1660e01b815260040160006040518083038186803b158015611a8657600080fd5b505afa158015611a9a573d6000803e3d6000fd5b505050506040513d6000823e601f3d908101601f19168201604052611ac291908101906128c1565b805190915060005b81811015611b9d57600584015483516000916001600160a01b03169063211b20a390869085908110611af857fe5b60200260200101516040518263ffffffff1660e01b8152600401611b1c9190612dac565b604080518083038186803b158015611b3357600080fd5b505afa158015611b47573d6000803e3d6000fd5b505050506040513d601f19601f82011682018060405250810190611b6b91906129bc565b602080820151600089815260068352604080822094516001600160a01b03168252939092529190205550600101611aca565b5050505050565b6000611baf30612061565b15905090565b8051611bd35760405162461bcd60e51b815260040161017290613075565b6000611bdd61067a565b90506001600160a01b038316611c055760405162461bcd60e51b815260040161017290612e2b565b6001600160a01b03831660009081526001820160205260409020546001600160601b038116611c3857611c388285612067565b825160005b81811015611cbd576000858281518110611c5357fe5b6020908102919091018101516001600160e01b031981166000908152918790526040909120549091506001600160a01b03168015611ca35760405162461bcd60e51b815260040161017290612f53565b611caf8683878b6120af565b505060019283019201611c3d565b505050505050565b8051611ce35760405162461bcd60e51b815260040161017290612f36565b6000611ced61067a565b90506001600160a01b038316611d155760405162461bcd60e51b815260040161017290612fa9565b6001600160a01b03831660009081526001820160205260409020546001600160601b038116611d4857611d488285612067565b825160005b81811015611cbd576000858281518110611d6357fe5b6020908102919091018101516001600160e01b031981166000908152918790526040909120549091506001600160a01b03908116908816811415611db95760405162461bcd60e51b815260040161017290612e83565b611dc486828461214f565b611dd08683878b6120af565b505060019283019201611d4d565b8051611dfc5760405162461bcd60e51b815260040161017290613092565b6000611e0661067a565b90506001600160a01b03831615611e2f5760405162461bcd60e51b81526004016101729061303a565b815160005b81811015611b9d576000848281518110611e4a57fe5b6020908102919091018101516001600160e01b031981166000908152918690526040909120549091506001600160a01b0316611e8785828461214f565b5050600101611e34565b6001600160a01b038216611ec357805115611ebe5760405162461bcd60e51b815260040161017290612df1565b610bf6565b8051611ee15760405162461bcd60e51b815260040161017290612e66565b600080836001600160a01b031683604051611efc9190612c1e565b600060405180830381855af49150503d8060008114611f37576040519150601f19603f3d011682016040523d82523d6000602084013e611f3c565b606091505b50915091508161150557805115611f67578060405162461bcd60e51b81526004016101729190612dde565b60405162461bcd60e51b815260040161017290612e0e565b604080516001600160a01b038416602482015260448082018490528251808303909101815260649091019091526020810180516001600160e01b031663a9059cbb60e01b1790526115a990849061243a565b60005b600154811015610bf6578160018281548110611fec57fe5b906000526020600020015414156120595760018054600019810190811061200f57fe5b90600052602060002001546001828154811061202757fe5b600091825260209091200155600180548061203e57fe5b60019003818190600052602060002001600090559055610bf6565b600101611fd4565b3b151590565b6002820180546001600160a01b0390921660008181526001948501602090815260408220860185905594840183559182529290200180546001600160a01b0319169091179055565b6001600160e01b0319831660008181526020868152604080832080546001600160601b03909716600160a01b026001600160a01b0397881617815594909516808352600180890183529583208054968701815583528183206008870401805460e09890981c60046007909816979097026101000a96870263ffffffff9097021990971695909517909555529290915281546001600160a01b031916179055565b6001600160a01b0382166121755760405162461bcd60e51b815260040161017290612fc6565b6001600160a01b03821630141561219e5760405162461bcd60e51b815260040161017290612edd565b6001600160e01b03198116600090815260208481526040808320546001600160a01b03861684526001870190925290912054600160a01b9091046001600160601b031690600019018082146122ca576001600160a01b0384166000908152600186016020526040812080548390811061221357fe5b600091825260208083206008830401546001600160a01b038916845260018a019091526040909220805460079092166004026101000a90920460e01b92508291908590811061225e57fe5b600091825260208083206008830401805463ffffffff60079094166004026101000a938402191660e09590951c929092029390931790556001600160e01b03199290921682528690526040902080546001600160a01b0316600160a01b6001600160601b038516021790555b6001600160a01b038416600090815260018601602052604090208054806122ed57fe5b60008281526020808220600860001990940193840401805463ffffffff600460078716026101000a0219169055919092556001600160e01b031985168252869052604081205580611b9d5760028501546001600160a01b0385166000908152600187810160205260409091200154600019909101908082146123e457600087600201838154811061237a57fe5b6000918252602090912001546002890180546001600160a01b0390921692508291849081106123a557fe5b600091825260208083209190910180546001600160a01b0319166001600160a01b03948516179055929091168152600189810190925260409020018190555b866002018054806123f157fe5b60008281526020808220830160001990810180546001600160a01b03191690559092019092556001600160a01b0388168252600189810190915260408220015550505050505050565b600061248f826040518060400160405280602081526020017f5361666545524332303a206c6f772d6c6576656c2063616c6c206661696c6564815250856001600160a01b03166124eb9092919063ffffffff16565b8051909150156115a9578080602001905160208110156124ae57600080fd5b50516115a95760405162461bcd60e51b815260040180806020018281038252602a8152602001806132c0602a913960400191505060405180910390fd5b60606124fa8484600085612502565b949350505050565b6060824710156125435760405162461bcd60e51b815260040180806020018281038252602681526020018061326c6026913960400191505060405180910390fd5b61254c85612061565b61259d576040805162461bcd60e51b815260206004820152601d60248201527f416464726573733a2063616c6c20746f206e6f6e2d636f6e7472616374000000604482015290519081900360640190fd5b600080866001600160a01b031685876040518082805190602001908083835b602083106125db5780518252601f1990920191602091820191016125bc565b6001836020036101000a03801982511681845116808217855250505050505090500191505060006040518083038185875af1925050503d806000811461263d576040519150601f19603f3d011682016040523d82523d6000602084013e612642565b606091505b509150915061265282828661265d565b979650505050505050565b6060831561266c5750816117b1565b82511561267c5782518084602001fd5b8160405162461bcd60e51b81526004018080602001828103825283818151815260200191508051906020019080838360005b838110156126c65781810151838201526020016126ae565b50505050905090810190601f1680156126f35780820380516001836020036101000a031916815260200191505b509250505060405180910390fd5b604051806101c001604052806000815260200160006001600160a01b0316815260200160006001600160801b03191681526020016000815260200160008152602001600081526020016000815260200160008152602001600060020b8152602001600060020b8152602001600081526020016000815260200160008152602001600081525090565b8035600281900b811461067557600080fd5b6000602082840312156127ac578081fd5b81356117b181613253565b6000602082840312156127c8578081fd5b81516117b181613253565b600080604083850312156127e5578081fd5b82356127f081613253565b9150602083013561280081613253565b809150509250929050565b60008060008060808587031215612820578182fd5b843561282b81613253565b935060208581013561283c81613253565b935060408601359250606086013567ffffffffffffffff8082111561285f578384fd5b818801915088601f830112612872578384fd5b81358181111561287e57fe5b612890601f8201601f19168501613203565b915080825289848285010111156128a5578485fd5b8084840185840137810190920192909252939692955090935050565b600060208083850312156128d3578182fd5b825167ffffffffffffffff808211156128ea578384fd5b818501915085601f8301126128fd578384fd5b81518181111561290957fe5b8381029150612919848301613203565b8181528481019084860184860187018a1015612933578788fd5b8795505b83861015612955578051835260019590950194918601918601612937565b5098975050505050505050565b600060208284031215612973578081fd5b81356001600160801b0319811681146117b1578182fd5b60006020828403121561299b578081fd5b6117b182612789565b600061010082840312156129b6578081fd5b50919050565b6000604082840312156129cd578081fd5b6040516040810181811067ffffffffffffffff821117156129ea57fe5b60405282516129f881613253565b81526020928301519281019290925250919050565b600060e08284031215612a1e578081fd5b60405160e0810181811067ffffffffffffffff82111715612a3b57fe5b8060405250823581526020830135602082015260408301356040820152606083013560608201526080830135608082015260a083013560a082015260c083013560c08201528091505092915050565b600060208284031215612a9b578081fd5b5035919050565b600060208284031215612ab3578081fd5b5051919050565b60008060408385031215612acc578182fd5b82359150602083013561280081613253565b600080600060608486031215612af2578081fd5b833592506020840135612b0481613253565b929592945050506040919091013590565b60008060408385031215612b27578182fd5b50508035926020909101359150565b600080600080600080600080610100898b031215612b52578586fd5b8835975060208901359650612b6960408a01612789565b9550612b7760608a01612789565b979a969950949760808101359660a0820135965060c0820135955060e0909101359350915050565b60008060008060808587031215612bb4578182fd5b5050823594602084013594506040840135936060013592509050565b6001600160a01b03169052565b6001600160801b0319169052565b60008151808452612c03816020860160208601613227565b601f01601f19169290920160200192915050565b60020b9052565b60008251612c30818460208701613227565b9190910192915050565b6001600160a01b0391909116815260200190565b6001600160a01b039384168152919092166020820152604081019190915260600190565b606080825284518282018190526000919060809081850190602080820287018401818b01875b84811015612d2a57898303607f19018652815180516001600160a01b03168452848101518985019060038110612cca57fe5b858701526040918201519185018a9052815190819052908501908a90898601905b80831015612d155783516001600160e01b0319168252928701926001929092019190870190612ceb565b50978601979450505090830190600101612c98565b5050612d388289018b612bd0565b8781036040890152612d4a818a612beb565b9b9a5050505050505050505050565b604080825283519082018190526000906020906060840190828701845b82811015612d9257815184529284019290840190600101612d76565b50505092019290925292915050565b901515815260200190565b90815260200190565b6001600160e01b031991909116815260200190565b600292830b8152910b602082015260400190565b6000602082526117b16020830184612beb565b60208082526003908201526205349360ec1b604082015260600190565b60208082526003908201526229a4a960e91b604082015260600190565b60208082526003908201526205341360ec1b604082015260600190565b602080825260049082015263504d504560e01b604082015260600190565b60208082526003908201526253494360e81b604082015260600190565b60208082526003908201526229a92960e91b604082015260600190565b6020808252600490820152632826a82960e11b604082015260600190565b6020808252600590820152640504d4f4f560dc1b604082015260600190565b60208082526003908201526253524960e81b604082015260600190565b6020808252600490820152632826a7a360e11b604082015260600190565b602080825260049082015263504d4f5760e01b604082015260600190565b60208082526003908201526229a92360e91b604082015260600190565b60208082526003908201526253464560e81b604082015260600190565b602080825260039082015262504d5360e81b604082015260600190565b602080825260029082015261504d60f01b604082015260600190565b60208082526003908201526205352360ec1b604082015260600190565b60208082526003908201526253524560e81b604082015260600190565b60208082526003908201526229a4a360e91b604082015260600190565b602080825260039082015262504d4560e81b604082015260600190565b602080825260039082015262534e4f60e81b604082015260600190565b60208082526003908201526205345360ec1b604082015260600190565b602080825260049082015263504d4f4760e01b604082015260600190565b602080825260039082015262534e5360e81b604082015260600190565b60208082526003908201526253455360e81b604082015260600190565b815181526020808301516101c08301916130cb90840182612bd0565b5060408301516130de6040840182612bdd565b50606083015160608301526080830151608083015260a083015160a083015260c083015160c083015260e083015160e08301526101008084015161312482850182612c17565b50506101208084015161313982850182612c17565b50506101408381015190830152610160808401519083015261018080840151908301526101a092830151929091019190915290565b8e81526001600160a01b038e1660208201526001600160801b03198d166040820152606081018c9052608081018b905260a081018a905260c0810189905260e081018890526101c081016131c6610100830189612c17565b6131d4610120830188612c17565b856101408301528461016083015283610180830152826101a08301529f9e505050505050505050505050505050565b60405181810167ffffffffffffffff8111828210171561321f57fe5b604052919050565b60005b8381101561324257818101518382015260200161322a565b838111156115055750506000910152565b6001600160a01b038116811461326857600080fd5b5056fe416464726573733a20696e73756666696369656e742062616c616e636520666f722063616c6c496e697469616c697a61626c653a20636f6e747261637420697320616c726561647920696e697469616c697a65645361666545524332303a204552433230206f7065726174696f6e20646964206e6f742073756363656564a26469706673582212203463308711cd6b149b1a4d7698fd4abb2967c546db0271e53dbf0103322c4a6464736f6c63430007060033a264697066735822122045211d4833b54236554b36417ed31b23c147741737f770d3c50513667865750764736f6c63430007060033",
  "devdoc": {
    "events": {
      "PositionManagerCreated(address,address)": {
        "params": {
          "positionManager": "address of PositionManager",
          "user": "address of user"
        }
      }
    },
    "kind": "dev",
    "methods": {
      "create()": {
        "returns": {
          "_0": "address return new PositionManager address"
        }
      },
      "getPositionManagers(uint256,uint256)": {
        "params": {
          "cursor": "is the aforementioned cursor. It simply indicates the starting index for enumeration. The first call should pass 0, and subsequent calls should pass the returned newCursor.",
          "howMany": "indicates how many items should be returned. If there arent enough remaining items in the array, the function will return fewer items."
        },
        "returns": {
          "managers": "address[] return array of PositionManager addresses",
          "newCursor": "uint256 return the new cursor"
        }
      },
      "getPositionManagersLength()": {
        "returns": {
          "_0": "uint256 return length of PositionManager array"
        }
      },
      "updateActionData((address,uint8,bytes4[]))": {
        "params": {
          "facetAction": "facet of the action to add or remove from position manager factory"
        }
      },
      "updateDiamond(address,(address,uint8,bytes4[])[])": {
        "details": "Add (0) Replace(1) Remove(2)",
        "params": {
          "actionsToUpdate": "contains the facet addresses and function selectors of the actions",
          "positionManager": "address of the position manager on which one should modified an action"
        }
      }
    },
    "version": 1
  },
  "userdoc": {
    "events": {
      "PositionManagerCreated(address,address)": {
        "notice": "emitted when a new position manager is created"
      }
    },
    "kind": "user",
    "methods": {
      "create()": {
        "notice": "deploy new positionManager and assign to userAddress"
      },
      "getPositionManagers(uint256,uint256)": {
        "notice": "get the array of position manager addresses"
      },
      "getPositionManagersLength()": {
        "notice": "get the length of position manager array"
      },
      "updateActionData((address,uint8,bytes4[]))": {
        "notice": "adds or removes an action to/from the factory"
      },
      "updateDiamond(address,(address,uint8,bytes4[])[])": {
        "notice": "update actions already existing on positionManager"
      }
    },
    "version": 1
  },
  "storageLayout": {
    "storage": [
      {
        "astId": 5274,
        "contract": "contracts/PositionManagerFactory.sol:PositionManagerFactory",
        "label": "positionManagers",
        "offset": 0,
        "slot": "0",
        "type": "t_array(t_address)dyn_storage"
      },
      {
        "astId": 5277,
        "contract": "contracts/PositionManagerFactory.sol:PositionManagerFactory",
        "label": "actions",
        "offset": 0,
        "slot": "1",
        "type": "t_array(t_struct(FacetCut)12508_storage)dyn_storage"
      },
      {
        "astId": 5282,
        "contract": "contracts/PositionManagerFactory.sol:PositionManagerFactory",
        "label": "userToPositionManager",
        "offset": 0,
        "slot": "2",
        "type": "t_mapping(t_address,t_address)"
      }
    ],
    "types": {
      "t_address": {
        "encoding": "inplace",
        "label": "address",
        "numberOfBytes": "20"
      },
      "t_array(t_address)dyn_storage": {
        "base": "t_address",
        "encoding": "dynamic_array",
        "label": "address[]",
        "numberOfBytes": "32"
      },
      "t_array(t_bytes4)dyn_storage": {
        "base": "t_bytes4",
        "encoding": "dynamic_array",
        "label": "bytes4[]",
        "numberOfBytes": "32"
      },
      "t_array(t_struct(FacetCut)12508_storage)dyn_storage": {
        "base": "t_struct(FacetCut)12508_storage",
        "encoding": "dynamic_array",
        "label": "struct IDiamondCut.FacetCut[]",
        "numberOfBytes": "32"
      },
      "t_bytes4": {
        "encoding": "inplace",
        "label": "bytes4",
        "numberOfBytes": "4"
      },
      "t_enum(FacetCutAction)12500": {
        "encoding": "inplace",
        "label": "enum IDiamondCut.FacetCutAction",
        "numberOfBytes": "1"
      },
      "t_mapping(t_address,t_address)": {
        "encoding": "mapping",
        "key": "t_address",
        "label": "mapping(address => address)",
        "numberOfBytes": "32",
        "value": "t_address"
      },
      "t_struct(FacetCut)12508_storage": {
        "encoding": "inplace",
        "label": "struct IDiamondCut.FacetCut",
        "members": [
          {
            "astId": 12502,
            "contract": "contracts/PositionManagerFactory.sol:PositionManagerFactory",
            "label": "facetAddress",
            "offset": 0,
            "slot": "0",
            "type": "t_address"
          },
          {
            "astId": 12504,
            "contract": "contracts/PositionManagerFactory.sol:PositionManagerFactory",
            "label": "action",
            "offset": 20,
            "slot": "0",
            "type": "t_enum(FacetCutAction)12500"
          },
          {
            "astId": 12507,
            "contract": "contracts/PositionManagerFactory.sol:PositionManagerFactory",
            "label": "functionSelectors",
            "offset": 0,
            "slot": "1",
            "type": "t_array(t_bytes4)dyn_storage"
          }
        ],
        "numberOfBytes": "64"
      }
    }
  }
}