{
  "address": "0xA193F20f9C7c9d376886E94021199912238B3D3B",
  "abi": [
    {
      "inputs": [
        {
          "internalType": "address",
          "name": "_registry",
          "type": "address"
        },
        {
          "internalType": "address",
          "name": "_uniswapAddressHolder",
          "type": "address"
        }
      ],
      "stateMutability": "nonpayable",
      "type": "constructor"
    },
    {
      "inputs": [
        {
          "internalType": "address",
          "name": "userAddress",
          "type": "address"
        },
        {
          "internalType": "uint256",
          "name": "positionId",
          "type": "uint256"
        }
      ],
      "name": "estimateWithdrawPosition",
      "outputs": [
        {
          "components": [
            {
              "internalType": "uint256",
              "name": "amount0Returned",
              "type": "uint256"
            },
            {
              "internalType": "uint256",
              "name": "amount1Returned",
              "type": "uint256"
            },
            {
              "internalType": "uint256",
              "name": "amount0ReturnedUsdValue",
              "type": "uint256"
            },
            {
              "internalType": "uint256",
              "name": "amount1ReturnedUsdValue",
              "type": "uint256"
            },
            {
              "internalType": "uint256",
              "name": "amount0ReturnedToken1Value",
              "type": "uint256"
            },
            {
              "internalType": "uint256",
              "name": "amount1ReturnedToken0Value",
              "type": "uint256"
            }
          ],
          "internalType": "struct PositionHelper.EstimateWithdrawPositionOutput",
          "name": "output",
          "type": "tuple"
        }
      ],
      "stateMutability": "view",
      "type": "function"
    },
    {
      "inputs": [
        {
          "internalType": "address",
          "name": "userAddress",
          "type": "address"
        },
        {
          "internalType": "uint256",
          "name": "positionId",
          "type": "uint256"
        }
      ],
      "name": "getAmounts",
      "outputs": [
        {
          "internalType": "uint256",
          "name": "amount0",
          "type": "uint256"
        },
        {
          "internalType": "uint256",
          "name": "amount1",
          "type": "uint256"
        },
        {
          "internalType": "uint256",
          "name": "amount0USDValue",
          "type": "uint256"
        },
        {
          "internalType": "uint256",
          "name": "amount1USDValue",
          "type": "uint256"
        }
      ],
      "stateMutability": "view",
      "type": "function"
    },
    {
      "inputs": [
        {
          "internalType": "address",
          "name": "userAddress",
          "type": "address"
        },
        {
          "internalType": "uint256",
          "name": "positionId",
          "type": "uint256"
        }
      ],
      "name": "getPositionInfo",
      "outputs": [
        {
          "components": [
            {
              "internalType": "uint256",
              "name": "tokenId",
              "type": "uint256"
            },
            {
              "internalType": "address",
              "name": "strategyProvider",
              "type": "address"
            },
            {
              "internalType": "bytes16",
              "name": "strategyId",
              "type": "bytes16"
            },
            {
              "internalType": "uint256",
              "name": "totalDepositUSDValue",
              "type": "uint256"
            },
            {
              "internalType": "uint256",
              "name": "amount0CollectedFee",
              "type": "uint256"
            },
            {
              "internalType": "uint256",
              "name": "amount1CollectedFee",
              "type": "uint256"
            },
            {
              "internalType": "uint256",
              "name": "amount0Leftover",
              "type": "uint256"
            },
            {
              "internalType": "uint256",
              "name": "amount1Leftover",
              "type": "uint256"
            },
            {
              "internalType": "int24",
              "name": "tickLowerDiff",
              "type": "int24"
            },
            {
              "internalType": "int24",
              "name": "tickUpperDiff",
              "type": "int24"
            },
            {
              "internalType": "uint256",
              "name": "amount0Returned",
              "type": "uint256"
            },
            {
              "internalType": "uint256",
              "name": "amount1Returned",
              "type": "uint256"
            },
            {
              "internalType": "uint256",
              "name": "amount0ReturnedUsdValue",
              "type": "uint256"
            },
            {
              "internalType": "uint256",
              "name": "amount1ReturnedUsdValue",
              "type": "uint256"
            }
          ],
          "internalType": "struct IPositionManager.PositionInfo",
          "name": "pInfo",
          "type": "tuple"
        }
      ],
      "stateMutability": "view",
      "type": "function"
    },
    {
      "inputs": [
        {
          "internalType": "address",
          "name": "userAddress",
          "type": "address"
        },
        {
          "internalType": "uint256",
          "name": "positionId",
          "type": "uint256"
        }
      ],
      "name": "getPositionTokenInfo",
      "outputs": [
        {
          "components": [
            {
              "internalType": "uint256",
              "name": "tokenId",
              "type": "uint256"
            },
            {
              "internalType": "address",
              "name": "token0",
              "type": "address"
            },
            {
              "internalType": "address",
              "name": "token1",
              "type": "address"
            },
            {
              "internalType": "uint24",
              "name": "fee",
              "type": "uint24"
            },
            {
              "internalType": "int24",
              "name": "tickLower",
              "type": "int24"
            },
            {
              "internalType": "int24",
              "name": "tickUpper",
              "type": "int24"
            },
            {
              "internalType": "address",
              "name": "strategyProvider",
              "type": "address"
            },
            {
              "internalType": "bytes16",
              "name": "strategyId",
              "type": "bytes16"
            },
            {
              "internalType": "uint256",
              "name": "totalDepositUSDValue",
              "type": "uint256"
            },
            {
              "internalType": "int24",
              "name": "tickLowerDiff",
              "type": "int24"
            },
            {
              "internalType": "int24",
              "name": "tickUpperDiff",
              "type": "int24"
            }
          ],
          "internalType": "struct PositionHelper.PositionTokenInfo",
          "name": "ptInfo",
          "type": "tuple"
        }
      ],
      "stateMutability": "view",
      "type": "function"
    },
    {
      "inputs": [
        {
          "internalType": "address",
          "name": "userAddress",
          "type": "address"
        },
        {
          "internalType": "uint256",
          "name": "positionId",
          "type": "uint256"
        }
      ],
      "name": "getTickInfo",
      "outputs": [
        {
          "internalType": "int24",
          "name": "currentTick",
          "type": "int24"
        },
        {
          "internalType": "int24",
          "name": "tickLower",
          "type": "int24"
        },
        {
          "internalType": "int24",
          "name": "tickUpper",
          "type": "int24"
        }
      ],
      "stateMutability": "view",
      "type": "function"
    },
    {
      "inputs": [
        {
          "internalType": "address",
          "name": "userAddress",
          "type": "address"
        },
        {
          "internalType": "uint256",
          "name": "positionId",
          "type": "uint256"
        }
      ],
      "name": "getUncollectedFees",
      "outputs": [
        {
          "components": [
            {
              "internalType": "address",
              "name": "token0",
              "type": "address"
            },
            {
              "internalType": "address",
              "name": "token1",
              "type": "address"
            },
            {
              "internalType": "uint128",
              "name": "tokensOwed0",
              "type": "uint128"
            },
            {
              "internalType": "uint128",
              "name": "tokensOwed1",
              "type": "uint128"
            },
            {
              "internalType": "uint256",
              "name": "amount0USDValue",
              "type": "uint256"
            },
            {
              "internalType": "uint256",
              "name": "amount1USDValue",
              "type": "uint256"
            }
          ],
          "internalType": "struct PositionHelper.GetUncollectedFeesOutput",
          "name": "output",
          "type": "tuple"
        }
      ],
      "stateMutability": "view",
      "type": "function"
    },
    {
      "inputs": [
        {
          "internalType": "address",
          "name": "tokenIn",
          "type": "address"
        },
        {
          "internalType": "address",
          "name": "tokenOut",
          "type": "address"
        },
        {
          "internalType": "uint256",
          "name": "amountIn",
          "type": "uint256"
        }
      ],
      "name": "quote",
      "outputs": [
        {
          "internalType": "uint256",
          "name": "amounOut",
          "type": "uint256"
        }
      ],
      "stateMutability": "view",
      "type": "function"
    },
    {
      "inputs": [
        {
          "internalType": "address",
          "name": "token",
          "type": "address"
        },
        {
          "internalType": "uint256",
          "name": "amount",
          "type": "uint256"
        }
      ],
      "name": "quoteUsdValue",
      "outputs": [
        {
          "internalType": "uint256",
          "name": "usdValue",
          "type": "uint256"
        }
      ],
      "stateMutability": "view",
      "type": "function"
    },
    {
      "inputs": [],
      "name": "registry",
      "outputs": [
        {
          "internalType": "contract IRegistry",
          "name": "",
          "type": "address"
        }
      ],
      "stateMutability": "view",
      "type": "function"
    },
    {
      "inputs": [],
      "name": "uniswapAddressHolder",
      "outputs": [
        {
          "internalType": "contract IUniswapAddressHolder",
          "name": "",
          "type": "address"
        }
      ],
      "stateMutability": "view",
      "type": "function"
    }
  ],
  "transactionHash": "0x17b81681dbdeb0ec4be73ec9d6c774d2b334306a3d070a71fb2c510e5dd763f1",
  "args": [
    "0xB33A5c53d7039C2fb8eE49be83070115E2ee50Fb",
    "0xf44Fad0121c698882CA90C2673b22F391FBE872f"
  ],
  "numDeployments": 1,
  "solcInputHash": "08f28bc02234e5e762609eefb667e33a",
  "bytecode": "0x60c06040523480156200001157600080fd5b506040516200419f3803806200419f833981016040819052620000349162000071565b6001600160601b0319606091821b811660805291901b1660a052620000a8565b80516001600160a01b03811681146200006c57600080fd5b919050565b6000806040838503121562000084578182fd5b6200008f8362000054565b91506200009f6020840162000054565b90509250929050565b60805160601c60a05160601c6140326200016d600039806101cd52806103b95280610c365280610dd25280610e705280610ece5280610f84528061101f52806110d4528061126552806112f752806113ae528061140d5280611a9b5280611e375280611f055280611f9e528061206e528061211a52806121dc5280612280528061234552508061059e5280610708528061077a52806108b952806112d152806114d35280611545528061165d5280611b37528061259f52806126f752506140326000f3fe608060405234801561001057600080fd5b506004361061009e5760003560e01c80637b103999116100665780637b1039991461014e578063b646638414610163578063c0f06ca414610183578063edce3dde1461018b578063f3dc459f1461019e5761009e565b80631327d7fb146100a35780633590f9f6146100cc57806349420f81146100ec57806352963c8b1461010e578063671c26c71461012e575b600080fd5b6100b66100b13660046137c8565b6101c1565b6040516100c39190613df2565b60405180910390f35b6100df6100da3660046137c8565b6103ad565b6040516100c39190613eb1565b6100ff6100fa3660046137c8565b6106e7565b6040516100c393929190613cbb565b61012161011c3660046137c8565b61089c565b6040516100c39190613d93565b61014161013c3660046137c8565b610b1a565b6040516100c39190613d4f565b610156611263565b6040516100c39190613c5c565b610176610171366004613788565b611287565b6040516100c39190613f7b565b6101566112cf565b6101766101993660046137c8565b6112f3565b6101b16101ac3660046137c8565b6114ad565b6040516100c39493929190613f84565b6101c9613502565b60007f00000000000000000000000000000000000000000000000000000000000000006001600160a01b0316632d2c5b586040518163ffffffff1660e01b815260040160206040518083038186803b15801561022457600080fd5b505afa158015610238573d6000803e3d6000fd5b505050506040513d601f19601f8201168201806040525081019061025c919061376c565b6001600160a01b031663c81e0f91856040518263ffffffff1660e01b81526004016102879190613c5c565b60206040518083038186803b15801561029f57600080fd5b505afa1580156102b3573d6000803e3d6000fd5b505050506040513d601f19601f820116820180604052508101906102d7919061376c565b90506001600160a01b0381166103085760405162461bcd60e51b81526004016102ff90613d31565b60405180910390fd5b60405163519f509960e01b81526001600160a01b0382169063519f509990610334908690600401613f7b565b6101c06040518083038186803b15801561034d57600080fd5b505afa158015610361573d6000803e3d6000fd5b505050506040513d601f19601f82011682018060405250810190610385919061389b565b80519092506103a65760405162461bcd60e51b81526004016102ff90613d14565b5092915050565b6103b561358a565b60007f00000000000000000000000000000000000000000000000000000000000000006001600160a01b0316632d2c5b586040518163ffffffff1660e01b815260040160206040518083038186803b15801561041057600080fd5b505afa158015610424573d6000803e3d6000fd5b505050506040513d601f19601f82011682018060405250810190610448919061376c565b6001600160a01b031663c81e0f91856040518263ffffffff1660e01b81526004016104739190613c5c565b60206040518083038186803b15801561048b57600080fd5b505afa15801561049f573d6000803e3d6000fd5b505050506040513d601f19601f820116820180604052508101906104c3919061376c565b90506001600160a01b0381166104eb5760405162461bcd60e51b81526004016102ff90613d31565b60405163519f509960e01b81526000906001600160a01b0383169063519f50999061051a908790600401613f7b565b6101c06040518083038186803b15801561053357600080fd5b505afa158015610547573d6000803e3d6000fd5b505050506040513d601f19601f8201168201806040525081019061056b919061389b565b805190915061058c5760405162461bcd60e51b81526004016102ff90613d14565b600080600080600061063286600001517f00000000000000000000000000000000000000000000000000000000000000006001600160a01b0316635bfccac96040518163ffffffff1660e01b815260040160206040518083038186803b1580156105f557600080fd5b505afa158015610609573d6000803e3d6000fd5b505050506040513d601f19601f8201168201806040525081019061062d919061376c565b6117ea565b9450945094509450945060405180610160016040528087600001518152602001866001600160a01b03168152602001856001600160a01b031681526020018462ffffff1681526020018360020b81526020018260020b815260200187602001516001600160a01b0316815260200187604001516001600160801b03191681526020018760600151815260200187610100015160020b815260200187610120015160020b81525097505050505050505092915050565b6000806000806106f786866101c1565b9050600080600061075f84600001517f00000000000000000000000000000000000000000000000000000000000000006001600160a01b0316635bfccac96040518163ffffffff1660e01b815260040160206040518083038186803b1580156105f557600080fd5b809950819a50829550839650849750505050505060006108117f00000000000000000000000000000000000000000000000000000000000000006001600160a01b03166380f5db8c6040518163ffffffff1660e01b815260040160206040518083038186803b1580156107d157600080fd5b505afa1580156107e5573d6000803e3d6000fd5b505050506040513d601f19601f82011682018060405250810190610809919061376c565b8585856118b3565b9050806001600160a01b0316633850c7bd6040518163ffffffff1660e01b815260040160e06040518083038186803b15801561084c57600080fd5b505afa158015610860573d6000803e3d6000fd5b505050506040513d601f19601f820116820180604052508101906108849190613a99565b50939f9b9e50999c50999a5050505050505050505050565b6108a46135e6565b60006108b084846101c1565b905060008060007f00000000000000000000000000000000000000000000000000000000000000006001600160a01b0316635bfccac96040518163ffffffff1660e01b815260040160206040518083038186803b15801561091057600080fd5b505afa158015610924573d6000803e3d6000fd5b505050506040513d601f19601f82011682018060405250810190610948919061376c565b845160405163133f757160e31b81526001600160a01b0392909216916399fbab889161097691600401613f7b565b6101806040518083038186803b15801561098f57600080fd5b505afa1580156109a3573d6000803e3d6000fd5b505050506040513d601f19601f820116820180604052508101906109c79190613b52565b909192939495969798999a5090919293949596979899509091929394959650909192939495509091929394508b6000018c6020018d6040018e606001846001600160801b03166001600160801b0316815250846001600160801b03166001600160801b0316815250849950859a50869b50876001600160a01b03166001600160a01b0316815250876001600160a01b03166001600160a01b031681525050505050505050600080610a7b86600001516118d4565b91509150610a99848303866001600160801b0316600160801b61198d565b6040880180516001600160801b03920182169052610ac190848303908716600160801b61198d565b6060880180516001600160801b0392018216905287516040890151610ae692166112f3565b608088015260208701516060880151610b0891906001600160801b03166112f3565b60a08801525094979650505050505050565b610b2261361b565b610b2a613502565b600080600080600080610b3d8a8a6114ad565b5050915091506000610b4f8b8b61089c565b8051602082015190985096509050610b678b8b6101c1565b9750610b978860c00151610b9183604001516001600160801b031686611a3c90919063ffffffff16565b90611a3c565b9450610bc18860e00151610b9183606001516001600160801b031685611a3c90919063ffffffff16565b935050505060006001600160a01b031685602001516001600160a01b03161415610c325781865260208601819052610bf984836112f3565b6040870152610c0883826112f3565b6060870152610c18848484611287565b6080870152610c28838583611287565b60a0870152611258565b60007f00000000000000000000000000000000000000000000000000000000000000006001600160a01b031663f80ffbd56040518163ffffffff1660e01b815260040160206040518083038186803b158015610c8d57600080fd5b505afa158015610ca1573d6000803e3d6000fd5b505050506040513d601f19601f82011682018060405250810190610cc5919061376c565b6001600160a01b0316639362c87287602001516040518263ffffffff1660e01b8152600401610cf49190613c5c565b60206040518083038186803b158015610d0c57600080fd5b505afa158015610d20573d6000803e3d6000fd5b505050506040513d601f19601f82011682018060405250810190610d44919061376c565b90506000816001600160a01b03166359be536488604001516040518263ffffffff1660e01b8152600401610d789190613c98565b60806040518083038186803b158015610d9057600080fd5b505afa158015610da4573d6000803e3d6000fd5b505050506040513d601f19601f82011682018060405250810190610dc8919061396a565b90506000610e66877f00000000000000000000000000000000000000000000000000000000000000006001600160a01b03166308846aa26040518163ffffffff1660e01b815260040160206040518083038186803b158015610e2957600080fd5b505afa158015610e3d573d6000803e3d6000fd5b505050506040513d601f19601f82011682018060405250810190610e61919061376c565b611a96565b90506000610ec7877f00000000000000000000000000000000000000000000000000000000000000006001600160a01b03166308846aa26040518163ffffffff1660e01b815260040160206040518083038186803b158015610e2957600080fd5b90506000807f00000000000000000000000000000000000000000000000000000000000000006001600160a01b03166308846aa26040518163ffffffff1660e01b815260040160206040518083038186803b158015610f2557600080fd5b505afa158015610f39573d6000803e3d6000fd5b505050506040513d601f19601f82011682018060405250810190610f5d919061376c565b6001600160a01b03168a6001600160a01b03161415610f7e5787915061101d565b61101a8a7f00000000000000000000000000000000000000000000000000000000000000006001600160a01b03166308846aa26040518163ffffffff1660e01b815260040160206040518083038186803b158015610fdb57600080fd5b505afa158015610fef573d6000803e3d6000fd5b505050506040513d601f19601f82011682018060405250810190611013919061376c565b8a87611c51565b91505b7f00000000000000000000000000000000000000000000000000000000000000006001600160a01b03166308846aa26040518163ffffffff1660e01b815260040160206040518083038186803b15801561107657600080fd5b505afa15801561108a573d6000803e3d6000fd5b505050506040513d601f19601f820116820180604052508101906110ae919061376c565b6001600160a01b0316896001600160a01b031614156110ce57508561116d565b61116a897f00000000000000000000000000000000000000000000000000000000000000006001600160a01b03166308846aa26040518163ffffffff1660e01b815260040160206040518083038186803b15801561112b57600080fd5b505afa15801561113f573d6000803e3d6000fd5b505050506040513d601f19601f82011682018060405250810190611163919061376c565b8986611c51565b90505b60608b015161117c8383611a3c565b1115611208576112016040518061014001604052808c6001600160a01b031681526020018b6001600160a01b031681526020018a81526020018981526020018481526020018381526020018d606001518152602001876020015162ffffff168152602001866001600160a01b03168152602001856001600160a01b0316815250611df0565b9b50611251565b878c5260208c0187905261121c8a896112f3565b60408d015261122b89886112f3565b60608d015261123b8a8a8a611287565b60808d015261124b898b89611287565b60a08d01525b5050505050505b505050505092915050565b7f000000000000000000000000000000000000000000000000000000000000000081565b6000826001600160a01b0316846001600160a01b031614156112aa5750806112c8565b60006112b68585611a96565b90506112c485858584611c51565b9150505b9392505050565b7f000000000000000000000000000000000000000000000000000000000000000081565b60007f00000000000000000000000000000000000000000000000000000000000000006001600160a01b03166308846aa26040518163ffffffff1660e01b815260040160206040518083038186803b15801561134e57600080fd5b505afa158015611362573d6000803e3d6000fd5b505050506040513d601f19601f82011682018060405250810190611386919061376c565b6001600160a01b0316836001600160a01b031614156113a65750806114a7565b6000611405847f00000000000000000000000000000000000000000000000000000000000000006001600160a01b03166308846aa26040518163ffffffff1660e01b815260040160206040518083038186803b158015610e2957600080fd5b90506114a3847f00000000000000000000000000000000000000000000000000000000000000006001600160a01b03166308846aa26040518163ffffffff1660e01b815260040160206040518083038186803b15801561146457600080fd5b505afa158015611478573d6000803e3d6000fd5b505050506040513d601f19601f8201168201806040525081019061149c919061376c565b8584611c51565b9150505b92915050565b60008060008060006114bf87876101c1565b9050600080600080600061152a86600001517f00000000000000000000000000000000000000000000000000000000000000006001600160a01b0316635bfccac96040518163ffffffff1660e01b815260040160206040518083038186803b1580156105f557600080fd5b809550819650829750839850849950505050505060006115dc7f00000000000000000000000000000000000000000000000000000000000000006001600160a01b03166380f5db8c6040518163ffffffff1660e01b815260040160206040518083038186803b15801561159c57600080fd5b505afa1580156115b0573d6000803e3d6000fd5b505050506040513d601f19601f820116820180604052508101906115d4919061376c565b8787876118b3565b90506000816001600160a01b0316633850c7bd6040518163ffffffff1660e01b815260040160e06040518083038186803b15801561161957600080fd5b505afa15801561162d573d6000803e3d6000fd5b505050506040513d601f19601f820116820180604052508101906116519190613a99565b505050505050905060007f00000000000000000000000000000000000000000000000000000000000000006001600160a01b0316635bfccac96040518163ffffffff1660e01b815260040160206040518083038186803b1580156116b457600080fd5b505afa1580156116c8573d6000803e3d6000fd5b505050506040513d601f19601f820116820180604052508101906116ec919061376c565b895160405163133f757160e31b81526001600160a01b0392909216916399fbab889161171a91600401613f7b565b6101806040518083038186803b15801561173357600080fd5b505afa158015611747573d6000803e3d6000fd5b505050506040513d601f19601f8201168201806040525081019061176b9190613b52565b505050509750505050505050506117828f8f6101c1565b985061179081868685612429565b60c08b0151919e509c506117a5908e90611a3c565b9c506117be8960e001518d611a3c90919063ffffffff16565b9b506117ca888e6112f3565b9a506117d6878d6112f3565b995050505050505050505092959194509250565b6000806000806000856001600160a01b03166399fbab88886040518263ffffffff1660e01b815260040161181e9190613f7b565b6101806040518083038186803b15801561183757600080fd5b505afa15801561184b573d6000803e3d6000fd5b505050506040513d601f19601f8201168201806040525081019061186f9190613b52565b909192939495969798999a50909192939495969798995090919293509091925090915090505080955081965082975083985084995050505050509295509295909350565b60006118c9856118c4868686612456565b6124ac565b90505b949350505050565b60008060006118e284612590565b9050600080826020015160020b836000015160020b1261190d57505060a081015160c0820151611928565b8260a0015183606001510391508260c0015183608001510390505b600080846040015160020b856000015160020b121561195357505060e083015161010084015161196f565b8460e00151856060015103915084610100015185608001510390505b60608501516080909501519390940303969103919091039350915050565b60008080600019858709868602925082811090839003039050806119c357600084116119b857600080fd5b5082900490506112c8565b8084116119cf57600080fd5b6000848688096000868103871696879004966002600389028118808a02820302808a02820302808a02820302808a02820302808a02820302808a02909103029181900381900460010186841190950394909402919094039290920491909117919091029150509392505050565b6000828201838110156112c8576040805162461bcd60e51b815260206004820152601b60248201527f536166654d6174683a206164646974696f6e206f766572666c6f770000000000604482015290519081900360640190fd5b6000807f00000000000000000000000000000000000000000000000000000000000000006001600160a01b03166386dd37f36040518163ffffffff1660e01b815260040160006040518083038186803b158015611af257600080fd5b505afa158015611b06573d6000803e3d6000fd5b505050506040513d6000823e601f3d908101601f19168201604052611b2e91908101906137f3565b90506000611bce7f00000000000000000000000000000000000000000000000000000000000000006001600160a01b03166380f5db8c6040518163ffffffff1660e01b815260040160206040518083038186803b158015611b8e57600080fd5b505afa158015611ba2573d6000803e3d6000fd5b505050506040513d601f19601f82011682018060405250810190611bc6919061376c565b868685612a21565b9050806001600160a01b0316633850c7bd6040518163ffffffff1660e01b815260040160e06040518083038186803b158015611c0957600080fd5b505afa158015611c1d573d6000803e3d6000fd5b505050506040513d601f19601f82011682018060405250810190611c419190613a99565b50949a9950505050505050505050565b600082611c60575060006118cc565b836001600160a01b0316856001600160a01b03161415611c815750816118cc565b6001600160a01b038085169086161160008082611c9f578787611ca2565b86885b915091506000826001600160a01b031663313ce5676040518163ffffffff1660e01b815260040160206040518083038186803b158015611ce157600080fd5b505afa158015611cf5573d6000803e3d6000fd5b505050506040513d601f19601f82011682018060405250810190611d199190613b38565b90506000826001600160a01b031663313ce5676040518163ffffffff1660e01b815260040160206040518083038186803b158015611d5657600080fd5b505afa158015611d6a573d6000803e3d6000fd5b505050506040513d601f19601f82011682018060405250810190611d8e9190613b38565b9050600080611da7896001600160a01b03168585612bed565b91509150600087611db85782611dba565b815b9050600088611dc95785611dcb565b845b9050611dde8c838360ff16600a0a61198d565b9e9d5050505050505050505050505050565b611df861361b565b6000611e30611e268460c00151611e208660a001518760800151611a3c90919063ffffffff16565b90612c2f565b8460e00151612c8c565b90506000807f00000000000000000000000000000000000000000000000000000000000000006001600160a01b03166308846aa26040518163ffffffff1660e01b815260040160206040518083038186803b158015611e8e57600080fd5b505afa158015611ea2573d6000803e3d6000fd5b505050506040513d601f19601f82011682018060405250810190611ec6919061376c565b6001600160a01b031685600001516001600160a01b03161415611ef5578451611eee90612ca1565b9150611f9c565b611f9985610100015186600001517f00000000000000000000000000000000000000000000000000000000000000006001600160a01b03166308846aa26040518163ffffffff1660e01b815260040160206040518083038186803b158015611f5c57600080fd5b505afa158015611f70573d6000803e3d6000fd5b505050506040513d601f19601f82011682018060405250810190611f94919061376c565b612d22565b91505b7f00000000000000000000000000000000000000000000000000000000000000006001600160a01b03166308846aa26040518163ffffffff1660e01b815260040160206040518083038186803b158015611ff557600080fd5b505afa158015612009573d6000803e3d6000fd5b505050506040513d601f19601f8201168201806040525081019061202d919061376c565b6001600160a01b031685602001516001600160a01b0316141561205e576120578560200151612ca1565b90506120c8565b6120c585610120015186602001517f00000000000000000000000000000000000000000000000000000000000000006001600160a01b03166308846aa26040518163ffffffff1660e01b815260040160206040518083038186803b158015611f5c57600080fd5b90505b6000806120ea8760000151886020015189604001518a6060015188888b612e6f565b604089015191935091506120fe9083612c2f565b8652606087015161210f9082612c2f565b8660200181815250507f00000000000000000000000000000000000000000000000000000000000000006001600160a01b03166308846aa26040518163ffffffff1660e01b815260040160206040518083038186803b15801561217157600080fd5b505afa158015612185573d6000803e3d6000fd5b505050506040513d601f19601f820116820180604052508101906121a9919061376c565b6001600160a01b031687600001516001600160a01b031614156121d2578551604087015261227e565b61227887600001517f00000000000000000000000000000000000000000000000000000000000000006001600160a01b03166308846aa26040518163ffffffff1660e01b815260040160206040518083038186803b15801561223357600080fd5b505afa158015612247573d6000803e3d6000fd5b505050506040513d601f19601f8201168201806040525081019061226b919061376c565b88516101008b0151611c51565b60408701525b7f00000000000000000000000000000000000000000000000000000000000000006001600160a01b03166308846aa26040518163ffffffff1660e01b815260040160206040518083038186803b1580156122d757600080fd5b505afa1580156122eb573d6000803e3d6000fd5b505050506040513d601f19601f8201168201806040525081019061230f919061376c565b6001600160a01b031687602001516001600160a01b0316141561233b57602086015160608701526123ea565b6123e487602001517f00000000000000000000000000000000000000000000000000000000000000006001600160a01b03166308846aa26040518163ffffffff1660e01b815260040160206040518083038186803b15801561239c57600080fd5b505afa1580156123b0573d6000803e3d6000fd5b505050506040513d601f19601f820116820180604052508101906123d4919061376c565b88602001518a6101200151611c51565b60608701525b8651602088015187516123fe929190611287565b60808701526020808801518851918801516124199290611287565b60a0870152509395945050505050565b6000806124488361243987612f8b565b61244287612f8b565b896132bd565b915091505b94509492505050565b61245e613651565b826001600160a01b0316846001600160a01b0316111561247c579192915b50604080516060810182526001600160a01b03948516815292909316602083015262ffffff169181019190915290565b600081602001516001600160a01b031682600001516001600160a01b0316106124d457600080fd5b50805160208083015160409384015184516001600160a01b0394851681850152939091168385015262ffffff166060808401919091528351808403820181526080840185528051908301206001600160f81b031960a085015294901b6bffffffffffffffffffffffff191660a183015260b58201939093527fe34f199b19b2b4f47f68442619d555527d244f78a3297ea89325f843f87b8b5460d5808301919091528251808303909101815260f5909101909152805191012090565b612598613671565b60008060007f00000000000000000000000000000000000000000000000000000000000000006001600160a01b0316635bfccac96040518163ffffffff1660e01b815260040160206040518083038186803b1580156125f657600080fd5b505afa15801561260a573d6000803e3d6000fd5b505050506040513d601f19601f8201168201806040525081019061262e919061376c565b6001600160a01b03166399fbab88866040518263ffffffff1660e01b81526004016126599190613f7b565b6101806040518083038186803b15801561267257600080fd5b505afa158015612686573d6000803e3d6000fd5b505050506040513d601f19601f820116820180604052508101906126aa9190613b52565b5050505050600290810b810b6040808d019190915291810b900b6020808c0191909152815163203d76e360e21b815291519499509297509095506000945061277e93506001600160a01b037f000000000000000000000000000000000000000000000000000000000000000016926380f5db8c92600480840193919291829003018186803b15801561273b57600080fd5b505afa15801561274f573d6000803e3d6000fd5b505050506040513d601f19601f82011682018060405250810190612773919061376c565b6118c4868686612456565b9050806001600160a01b031663f30583996040518163ffffffff1660e01b815260040160206040518083038186803b1580156127b957600080fd5b505afa1580156127cd573d6000803e3d6000fd5b505050506040513d601f19601f820116820180604052508101906127f19190613b20565b856060018181525050806001600160a01b031663461413196040518163ffffffff1660e01b815260040160206040518083038186803b15801561283357600080fd5b505afa158015612847573d6000803e3d6000fd5b505050506040513d601f19601f8201168201806040525081019061286b9190613b20565b856080018181525050806001600160a01b0316633850c7bd6040518163ffffffff1660e01b815260040160e06040518083038186803b1580156128ad57600080fd5b505afa1580156128c1573d6000803e3d6000fd5b505050506040513d601f19601f820116820180604052508101906128e59190613a99565b5050505050600290810b900b865250602085015160405163f30dba9360e01b81526001600160a01b0383169163f30dba93916129249190600401613cad565b6101006040518083038186803b15801561293d57600080fd5b505afa158015612951573d6000803e3d6000fd5b505050506040513d601f19601f8201168201806040525081019061297591906139fe565b5050505060c089015260a08801525050604080860151905163f30dba9360e01b81526001600160a01b0383169163f30dba93916129b59190600401613cad565b6101006040518083038186803b1580156129ce57600080fd5b505afa1580156129e2573d6000803e3d6000fd5b505050506040513d601f19601f82011682018060405250810190612a0691906139fe565b5050505061010089015260e088015250949695505050505050565b6000806000612a308686613358565b9197509550905060005b8451811015612bbc57848181518110612a4f57fe5b602002602001015162ffffff1660001415612a6957612bb4565b6000886001600160a01b0316631698ee828989898681518110612a8857fe5b60200260200101516040518463ffffffff1660e01b8152600401612aae93929190613c70565b60206040518083038186803b158015612ac657600080fd5b505afa158015612ada573d6000803e3d6000fd5b505050506040513d601f19601f82011682018060405250810190612afe919061376c565b90506001600160a01b038116612b145750612bb4565b6000816001600160a01b0316631a6865026040518163ffffffff1660e01b815260040160206040518083038186803b158015612b4f57600080fd5b505afa158015612b63573d6000803e3d6000fd5b505050506040513d601f19601f82011682018060405250810190612b8791906139e4565b9050846001600160801b0316816001600160801b031611612ba9578585612bac565b81815b909650945050505b600101612a3a565b506001600160a01b038316612be35760405162461bcd60e51b81526004016102ff90613cd8565b5050949350505050565b600080612c11600160c01b612c0b6002880a60ff8816600a0a613396565b906133ef565b9150612c2560ff85850116600a0a836133ef565b9050935093915050565b600082821115612c86576040805162461bcd60e51b815260206004820152601e60248201527f536166654d6174683a207375627472616374696f6e206f766572666c6f770000604482015290519081900360640190fd5b50900390565b60006127106114a38462ffffff85168361198d565b6000816001600160a01b031663313ce5676040518163ffffffff1660e01b815260040160206040518083038186803b158015612cdc57600080fd5b505afa158015612cf0573d6000803e3d6000fd5b505050506040513d601f19601f82011682018060405250810190612d149190613b38565b60ff16600a0a90505b919050565b600080600080846001600160a01b0316866001600160a01b03161115612d5057508391508490506001612d5a565b5084915083905060005b600080612e51896001600160a01b0316866001600160a01b031663313ce5676040518163ffffffff1660e01b815260040160206040518083038186803b158015612da357600080fd5b505afa158015612db7573d6000803e3d6000fd5b505050506040513d601f19601f82011682018060405250810190612ddb9190613b38565b866001600160a01b031663313ce5676040518163ffffffff1660e01b815260040160206040518083038186803b158015612e1457600080fd5b505afa158015612e28573d6000803e3d6000fd5b505050506040513d601f19601f82011682018060405250810190612e4c9190613b38565b612bed565b9150915082612e605781612e62565b805b9998505050505050505050565b6000806000612f36612ef888878c6001600160a01b031663313ce5676040518163ffffffff1660e01b815260040160206040518083038186803b158015612eb557600080fd5b505afa158015612ec9573d6000803e3d6000fd5b505050506040513d601f19601f82011682018060405250810190612eed9190613b38565b60ff16600a0a61198d565b610b918a898e6001600160a01b031663313ce5676040518163ffffffff1660e01b815260040160206040518083038186803b158015612eb557600080fd5b9050838110158015612f485750600081115b612f645760405162461bcd60e51b81526004016102ff90613cf7565b612f6f88858361198d565b9250612f7c87858361198d565b91505097509795505050505050565b60008060008360020b12612fa2578260020b612faa565b8260020b6000035b9050620d89e8811115612fe8576040805162461bcd60e51b81526020600482015260016024820152601560fa1b604482015290519081900360640190fd5b600060018216612ffc57600160801b61300e565b6ffffcb933bd6fad37aa2d162d1a5940015b70ffffffffffffffffffffffffffffffffff1690506002821615613042576ffff97272373d413259a46990580e213a0260801c5b6004821615613061576ffff2e50f5f656932ef12357cf3c7fdcc0260801c5b6008821615613080576fffe5caca7e10e4e61c3624eaa0941cd00260801c5b601082161561309f576fffcb9843d60f6159c9db58835c9266440260801c5b60208216156130be576fff973b41fa98c081472e6896dfb254c00260801c5b60408216156130dd576fff2ea16466c96a3843ec78b326b528610260801c5b60808216156130fc576ffe5dee046a99a2a811c461f1969c30530260801c5b61010082161561311c576ffcbe86c7900a88aedcffc83b479aa3a40260801c5b61020082161561313c576ff987a7253ac413176f2b074cf7815e540260801c5b61040082161561315c576ff3392b0822b70005940c7a398e4b70f30260801c5b61080082161561317c576fe7159475a2c29b7443b29c7fa6e889d90260801c5b61100082161561319c576fd097f3bdfd2022b8845ad8f792aa58250260801c5b6120008216156131bc576fa9f746462d870fdf8a65dc1f90e061e50260801c5b6140008216156131dc576f70d869a156d2a1b890bb3df62baf32f70260801c5b6180008216156131fc576f31be135f97d08fd981231505542fcfa60260801c5b6201000082161561321d576f09aa508b5b7a84e1c677de54f3e99bc90260801c5b6202000082161561323d576e5d6af8dedb81196699c329225ee6040260801c5b6204000082161561325c576d2216e584f5fa1ea926041bedfe980260801c5b62080000821615613279576b048a170391f7dc42444e8fa20260801c5b60008460020b131561329457806000198161329057fe5b0490505b6401000000008106156132a85760016132ab565b60005b60ff16602082901c0192505050919050565b600080836001600160a01b0316856001600160a01b031611156132de579293925b846001600160a01b0316866001600160a01b03161161330957613302858585613456565b915061244d565b836001600160a01b0316866001600160a01b031610156133425761332e868585613456565b915061333b8587856134bf565b905061244d565b61334d8585856134bf565b905094509492505050565b6000806000836001600160a01b0316856001600160a01b031611156133855750829150839050600161338f565b5083915082905060005b9250925092565b6000826133a5575060006114a7565b828202828482816133b257fe5b04146112c85760405162461bcd60e51b8152600401808060200182810382526021815260200180613fdc6021913960400191505060405180910390fd5b6000808211613445576040805162461bcd60e51b815260206004820152601a60248201527f536166654d6174683a206469766973696f6e206279207a65726f000000000000604482015290519081900360640190fd5b81838161344e57fe5b049392505050565b6000826001600160a01b0316846001600160a01b03161115613476579192915b836001600160a01b03166134af606060ff16846001600160801b0316901b8686036001600160a01b0316866001600160a01b031661198d565b816134b657fe5b04949350505050565b6000826001600160a01b0316846001600160a01b031611156134df579192915b6118cc826001600160801b03168585036001600160a01b0316600160601b61198d565b604051806101c001604052806000815260200160006001600160a01b0316815260200160006001600160801b03191681526020016000815260200160008152602001600081526020016000815260200160008152602001600060020b8152602001600060020b8152602001600081526020016000815260200160008152602001600081525090565b6040805161016081018252600080825260208201819052918101829052606081018290526080810182905260a0810182905260c0810182905260e081018290526101008101829052610120810182905261014081019190915290565b6040805160c081018252600080825260208201819052918101829052606081018290526080810182905260a081019190915290565b6040518060c001604052806000815260200160008152602001600081526020016000815260200160008152602001600081525090565b604080516060810182526000808252602082018190529181019190915290565b604051806101200160405280600060020b8152602001600060020b8152602001600060020b81526020016000815260200160008152602001600081526020016000815260200160008152602001600081525090565b8051612d1d81613fc3565b80518015158114612d1d57600080fd5b80516001600160801b031981168114612d1d57600080fd5b8051600281900b8114612d1d57600080fd5b80516001600160801b0381168114612d1d57600080fd5b805161ffff81168114612d1d57600080fd5b805162ffffff81168114612d1d57600080fd5b805163ffffffff81168114612d1d57600080fd5b805160ff81168114612d1d57600080fd5b60006020828403121561377d578081fd5b81516112c881613fc3565b60008060006060848603121561379c578182fd5b83356137a781613fc3565b925060208401356137b781613fc3565b929592945050506040919091013590565b600080604083850312156137da578182fd5b82356137e581613fc3565b946020939093013593505050565b60006020808385031215613805578182fd5b825167ffffffffffffffff8082111561381c578384fd5b818501915085601f83011261382f578384fd5b81518181111561383b57fe5b838102915061384b848301613f9f565b8181528481019084860184860187018a1015613865578788fd5b8795505b8386101561388e5761387a81613734565b835260019590950194918601918601613869565b5098975050505050505050565b60006101c08083850312156138ae578182fd5b6138b781613f9f565b9050825181526138c9602084016136c6565b60208201526138da604084016136e1565b6040820152606083015160608201526080830151608082015260a083015160a082015260c083015160c082015260e083015160e082015261010061391f8185016136f9565b908201526101206139318482016136f9565b908201526101408381015190820152610160808401519082015261018080840151908201526101a0928301519281019290925250919050565b60006080828403121561397b578081fd5b6040516080810181811067ffffffffffffffff8211171561399857fe5b60405282516139a681613fc3565b81526139b460208401613734565b602082015260408301516139c781613fc3565b60408201526139d860608401613747565b60608201529392505050565b6000602082840312156139f5578081fd5b6112c88261370b565b600080600080600080600080610100898b031215613a1a578586fd5b613a238961370b565b9750602089015180600f0b8114613a38578687fd5b80975050604089015195506060890151945060808901518060060b8114613a5d578485fd5b60a08a0151909450613a6e81613fc3565b9250613a7c60c08a01613747565b9150613a8a60e08a016136d1565b90509295985092959890939650565b600080600080600080600060e0888a031215613ab3578081fd5b8751613abe81613fc3565b9650613acc602089016136f9565b9550613ada60408901613722565b9450613ae860608901613722565b9350613af660808901613722565b9250613b0460a0890161375b565b9150613b1260c089016136d1565b905092959891949750929550565b600060208284031215613b31578081fd5b5051919050565b600060208284031215613b49578081fd5b6112c88261375b565b6000806000806000806000806000806000806101808d8f031215613b74578586fd5b8c516bffffffffffffffffffffffff81168114613b8f578687fd5b9b50613b9d60208e016136c6565b9a50613bab60408e016136c6565b9950613bb960608e016136c6565b9850613bc760808e01613734565b9750613bd560a08e016136f9565b9650613be360c08e016136f9565b9550613bf160e08e0161370b565b94506101008d015193506101208d01519250613c106101408e0161370b565b9150613c1f6101608e0161370b565b90509295989b509295989b509295989b565b6001600160a01b03169052565b6001600160801b0319169052565b60020b9052565b62ffffff169052565b6001600160a01b0391909116815260200190565b6001600160a01b03938416815291909216602082015262ffffff909116604082015260600190565b6001600160801b031991909116815260200190565b60029190910b815260200190565b600293840b815291830b602083015290910b604082015260600190565b602080825260059082015264055484450360dc1b604082015260600190565b60208082526003908201526244544160e81b604082015260600190565b60208082526003908201526214121560ea1b604082015260600190565b6020808252600490820152630504841360e41b604082015260600190565b600060c082019050825182526020830151602083015260408301516040830152606083015160608301526080830151608083015260a083015160a083015292915050565b600060c08201905060018060a01b038084511683528060208501511660208401525060408301516001600160801b03808216604085015280606086015116606085015250506080830151608083015260a083015160a083015292915050565b815181526020808301516101c0830191613e0e90840182613c31565b506040830151613e216040840182613c3e565b50606083015160608301526080830151608083015260a083015160a083015260c083015160c083015260e083015160e083015261010080840151613e6782850182613c4c565b505061012080840151613e7c82850182613c4c565b50506101408381015190830152610160808401519083015261018080840151908301526101a092830151929091019190915290565b81518152602080830151610160830191613ecd90840182613c31565b506040830151613ee06040840182613c31565b506060830151613ef36060840182613c53565b506080830151613f066080840182613c4c565b5060a0830151613f1960a0840182613c4c565b5060c0830151613f2c60c0840182613c31565b5060e0830151613f3f60e0840182613c3e565b50610100838101519083015261012080840151613f5e82850182613c4c565b505061014080840151613f7382850182613c4c565b505092915050565b90815260200190565b93845260208401929092526040830152606082015260800190565b60405181810167ffffffffffffffff81118282101715613fbb57fe5b604052919050565b6001600160a01b0381168114613fd857600080fd5b5056fe536166654d6174683a206d756c7469706c69636174696f6e206f766572666c6f77a264697066735822122070b0c540c0fe39d2022672dfdffde0603b3ae482511bd7119cad90d5f978216f64736f6c63430007060033",
  "devdoc": {
    "kind": "dev",
    "methods": {
      "getAmounts(address,uint256)": {
        "params": {
          "positionId": "ID of the position",
          "userAddress": "address of the user"
        },
        "returns": {
          "amount0": "amount of token0",
          "amount0USDValue": "amount of token0 in USD",
          "amount1": "amount of token1",
          "amount1USDValue": "amount of token1 in USD"
        }
      },
      "getPositionInfo(address,uint256)": {
        "params": {
          "positionId": "ID of the position",
          "userAddress": "address of the user"
        },
        "returns": {
          "pInfo": "the position info"
        }
      },
      "getPositionTokenInfo(address,uint256)": {
        "params": {
          "positionId": "ID of the position",
          "userAddress": "address of the user"
        },
        "returns": {
          "ptInfo": "the position token info"
        }
      },
      "getTickInfo(address,uint256)": {
        "params": {
          "positionId": "ID of the position",
          "userAddress": "address of the user"
        },
        "returns": {
          "currentTick": "the current tick of the target pool",
          "tickLower": "the lower bound of the position",
          "tickUpper": "the upper bound of the position"
        }
      }
    },
    "version": 1
  },
  "userdoc": {
    "kind": "user",
    "methods": {
      "getAmounts(address,uint256)": {
        "notice": "Get the amounts of a position"
      },
      "getPositionInfo(address,uint256)": {
        "notice": "Get the position info of a position"
      },
      "getPositionTokenInfo(address,uint256)": {
        "notice": "Get the position token info of a position"
      },
      "getTickInfo(address,uint256)": {
        "notice": "Get the tick info of a position"
      }
    },
    "version": 1
  },
  "storageLayout": {
    "storage": [],
    "types": null
  }
}