{
  "address": "0xe289D9bF385f898b385f13499d406b10ECedC6D7",
  "abi": [
    {
      "inputs": [
        {
          "internalType": "address",
          "name": "_registry",
          "type": "address"
        },
        {
          "internalType": "address",
          "name": "_uniswapAddressHolder",
          "type": "address"
        }
      ],
      "stateMutability": "nonpayable",
      "type": "constructor"
    },
    {
      "anonymous": false,
      "inputs": [
        {
          "indexed": true,
          "internalType": "address",
          "name": "strategyProviderWallet",
          "type": "address"
        },
        {
          "indexed": false,
          "internalType": "address",
          "name": "creator",
          "type": "address"
        },
        {
          "indexed": false,
          "internalType": "address",
          "name": "provider",
          "type": "address"
        }
      ],
      "name": "StrategyProviderWalletCreated",
      "type": "event"
    },
    {
      "inputs": [
        {
          "internalType": "address",
          "name": "_creator",
          "type": "address"
        }
      ],
      "name": "addCreatorWhitelist",
      "outputs": [],
      "stateMutability": "nonpayable",
      "type": "function"
    },
    {
      "inputs": [
        {
          "internalType": "address",
          "name": "provider",
          "type": "address"
        }
      ],
      "name": "create",
      "outputs": [
        {
          "internalType": "address",
          "name": "walletAddress",
          "type": "address"
        }
      ],
      "stateMutability": "nonpayable",
      "type": "function"
    },
    {
      "inputs": [
        {
          "internalType": "uint256",
          "name": "",
          "type": "uint256"
        }
      ],
      "name": "creatorWhitelist",
      "outputs": [
        {
          "internalType": "address",
          "name": "",
          "type": "address"
        }
      ],
      "stateMutability": "view",
      "type": "function"
    },
    {
      "inputs": [
        {
          "internalType": "uint256",
          "name": "cursor",
          "type": "uint256"
        },
        {
          "internalType": "uint256",
          "name": "howMany",
          "type": "uint256"
        }
      ],
      "name": "getStrategyProviderWallets",
      "outputs": [
        {
          "internalType": "address[]",
          "name": "wallets",
          "type": "address[]"
        },
        {
          "internalType": "uint256",
          "name": "newCursor",
          "type": "uint256"
        }
      ],
      "stateMutability": "view",
      "type": "function"
    },
    {
      "inputs": [],
      "name": "getStrategyProviderWalletsLength",
      "outputs": [
        {
          "internalType": "uint256",
          "name": "",
          "type": "uint256"
        }
      ],
      "stateMutability": "view",
      "type": "function"
    },
    {
      "inputs": [
        {
          "internalType": "address",
          "name": "",
          "type": "address"
        }
      ],
      "name": "isIncreatorWhitelist",
      "outputs": [
        {
          "internalType": "bool",
          "name": "",
          "type": "bool"
        }
      ],
      "stateMutability": "view",
      "type": "function"
    },
    {
      "inputs": [
        {
          "internalType": "address",
          "name": "",
          "type": "address"
        }
      ],
      "name": "providerToWallet",
      "outputs": [
        {
          "internalType": "address",
          "name": "",
          "type": "address"
        }
      ],
      "stateMutability": "view",
      "type": "function"
    },
    {
      "inputs": [],
      "name": "registry",
      "outputs": [
        {
          "internalType": "address",
          "name": "",
          "type": "address"
        }
      ],
      "stateMutability": "view",
      "type": "function"
    },
    {
      "inputs": [
        {
          "internalType": "uint256",
          "name": "",
          "type": "uint256"
        }
      ],
      "name": "strategyProviderWallets",
      "outputs": [
        {
          "internalType": "address",
          "name": "",
          "type": "address"
        }
      ],
      "stateMutability": "view",
      "type": "function"
    },
    {
      "inputs": [],
      "name": "uniswapAddressHolder",
      "outputs": [
        {
          "internalType": "address",
          "name": "",
          "type": "address"
        }
      ],
      "stateMutability": "view",
      "type": "function"
    }
  ],
  "transactionHash": "0x464b3915f76a65b629f751373d2fb145d936c376839ee8a4c0e98f3368aed4eb",
  "args": [
    "0xB33A5c53d7039C2fb8eE49be83070115E2ee50Fb",
    "0xf44Fad0121c698882CA90C2673b22F391FBE872f"
  ],
  "numDeployments": 1,
  "solcInputHash": "08f28bc02234e5e762609eefb667e33a",
  "bytecode": "0x60c060405234801561001057600080fd5b5060405161213e38038061213e83398101604081905261002f91610069565b6001600160601b0319606092831b8116608052911b1660a05261009b565b80516001600160a01b038116811461006457600080fd5b919050565b6000806040838503121561007b578182fd5b6100848361004d565b91506100926020840161004d565b90509250929050565b60805160601c60a05160601c61206b6100d3600039806104d452806105e352508061018252806101d052806104b3525061206b6000f3fe608060405234801561001057600080fd5b506004361061009e5760003560e01c80639ed93318116100665780639ed933181461011d578063b9bf52fa14610130578063c0f06ca414610143578063d5449e8a1461014b578063ee9639511461016b5761009e565b80637b103999146100a3578063855ea501146100c157806391b4388a146100d457806391d7a4c0146100e95780639362c8721461010a575b600080fd5b6100ab610180565b6040516100b891906106a5565b60405180910390f35b6100ab6100cf36600461066c565b6101a4565b6100e76100e236600461062d565b6101ce565b005b6100fc6100f7366004610684565b61035b565b6040516100b89291906106f6565b6100ab61011836600461062d565b61042c565b6100ab61012b36600461062d565b610447565b6100ab61013e36600461066c565b6105d1565b6100ab6105e1565b61015e61015936600461062d565b610605565b6040516100b89190610747565b61017361061a565b6040516100b891906107d6565b7f000000000000000000000000000000000000000000000000000000000000000081565b600281815481106101b457600080fd5b6000918252602090912001546001600160a01b0316905081565b7f00000000000000000000000000000000000000000000000000000000000000006001600160a01b0316635aa6e6756040518163ffffffff1660e01b815260040160206040518083038186803b15801561022757600080fd5b505afa15801561023b573d6000803e3d6000fd5b505050506040513d601f19601f8201168201806040525081019061025f9190610650565b6001600160a01b0316336001600160a01b0316146102985760405162461bcd60e51b815260040161028f906107b6565b60405180910390fd5b6001600160a01b0381166102be5760405162461bcd60e51b815260040161028f90610796565b6001600160a01b03811660009081526001602052604090205460ff16156102f75760405162461bcd60e51b815260040161028f90610752565b6001600160a01b031660008181526001602081905260408220805460ff1916821790556003805491820181559091527fc2575a0e9e593c00f959f8c92f12db2869c3395a3b0502d05e2516446f71f85b0180546001600160a01b0319169091179055565b600254606090600090839085900381111561037857506002548490035b8067ffffffffffffffff8111801561038f57600080fd5b506040519080825280602002602001820160405280156103b9578160200160208202803683370190505b50925060005b81811015610420576002818701815481106103d657fe5b9060005260206000200160009054906101000a90046001600160a01b031684828151811061040057fe5b6001600160a01b03909216602092830291909101909101526001016103bf565b50840190509250929050565b6000602081905290815260409020546001600160a01b031681565b3360009081526001602052604081205460ff166104765760405162461bcd60e51b815260040161028f90610775565b6001600160a01b0382811660009081526020819052604090205416156104ae5760405162461bcd60e51b815260040161028f90610796565b6000827f00000000000000000000000000000000000000000000000000000000000000007f00000000000000000000000000000000000000000000000000000000000000006040516104ff90610620565b61050b939291906106d3565b604051809103906000f080158015610527573d6000803e3d6000fd5b5060028054600181019091557f405787fa12a823e0f2b7631cc41b3ba8828b3321ca811111fa75cd3aa3bb5ace0180546001600160a01b038084166001600160a01b031992831681179093558616600090815260208190526040908190208054909216831790915551919250907fd890f9578a4be2aa1ee3b366b0dded83b2511d054d690843b5d8185d0dfdda48906105c390339087906106b9565b60405180910390a292915050565b600381815481106101b457600080fd5b7f000000000000000000000000000000000000000000000000000000000000000081565b60016020526000908152604090205460ff1681565b60025490565b61183e806107f883390190565b60006020828403121561063e578081fd5b8135610649816107df565b9392505050565b600060208284031215610661578081fd5b8151610649816107df565b60006020828403121561067d578081fd5b5035919050565b60008060408385031215610696578081fd5b50508035926020909101359150565b6001600160a01b0391909116815260200190565b6001600160a01b0392831681529116602082015260400190565b6001600160a01b0393841681529183166020830152909116604082015260600190565b604080825283519082018190526000906020906060840190828701845b828110156107385781516001600160a01b031684529284019290840190600101610713565b50505092019290925292915050565b901515815260200190565b60208082526009908201526814d415d1939250d5d360ba1b604082015260600190565b60208082526007908201526614d415d3d0d5d360ca1b604082015260600190565b60208082526006908201526505350574641360d41b604082015260600190565b602080825260069082015265535057464f4760d01b604082015260600190565b90815260200190565b6001600160a01b03811681146107f457600080fd5b5056fe60e06040523480156200001157600080fd5b506040516200183e3803806200183e833981016040819052620000349162000079565b6001600160601b0319606093841b811660805291831b821660a05290911b1660c052620000c2565b80516001600160a01b03811681146200007457600080fd5b919050565b6000806000606084860312156200008e578283fd5b62000099846200005c565b9250620000a9602085016200005c565b9150620000b9604085016200005c565b90509250925092565b60805160601c60a05160601c60c05160601c611728620001166000398061028a52806109d452508061094d52508061020452806105a6528061083652806109715280610a015280610ba652506117286000f3fe608060405234801561001057600080fd5b50600436106100cf5760003560e01c80637b1039991161008c578063c0f06ca411610066578063c0f06ca4146101b8578063d657c9e7146101c0578063e99b73fd146101d3578063fc20ed2b146101e6576100cf565b80637b103999146101785780638da5cb5b1461018d578063aa94893214610195576100cf565b80630251fb06146100d457806325eda717146100e95780632dc1eaf01461011257806358da0e841461013257806359be53641461014557806368db414c14610165575b600080fd5b6100e76100e2366004611320565b6101f9565b005b6100fc6100f73660046112d0565b61054f565b6040516101099190611497565b60405180910390f35b6101256101203660046113d4565b610564565b60405161010991906114a2565b6100e76101403660046112ea565b61059b565b6101586101533660046112d0565b6107b5565b6040516101099190611649565b6100e76101733660046113b7565b61082b565b61018061094b565b6040516101099190611404565b61018061096f565b6101a86101a33660046112d0565b610993565b6040516101099493929190611440565b6101806109d2565b6100e76101ce366004611257565b6109f6565b6100fc6101e1366004611257565b610b86565b6100e76101f436600461128f565b610b9b565b336001600160a01b037f0000000000000000000000000000000000000000000000000000000000000000161461024a5760405162461bcd60e51b8152600401610241906115cd565b60405180910390fd5b6001600160801b03198716600090815260026020526040902054879060ff16156102865760405162461bcd60e51b81526004016102419061162a565b60007f00000000000000000000000000000000000000000000000000000000000000006001600160a01b03166380f5db8c6040518163ffffffff1660e01b815260040160206040518083038186803b1580156102e157600080fd5b505afa1580156102f5573d6000803e3d6000fd5b505050506040513d601f19601f820116820180604052508101906103199190611273565b6001600160a01b0316631698ee828989896040518463ffffffff1660e01b815260040161034893929190611418565b60206040518083038186803b15801561036057600080fd5b505afa158015610374573d6000803e3d6000fd5b505050506040513d601f19601f820116820180604052508101906103989190611273565b90506001600160a01b0381166103c05760405162461bcd60e51b81526004016102419061154f565b6103c985610c2e565b6103d283610c58565b6103dd888886610c7e565b60008054600180820183557f290decd9548b62a8d60345a988386fc84ba6bc95484008f6362f93160ef3e56360028084049190910180546fffffffffffffffffffffffffffffffff9484166010026101000a948502191660808f811c959095021790556001600160801b03198d1680855260209182526040808620805460ff191685179055805194850181526001600160a01b03878116865262ffffff8c81168786019081528c831688850190815263ffffffff8d811660608b01908152968b5296889052988490209751885491516001600160a01b03199283169185169190911762ffffff60a01b1916600160a01b919093168102929092178855975196909501805493519390971695169490941763ffffffff60a01b19169116909102179091555133907f9fc2e2698ccc2e5cc4472ec09fce01e79e1f660476fa869e10c21df35d5b20739061053c908c908c908c908c908c908c908c906114b7565b60405180910390a2505050505050505050565b60026020526000908152604090205460ff1681565b6000818154811061057457600080fd5b9060005260206000209060029182820401919006601002915054906101000a900460801b81565b336001600160a01b037f000000000000000000000000000000000000000000000000000000000000000016146105e35760405162461bcd60e51b8152600401610241906115cd565b6001600160801b031982166000908152600160205260409020546001600160a01b0316806106235760405162461bcd60e51b8152600401610241906115ec565b6000816001600160a01b0316630dfe16816040518163ffffffff1660e01b815260040160206040518083038186803b15801561065e57600080fd5b505afa158015610672573d6000803e3d6000fd5b505050506040513d601f19601f820116820180604052508101906106969190611273565b90506000826001600160a01b031663d21220a76040518163ffffffff1660e01b815260040160206040518083038186803b1580156106d357600080fd5b505afa1580156106e7573d6000803e3d6000fd5b505050506040513d601f19601f8201168201806040525081019061070b9190611273565b9050610718828286610c7e565b6001600160801b0319851660009081526001602081905260409182902090810180546001600160a01b0319166001600160a01b0388811691909117918290559154925133937f9c36d7a6bf85adff77f48be5a9c2b94a05cd265c8e355d80989246f23f7cbc41936107a6938b938a93600160a01b9081900462ffffff16938316920463ffffffff169061150a565b60405180910390a25050505050565b6107bd611205565b506001600160801b03198116600090815260016020818152604092839020835160808101855281546001600160a01b038082168352600160a01b9182900462ffffff16948301949094529190930154918216938301939093529190910463ffffffff1660608201525b919050565b336001600160a01b037f000000000000000000000000000000000000000000000000000000000000000016146108735760405162461bcd60e51b8152600401610241906115cd565b6001600160801b03198316600090815260016020818152604092839020835160808101855281546001600160a01b03808216808452600160a01b9283900462ffffff16958401959095529290940154918216948101949094529190910463ffffffff1660608301526108f75760405162461bcd60e51b8152600401610241906115ec565b61090681604001518484610e6e565b7fe0c0498df5a94311411e1ffeadefb28b6a7c7ca4f7fe6a14bcbd42ae763995518160400151848460405161093d93929190611474565b60405180910390a150505050565b7f000000000000000000000000000000000000000000000000000000000000000081565b7f000000000000000000000000000000000000000000000000000000000000000081565b600160208190526000918252604090912080549101546001600160a01b0380831692600160a01b9081900462ffffff1692918216910463ffffffff1684565b7f000000000000000000000000000000000000000000000000000000000000000081565b336001600160a01b037f00000000000000000000000000000000000000000000000000000000000000001614610a3e5760405162461bcd60e51b8152600401610241906115cd565b60005b600454811015610b8257600060048281548110610a5a57fe5b6000918252602090912001546040516370a0823160e01b81526001600160a01b03909116906370a0823190610a93903090600401611404565b60206040518083038186803b158015610aab57600080fd5b505afa158015610abf573d6000803e3d6000fd5b505050506040513d601f19601f82011682018060405250810190610ae391906113ec565b905080610af05750610b7a565b610b1c60048381548110610b0057fe5b6000918252602090912001546001600160a01b03168285610e6e565b7fe0c0498df5a94311411e1ffeadefb28b6a7c7ca4f7fe6a14bcbd42ae7639955160048381548110610b4a57fe5b600091825260209091200154604051610b70916001600160a01b03169084908790611474565b60405180910390a1505b600101610a41565b5050565b60036020526000908152604090205460ff1681565b336001600160a01b037f00000000000000000000000000000000000000000000000000000000000000001614610be35760405162461bcd60e51b8152600401610241906115cd565b610bee838383610e6e565b7fe0c0498df5a94311411e1ffeadefb28b6a7c7ca4f7fe6a14bcbd42ae76399551838383604051610c2193929190611474565b60405180910390a1505050565b6127108162ffffff161115610c555760405162461bcd60e51b81526004016102419061158e565b50565b60008163ffffffff1611610c555760405162461bcd60e51b81526004016102419061160b565b826001600160a01b0316816001600160a01b03161480610caf5750816001600160a01b0316816001600160a01b0316145b80610cc157506001600160a01b038116155b610cca57600080fd5b6001600160a01b038116610de5576001600160a01b03831660009081526003602052604090205460ff16610d5c576004805460018082019092557f8a35acfbc15ff81a39ae7d344fd709f28e8600b4aa8c65c6b64bfe7fe36bd19b0180546001600160a01b0319166001600160a01b0386169081179091556000908152600360205260409020805460ff191690911790555b6001600160a01b03821660009081526003602052604090205460ff16610de0576004805460018082019092557f8a35acfbc15ff81a39ae7d344fd709f28e8600b4aa8c65c6b64bfe7fe36bd19b0180546001600160a01b0319166001600160a01b0385169081179091556000908152600360205260409020805460ff191690911790555b610e69565b6001600160a01b03811660009081526003602052604090205460ff16610e69576004805460018082019092557f8a35acfbc15ff81a39ae7d344fd709f28e8600b4aa8c65c6b64bfe7fe36bd19b0180546001600160a01b0319166001600160a01b0384169081179091556000908152600360205260409020805460ff191690911790555b505050565b6001600160a01b038316610e945760405162461bcd60e51b8152600401610241906115ae565b6001600160a01b038116610eba5760405162461bcd60e51b8152600401610241906115ae565b60008211610eda5760405162461bcd60e51b81526004016102419061156f565b610e696001600160a01b0384168284604080516001600160a01b038416602482015260448082018490528251808303909101815260649091019091526020810180516001600160e01b031663a9059cbb60e01b179052610e699084906000610f8b826040518060400160405280602081526020017f5361666545524332303a206c6f772d6c6576656c2063616c6c206661696c6564815250856001600160a01b0316610fe79092919063ffffffff16565b805190915015610e6957808060200190516020811015610faa57600080fd5b5051610e695760405162461bcd60e51b815260040180806020018281038252602a8152602001806116c9602a913960400191505060405180910390fd5b6060610ff68484600085611000565b90505b9392505050565b6060824710156110415760405162461bcd60e51b81526004018080602001828103825260268152602001806116a36026913960400191505060405180910390fd5b61104a8561115b565b61109b576040805162461bcd60e51b815260206004820152601d60248201527f416464726573733a2063616c6c20746f206e6f6e2d636f6e7472616374000000604482015290519081900360640190fd5b600080866001600160a01b031685876040518082805190602001908083835b602083106110d95780518252601f1990920191602091820191016110ba565b6001836020036101000a03801982511681845116808217855250505050505090500191505060006040518083038185875af1925050503d806000811461113b576040519150601f19603f3d011682016040523d82523d6000602084013e611140565b606091505b5091509150611150828286611161565b979650505050505050565b3b151590565b60608315611170575081610ff9565b8251156111805782518084602001fd5b8160405162461bcd60e51b81526004018080602001828103825283818151815260200191508051906020019080838360005b838110156111ca5781810151838201526020016111b2565b50505050905090810190601f1680156111f75780820380516001836020036101000a031916815260200191505b509250505060405180910390fd5b60408051608081018252600080825260208201819052918101829052606081019190915290565b80356001600160801b03198116811461082657600080fd5b803562ffffff8116811461082657600080fd5b600060208284031215611268578081fd5b8135610ff98161168d565b600060208284031215611284578081fd5b8151610ff98161168d565b6000806000606084860312156112a3578182fd5b83356112ae8161168d565b92506020840135915060408401356112c58161168d565b809150509250925092565b6000602082840312156112e1578081fd5b610ff98261122c565b600080604083850312156112fc578182fd5b6113058361122c565b915060208301356113158161168d565b809150509250929050565b600080600080600080600060e0888a03121561133a578283fd5b6113438861122c565b965060208801356113538161168d565b955060408801356113638161168d565b945061137160608901611244565b935061137f60808901611244565b925060a088013561138f8161168d565b915060c088013563ffffffff811681146113a7578182fd5b8091505092959891949750929550565b6000806000606084860312156113cb578283fd5b6112ae8461122c565b6000602082840312156113e5578081fd5b5035919050565b6000602082840312156113fd578081fd5b5051919050565b6001600160a01b0391909116815260200190565b6001600160a01b03938416815291909216602082015262ffffff909116604082015260600190565b6001600160a01b03948516815262ffffff9390931660208401529216604082015263ffffffff909116606082015260800190565b6001600160a01b0393841681526020810192909252909116604082015260600190565b901515815260200190565b6001600160801b031991909116815260200190565b6001600160801b03199790971687526001600160a01b039586166020880152938516604087015262ffffff92831660608701529116608085015290911660a083015263ffffffff1660c082015260e00190565b6001600160801b03199590951685526001600160a01b03938416602086015262ffffff929092166040850152909116606083015263ffffffff16608082015260a00190565b60208082526006908201526505350574150360d41b604082015260600190565b6020808252600590820152645350574e4160d81b604082015260600190565b60208082526006908201526529a82ba8232960d11b604082015260600190565b60208082526005908201526429a82ba72960d91b604082015260600190565b6020808252600590820152645350574f4f60d81b604082015260600190565b6020808252600590820152645350574e5360d81b604082015260600190565b6020808252600590820152645350574c4160d81b604082015260600190565b602080825260059082015264535057534560d81b604082015260600190565b81516001600160a01b03908116825260208084015162ffffff16908301526040808401519091169082015260609182015163ffffffff169181019190915260800190565b6001600160a01b0381168114610c5557600080fdfe416464726573733a20696e73756666696369656e742062616c616e636520666f722063616c6c5361666545524332303a204552433230206f7065726174696f6e20646964206e6f742073756363656564a2646970667358221220643b0128105d0f5d9ad1abbc6af236cf52c6bf7943babcdfd9f40dcb2a59130d64736f6c63430007060033a2646970667358221220d9266f5a14699f80166acc24867442523d7b30cced8f19854b43c8fa01a4e85664736f6c63430007060033",
  "devdoc": {
    "events": {
      "StrategyProviderWalletCreated(address,address,address)": {
        "params": {
          "provider": "address of provider",
          "strategyProviderWallet": "address of StrategyProviderWallet"
        }
      }
    },
    "kind": "dev",
    "methods": {
      "getStrategyProviderWallets(uint256,uint256)": {
        "params": {
          "cursor": "is the aforementioned cursor. It simply indicates the starting index for enumeration. The first call should pass 0, and subsequent calls should pass the returned newCursor.",
          "howMany": "indicates how many items should be returned. If there arent enough remaining items in the array, the function will return fewer items."
        },
        "returns": {
          "newCursor": "uint256 return the new cursor",
          "wallets": "address[] return array of StrategyProviderWallet addresses"
        }
      },
      "getStrategyProviderWalletsLength()": {
        "returns": {
          "_0": "uint256 length of the strategy provider wallet array"
        }
      }
    },
    "version": 1
  },
  "userdoc": {
    "events": {
      "StrategyProviderWalletCreated(address,address,address)": {
        "notice": "emitted when a new strategy provider wallet is created"
      }
    },
    "kind": "user",
    "methods": {
      "getStrategyProviderWallets(uint256,uint256)": {
        "notice": "get the array of strategy provider wallet addresses"
      },
      "getStrategyProviderWalletsLength()": {
        "notice": "get the length of the strategy provider wallet array"
      }
    },
    "version": 1
  },
  "storageLayout": {
    "storage": [
      {
        "astId": 8333,
        "contract": "contracts/StrategyProviderWalletFactory.sol:StrategyProviderWalletFactory",
        "label": "providerToWallet",
        "offset": 0,
        "slot": "0",
        "type": "t_mapping(t_address,t_address)"
      },
      {
        "astId": 8337,
        "contract": "contracts/StrategyProviderWalletFactory.sol:StrategyProviderWalletFactory",
        "label": "isIncreatorWhitelist",
        "offset": 0,
        "slot": "1",
        "type": "t_mapping(t_address,t_bool)"
      },
      {
        "astId": 8340,
        "contract": "contracts/StrategyProviderWalletFactory.sol:StrategyProviderWalletFactory",
        "label": "strategyProviderWallets",
        "offset": 0,
        "slot": "2",
        "type": "t_array(t_address)dyn_storage"
      },
      {
        "astId": 8343,
        "contract": "contracts/StrategyProviderWalletFactory.sol:StrategyProviderWalletFactory",
        "label": "creatorWhitelist",
        "offset": 0,
        "slot": "3",
        "type": "t_array(t_address)dyn_storage"
      }
    ],
    "types": {
      "t_address": {
        "encoding": "inplace",
        "label": "address",
        "numberOfBytes": "20"
      },
      "t_array(t_address)dyn_storage": {
        "base": "t_address",
        "encoding": "dynamic_array",
        "label": "address[]",
        "numberOfBytes": "32"
      },
      "t_bool": {
        "encoding": "inplace",
        "label": "bool",
        "numberOfBytes": "1"
      },
      "t_mapping(t_address,t_address)": {
        "encoding": "mapping",
        "key": "t_address",
        "label": "mapping(address => address)",
        "numberOfBytes": "32",
        "value": "t_address"
      },
      "t_mapping(t_address,t_bool)": {
        "encoding": "mapping",
        "key": "t_address",
        "label": "mapping(address => bool)",
        "numberOfBytes": "32",
        "value": "t_bool"
      }
    }
  }
}