{
  "address": "0xE5EE926C7729f3619D42E691B708F03f8Ec1fD17",
  "abi": [
    {
      "anonymous": false,
      "inputs": [
        {
          "indexed": true,
          "internalType": "address",
          "name": "positionManager",
          "type": "address"
        },
        {
          "indexed": false,
          "internalType": "uint256",
          "name": "tokenId",
          "type": "uint256"
        },
        {
          "indexed": false,
          "internalType": "address",
          "name": "tokenIn",
          "type": "address"
        },
        {
          "indexed": false,
          "internalType": "uint256",
          "name": "amountIn",
          "type": "uint256"
        },
        {
          "indexed": false,
          "internalType": "uint256",
          "name": "amount0Deposited",
          "type": "uint256"
        },
        {
          "indexed": false,
          "internalType": "uint256",
          "name": "amount1Deposited",
          "type": "uint256"
        },
        {
          "indexed": false,
          "internalType": "uint256",
          "name": "amount0Leftover",
          "type": "uint256"
        },
        {
          "indexed": false,
          "internalType": "uint256",
          "name": "amount1Leftover",
          "type": "uint256"
        }
      ],
      "name": "ZappedIn",
      "type": "event"
    },
    {
      "inputs": [
        {
          "components": [
            {
              "internalType": "address",
              "name": "token0",
              "type": "address"
            },
            {
              "internalType": "address",
              "name": "token1",
              "type": "address"
            },
            {
              "internalType": "bool",
              "name": "isToken0In",
              "type": "bool"
            },
            {
              "internalType": "uint256",
              "name": "amountIn",
              "type": "uint256"
            },
            {
              "internalType": "int24",
              "name": "tickLower",
              "type": "int24"
            },
            {
              "internalType": "int24",
              "name": "tickUpper",
              "type": "int24"
            },
            {
              "internalType": "uint24",
              "name": "fee",
              "type": "uint24"
            }
          ],
          "internalType": "struct IZapIn.ZapInInput",
          "name": "inputs",
          "type": "tuple"
        }
      ],
      "name": "zapIn",
      "outputs": [
        {
          "components": [
            {
              "internalType": "uint256",
              "name": "tokenId",
              "type": "uint256"
            },
            {
              "internalType": "uint256",
              "name": "amount0Deposited",
              "type": "uint256"
            },
            {
              "internalType": "uint256",
              "name": "amount1Deposited",
              "type": "uint256"
            },
            {
              "internalType": "uint256",
              "name": "amount0Leftover",
              "type": "uint256"
            },
            {
              "internalType": "uint256",
              "name": "amount1Leftover",
              "type": "uint256"
            }
          ],
          "internalType": "struct IZapIn.ZapInOutput",
          "name": "outputs",
          "type": "tuple"
        }
      ],
      "stateMutability": "nonpayable",
      "type": "function"
    }
  ],
  "transactionHash": "0xe9086a602e518576305825faba9852965c9f8161f7e25907b3024da43c511808",
  "args": [],
  "numDeployments": 1,
  "solcInputHash": "08f28bc02234e5e762609eefb667e33a",
  "bytecode": "0x608060405234801561001057600080fd5b506127f7806100206000396000f3fe608060405234801561001057600080fd5b506004361061002b5760003560e01c806323dddda614610030575b600080fd5b61004361003e3660046122cf565b610059565b604051610050919061267b565b60405180910390f35b610061611ff5565b600061006b610510565b905060008160050160009054906101000a90046001600160a01b03166001600160a01b03166386dd37f36040518163ffffffff1660e01b815260040160006040518083038186803b1580156100bf57600080fd5b505afa1580156100d3573d6000803e3d6000fd5b505050506040513d6000823e601f3d908101601f191682016040526100fb91908101906121e2565b90506000806101bd8460030160009054906101000a90046001600160a01b03166001600160a01b03166380f5db8c6040518163ffffffff1660e01b815260040160206040518083038186803b15801561015357600080fd5b505afa158015610167573d6000803e3d6000fd5b505050506040513d601f19601f8201168201806040525081019061018b91906120fe565b61019860208901896120e2565b6101a860408a0160208b016120e2565b6101b860e08b0160c08c01612396565b610534565b9050600061026f8560030160009054906101000a90046001600160a01b03166001600160a01b03166380f5db8c6040518163ffffffff1660e01b815260040160206040518083038186803b15801561021457600080fd5b505afa158015610228573d6000803e3d6000fd5b505050506040513d601f19601f8201168201806040525081019061024c91906120fe565b61025960208a018a6120e2565b61026960408b0160208c016120e2565b87610553565b90506102ed61027d83610728565b61028d60a08a0160808b01612297565b61029d60c08b0160a08c01612297565b6102a685610728565b6102b660608d0160408e0161227b565b6102c15760006102c7565b8b606001355b6102d760608e0160408f0161227b565b6102e5578c606001356102e8565b60005b6107a8565b5080935050505060008060006103a78660030160009054906101000a90046001600160a01b03166001600160a01b03166380f5db8c6040518163ffffffff1660e01b815260040160206040518083038186803b15801561034c57600080fd5b505afa158015610360573d6000803e3d6000fd5b505050506040513d601f19601f8201168201806040525081019061038491906120fe565b61039160208b018b6120e2565b6103a160408c0160208d016120e2565b88610553565b90506103e4816103ba60208b018b6120e2565b6103ca60408c0160208d016120e2565b60608c018035906103de9060408f0161227b565b896108e2565b909350915061044290506103fb60208901896120e2565b61040b60408a0160208b016120e2565b61041b60e08b0160c08c01612396565b61042b60a08c0160808d01612297565b61043b60c08d0160a08e01612297565b8787610ce0565b60408901526020880181905290875261045c908390610e8f565b60608701526040860151610471908290610e8f565b6080870152855130907f6004142abdce9cab57df8b45ac0be8a51b6903891009024d7e73f1be62b1f1bd906104ac60608b0160408c0161227b565b6104c5576104c060408b0160208c016120e2565b6104d2565b6104d260208b018b6120e2565b8a606001358a602001518b604001518c606001518d608001516040516104fe97969594939291906126b5565b60405180910390a25050505050919050565b7fd5aa5c52d76b5d2be1bece4b96c91e533fe2611adb0c19cf868dadf921fc13b890565b600061054a85610545868686610ef1565b610f53565b95945050505050565b60008060006105628686611037565b9197509550905060005b84518110156106ee5784818151811061058157fe5b602002602001015162ffffff166000141561059b576106e6565b6000886001600160a01b0316631698ee8289898986815181106105ba57fe5b60200260200101516040518463ffffffff1660e01b81526004016105e09392919061247c565b60206040518083038186803b1580156105f857600080fd5b505afa15801561060c573d6000803e3d6000fd5b505050506040513d601f19601f8201168201806040525081019061063091906120fe565b90506001600160a01b03811661064657506106e6565b6000816001600160a01b0316631a6865026040518163ffffffff1660e01b815260040160206040518083038186803b15801561068157600080fd5b505afa158015610695573d6000803e3d6000fd5b505050506040513d601f19601f820116820180604052508101906106b991906122e6565b9050846001600160801b0316816001600160801b0316116106db5785856106de565b81815b909650945050505b60010161056c565b506001600160a01b03831661071e5760405162461bcd60e51b8152600401610715906124ee565b60405180910390fd5b5050949350505050565b6000816001600160a01b0316633850c7bd6040518163ffffffff1660e01b815260040160e06040518083038186803b15801561076357600080fd5b505afa158015610777573d6000803e3d6000fd5b505050506040513d601f19601f8201168201806040525081019061079b9190612300565b5094979650505050505050565b600080831515806107b857508215155b6107d45760405162461bcd60e51b81526004016107159061252a565b60006107df88611075565b905060006107ec88611075565b9050806001600160a01b03168a6001600160a01b03161061081357859350600192506108d5565b816001600160a01b03168a6001600160a01b03161161083857849350600092506108d5565b60006108458b84846113a7565b90506000610872606088811b9061086c908b9060026001600160a01b038f160a901c611420565b90611479565b9050600061089961089260026001600160a01b038d160a60601c85611479565b83906114d3565b9050888110955085156108b7576108b08982610e8f565b96506108d1565b6108ce60606108c68386611420565b8a911c610e8f565b96505b5050505b5050965096945050505050565b60008060006108ef610510565b905060008415610ca457610a128a8360050160009054906101000a90046001600160a01b03166001600160a01b031663e7c7cb916040518163ffffffff1660e01b815260040160206040518083038186803b15801561094d57600080fd5b505afa158015610961573d6000803e3d6000fd5b505050506040513d601f19601f8201168201806040525081019061098591906122b3565b8460050160009054906101000a90046001600160a01b03166001600160a01b03166326d895456040518163ffffffff1660e01b815260040160206040518083038186803b1580156109d557600080fd5b505afa1580156109e9573d6000803e3d6000fd5b505050506040513d601f19601f82011682018060405250810190610a0d9190612421565b61153a565b610ab086610a205788610a22565b895b8360030160009054906101000a90046001600160a01b03166001600160a01b03166390fcdb366040518163ffffffff1660e01b815260040160206040518083038186803b158015610a7257600080fd5b505afa158015610a86573d6000803e3d6000fd5b505050506040513d601f19601f82011682018060405250810190610aaa91906120fe565b87611634565b8160030160009054906101000a90046001600160a01b03166001600160a01b03166390fcdb366040518163ffffffff1660e01b815260040160206040518083038186803b158015610b0057600080fd5b505afa158015610b14573d6000803e3d6000fd5b505050506040513d601f19601f82011682018060405250810190610b3891906120fe565b6001600160a01b031663414bf38960405180610100016040528089610b5d578b610b5f565b8c5b6001600160a01b0316815260200189610b78578c610b7a565b8b5b6001600160a01b031681526020018d6001600160a01b031663ddca3f436040518163ffffffff1660e01b815260040160206040518083038186803b158015610bc157600080fd5b505afa158015610bd5573d6000803e3d6000fd5b505050506040513d601f19601f82011682018060405250810190610bf991906123b2565b62ffffff168152602001306001600160a01b031681526020014281526020018881526020016000815260200160006001600160a01b03168152506040518263ffffffff1660e01b8152600401610c4f9190612564565b602060405180830381600087803b158015610c6957600080fd5b505af1158015610c7d573d6000803e3d6000fd5b505050506040513d601f19601f82011682018060405250810190610ca191906123ce565b90505b85610caf5780610cb9565b610cb98786610e8f565b935085610ccf57610cca8786610e8f565b610cd1565b805b92505050965096945050505050565b600080600080610cee610510565b905060008160030160009054906101000a90046001600160a01b03166001600160a01b0316635bfccac96040518163ffffffff1660e01b815260040160206040518083038186803b158015610d4257600080fd5b505afa158015610d56573d6000803e3d6000fd5b505050506040513d601f19601f82011682018060405250810190610d7a91906120fe565b9050610d878c8289611634565b610d928b8288611634565b60408051610160810182526001600160a01b03808f1682528d8116602083015262ffffff8d168284015260028c810b60608401528b900b608083015260a082018a905260c08201899052600060e0830181905261010083015230610120830152426101408301529151634418b22b60e11b81529091831690638831645690610e1e9084906004016125cd565b608060405180830381600087803b158015610e3857600080fd5b505af1158015610e4c573d6000803e3d6000fd5b505050506040513d601f19601f82011682018060405250810190610e7091906123e6565b9091508096508197508298505050505050509750975097945050505050565b600082821115610ee6576040805162461bcd60e51b815260206004820152601e60248201527f536166654d6174683a207375627472616374696f6e206f766572666c6f770000604482015290519081900360640190fd5b508082035b92915050565b610ef9612024565b826001600160a01b0316846001600160a01b03161115610f17579192915b6040518060600160405280856001600160a01b03168152602001846001600160a01b031681526020018362ffffff1681525090505b9392505050565b600081602001516001600160a01b031682600001516001600160a01b031610610f7b57600080fd5b50805160208083015160409384015184516001600160a01b0394851681850152939091168385015262ffffff166060808401919091528351808403820181526080840185528051908301206001600160f81b031960a085015294901b6bffffffffffffffffffffffff191660a183015260b58201939093527fe34f199b19b2b4f47f68442619d555527d244f78a3297ea89325f843f87b8b5460d5808301919091528251808303909101815260f5909101909152805191012090565b6000806000836001600160a01b0316856001600160a01b031611156110645750829150839050600161106e565b5083915082905060005b9250925092565b60008060008360020b1261108c578260020b611094565b8260020b6000035b9050620d89e88111156110d2576040805162461bcd60e51b81526020600482015260016024820152601560fa1b604482015290519081900360640190fd5b6000600182166110e657600160801b6110f8565b6ffffcb933bd6fad37aa2d162d1a5940015b70ffffffffffffffffffffffffffffffffff169050600282161561112c576ffff97272373d413259a46990580e213a0260801c5b600482161561114b576ffff2e50f5f656932ef12357cf3c7fdcc0260801c5b600882161561116a576fffe5caca7e10e4e61c3624eaa0941cd00260801c5b6010821615611189576fffcb9843d60f6159c9db58835c9266440260801c5b60208216156111a8576fff973b41fa98c081472e6896dfb254c00260801c5b60408216156111c7576fff2ea16466c96a3843ec78b326b528610260801c5b60808216156111e6576ffe5dee046a99a2a811c461f1969c30530260801c5b610100821615611206576ffcbe86c7900a88aedcffc83b479aa3a40260801c5b610200821615611226576ff987a7253ac413176f2b074cf7815e540260801c5b610400821615611246576ff3392b0822b70005940c7a398e4b70f30260801c5b610800821615611266576fe7159475a2c29b7443b29c7fa6e889d90260801c5b611000821615611286576fd097f3bdfd2022b8845ad8f792aa58250260801c5b6120008216156112a6576fa9f746462d870fdf8a65dc1f90e061e50260801c5b6140008216156112c6576f70d869a156d2a1b890bb3df62baf32f70260801c5b6180008216156112e6576f31be135f97d08fd981231505542fcfa60260801c5b62010000821615611307576f09aa508b5b7a84e1c677de54f3e99bc90260801c5b62020000821615611327576e5d6af8dedb81196699c329225ee6040260801c5b62040000821615611346576d2216e584f5fa1ea926041bedfe980260801c5b62080000821615611363576b048a170391f7dc42444e8fa20260801c5b60008460020b131561137e57806000198161137a57fe5b0490505b640100000000810615611392576001611395565b60005b60ff16602082901c0192505050919050565b6000836001600160a01b0316836001600160a01b03161080156113db5750836001600160a01b0316826001600160a01b0316115b6113f75760405162461bcd60e51b81526004016107159061250d565b60006114088584600160601b6116e0565b905061141685858584611743565b9695505050505050565b60008261142f57506000610eeb565b8282028284828161143c57fe5b0414610f4c5760405162461bcd60e51b81526004018080602001828103825260218152602001806127776021913960400191505060405180910390fd5b600082820183811015610f4c576040805162461bcd60e51b815260206004820152601b60248201527f536166654d6174683a206164646974696f6e206f766572666c6f770000000000604482015290519081900360640190fd5b6000808211611529576040805162461bcd60e51b815260206004820152601a60248201527f536166654d6174683a206469766973696f6e206279207a65726f000000000000604482015290519081900360640190fd5b81838161153257fe5b049392505050565b63ffffffff811661154a5761162f565b6000836001600160a01b0316633850c7bd6040518163ffffffff1660e01b815260040160e06040518083038186803b15801561158557600080fd5b505afa158015611599573d6000803e3d6000fd5b505050506040513d601f19601f820116820180604052508101906115bd9190612300565b505050505091505060006115d185846117df565b905060008160020b8360020b136115f5576115f0600283900b8461192f565b611603565b611603600284900b8361192f565b90508460020b8160020b131561162b5760405162461bcd60e51b815260040161071590612547565b5050505b505050565b604051636eb1769f60e11b81526000906001600160a01b0385169063dd62ed3e906116659030908790600401612462565b60206040518083038186803b15801561167d57600080fd5b505afa158015611691573d6000803e3d6000fd5b505050506040513d601f19601f820116820180604052508101906116b591906123ce565b90508181106116c4575061162f565b6116da6001600160a01b038516848385036119a3565b50505050565b6000826001600160a01b0316846001600160a01b03161115611700579192915b6000611723856001600160a01b0316856001600160a01b0316600160601b611a8e565b905061054a61173e84838888036001600160a01b0316611a8e565b611b3d565b600080836001600160a01b0316856001600160a01b03161115611764579293925b846001600160a01b0316866001600160a01b03161161178f57611788858585611b58565b91506117d6565b836001600160a01b0316866001600160a01b031610156117c8576117b4868585611b58565b91506117c1858785611bc1565b90506117d6565b6117d3858585611bc1565b90505b94509492505050565b60408051600280825260608201835260009283929190602083019080368337019050509050828160008151811061181257fe5b602002602001019063ffffffff16908163ffffffff168152505060008160018151811061183b57fe5b63ffffffff9092166020928302919091019091015260405163883bdbfd60e01b81526000906001600160a01b0386169063883bdbfd9061187f9085906004016124a4565b60006040518083038186803b15801561189757600080fd5b505afa1580156118ab573d6000803e3d6000fd5b505050506040513d6000823e601f3d908101601f191682016040526118d3919081019061211a565b50905061054a61192a8563ffffffff16611921846000815181106118f357fe5b60200260200101518560018151811061190857fe5b602002602001015160060b611c0c90919063ffffffff16565b60060b90611c80565b611d32565b6000818303600283900b821380159061194e57508360020b8160020b13155b8061196c575060008360020b12801561196c57508360020b8160020b135b610f4c576040805162461bcd60e51b815260206004820152600360248201526214d34d60ea1b604482015290519081900360640190fd5b6000611a3982856001600160a01b031663dd62ed3e30876040518363ffffffff1660e01b815260040180836001600160a01b03168152602001826001600160a01b031681526020019250505060206040518083038186803b158015611a0757600080fd5b505afa158015611a1b573d6000803e3d6000fd5b505050506040513d6020811015611a3157600080fd5b505190611479565b604080516001600160a01b038616602482015260448082018490528251808303909101815260649091019091526020810180516001600160e01b031663095ea7b360e01b1790529091506116da908590611d75565b6000808060001985870986860292508281109083900303905080611ac45760008411611ab957600080fd5b508290049050610f4c565b808411611ad057600080fd5b6000848688096000868103871696879004966002600389028118808a02820302808a02820302808a02820302808a02820302808a02820302808a02909103029181900381900460010186841190950394909402919094039290920491909117919091029150509392505050565b806001600160801b0381168114611b5357600080fd5b919050565b6000826001600160a01b0316846001600160a01b03161115611b78579192915b836001600160a01b0316611bb1606060ff16846001600160801b0316901b8686036001600160a01b0316866001600160a01b0316611a8e565b81611bb857fe5b04949350505050565b6000826001600160a01b0316846001600160a01b03161115611be1579192915b611c04826001600160801b03168585036001600160a01b0316600160601b611a8e565b949350505050565b6000818303600683900b8213801590611c2b57508360060b8160060b13155b80611c49575060008360060b128015611c4957508360060b8160060b135b610f4c576040805162461bcd60e51b81526020600482015260036024820152620a69a760eb1b604482015290519081900360640190fd5b60008160060b60001415611cc1576040805162461bcd60e51b815260206004820152600360248201526229a69b60e91b604482015290519081900360640190fd5b8160060b600019148015611ce05750600683900b667fffffffffffff19145b15611d18576040805162461bcd60e51b8152602060048201526003602482015262534d3760e81b604482015290519081900360640190fd5b60008260060b8460060b81611d2957fe5b05949350505050565b80600281900b600682900b14611b53576040805162461bcd60e51b81526020600482015260036024820152624d483560e81b604482015290519081900360640190fd5b6000611dca826040518060400160405280602081526020017f5361666545524332303a206c6f772d6c6576656c2063616c6c206661696c6564815250856001600160a01b0316611e269092919063ffffffff16565b80519091501561162f57808060200190516020811015611de957600080fd5b505161162f5760405162461bcd60e51b815260040180806020018281038252602a815260200180612798602a913960400191505060405180910390fd5b6060611c04848460008585611e3a85611f4b565b611e8b576040805162461bcd60e51b815260206004820152601d60248201527f416464726573733a2063616c6c20746f206e6f6e2d636f6e7472616374000000604482015290519081900360640190fd5b600080866001600160a01b031685876040518082805190602001908083835b60208310611ec95780518252601f199092019160209182019101611eaa565b6001836020036101000a03801982511681845116808217855250505050505090500191505060006040518083038185875af1925050503d8060008114611f2b576040519150601f19603f3d011682016040523d82523d6000602084013e611f30565b606091505b5091509150611f40828286611f51565b979650505050505050565b3b151590565b60608315611f60575081610f4c565b825115611f705782518084602001fd5b8160405162461bcd60e51b81526004018080602001828103825283818151815260200191508051906020019080838360005b83811015611fba578181015183820152602001611fa2565b50505050905090810190601f168015611fe75780820380516001836020036101000a031916815260200191505b509250505060405180910390fd5b6040518060a0016040528060008152602001600081526020016000815260200160008152602001600081525090565b604080516060810182526000808252602082018190529181019190915290565b600082601f830112612054578081fd5b8151602061206961206483612712565b6126ee565b8281528181019085830183850287018401881015612085578586fd5b855b858110156120ac57815161209a81612730565b84529284019290840190600101612087565b5090979650505050505050565b80516001600160801b0381168114611b5357600080fd5b805161ffff81168114611b5357600080fd5b6000602082840312156120f3578081fd5b8135610f4c81612730565b60006020828403121561210f578081fd5b8151610f4c81612730565b6000806040838503121561212c578081fd5b825167ffffffffffffffff80821115612143578283fd5b818501915085601f830112612156578283fd5b8151602061216661206483612712565b82815281810190858301838502870184018b1015612182578788fd5b8796505b848710156121b25780518060060b811461219e578889fd5b835260019690960195918301918301612186565b50918801519196509093505050808211156121cb578283fd5b506121d885828601612044565b9150509250929050565b600060208083850312156121f4578182fd5b825167ffffffffffffffff81111561220a578283fd5b8301601f8101851361221a578283fd5b805161222861206482612712565b8181528381019083850185840285018601891015612244578687fd5b8694505b8385101561226f57805161225b81612765565b835260019490940193918501918501612248565b50979650505050505050565b60006020828403121561228c578081fd5b8135610f4c81612748565b6000602082840312156122a8578081fd5b8135610f4c81612756565b6000602082840312156122c4578081fd5b8151610f4c81612756565b600060e082840312156122e0578081fd5b50919050565b6000602082840312156122f7578081fd5b610f4c826120b9565b600080600080600080600060e0888a03121561231a578283fd5b875161232581612730565b602089015190975061233681612756565b9550612344604089016120d0565b9450612352606089016120d0565b9350612360608089016120d0565b925060a088015160ff81168114612375578283fd5b60c089015190925061238681612748565b8091505092959891949750929550565b6000602082840312156123a7578081fd5b8135610f4c81612765565b6000602082840312156123c3578081fd5b8151610f4c81612765565b6000602082840312156123df578081fd5b5051919050565b600080600080608085870312156123fb578182fd5b8451935061240b602086016120b9565b6040860151606090960151949790965092505050565b600060208284031215612432578081fd5b815163ffffffff81168114610f4c578182fd5b6001600160a01b03169052565b60020b9052565b62ffffff169052565b6001600160a01b0392831681529116602082015260400190565b6001600160a01b03938416815291909216602082015262ffffff909116604082015260600190565b6020808252825182820181905260009190848201906040850190845b818110156124e257835163ffffffff16835292840192918401916001016124c0565b50909695505050505050565b602080825260059082015264055484450360dc1b604082015260600190565b60208082526003908201526229a42960e91b604082015260600190565b60208082526003908201526253484160e81b604082015260600190565b60208082526003908201526214d21160ea1b604082015260600190565b81516001600160a01b03908116825260208084015182169083015260408084015162ffffff16908301526060808401518216908301526080808401519083015260a0838101519083015260c0808401519083015260e09283015116918101919091526101000190565b6000610160820190506125e1828451612445565b60208301516125f36020840182612445565b5060408301516126066040840182612459565b5060608301516126196060840182612452565b50608083015161262c6080840182612452565b5060a083015160a083015260c083015160c083015260e083015160e08301526101008084015181840152506101208084015161266a82850182612445565b505061014092830151919092015290565b600060a082019050825182526020830151602083015260408301516040830152606083015160608301526080830151608083015292915050565b9687526001600160a01b0395909516602087015260408601939093526060850191909152608084015260a083015260c082015260e00190565b60405181810167ffffffffffffffff8111828210171561270a57fe5b604052919050565b600067ffffffffffffffff82111561272657fe5b5060209081020190565b6001600160a01b038116811461274557600080fd5b50565b801515811461274557600080fd5b8060020b811461274557600080fd5b62ffffff8116811461274557600080fdfe536166654d6174683a206d756c7469706c69636174696f6e206f766572666c6f775361666545524332303a204552433230206f7065726174696f6e20646964206e6f742073756363656564a2646970667358221220869a5aff1eaa9c20500b16ee1942d74222d1f1752d1834eaf32f8b3178096e2764736f6c63430007060033",
  "devdoc": {
    "events": {
      "ZappedIn(address,uint256,address,uint256,uint256,uint256,uint256,uint256)": {
        "params": {
          "amount0Deposited": "token0 amount deposited",
          "amount0Leftover": "token0 amount leftover",
          "amount1Deposited": "token1 amount deposited",
          "amount1Leftover": "token1 amount leftover",
          "amountIn": "amount of tokenIn zapped in",
          "positionManager": "address of PositionManager",
          "tokenId": "Id of zapped token",
          "tokenIn": "address of token zapped in"
        }
      }
    },
    "kind": "dev",
    "methods": {
      "zapIn((address,address,bool,uint256,int24,int24,uint24))": {
        "params": {
          "inputs": "struct of ZapInInput parameters"
        },
        "returns": {
          "outputs": "struct of ZapInOutput parameters"
        }
      }
    },
    "version": 1
  },
  "userdoc": {
    "events": {
      "ZappedIn(address,uint256,address,uint256,uint256,uint256,uint256,uint256)": {
        "notice": "emitted when a UniswapNFT is zapped in"
      }
    },
    "kind": "user",
    "methods": {
      "zapIn((address,address,bool,uint256,int24,int24,uint24))": {
        "notice": "mints a uni NFT with a single input token, the token in input must be one of the two token in the pool"
      }
    },
    "version": 1
  },
  "storageLayout": {
    "storage": [],
    "types": null
  }
}