{
  "address": "0x5879b0940295Fa64488Aa0d1bd8886417E9bc0d8",
  "abi": [
    {
      "anonymous": false,
      "inputs": [
        {
          "indexed": true,
          "internalType": "address",
          "name": "positionManager",
          "type": "address"
        },
        {
          "indexed": false,
          "internalType": "uint256",
          "name": "tokenId",
          "type": "uint256"
        },
        {
          "indexed": false,
          "internalType": "address",
          "name": "tokenIn",
          "type": "address"
        },
        {
          "indexed": false,
          "internalType": "uint256",
          "name": "amountIn",
          "type": "uint256"
        },
        {
          "indexed": false,
          "internalType": "uint256",
          "name": "amount0Deposited",
          "type": "uint256"
        },
        {
          "indexed": false,
          "internalType": "uint256",
          "name": "amount1Deposited",
          "type": "uint256"
        },
        {
          "indexed": false,
          "internalType": "uint256",
          "name": "amount0Leftover",
          "type": "uint256"
        },
        {
          "indexed": false,
          "internalType": "uint256",
          "name": "amount1Leftover",
          "type": "uint256"
        }
      ],
      "name": "ZappedIn",
      "type": "event"
    },
    {
      "inputs": [
        {
          "components": [
            {
              "internalType": "address",
              "name": "token0",
              "type": "address"
            },
            {
              "internalType": "address",
              "name": "token1",
              "type": "address"
            },
            {
              "internalType": "bool",
              "name": "isToken0In",
              "type": "bool"
            },
            {
              "internalType": "uint256",
              "name": "amountIn",
              "type": "uint256"
            },
            {
              "internalType": "int24",
              "name": "tickLower",
              "type": "int24"
            },
            {
              "internalType": "int24",
              "name": "tickUpper",
              "type": "int24"
            },
            {
              "internalType": "uint24",
              "name": "fee",
              "type": "uint24"
            }
          ],
          "internalType": "struct IZapIn.ZapInInput",
          "name": "inputs",
          "type": "tuple"
        }
      ],
      "name": "zapIn",
      "outputs": [
        {
          "components": [
            {
              "internalType": "uint256",
              "name": "tokenId",
              "type": "uint256"
            },
            {
              "internalType": "uint256",
              "name": "amount0Deposited",
              "type": "uint256"
            },
            {
              "internalType": "uint256",
              "name": "amount1Deposited",
              "type": "uint256"
            },
            {
              "internalType": "uint256",
              "name": "amount0Leftover",
              "type": "uint256"
            },
            {
              "internalType": "uint256",
              "name": "amount1Leftover",
              "type": "uint256"
            }
          ],
          "internalType": "struct IZapIn.ZapInOutput",
          "name": "outputs",
          "type": "tuple"
        }
      ],
      "stateMutability": "nonpayable",
      "type": "function"
    }
  ],
  "transactionHash": "0xef928b5e50940147a3540dfffa42b0e8b05c051b943c9279cf1f89df5536c557",
  "args": [],
  "numDeployments": 2,
  "solcInputHash": "d6decf1baad82ada54f9f25242ad304c",
  "bytecode": "0x608060405234801561001057600080fd5b506128b3806100206000396000f3fe608060405234801561001057600080fd5b506004361061002b5760003560e01c806323dddda614610030575b600080fd5b61004361003e36600461233d565b610059565b6040516100509190612737565b60405180910390f35b610061612083565b600061006b610510565b905060008160050160009054906101000a90046001600160a01b03166001600160a01b03166386dd37f36040518163ffffffff1660e01b815260040160006040518083038186803b1580156100bf57600080fd5b505afa1580156100d3573d6000803e3d6000fd5b505050506040513d6000823e601f3d908101601f191682016040526100fb9190810190612250565b90506000806101bd8460030160009054906101000a90046001600160a01b03166001600160a01b03166380f5db8c6040518163ffffffff1660e01b815260040160206040518083038186803b15801561015357600080fd5b505afa158015610167573d6000803e3d6000fd5b505050506040513d601f19601f8201168201806040525081019061018b919061216c565b6101986020890189612150565b6101a860408a0160208b01612150565b6101b860e08b0160c08c01612404565b610534565b9050600061026f8560030160009054906101000a90046001600160a01b03166001600160a01b03166380f5db8c6040518163ffffffff1660e01b815260040160206040518083038186803b15801561021457600080fd5b505afa158015610228573d6000803e3d6000fd5b505050506040513d601f19601f8201168201806040525081019061024c919061216c565b61025960208a018a612150565b61026960408b0160208c01612150565b876105f1565b90506102ed61027d836107b9565b61028d60a08a0160808b01612305565b61029d60c08b0160a08c01612305565b6102a6856107b9565b6102b660608d0160408e016122e9565b6102c15760006102c7565b8b606001355b6102d760608e0160408f016122e9565b6102e5578c606001356102e8565b60005b610839565b5080935050505060008060006103a78660030160009054906101000a90046001600160a01b03166001600160a01b03166380f5db8c6040518163ffffffff1660e01b815260040160206040518083038186803b15801561034c57600080fd5b505afa158015610360573d6000803e3d6000fd5b505050506040513d601f19601f82011682018060405250810190610384919061216c565b61039160208b018b612150565b6103a160408c0160208d01612150565b886105f1565b90506103e4816103ba60208b018b612150565b6103ca60408c0160208d01612150565b60608c018035906103de9060408f016122e9565b89610973565b909350915061044290506103fb6020890189612150565b61040b60408a0160208b01612150565b61041b60e08b0160c08c01612404565b61042b60a08c0160808d01612305565b61043b60c08d0160a08e01612305565b8787610ead565b60408901526020880181905290875261045c90839061105c565b6060870152604086015161047190829061105c565b6080870152855130907f6004142abdce9cab57df8b45ac0be8a51b6903891009024d7e73f1be62b1f1bd906104ac60608b0160408c016122e9565b6104c5576104c060408b0160208c01612150565b6104d2565b6104d260208b018b612150565b8a606001358a602001518b604001518c606001518d608001516040516104fe9796959493929190612771565b60405180910390a25050505050919050565b7fd5aa5c52d76b5d2be1bece4b96c91e533fe2611adb0c19cf868dadf921fc13b890565b600080856001600160a01b0316631698ee828686866040518463ffffffff1660e01b8152600401610567939291906124fe565b60206040518083038186803b15801561057f57600080fd5b505afa158015610593573d6000803e3d6000fd5b505050506040513d601f19601f820116820180604052508101906105b7919061216c565b90506001600160a01b0381166105e85760405162461bcd60e51b81526004016105df906125ab565b60405180910390fd5b95945050505050565b6000806105fe85856110be565b50909550935060005b83518110156107895783818151811061061c57fe5b602002602001015162ffffff166000141561063657610781565b6000876001600160a01b0316631698ee82888888868151811061065557fe5b60200260200101516040518463ffffffff1660e01b815260040161067b939291906124fe565b60206040518083038186803b15801561069357600080fd5b505afa1580156106a7573d6000803e3d6000fd5b505050506040513d601f19601f820116820180604052508101906106cb919061216c565b90506001600160a01b0381166106e15750610781565b6000816001600160a01b0316631a6865026040518163ffffffff1660e01b815260040160206040518083038186803b15801561071c57600080fd5b505afa158015610730573d6000803e3d6000fd5b505050506040513d601f19601f820116820180604052508101906107549190612354565b9050836001600160801b0316816001600160801b031611610776578484610779565b81815b909550935050505b600101610607565b506001600160a01b0382166107b05760405162461bcd60e51b81526004016105df90612570565b50949350505050565b6000816001600160a01b0316633850c7bd6040518163ffffffff1660e01b815260040160e06040518083038186803b1580156107f457600080fd5b505afa158015610808573d6000803e3d6000fd5b505050506040513d601f19601f8201168201806040525081019061082c919061236e565b5094979650505050505050565b6000808315158061084957508215155b6108655760405162461bcd60e51b81526004016105df906125e6565b6000610870886110fc565b9050600061087d886110fc565b9050806001600160a01b03168a6001600160a01b0316106108a45785935060019250610966565b816001600160a01b03168a6001600160a01b0316116108c95784935060009250610966565b60006108d68b848461142e565b90506000610903606088811b906108fd908b9060026001600160a01b038f160a901c6114a7565b90611507565b9050600061092a61092360026001600160a01b038d160a60601c85611507565b8390611561565b90508881109550851561094857610941898261105c565b9650610962565b61095f606061095783866114a7565b8a911c61105c565b96505b5050505b5050965096945050505050565b6000806000610980610510565b905060008415610e7157610aa38a8360050160009054906101000a90046001600160a01b03166001600160a01b031663e7c7cb916040518163ffffffff1660e01b815260040160206040518083038186803b1580156109de57600080fd5b505afa1580156109f2573d6000803e3d6000fd5b505050506040513d601f19601f82011682018060405250810190610a169190612321565b8460050160009054906101000a90046001600160a01b03166001600160a01b03166326d895456040518163ffffffff1660e01b815260040160206040518083038186803b158015610a6657600080fd5b505afa158015610a7a573d6000803e3d6000fd5b505050506040513d601f19601f82011682018060405250810190610a9e919061248f565b6115c8565b610b4186610ab15788610ab3565b895b8360030160009054906101000a90046001600160a01b03166001600160a01b03166390fcdb366040518163ffffffff1660e01b815260040160206040518083038186803b158015610b0357600080fd5b505afa158015610b17573d6000803e3d6000fd5b505050506040513d601f19601f82011682018060405250810190610b3b919061216c565b876116c2565b600086610b4e5788610b50565b895b6001600160a01b03166370a08231306040518263ffffffff1660e01b8152600401610b7b91906124d0565b60206040518083038186803b158015610b9357600080fd5b505afa158015610ba7573d6000803e3d6000fd5b505050506040513d601f19601f82011682018060405250810190610bcb919061243c565b90508260030160009054906101000a90046001600160a01b03166001600160a01b03166390fcdb366040518163ffffffff1660e01b815260040160206040518083038186803b158015610c1d57600080fd5b505afa158015610c31573d6000803e3d6000fd5b505050506040513d601f19601f82011682018060405250810190610c55919061216c565b6001600160a01b031663414bf3896040518061010001604052808a610c7a578c610c7c565b8d5b6001600160a01b031681526020018a610c95578d610c97565b8c5b6001600160a01b031681526020018e6001600160a01b031663ddca3f436040518163ffffffff1660e01b815260040160206040518083038186803b158015610cde57600080fd5b505afa158015610cf2573d6000803e3d6000fd5b505050506040513d601f19601f82011682018060405250810190610d169190612420565b62ffffff168152602001306001600160a01b031681526020014281526020018981526020016000815260200160006001600160a01b03168152506040518263ffffffff1660e01b8152600401610d6c9190612620565b602060405180830381600087803b158015610d8657600080fd5b505af1158015610d9a573d6000803e3d6000fd5b505050506040513d601f19601f82011682018060405250810190610dbe919061243c565b915086610dcb5788610dcd565b895b6001600160a01b03166370a08231306040518263ffffffff1660e01b8152600401610df891906124d0565b60206040518083038186803b158015610e1057600080fd5b505afa158015610e24573d6000803e3d6000fd5b505050506040513d601f19601f82011682018060405250810190610e48919061243c565b610e52828861105c565b14610e6f5760405162461bcd60e51b81526004016105df9061258f565b505b85610e7c5780610e86565b610e86878661105c565b935085610e9c57610e97878661105c565b610e9e565b805b92505050965096945050505050565b600080600080610ebb610510565b905060008160030160009054906101000a90046001600160a01b03166001600160a01b0316635bfccac96040518163ffffffff1660e01b815260040160206040518083038186803b158015610f0f57600080fd5b505afa158015610f23573d6000803e3d6000fd5b505050506040513d601f19601f82011682018060405250810190610f47919061216c565b9050610f548c82896116c2565b610f5f8b82886116c2565b60408051610160810182526001600160a01b03808f1682528d8116602083015262ffffff8d168284015260028c810b60608401528b900b608083015260a082018a905260c08201899052600060e0830181905261010083015230610120830152426101408301529151634418b22b60e11b81529091831690638831645690610feb908490600401612689565b608060405180830381600087803b15801561100557600080fd5b505af1158015611019573d6000803e3d6000fd5b505050506040513d601f19601f8201168201806040525081019061103d9190612454565b9091508096508197508298505050505050509750975097945050505050565b6000828211156110b3576040805162461bcd60e51b815260206004820152601e60248201527f536166654d6174683a207375627472616374696f6e206f766572666c6f770000604482015290519081900360640190fd5b508082035b92915050565b6000806000836001600160a01b0316856001600160a01b031611156110eb575082915083905060016110f5565b5083915082905060005b9250925092565b60008060008360020b12611113578260020b61111b565b8260020b6000035b9050620d89e8811115611159576040805162461bcd60e51b81526020600482015260016024820152601560fa1b604482015290519081900360640190fd5b60006001821661116d57600160801b61117f565b6ffffcb933bd6fad37aa2d162d1a5940015b70ffffffffffffffffffffffffffffffffff16905060028216156111b3576ffff97272373d413259a46990580e213a0260801c5b60048216156111d2576ffff2e50f5f656932ef12357cf3c7fdcc0260801c5b60088216156111f1576fffe5caca7e10e4e61c3624eaa0941cd00260801c5b6010821615611210576fffcb9843d60f6159c9db58835c9266440260801c5b602082161561122f576fff973b41fa98c081472e6896dfb254c00260801c5b604082161561124e576fff2ea16466c96a3843ec78b326b528610260801c5b608082161561126d576ffe5dee046a99a2a811c461f1969c30530260801c5b61010082161561128d576ffcbe86c7900a88aedcffc83b479aa3a40260801c5b6102008216156112ad576ff987a7253ac413176f2b074cf7815e540260801c5b6104008216156112cd576ff3392b0822b70005940c7a398e4b70f30260801c5b6108008216156112ed576fe7159475a2c29b7443b29c7fa6e889d90260801c5b61100082161561130d576fd097f3bdfd2022b8845ad8f792aa58250260801c5b61200082161561132d576fa9f746462d870fdf8a65dc1f90e061e50260801c5b61400082161561134d576f70d869a156d2a1b890bb3df62baf32f70260801c5b61800082161561136d576f31be135f97d08fd981231505542fcfa60260801c5b6201000082161561138e576f09aa508b5b7a84e1c677de54f3e99bc90260801c5b620200008216156113ae576e5d6af8dedb81196699c329225ee6040260801c5b620400008216156113cd576d2216e584f5fa1ea926041bedfe980260801c5b620800008216156113ea576b048a170391f7dc42444e8fa20260801c5b60008460020b131561140557806000198161140157fe5b0490505b64010000000081061561141957600161141c565b60005b60ff16602082901c0192505050919050565b6000836001600160a01b0316836001600160a01b03161080156114625750836001600160a01b0316826001600160a01b0316115b61147e5760405162461bcd60e51b81526004016105df906125c9565b600061148f8584600160601b61176e565b905061149d858585846117d1565b9695505050505050565b6000826114b6575060006110b8565b828202828482816114c357fe5b04146115005760405162461bcd60e51b81526004018080602001828103825260218152602001806128336021913960400191505060405180910390fd5b9392505050565b600082820183811015611500576040805162461bcd60e51b815260206004820152601b60248201527f536166654d6174683a206164646974696f6e206f766572666c6f770000000000604482015290519081900360640190fd5b60008082116115b7576040805162461bcd60e51b815260206004820152601a60248201527f536166654d6174683a206469766973696f6e206279207a65726f000000000000604482015290519081900360640190fd5b8183816115c057fe5b049392505050565b63ffffffff81166115d8576116bd565b6000836001600160a01b0316633850c7bd6040518163ffffffff1660e01b815260040160e06040518083038186803b15801561161357600080fd5b505afa158015611627573d6000803e3d6000fd5b505050506040513d601f19601f8201168201806040525081019061164b919061236e565b5050505050915050600061165f858461186d565b905060008160020b8360020b136116835761167e600283900b846119bd565b611691565b611691600284900b836119bd565b90508460020b8160020b13156116b95760405162461bcd60e51b81526004016105df90612603565b5050505b505050565b604051636eb1769f60e11b81526000906001600160a01b0385169063dd62ed3e906116f390309087906004016124e4565b60206040518083038186803b15801561170b57600080fd5b505afa15801561171f573d6000803e3d6000fd5b505050506040513d601f19601f82011682018060405250810190611743919061243c565b905081811061175257506116bd565b6117686001600160a01b03851684838503611a31565b50505050565b6000826001600160a01b0316846001600160a01b0316111561178e579192915b60006117b1856001600160a01b0316856001600160a01b0316600160601b611b1c565b90506105e86117cc84838888036001600160a01b0316611b1c565b611bcb565b600080836001600160a01b0316856001600160a01b031611156117f2579293925b846001600160a01b0316866001600160a01b03161161181d57611816858585611be6565b9150611864565b836001600160a01b0316866001600160a01b0316101561185657611842868585611be6565b915061184f858785611c4f565b9050611864565b611861858585611c4f565b90505b94509492505050565b6040805160028082526060820183526000928392919060208301908036833701905050905082816000815181106118a057fe5b602002602001019063ffffffff16908163ffffffff16815250506000816001815181106118c957fe5b63ffffffff9092166020928302919091019091015260405163883bdbfd60e01b81526000906001600160a01b0386169063883bdbfd9061190d908590600401612526565b60006040518083038186803b15801561192557600080fd5b505afa158015611939573d6000803e3d6000fd5b505050506040513d6000823e601f3d908101601f191682016040526119619190810190612188565b5090506105e86119b88563ffffffff166119af8460008151811061198157fe5b60200260200101518560018151811061199657fe5b602002602001015160060b611c9a90919063ffffffff16565b60060b90611d0e565b611dc0565b6000818303600283900b82138015906119dc57508360020b8160020b13155b806119fa575060008360020b1280156119fa57508360020b8160020b135b611500576040805162461bcd60e51b815260206004820152600360248201526214d34d60ea1b604482015290519081900360640190fd5b6000611ac782856001600160a01b031663dd62ed3e30876040518363ffffffff1660e01b815260040180836001600160a01b03168152602001826001600160a01b031681526020019250505060206040518083038186803b158015611a9557600080fd5b505afa158015611aa9573d6000803e3d6000fd5b505050506040513d6020811015611abf57600080fd5b505190611507565b604080516001600160a01b038616602482015260448082018490528251808303909101815260649091019091526020810180516001600160e01b031663095ea7b360e01b179052909150611768908590611e03565b6000808060001985870986860292508281109083900303905080611b525760008411611b4757600080fd5b508290049050611500565b808411611b5e57600080fd5b6000848688096000868103871696879004966002600389028118808a02820302808a02820302808a02820302808a02820302808a02820302808a02909103029181900381900460010186841190950394909402919094039290920491909117919091029150509392505050565b806001600160801b0381168114611be157600080fd5b919050565b6000826001600160a01b0316846001600160a01b03161115611c06579192915b836001600160a01b0316611c3f606060ff16846001600160801b0316901b8686036001600160a01b0316866001600160a01b0316611b1c565b81611c4657fe5b04949350505050565b6000826001600160a01b0316846001600160a01b03161115611c6f579192915b611c92826001600160801b03168585036001600160a01b0316600160601b611b1c565b949350505050565b6000818303600683900b8213801590611cb957508360060b8160060b13155b80611cd7575060008360060b128015611cd757508360060b8160060b135b611500576040805162461bcd60e51b81526020600482015260036024820152620a69a760eb1b604482015290519081900360640190fd5b60008160060b60001415611d4f576040805162461bcd60e51b815260206004820152600360248201526229a69b60e91b604482015290519081900360640190fd5b8160060b600019148015611d6e5750600683900b667fffffffffffff19145b15611da6576040805162461bcd60e51b8152602060048201526003602482015262534d3760e81b604482015290519081900360640190fd5b60008260060b8460060b81611db757fe5b05949350505050565b80600281900b600682900b14611be1576040805162461bcd60e51b81526020600482015260036024820152624d483160e81b604482015290519081900360640190fd5b6000611e58826040518060400160405280602081526020017f5361666545524332303a206c6f772d6c6576656c2063616c6c206661696c6564815250856001600160a01b0316611eb49092919063ffffffff16565b8051909150156116bd57808060200190516020811015611e7757600080fd5b50516116bd5760405162461bcd60e51b815260040180806020018281038252602a815260200180612854602a913960400191505060405180910390fd5b6060611c92848460008585611ec885611fd9565b611f19576040805162461bcd60e51b815260206004820152601d60248201527f416464726573733a2063616c6c20746f206e6f6e2d636f6e7472616374000000604482015290519081900360640190fd5b600080866001600160a01b031685876040518082805190602001908083835b60208310611f575780518252601f199092019160209182019101611f38565b6001836020036101000a03801982511681845116808217855250505050505090500191505060006040518083038185875af1925050503d8060008114611fb9576040519150601f19603f3d011682016040523d82523d6000602084013e611fbe565b606091505b5091509150611fce828286611fdf565b979650505050505050565b3b151590565b60608315611fee575081611500565b825115611ffe5782518084602001fd5b8160405162461bcd60e51b81526004018080602001828103825283818151815260200191508051906020019080838360005b83811015612048578181015183820152602001612030565b50505050905090810190601f1680156120755780820380516001836020036101000a031916815260200191505b509250505060405180910390fd5b6040518060a0016040528060008152602001600081526020016000815260200160008152602001600081525090565b600082601f8301126120c2578081fd5b815160206120d76120d2836127ce565b6127aa565b82815281810190858301838502870184018810156120f3578586fd5b855b8581101561211a578151612108816127ec565b845292840192908401906001016120f5565b5090979650505050505050565b80516001600160801b0381168114611be157600080fd5b805161ffff81168114611be157600080fd5b600060208284031215612161578081fd5b8135611500816127ec565b60006020828403121561217d578081fd5b8151611500816127ec565b6000806040838503121561219a578081fd5b825167ffffffffffffffff808211156121b1578283fd5b818501915085601f8301126121c4578283fd5b815160206121d46120d2836127ce565b82815281810190858301838502870184018b10156121f0578788fd5b8796505b848710156122205780518060060b811461220c578889fd5b8352600196909601959183019183016121f4565b5091880151919650909350505080821115612239578283fd5b50612246858286016120b2565b9150509250929050565b60006020808385031215612262578182fd5b825167ffffffffffffffff811115612278578283fd5b8301601f81018513612288578283fd5b80516122966120d2826127ce565b81815283810190838501858402850186018910156122b2578687fd5b8694505b838510156122dd5780516122c981612821565b8352600194909401939185019185016122b6565b50979650505050505050565b6000602082840312156122fa578081fd5b813561150081612804565b600060208284031215612316578081fd5b813561150081612812565b600060208284031215612332578081fd5b815161150081612812565b600060e0828403121561234e578081fd5b50919050565b600060208284031215612365578081fd5b61150082612127565b600080600080600080600060e0888a031215612388578283fd5b8751612393816127ec565b60208901519097506123a481612812565b95506123b26040890161213e565b94506123c06060890161213e565b93506123ce6080890161213e565b925060a088015160ff811681146123e3578283fd5b60c08901519092506123f481612804565b8091505092959891949750929550565b600060208284031215612415578081fd5b813561150081612821565b600060208284031215612431578081fd5b815161150081612821565b60006020828403121561244d578081fd5b5051919050565b60008060008060808587031215612469578182fd5b8451935061247960208601612127565b6040860151606090960151949790965092505050565b6000602082840312156124a0578081fd5b815163ffffffff81168114611500578182fd5b6001600160a01b03169052565b60020b9052565b62ffffff169052565b6001600160a01b0391909116815260200190565b6001600160a01b0392831681529116602082015260400190565b6001600160a01b03938416815291909216602082015262ffffff909116604082015260600190565b6020808252825182820181905260009190848201906040850190845b8181101561256457835163ffffffff1683529284019291840191600101612542565b50909695505050505050565b602080825260059082015264055484450360dc1b604082015260600190565b60208082526002908201526114d360f21b604082015260600190565b6020808252600490820152630554850360e41b604082015260600190565b60208082526003908201526229a42960e91b604082015260600190565b60208082526003908201526253484160e81b604082015260600190565b60208082526003908201526214d21160ea1b604082015260600190565b81516001600160a01b03908116825260208084015182169083015260408084015162ffffff16908301526060808401518216908301526080808401519083015260a0838101519083015260c0808401519083015260e09283015116918101919091526101000190565b60006101608201905061269d8284516124b3565b60208301516126af60208401826124b3565b5060408301516126c260408401826124c7565b5060608301516126d560608401826124c0565b5060808301516126e860808401826124c0565b5060a083015160a083015260c083015160c083015260e083015160e083015261010080840151818401525061012080840151612726828501826124b3565b505061014092830151919092015290565b600060a082019050825182526020830151602083015260408301516040830152606083015160608301526080830151608083015292915050565b9687526001600160a01b0395909516602087015260408601939093526060850191909152608084015260a083015260c082015260e00190565b60405181810167ffffffffffffffff811182821017156127c657fe5b604052919050565b600067ffffffffffffffff8211156127e257fe5b5060209081020190565b6001600160a01b038116811461280157600080fd5b50565b801515811461280157600080fd5b8060020b811461280157600080fd5b62ffffff8116811461280157600080fdfe536166654d6174683a206d756c7469706c69636174696f6e206f766572666c6f775361666545524332303a204552433230206f7065726174696f6e20646964206e6f742073756363656564a2646970667358221220ba8e6d24a2309fa12ab1b1c5abc285b60da37d72bf2dcde91aa445a2818171ac64736f6c63430007060033",
  "devdoc": {
    "kind": "dev",
    "methods": {
      "zapIn((address,address,bool,uint256,int24,int24,uint24))": {
        "params": {
          "inputs": "struct of ZapInInput parameters"
        },
        "returns": {
          "outputs": "struct of ZapInOutput parameters"
        }
      }
    },
    "version": 1
  },
  "userdoc": {
    "events": {
      "ZappedIn(address,uint256,address,uint256,uint256,uint256,uint256,uint256)": {
        "notice": "emitted when a UniswapNFT is zapped in"
      }
    },
    "kind": "user",
    "methods": {
      "zapIn((address,address,bool,uint256,int24,int24,uint24))": {
        "notice": "mints a uni NFT with a single input token, the token in input must be one of the two token in the pool"
      }
    },
    "version": 1
  },
  "storageLayout": {
    "storage": [],
    "types": null
  }
}